{
    "contractName": "ThePoolz",
    "abi": [
        {
            "constant": true,
            "inputs": [
                {
                    "name": "_id",
                    "type": "uint256"
                }
            ],
            "name": "GetPoolStatus",
            "outputs": [
                {
                    "name": "",
                    "type": "uint8"
                }
            ],
            "payable": false,
            "stateMutability": "view",
            "type": "function"
        },
        {
            "constant": false,
            "inputs": [
                {
                    "name": "_Token",
                    "type": "address"
                },
                {
                    "name": "_FinishTime",
                    "type": "uint256"
                },
                {
                    "name": "_Rate",
                    "type": "uint256"
                },
                {
                    "name": "_PaymentIsETH",
                    "type": "bool"
                },
                {
                    "name": "_StartAmount",
                    "type": "uint256"
                },
                {
                    "name": "_IsLocked",
                    "type": "bool"
                }
            ],
            "name": "CreatePool",
            "outputs": [],
            "payable": false,
            "stateMutability": "nonpayable",
            "type": "function"
        },
        {
            "constant": true,
            "inputs": [],
            "name": "MinDuration",
            "outputs": [
                {
                    "name": "",
                    "type": "uint256"
                }
            ],
            "payable": false,
            "stateMutability": "view",
            "type": "function"
        },
        {
            "constant": true,
            "inputs": [],
            "name": "POZ_Address",
            "outputs": [
                {
                    "name": "",
                    "type": "address"
                }
            ],
            "payable": false,
            "stateMutability": "view",
            "type": "function"
        },
        {
            "constant": true,
            "inputs": [],
            "name": "PozFee",
            "outputs": [
                {
                    "name": "",
                    "type": "uint256"
                }
            ],
            "payable": false,
            "stateMutability": "view",
            "type": "function"
        },
        {
            "constant": true,
            "inputs": [
                {
                    "name": "",
                    "type": "address"
                },
                {
                    "name": "",
                    "type": "uint256"
                }
            ],
            "name": "poolsMap",
            "outputs": [
                {
                    "name": "",
                    "type": "uint256"
                }
            ],
            "payable": false,
            "stateMutability": "view",
            "type": "function"
        },
        {
            "constant": true,
            "inputs": [],
            "name": "GetMyPoolsId",
            "outputs": [
                {
                    "name": "",
                    "type": "uint256[]"
                }
            ],
            "payable": false,
            "stateMutability": "view",
            "type": "function"
        },
        {
            "constant": true,
            "inputs": [
                {
                    "name": "_investor",
                    "type": "address"
                }
            ],
            "name": "IsPozInvestor",
            "outputs": [
                {
                    "name": "",
                    "type": "bool"
                }
            ],
            "payable": false,
            "stateMutability": "view",
            "type": "function"
        },
        {
            "constant": false,
            "inputs": [
                {
                    "name": "_id",
                    "type": "uint256"
                }
            ],
            "name": "WithdrawInvestment",
            "outputs": [],
            "payable": false,
            "stateMutability": "nonpayable",
            "type": "function"
        },
        {
            "constant": true,
            "inputs": [],
            "name": "poolsCount",
            "outputs": [
                {
                    "name": "",
                    "type": "uint256"
                }
            ],
            "payable": false,
            "stateMutability": "view",
            "type": "function"
        },
        {
            "constant": true,
            "inputs": [],
            "name": "GetMyInvestmentIds",
            "outputs": [
                {
                    "name": "",
                    "type": "uint256[]"
                }
            ],
            "payable": false,
            "stateMutability": "view",
            "type": "function"
        },
        {
            "constant": false,
            "inputs": [
                {
                    "name": "_to",
                    "type": "address"
                }
            ],
            "name": "WithdrawETHFee",
            "outputs": [],
            "payable": false,
            "stateMutability": "nonpayable",
            "type": "function"
        },
        {
            "constant": true,
            "inputs": [],
            "name": "MinPoz",
            "outputs": [
                {
                    "name": "",
                    "type": "uint256"
                }
            ],
            "payable": false,
            "stateMutability": "view",
            "type": "function"
        },
        {
            "constant": true,
            "inputs": [],
            "name": "PozTimer",
            "outputs": [
                {
                    "name": "",
                    "type": "uint256"
                }
            ],
            "payable": false,
            "stateMutability": "view",
            "type": "function"
        },
        {
            "constant": true,
            "inputs": [
                {
                    "name": "",
                    "type": "uint256"
                }
            ],
            "name": "pools",
            "outputs": [
                {
                    "name": "Token",
                    "type": "address"
                },
                {
                    "name": "Creator",
                    "type": "address"
                },
                {
                    "name": "FinishTime",
                    "type": "uint256"
                },
                {
                    "name": "Rate",
                    "type": "uint256"
                },
                {
                    "name": "PaymentIsETH",
                    "type": "bool"
                },
                {
                    "name": "StartAmount",
                    "type": "uint256"
                },
                {
                    "name": "IsLocked",
                    "type": "bool"
                },
                {
                    "name": "Lefttokens",
                    "type": "uint256"
                },
                {
                    "name": "StartTime",
                    "type": "uint256"
                },
                {
                    "name": "OpenForAll",
                    "type": "uint256"
                },
                {
                    "name": "UnlockedTokens",
                    "type": "uint256"
                },
                {
                    "name": "TookLeftOvers",
                    "type": "bool"
                }
            ],
            "payable": false,
            "stateMutability": "view",
            "type": "function"
        },
        {
            "constant": true,
            "inputs": [],
            "name": "Fee",
            "outputs": [
                {
                    "name": "",
                    "type": "uint256"
                }
            ],
            "payable": false,
            "stateMutability": "view",
            "type": "function"
        },
        {
            "constant": true,
            "inputs": [
                {
                    "name": "_id",
                    "type": "uint256"
                }
            ],
            "name": "GetPoolData",
            "outputs": [
                {
                    "name": "",
                    "type": "address"
                },
                {
                    "name": "",
                    "type": "uint256"
                },
                {
                    "name": "",
                    "type": "uint256"
                },
                {
                    "name": "",
                    "type": "bool"
                },
                {
                    "name": "",
                    "type": "uint256"
                },
                {
                    "name": "",
                    "type": "bool"
                }
            ],
            "payable": false,
            "stateMutability": "view",
            "type": "function"
        },
        {
            "constant": false,
            "inputs": [
                {
                    "name": "_PoolId",
                    "type": "uint256"
                }
            ],
            "name": "InvestETH",
            "outputs": [],
            "payable": true,
            "stateMutability": "payable",
            "type": "function"
        },
        {
            "constant": true,
            "inputs": [],
            "name": "PozDiscount",
            "outputs": [
                {
                    "name": "",
                    "type": "uint256"
                }
            ],
            "payable": false,
            "stateMutability": "view",
            "type": "function"
        },
        {
            "constant": true,
            "inputs": [],
            "name": "Dai_Address",
            "outputs": [
                {
                    "name": "",
                    "type": "address"
                }
            ],
            "payable": false,
            "stateMutability": "view",
            "type": "function"
        },
        {
            "constant": false,
            "inputs": [
                {
                    "name": "_PoolId",
                    "type": "uint256"
                }
            ],
            "name": "WithdrawLeftOvers",
            "outputs": [],
            "payable": false,
            "stateMutability": "nonpayable",
            "type": "function"
        },
        {
            "constant": true,
            "inputs": [],
            "name": "Admin",
            "outputs": [
                {
                    "name": "",
                    "type": "address"
                }
            ],
            "payable": false,
            "stateMutability": "view",
            "type": "function"
        },
        {
            "inputs": [],
            "payable": false,
            "stateMutability": "nonpayable",
            "type": "constructor"
        },
        {
            "payable": true,
            "stateMutability": "payable",
            "type": "fallback"
        }
    ],
    "bytecode": "608060405234801561001057600080fd5b5060008054600160a060020a03191633178155601460015560116002556103e86003556104b0600455605060055560068190556007819055600c5561199d8061005a6000396000f30060806040526004361061010e5763ffffffff60e060020a6000350416630d08caa081146101135780630fbbab401461014f57806327ca36ec146101855780632ef680a7146101ac57806353eb3167146101dd57806356793bc7146101f257806363552a4914610216578063837cf00e1461027b57806387e3c599146102b05780638c788de0146102c857806391314dde146102dd578063991e979a146102f2578063a8df42f214610313578063abb7add214610328578063ac4afa381461033d578063bef7a2f0146103c2578063ea9223a6146103d7578063f04be48b1461042e578063f5636c3414610439578063fc7aeeaa1461044e578063fd711a5514610463578063ff1b636d1461047b575b600080fd5b34801561011f57600080fd5b5061012b600435610490565b6040518082600481111561013b57fe5b60ff16815260200191505060405180910390f35b34801561015b57600080fd5b50610183600160a060020a0360043516602435604435606435151560843560a4351515610775565b005b34801561019157600080fd5b5061019a610bcd565b60408051918252519081900360200190f35b3480156101b857600080fd5b506101c1610bd3565b60408051600160a060020a039092168252519081900360200190f35b3480156101e957600080fd5b5061019a610be2565b3480156101fe57600080fd5b5061019a600160a060020a0360043516602435610be8565b34801561022257600080fd5b5061022b610c18565b60408051602080825283518183015283519192839290830191858101910280838360005b8381101561026757818101518382015260200161024f565b505050509050019250505060405180910390f35b34801561028757600080fd5b5061029c600160a060020a0360043516610c79565b604080519115158252519081900360200190f35b3480156102bc57600080fd5b50610183600435610d3c565b3480156102d457600080fd5b5061019a610f6a565b3480156102e957600080fd5b5061022b610f70565b3480156102fe57600080fd5b50610183600160a060020a0360043516610fcf565b34801561031f57600080fd5b5061019a61106b565b34801561033457600080fd5b5061019a611071565b34801561034957600080fd5b50610355600435611077565b60408051600160a060020a039d8e1681529b909c1660208c01528a8c019990995260608a0197909752941515608089015260a088019390935290151560c087015260e086015261010085015261012084015261014083015215156101608201529051908190036101800190f35b3480156103ce57600080fd5b5061019a6110ed565b3480156103e357600080fd5b506103ef6004356110f3565b60408051600160a060020a03909716875260208701959095528585019390935290151560608501526080840152151560a0830152519081900360c00190f35b61018360043561113b565b34801561044557600080fd5b5061019a6116a7565b34801561045a57600080fd5b506101c16116ad565b34801561046f57600080fd5b506101836004356116bc565b34801561048757600080fd5b506101c16118df565b60075460009082106104ec576040805160e560020a62461bcd02815260206004820152600d60248201527f57726f6e6720706f6f6c20696400000000000000000000000000000000000000604482015290519081900360640190fd5b6000828152600860205260409020600901544210801561051b5750600082815260086020526040812060070154115b1561052857506000610770565b60008281526008602052604090206009015442108015906105585750600082815260086020526040812060070154115b8015610574575060008281526008602052604090206002015442105b1561058157506001610770565b6000828152600860205260409020600701541580156105b1575060008281526008602052604090206006015460ff165b80156105cd575060008281526008602052604090206002015442105b156105da57506002610770565b60008281526008602052604090206007015415801561060b575060008281526008602052604090206006015460ff16155b1561061857506004610770565b600082815260086020526040812060070154118015610649575060008281526008602052604090206006015460ff16155b801561066757506000828152600860205260409020600b015460ff16155b1561067457506003610770565b60008281526008602052604090206002015442108015906106a7575060008281526008602052604090206006015460ff16155b156106d6576000828152600860205260409020600b015460ff16156106ce57506004610770565b506003610770565b6000828152600860205260409020600201544210801590610708575060008281526008602052604090206006015460ff165b15610770576000828152600860205260409020600b015460ff168061073c5750600082815260086020526040902060070154155b801561076757506000828152600860205260409020600a810154600782015460059092015491909103145b156106ce575060045b919050565b6000610780876118ee565b15156107d6576040805160e560020a62461bcd02815260206004820152601660248201527f4e6565642056616c696420455243323020546f6b656e00000000000000000000604482015290519081900360640190fd5b6006544201861015610832576040805160e560020a62461bcd02815260206004820152601a60248201527f4e656564206d6f7265207468656e204d696e4475726174696f6e000000000000604482015290519081900360640190fd5b604080517fdd62ed3e00000000000000000000000000000000000000000000000000000000815233600482015230602482015290518491600160a060020a038a169163dd62ed3e916044808201926020929091908290030181600087803b15801561089c57600080fd5b505af11580156108b0573d6000803e3d6000fd5b505050506040513d60208110156108c657600080fd5b5051101561091e576040805160e560020a62461bcd02815260206004820152601c60248201527f4d75737420417070726f766520746865205472616e73616374696f6e00000000604482015290519081900360640190fd5b60035442906127109082890302040190506101806040519081016040528088600160a060020a0316815260200133600160a060020a0316815260200187815260200186815260200185151581526020018481526020018315158152602001848152602001428152602001828152602001600081526020016000151581525060086000600754815260200190815260200160002060008201518160000160006101000a815481600160a060020a030219169083600160a060020a0316021790555060208201518160010160006101000a815481600160a060020a030219169083600160a060020a03160217905550604082015181600201556060820151816003015560808201518160040160006101000a81548160ff02191690831515021790555060a0820151816005015560c08201518160060160006101000a81548160ff02191690831515021790555060e082015181600701556101008201518160080155610120820151816009015561014082015181600a015561016082015181600b0160006101000a81548160ff0219169083151502179055509050506009600033600160a060020a0316600160a060020a03168152602001908152602001600020600754908060018154018082558091505090600182039060005260206000200160009091929091909150555060076000815480929190600101919050555086600160a060020a03166323b872dd3330866040518463ffffffff1660e060020a0281526004018084600160a060020a0316600160a060020a0316815260200183600160a060020a0316600160a060020a031681526020018281526020019350505050602060405180830381600087803b158015610b9857600080fd5b505af1158015610bac573d6000803e3d6000fd5b505050506040513d6020811015610bc257600080fd5b505050505050505050565b60065481565b600a54600160a060020a031681565b60025481565b600960205281600052604060002081815481101515610c0357fe5b90600052602060002001600091509150505481565b33600090815260096020908152604091829020805483518184028101840190945280845260609392830182828015610c6f57602002820191906000526020600020905b815481526020019060010190808311610c5b575b5050505050905090565b600b54600a54600091600160a060020a0391821691161415610c9d57506001610770565b600554600a54604080517f70a08231000000000000000000000000000000000000000000000000000000008152600160a060020a038681166004830152915191909216916370a082319160248083019260209291908290030181600087803b158015610d0857600080fd5b505af1158015610d1c573d6000803e3d6000fd5b505050506040513d6020811015610d3257600080fd5b5051101592915050565b6000818152600d6020526040902060010154600160a060020a0316331480610d6e5750600054600160a060020a031633145b1515610dea576040805160e560020a62461bcd02815260206004820152602560248201527f4f6e6c7920496e766573746f722063616e20576974686472617720284f72204160448201527f646d696e29000000000000000000000000000000000000000000000000000000606482015290519081900360840190fd5b600c548110610e43576040805160e560020a62461bcd02815260206004820152600860248201527f57726f6e67206964000000000000000000000000000000000000000000000000604482015290519081900360640190fd5b6000818152600d602052604081206004015411610eaa576040805160e560020a62461bcd02815260206004820152601560248201527f4e6f20746f6b656e7320746f2057697468647261770000000000000000000000604482015290519081900360640190fd5b6000818152600d602081815260408084208054855260088352818520548686529383526001810154600491820154835160e060020a63a9059cbb028152600160a060020a039283169381019390935260248301529151919093169363a9059cbb936044808201949392918390030190829087803b158015610f2a57600080fd5b505af1158015610f3e573d6000803e3d6000fd5b505050506040513d6020811015610f5457600080fd5b50506000908152600d6020526040812060040155565b60075481565b336000908152600e6020908152604091829020805483518184028101840190945280845260609392830182828015610c6f5760200282019190600052602060002090815481526020019060010190808311610c5b575050505050905090565b600054600160a060020a03163314611031576040805160e560020a62461bcd02815260206004820152601760248201527f4f6e6c792061646d696e2063616e2074616b6520666565000000000000000000604482015290519081900360640190fd5b604051600160a060020a03821690303180156108fc02916000818181858888f19350505050158015611067573d6000803e3d6000fd5b5050565b60055481565b60035481565b600860208190526000918252604090912080546001820154600283015460038401546004850154600586015460068701546007880154988801546009890154600a8a0154600b909a0154600160a060020a03998a169b98909916999698959760ff9586169794969386169590949293919291168c565b60015481565b600090815260086020526040902060018101546002820154600383015460048401546005850154600690950154600160a060020a03909416959294919360ff91821693911690565b60008060075483101515611199576040805160e560020a62461bcd02815260206004820152600d60248201527f57726f6e6720706f6f6c20696400000000000000000000000000000000000000604482015290519081900360640190fd5b60008381526008602052604090206004015460ff161515611204576040805160e560020a62461bcd02815260206004820152601360248201527f506f6f6c206973206e6f7420666f722045544800000000000000000000000000604482015290519081900360640190fd5b6000341161125c576040805160e560020a62461bcd02815260206004820152601260248201527f73656e642045544820746f20696e766573740000000000000000000000000000604482015290519081900360640190fd5b60c06040519081016040528084815260200133600160a060020a0316815260200134815260200161128c33610c79565b151581526000602080830182905242604093840152600c80548352600d825283832085518155858301516001808301805473ffffffffffffffffffffffffffffffffffffffff1916600160a060020a039093169290921790915586860151600283015560608701516003808401805460ff191692151592909217909155608088015160048085019190915560a090980151600590930192909255338552600e845285852083548154808401835591875285872090910155825401909155935487835260089091529190209091015461271091620f42400302043481151561136f57fe5b60008581526008602052604090206003015491900492503481151561139057fe5b049050600061139e84610490565b60048111156113a957fe5b1480156113ba57506113ba33610c79565b80156113d757506000838152600860205260409020600701548211155b1561151157600083815260086020526040902060078101805484900390556006015460ff161561142157600c54600019016000908152600d602052604090206004018290556114b0565b600083815260086020908152604080832054815160e060020a63a9059cbb028152336004820152602481018790529151600160a060020a039091169363a9059cbb93604480850194919392918390030190829087803b15801561148357600080fd5b505af1158015611497573d6000803e3d6000fd5b505050506040513d60208110156114ad57600080fd5b50505b600083815260086020526040902060010154600254600160a060020a03909116906108fc90620f424090810334025b049081150290604051600060405180830381858888f1935050505015801561150b573d6000803e3d6000fd5b506116a2565b600161151c84610490565b600481111561152757fe5b14801561154557506000838152600860205260409020600701548111155b1561165257600083815260086020526040902060078101805483900390556006015460ff161561158f57600c54600019016000908152600d6020526040902060040181905561161e565b600083815260086020908152604080832054815160e060020a63a9059cbb028152336004820152602481018690529151600160a060020a039091169363a9059cbb93604480850194919392918390030190829087803b1580156115f157600080fd5b505af1158015611605573d6000803e3d6000fd5b505050506040513d602081101561161b57600080fd5b50505b60008381526008602052604090206001908101549054600160a060020a03909116906108fc90620f424090810334026114df565b6040805160e560020a62461bcd02815260206004820152601860248201527f496e766573746d656e74206e6f7420636f6d706c697465640000000000000000604482015290519081900360640190fd5b505050565b60045481565b600b54600160a060020a031681565b600081815260086020526040902060010154600160a060020a03163314806116ee5750600054600160a060020a031633145b151561176a576040805160e560020a62461bcd02815260206004820152602860248201527f4f6e6c79207468652063726561746f722063616e20576974686472617720286f60448201527f722041646d696e29000000000000000000000000000000000000000000000000606482015290519081900360840190fd5b600081815260086020526040902060020154421180159061179a5750600081815260086020526040812060070154115b80156117b857506000818152600860205260409020600b015460ff16155b1515611834576040805160e560020a62461bcd02815260206004820152602860248201527f57726f6e6720706f6f6c20737461747573206e6f7420656e61626c6520746f2060448201527f7769746864726177000000000000000000000000000000000000000000000000606482015290519081900360840190fd5b6000818152600860209081526040808320600b8101805460ff19166001908117909155815490820154600790920154835160e060020a63a9059cbb028152600160a060020a0393841660048201526024810191909152925191169363a9059cbb93604480850194919392918390030190829087803b1580156118b557600080fd5b505af11580156118c9573d6000803e3d6000fd5b505050506040513d60208110156116a257600080fd5b600054600160a060020a031681565b60008082600160a060020a03166318160ddd6040518163ffffffff1660e060020a028152600401602060405180830381600087803b15801561192f57600080fd5b505af1158015611943573d6000803e3d6000fd5b505050506040513d602081101561195957600080fd5b5051111561196957506001610770565b5060009190505600a165627a7a72305820c8804d62054593816ffc04e4d35d3189c494f4ea3c08c7ac145697017c2acb560029",
    "sourcePath": "c:/Users/Administrator/Desktop/Code/Poolz/contracts/ThePoolz.sol",
    "compiler": {
        "name": "solc",
        "version": "0.4.24+commit.e67f0147"
    },
    "functionHashes": {
        "Admin()": "ff1b636d",
        "CreatePool(address,uint256,uint256,bool,uint256,bool)": "0fbbab40",
        "Dai_Address()": "fc7aeeaa",
        "Fee()": "bef7a2f0",
        "GetMyInvestmentIds()": "91314dde",
        "GetMyPoolsId()": "63552a49",
        "GetPoolData(uint256)": "ea9223a6",
        "GetPoolStatus(uint256)": "0d08caa0",
        "InvestETH(uint256)": "f04be48b",
        "IsPozInvestor(address)": "837cf00e",
        "MinDuration()": "27ca36ec",
        "MinPoz()": "a8df42f2",
        "POZ_Address()": "2ef680a7",
        "PozDiscount()": "f5636c34",
        "PozFee()": "53eb3167",
        "PozTimer()": "abb7add2",
        "WithdrawETHFee(address)": "991e979a",
        "WithdrawInvestment(uint256)": "87e3c599",
        "WithdrawLeftOvers(uint256)": "fd711a55",
        "pools(uint256)": "ac4afa38",
        "poolsCount()": "8c788de0",
        "poolsMap(address,uint256)": "56793bc7"
    },
    "gasEstimates": {
        "creation": {
            "codeDepositCost": "1311400",
            "executionCost": "136706",
            "totalCost": "1448106"
        },
        "external": {
            "": "613",
            "Admin()": "1062",
            "CreatePool(address,uint256,uint256,bool,uint256,bool)": "infinite",
            "Dai_Address()": "1018",
            "Fee()": "777",
            "GetMyInvestmentIds()": "infinite",
            "GetMyPoolsId()": "infinite",
            "GetPoolData(uint256)": "2231",
            "GetPoolStatus(uint256)": "6986",
            "InvestETH(uint256)": "infinite",
            "IsPozInvestor(address)": "infinite",
            "MinDuration()": "491",
            "MinPoz()": "711",
            "POZ_Address()": "666",
            "PozDiscount()": "843",
            "PozFee()": "535",
            "PozTimer()": "733",
            "WithdrawETHFee(address)": "infinite",
            "WithdrawInvestment(uint256)": "infinite",
            "WithdrawLeftOvers(uint256)": "infinite",
            "pools(uint256)": "3618",
            "poolsCount()": "645",
            "poolsMap(address,uint256)": "1008"
        },
        "internal": {
            "IsERC20(address)": "infinite"
        }
    }
}