{
    "contractName": "ThePoolz",
    "abi": [
        {
            "constant": false,
            "inputs": [
                {
                    "name": "_Token",
                    "type": "address"
                },
                {
                    "name": "_FinishTime",
                    "type": "uint256"
                },
                {
                    "name": "_Rate",
                    "type": "uint256"
                },
                {
                    "name": "_PaymentIsETH",
                    "type": "bool"
                },
                {
                    "name": "_StartAmount",
                    "type": "uint256"
                },
                {
                    "name": "_IsLocked",
                    "type": "bool"
                }
            ],
            "name": "CreatePool",
            "outputs": [],
            "payable": false,
            "stateMutability": "nonpayable",
            "type": "function"
        },
        {
            "constant": true,
            "inputs": [],
            "name": "ERC20Interface",
            "outputs": [
                {
                    "name": "",
                    "type": "address"
                }
            ],
            "payable": false,
            "stateMutability": "view",
            "type": "function"
        },
        {
            "constant": true,
            "inputs": [],
            "name": "MinDuration",
            "outputs": [
                {
                    "name": "",
                    "type": "uint256"
                }
            ],
            "payable": false,
            "stateMutability": "view",
            "type": "function"
        },
        {
            "constant": true,
            "inputs": [],
            "name": "PozFee",
            "outputs": [
                {
                    "name": "",
                    "type": "uint256"
                }
            ],
            "payable": false,
            "stateMutability": "view",
            "type": "function"
        },
        {
            "constant": true,
            "inputs": [
                {
                    "name": "",
                    "type": "address"
                },
                {
                    "name": "",
                    "type": "uint256"
                }
            ],
            "name": "poolsMap",
            "outputs": [
                {
                    "name": "",
                    "type": "uint256"
                }
            ],
            "payable": false,
            "stateMutability": "view",
            "type": "function"
        },
        {
            "constant": true,
            "inputs": [],
            "name": "GetMyPoolsId",
            "outputs": [
                {
                    "name": "",
                    "type": "uint256[]"
                }
            ],
            "payable": false,
            "stateMutability": "view",
            "type": "function"
        },
        {
            "constant": true,
            "inputs": [],
            "name": "poolsCount",
            "outputs": [
                {
                    "name": "",
                    "type": "uint256"
                }
            ],
            "payable": false,
            "stateMutability": "view",
            "type": "function"
        },
        {
            "constant": true,
            "inputs": [],
            "name": "MinPoz",
            "outputs": [
                {
                    "name": "",
                    "type": "uint256"
                }
            ],
            "payable": false,
            "stateMutability": "view",
            "type": "function"
        },
        {
            "constant": true,
            "inputs": [],
            "name": "PozTimer",
            "outputs": [
                {
                    "name": "",
                    "type": "uint256"
                }
            ],
            "payable": false,
            "stateMutability": "view",
            "type": "function"
        },
        {
            "constant": true,
            "inputs": [
                {
                    "name": "",
                    "type": "uint256"
                }
            ],
            "name": "pools",
            "outputs": [
                {
                    "name": "Token",
                    "type": "address"
                },
                {
                    "name": "Creator",
                    "type": "address"
                },
                {
                    "name": "FinishTime",
                    "type": "uint256"
                },
                {
                    "name": "Rate",
                    "type": "uint256"
                },
                {
                    "name": "PaymentIsETH",
                    "type": "bool"
                },
                {
                    "name": "StartAmount",
                    "type": "uint256"
                },
                {
                    "name": "IsLocked",
                    "type": "bool"
                },
                {
                    "name": "Lefttokens",
                    "type": "uint256"
                },
                {
                    "name": "StartTime",
                    "type": "uint256"
                },
                {
                    "name": "OpenForAll",
                    "type": "uint256"
                }
            ],
            "payable": false,
            "stateMutability": "view",
            "type": "function"
        },
        {
            "constant": true,
            "inputs": [],
            "name": "Fee",
            "outputs": [
                {
                    "name": "",
                    "type": "uint256"
                }
            ],
            "payable": false,
            "stateMutability": "view",
            "type": "function"
        },
        {
            "constant": true,
            "inputs": [
                {
                    "name": "_id",
                    "type": "uint256"
                }
            ],
            "name": "GetPoolData",
            "outputs": [
                {
                    "name": "",
                    "type": "address"
                },
                {
                    "name": "",
                    "type": "uint256"
                },
                {
                    "name": "",
                    "type": "uint256"
                },
                {
                    "name": "",
                    "type": "bool"
                },
                {
                    "name": "",
                    "type": "uint256"
                },
                {
                    "name": "",
                    "type": "bool"
                }
            ],
            "payable": false,
            "stateMutability": "view",
            "type": "function"
        },
        {
            "constant": true,
            "inputs": [],
            "name": "PozDiscount",
            "outputs": [
                {
                    "name": "",
                    "type": "uint256"
                }
            ],
            "payable": false,
            "stateMutability": "view",
            "type": "function"
        },
        {
            "constant": true,
            "inputs": [],
            "name": "Admin",
            "outputs": [
                {
                    "name": "",
                    "type": "address"
                }
            ],
            "payable": false,
            "stateMutability": "view",
            "type": "function"
        },
        {
            "inputs": [],
            "payable": false,
            "stateMutability": "nonpayable",
            "type": "constructor"
        }
    ],
    "bytecode": "6080604052600060085534801561001557600080fd5b5060008054600160a060020a03191633179055601460015560116002556103e86003556104b060045560506005556106a4806100526000396000f3006080604052600436106100cf5763ffffffff7c01000000000000000000000000000000000000000000000000000000006000350416630fbbab4081146100d45780631bbc4b831461010a57806327ca36ec1461013b57806353eb31671461016257806356793bc71461017757806363552a491461019b5780638c788de014610200578063a8df42f214610215578063abb7add21461022a578063ac4afa381461023f578063bef7a2f0146102b5578063ea9223a6146102ca578063f5636c3414610321578063ff1b636d14610336575b600080fd5b3480156100e057600080fd5b50610108600160a060020a0360043516602435604435606435151560843560a435151561034b565b005b34801561011657600080fd5b5061011f6104ce565b60408051600160a060020a039092168252519081900360200190f35b34801561014757600080fd5b506101506104dd565b60408051918252519081900360200190f35b34801561016e57600080fd5b506101506104e3565b34801561018357600080fd5b50610150600160a060020a03600435166024356104e9565b3480156101a757600080fd5b506101b0610519565b60408051602080825283518183015283519192839290830191858101910280838360005b838110156101ec5781810151838201526020016101d4565b505050509050019250505060405180910390f35b34801561020c57600080fd5b5061015061057a565b34801561022157600080fd5b50610150610580565b34801561023657600080fd5b50610150610586565b34801561024b57600080fd5b5061025760043561058c565b60408051600160a060020a039b8c16815299909a1660208a0152888a01979097526060880195909552921515608087015260a0860191909152151560c085015260e08401526101008301526101208201529051908190036101400190f35b3480156102c157600080fd5b506101506105f3565b3480156102d657600080fd5b506102e26004356105f9565b60408051600160a060020a03909716875260208701959095528585019390935290151560608501526080840152151560a0830152519081900360c00190f35b34801561032d57600080fd5b50610150610641565b34801561034257600080fd5b5061011f610647565b61035486610656565b8015610364575084600654420110155b151561036f57600080fd5b6101406040519081016040528087600160a060020a0316815260200133600160a060020a031681526020018681526020018581526020018415158152602001838152602001821515815260200183815260200142815260200142612710600354428a03028115156103dc57fe5b0401905260088054600090815260096020818152604080842086518154600160a060020a0391821673ffffffffffffffffffffffffffffffffffffffff19918216178355888501516001808501805492909416919092161790915587830151600283015560608801516003830155608088015160048301805491151560ff1992831617905560a0890151600584015560c08901516006840180549115159190921617905560e088015160078301556101008801518288015561012090970151930192909255338352600a8152908220835481548087018355918452919092209091015580549091019055505050505050565b600754600160a060020a031681565b60065481565b60025481565b600a6020528160005260406000208181548110151561050457fe5b90600052602060002001600091509150505481565b336000908152600a602090815260409182902080548351818402810184019094528084526060939283018282801561057057602002820191906000526020600020905b81548152602001906001019080831161055c575b5050505050905090565b60085481565b60055481565b60035481565b60096020819052600091825260409091208054600182015460028301546003840154600485015460058601546006870154600788015460088901549890990154600160a060020a039788169996909716979496939560ff938416959294919093169291908a565b60015481565b600090815260096020526040902060018101546002820154600383015460048401546005850154600690950154600160a060020a03909416959294919360ff91821693911690565b60045481565b600054600160a060020a031681565b6000600160a060020a0382161561066f57506001610673565b5060005b9190505600a165627a7a72305820ee51023551d8f65f56b977e241942a949d6a6d7a5a1de1326796d9b3ed02feeb0029",
    "sourcePath": "c:/Users/Administrator/Desktop/Code/Poolz/contracts/Poolz.sol",
    "compiler": {
        "name": "solc",
        "version": "0.4.24+commit.e67f0147"
    },
    "functionHashes": {
        "Admin()": "ff1b636d",
        "CreatePool(address,uint256,uint256,bool,uint256,bool)": "0fbbab40",
        "ERC20Interface()": "1bbc4b83",
        "Fee()": "bef7a2f0",
        "GetMyPoolsId()": "63552a49",
        "GetPoolData(uint256)": "ea9223a6",
        "MinDuration()": "27ca36ec",
        "MinPoz()": "a8df42f2",
        "PozDiscount()": "f5636c34",
        "PozFee()": "53eb3167",
        "PozTimer()": "abb7add2",
        "pools(uint256)": "ac4afa38",
        "poolsCount()": "8c788de0",
        "poolsMap(address,uint256)": "56793bc7"
    },
    "gasEstimates": {
        "creation": {
            "codeDepositCost": "340000",
            "executionCost": "125708",
            "totalCost": "465708"
        },
        "external": {
            "Admin()": "823",
            "CreatePool(address,uint256,uint256,bool,uint256,bool)": "263542",
            "ERC20Interface()": "559",
            "Fee()": "604",
            "GetMyPoolsId()": "infinite",
            "GetPoolData(uint256)": "2058",
            "MinDuration()": "428",
            "MinPoz()": "538",
            "PozDiscount()": "648",
            "PozFee()": "450",
            "PozTimer()": "560",
            "pools(uint256)": "2973",
            "poolsCount()": "516",
            "poolsMap(address,uint256)": "923"
        },
        "internal": {
            "IsERC20(address)": "131"
        }
    }
}