{
  "contractName": "ETHHelper",
  "abi": [
    {
      "constant": true,
      "inputs": [],
      "name": "GetPozTimer",
      "outputs": [
        {
          "name": "",
          "type": "uint16"
        }
      ],
      "payable": false,
      "stateMutability": "view",
      "type": "function"
    },
    {
      "constant": true,
      "inputs": [],
      "name": "GetPOZFee",
      "outputs": [
        {
          "name": "",
          "type": "uint16"
        }
      ],
      "payable": false,
      "stateMutability": "view",
      "type": "function"
    },
    {
      "constant": false,
      "inputs": [],
      "name": "unpause",
      "outputs": [],
      "payable": false,
      "stateMutability": "nonpayable",
      "type": "function"
    },
    {
      "constant": true,
      "inputs": [],
      "name": "paused",
      "outputs": [
        {
          "name": "",
          "type": "bool"
        }
      ],
      "payable": false,
      "stateMutability": "view",
      "type": "function"
    },
    {
      "constant": false,
      "inputs": [
        {
          "name": "_MinPoz",
          "type": "uint256"
        }
      ],
      "name": "SetMinPoz",
      "outputs": [],
      "payable": false,
      "stateMutability": "nonpayable",
      "type": "function"
    },
    {
      "constant": false,
      "inputs": [],
      "name": "renounceOwnership",
      "outputs": [],
      "payable": false,
      "stateMutability": "nonpayable",
      "type": "function"
    },
    {
      "constant": false,
      "inputs": [],
      "name": "pause",
      "outputs": [],
      "payable": false,
      "stateMutability": "nonpayable",
      "type": "function"
    },
    {
      "constant": true,
      "inputs": [],
      "name": "owner",
      "outputs": [
        {
          "name": "",
          "type": "address"
        }
      ],
      "payable": false,
      "stateMutability": "view",
      "type": "function"
    },
    {
      "constant": true,
      "inputs": [],
      "name": "GetMinPoz",
      "outputs": [
        {
          "name": "",
          "type": "uint256"
        }
      ],
      "payable": false,
      "stateMutability": "view",
      "type": "function"
    },
    {
      "constant": false,
      "inputs": [
        {
          "name": "_POZ_Address",
          "type": "address"
        }
      ],
      "name": "SetPozAdress",
      "outputs": [],
      "payable": false,
      "stateMutability": "nonpayable",
      "type": "function"
    },
    {
      "constant": false,
      "inputs": [
        {
          "name": "_pozTimer",
          "type": "uint16"
        }
      ],
      "name": "SetPozTimer",
      "outputs": [],
      "payable": false,
      "stateMutability": "nonpayable",
      "type": "function"
    },
    {
      "constant": false,
      "inputs": [
        {
          "name": "_newOwner",
          "type": "address"
        }
      ],
      "name": "transferOwnership",
      "outputs": [],
      "payable": false,
      "stateMutability": "nonpayable",
      "type": "function"
    },
    {
      "inputs": [],
      "payable": false,
      "stateMutability": "nonpayable",
      "type": "constructor"
    },
    {
      "payable": true,
      "stateMutability": "payable",
      "type": "fallback"
    },
    {
      "anonymous": false,
      "inputs": [
        {
          "indexed": false,
          "name": "Amount",
          "type": "uint256"
        },
        {
          "indexed": false,
          "name": "To",
          "type": "address"
        }
      ],
      "name": "TransferOutETH",
      "type": "event"
    },
    {
      "anonymous": false,
      "inputs": [
        {
          "indexed": false,
          "name": "Amount",
          "type": "uint256"
        },
        {
          "indexed": false,
          "name": "From",
          "type": "address"
        }
      ],
      "name": "TransferInETH",
      "type": "event"
    },
    {
      "anonymous": false,
      "inputs": [
        {
          "indexed": false,
          "name": "Amount",
          "type": "uint256"
        },
        {
          "indexed": false,
          "name": "To",
          "type": "address"
        },
        {
          "indexed": false,
          "name": "Token",
          "type": "address"
        }
      ],
      "name": "TransferOut",
      "type": "event"
    },
    {
      "anonymous": false,
      "inputs": [
        {
          "indexed": false,
          "name": "Amount",
          "type": "uint256"
        },
        {
          "indexed": false,
          "name": "From",
          "type": "address"
        },
        {
          "indexed": false,
          "name": "Token",
          "type": "address"
        }
      ],
      "name": "TransferIn",
      "type": "event"
    },
    {
      "anonymous": false,
      "inputs": [],
      "name": "Pause",
      "type": "event"
    },
    {
      "anonymous": false,
      "inputs": [],
      "name": "Unpause",
      "type": "event"
    },
    {
      "anonymous": false,
      "inputs": [
        {
          "indexed": true,
          "name": "previousOwner",
          "type": "address"
        }
      ],
      "name": "OwnershipRenounced",
      "type": "event"
    },
    {
      "anonymous": false,
      "inputs": [
        {
          "indexed": true,
          "name": "previousOwner",
          "type": "address"
        },
        {
          "indexed": true,
          "name": "newOwner",
          "type": "address"
        }
      ],
      "name": "OwnershipTransferred",
      "type": "event"
    },
    {
      "constant": true,
      "inputs": [],
      "name": "GetIsPayble",
      "outputs": [
        {
          "name": "",
          "type": "bool"
        }
      ],
      "payable": false,
      "stateMutability": "view",
      "type": "function"
    },
    {
      "constant": false,
      "inputs": [],
      "name": "SwitchIsPayble",
      "outputs": [],
      "payable": false,
      "stateMutability": "nonpayable",
      "type": "function"
    },
    {
      "constant": true,
      "inputs": [],
      "name": "GetMinETH",
      "outputs": [
        {
          "name": "",
          "type": "uint256"
        }
      ],
      "payable": false,
      "stateMutability": "view",
      "type": "function"
    },
    {
      "constant": false,
      "inputs": [
        {
          "name": "_MinETH",
          "type": "uint256"
        }
      ],
      "name": "SetMinETH",
      "outputs": [],
      "payable": false,
      "stateMutability": "nonpayable",
      "type": "function"
    }
  ],
  "bytecode": "0x608060405260008060146101000a81548160ff02191690831515021790555034801561002a57600080fd5b50336000806101000a81548173ffffffffffffffffffffffffffffffffffffffff021916908373ffffffffffffffffffffffffffffffffffffffff160217905550600f600060156101000a81548161ffff021916908361ffff1602179055506103e8600060176101000a81548161ffff021916908361ffff16021790555060506001819055506000600260006101000a81548173ffffffffffffffffffffffffffffffffffffffff021916908373ffffffffffffffffffffffffffffffffffffffff1602179055506000600260146101000a81548160ff021916908315150217905550612710600381905550610b6d806101256000396000f3006080604052600436106100e6576000357c0100000000000000000000000000000000000000000000000000000000900463ffffffff168063014f3aff146101035780631ac8989f146101365780633f4ba83a146101695780635c975abb146101805780635ea84ad6146101af578063624dea1c146101dc578063715018a61461020b5780638456cb59146102225780638da5cb5b146102395780639baf390a14610290578063aac5da5c146102bb578063cbf476e5146102d2578063de5b521d146102ff578063e05425e414610342578063f155e88e14610373578063f2fde38b1461039e575b600260149054906101000a900460ff16151561010157600080fd5b005b34801561010f57600080fd5b506101186103e1565b604051808261ffff1661ffff16815260200191505060405180910390f35b34801561014257600080fd5b5061014b6103f8565b604051808261ffff1661ffff16815260200191505060405180910390f35b34801561017557600080fd5b5061017e61040f565b005b34801561018c57600080fd5b506101956104cd565b604051808215151515815260200191505060405180910390f35b3480156101bb57600080fd5b506101da600480360381019080803590602001909291905050506104e0565b005b3480156101e857600080fd5b506101f1610545565b604051808215151515815260200191505060405180910390f35b34801561021757600080fd5b5061022061055c565b005b34801561022e57600080fd5b5061023761065e565b005b34801561024557600080fd5b5061024e61071e565b604051808273ffffffffffffffffffffffffffffffffffffffff1673ffffffffffffffffffffffffffffffffffffffff16815260200191505060405180910390f35b34801561029c57600080fd5b506102a5610743565b6040518082815260200191505060405180910390f35b3480156102c757600080fd5b506102d061074d565b005b3480156102de57600080fd5b506102fd600480360381019080803590602001909291905050506107d4565b005b34801561030b57600080fd5b50610340600480360381019080803573ffffffffffffffffffffffffffffffffffffffff169060200190929190505050610839565b005b34801561034e57600080fd5b50610371600480360381019080803561ffff1690602001909291905050506108d8565b005b34801561037f57600080fd5b506103886109d6565b6040518082815260200191505060405180910390f35b3480156103aa57600080fd5b506103df600480360381019080803573ffffffffffffffffffffffffffffffffffffffff1690602001909291905050506109e0565b005b60008060179054906101000a900461ffff16905090565b60008060159054906101000a900461ffff16905090565b6000809054906101000a900473ffffffffffffffffffffffffffffffffffffffff1673ffffffffffffffffffffffffffffffffffffffff163373ffffffffffffffffffffffffffffffffffffffff1614151561046a57600080fd5b600060149054906101000a900460ff16151561048557600080fd5b60008060146101000a81548160ff0219169083151502179055507f7805862f689e2f13df9f062ff482ad3ad112aca9e0847911ed832e158c525b3360405160405180910390a1565b600060149054906101000a900460ff1681565b6000809054906101000a900473ffffffffffffffffffffffffffffffffffffffff1673ffffffffffffffffffffffffffffffffffffffff163373ffffffffffffffffffffffffffffffffffffffff1614151561053b57600080fd5b8060018190555050565b6000600260149054906101000a900460ff16905090565b6000809054906101000a900473ffffffffffffffffffffffffffffffffffffffff1673ffffffffffffffffffffffffffffffffffffffff163373ffffffffffffffffffffffffffffffffffffffff161415156105b757600080fd5b6000809054906101000a900473ffffffffffffffffffffffffffffffffffffffff1673ffffffffffffffffffffffffffffffffffffffff167ff8df31144d9c2f0f6b59d69b8b98abd5459d07f2742c4df920b25aae33c6482060405160405180910390a260008060006101000a81548173ffffffffffffffffffffffffffffffffffffffff021916908373ffffffffffffffffffffffffffffffffffffffff160217905550565b6000809054906101000a900473ffffffffffffffffffffffffffffffffffffffff1673ffffffffffffffffffffffffffffffffffffffff163373ffffffffffffffffffffffffffffffffffffffff161415156106b957600080fd5b600060149054906101000a900460ff161515156106d557600080fd5b6001600060146101000a81548160ff0219169083151502179055507f6985a02210a168e66602d3235cb6db0e70f92b3ba4d376a33c0f3d9434bff62560405160405180910390a1565b6000809054906101000a900473ffffffffffffffffffffffffffffffffffffffff1681565b6000600154905090565b6000809054906101000a900473ffffffffffffffffffffffffffffffffffffffff1673ffffffffffffffffffffffffffffffffffffffff163373ffffffffffffffffffffffffffffffffffffffff161415156107a857600080fd5b600260149054906101000a900460ff1615600260146101000a81548160ff021916908315150217905550565b6000809054906101000a900473ffffffffffffffffffffffffffffffffffffffff1673ffffffffffffffffffffffffffffffffffffffff163373ffffffffffffffffffffffffffffffffffffffff1614151561082f57600080fd5b8060038190555050565b6000809054906101000a900473ffffffffffffffffffffffffffffffffffffffff1673ffffffffffffffffffffffffffffffffffffffff163373ffffffffffffffffffffffffffffffffffffffff1614151561089457600080fd5b80600260006101000a81548173ffffffffffffffffffffffffffffffffffffffff021916908373ffffffffffffffffffffffffffffffffffffffff16021790555050565b6000809054906101000a900473ffffffffffffffffffffffffffffffffffffffff1673ffffffffffffffffffffffffffffffffffffffff163373ffffffffffffffffffffffffffffffffffffffff1614151561093357600080fd5b806127108161ffff1610156109645781600060176101000a81548161ffff021916908361ffff1602179055506109d2565b6040517f08c379a000000000000000000000000000000000000000000000000000000000815260040180806020018281038252600c8152602001807f4e6f7420696e2072616e6765000000000000000000000000000000000000000081525060200191505060405180910390fd5b5050565b6000600354905090565b6000809054906101000a900473ffffffffffffffffffffffffffffffffffffffff1673ffffffffffffffffffffffffffffffffffffffff163373ffffffffffffffffffffffffffffffffffffffff16141515610a3b57600080fd5b610a4481610a47565b50565b600073ffffffffffffffffffffffffffffffffffffffff168173ffffffffffffffffffffffffffffffffffffffff1614151515610a8357600080fd5b8073ffffffffffffffffffffffffffffffffffffffff166000809054906101000a900473ffffffffffffffffffffffffffffffffffffffff1673ffffffffffffffffffffffffffffffffffffffff167f8be0079c531659141344cd1fd0a4f28419497f9722a3daafe3b4186f6b6457e060405160405180910390a3806000806101000a81548173ffffffffffffffffffffffffffffffffffffffff021916908373ffffffffffffffffffffffffffffffffffffffff160217905550505600a165627a7a723058207224247e35f5397285d3cc4c73740cbd71813cefb01f53ab05fd7aadd6936f7c0029",
  "source": "// SPDX-License-Identifier: MIT\r\npragma solidity ^0.4.24;\r\n\r\nimport \"./PozBenefit.sol\";\r\n\r\ncontract ETHHelper is PozBenefit{\r\n    constructor() public {\r\n        IsPayble = false;\r\n        MinETH = 10000;\r\n    }\r\n    modifier ReceivETH(uint msgValue, address msgSender) {\r\n        if (msgValue >=  MinETH){\r\n             emit TransferInETH(msgValue,msgSender);\r\n        _;\r\n        }\r\n        else revert(\"Send ETH to invest\");\r\n    }\r\n    //@dev not/allow contract to receive funds\r\n    function() public payable {\r\n        if (!IsPayble) revert();\r\n    }\r\n\r\n    event TransferOutETH(uint256 Amount, address To);\r\n    event TransferInETH(uint256 Amount, address From);\r\n\r\n    bool internal IsPayble;\r\n    uint256 internal MinETH;\r\n\r\n     function GetIsPayble() public view returns (bool) {\r\n        return IsPayble;\r\n    }\r\n\r\n    function SwitchIsPayble()\r\n        public\r\n        onlyOwner\r\n    {\r\n        IsPayble = !IsPayble;\r\n    }\r\n        function GetMinETH() public view returns (uint256) {\r\n        return MinETH;\r\n    }\r\n\r\n    function SetMinETH(uint256 _MinETH) public onlyOwner {\r\n        MinETH = _MinETH;\r\n    }\r\n\r\n    function TransferETH(address _Reciver, uint256 _ammount) internal {\r\n        emit TransferOutETH(_ammount, _Reciver);\r\n        _Reciver.transfer(_ammount);\r\n    }\r\n}\r\n",
  "sourcePath": "C:\\Users\\Administrator\\Desktop\\Code\\Poolz\\contracts\\ETHHelper.sol",
  "compiler": {
    "name": "solc",
    "version": "0.4.26+commit.4563c3fc.Emscripten.clang"
  },
  "schemaVersion": "3.3.0",
  "updatedAt": "2020-10-11T14:45:13.910Z",
  "devdoc": {
    "methods": {
      "pause()": {
        "details": "called by the owner to pause, triggers stopped state"
      },
      "renounceOwnership()": {
        "details": "Allows the current owner to relinquish control of the contract."
      },
      "transferOwnership(address)": {
        "details": "Allows the current owner to transfer control of the contract to a newOwner.",
        "params": {
          "_newOwner": "The address to transfer ownership to."
        }
      },
      "unpause()": {
        "details": "called by the owner to unpause, returns to normal state"
      }
    }
  },
  "userdoc": {
    "methods": {
      "renounceOwnership()": {
        "notice": "Renouncing to ownership will leave the contract without an owner. It will not be possible to call the functions with the `onlyOwner` modifier anymore."
      }
    }
  }
}