{
  "contractName": "InvestorData",
  "abi": [
    {
      "constant": false,
      "inputs": [
        {
          "name": "_token",
          "type": "address"
        }
      ],
      "name": "RemoveERC20Maincoin",
      "outputs": [],
      "payable": false,
      "stateMutability": "nonpayable",
      "type": "function"
    },
    {
      "constant": true,
      "inputs": [],
      "name": "GetPozTimer",
      "outputs": [
        {
          "name": "",
          "type": "uint16"
        }
      ],
      "payable": false,
      "stateMutability": "view",
      "type": "function"
    },
    {
      "constant": true,
      "inputs": [
        {
          "name": "_id",
          "type": "uint256"
        }
      ],
      "name": "GetPoolStatus",
      "outputs": [
        {
          "name": "",
          "type": "uint8"
        }
      ],
      "payable": false,
      "stateMutability": "view",
      "type": "function"
    },
    {
      "constant": false,
      "inputs": [
        {
          "name": "_fee",
          "type": "uint16"
        }
      ],
      "name": "SetPOZFee",
      "outputs": [],
      "payable": false,
      "stateMutability": "nonpayable",
      "type": "function"
    },
    {
      "constant": true,
      "inputs": [],
      "name": "GetPOZFee",
      "outputs": [
        {
          "name": "",
          "type": "uint16"
        }
      ],
      "payable": false,
      "stateMutability": "view",
      "type": "function"
    },
    {
      "constant": true,
      "inputs": [
        {
          "name": "",
          "type": "address"
        }
      ],
      "name": "ERC20MainCoins",
      "outputs": [
        {
          "name": "",
          "type": "bool"
        }
      ],
      "payable": false,
      "stateMutability": "view",
      "type": "function"
    },
    {
      "constant": false,
      "inputs": [],
      "name": "unpause",
      "outputs": [],
      "payable": false,
      "stateMutability": "nonpayable",
      "type": "function"
    },
    {
      "constant": true,
      "inputs": [],
      "name": "GetFee",
      "outputs": [
        {
          "name": "",
          "type": "uint16"
        }
      ],
      "payable": false,
      "stateMutability": "view",
      "type": "function"
    },
    {
      "constant": true,
      "inputs": [
        {
          "name": "_id",
          "type": "uint256"
        }
      ],
      "name": "GetTestPoolStatus",
      "outputs": [
        {
          "name": "",
          "type": "uint8"
        },
        {
          "name": "",
          "type": "uint256"
        }
      ],
      "payable": false,
      "stateMutability": "view",
      "type": "function"
    },
    {
      "constant": true,
      "inputs": [
        {
          "name": "",
          "type": "address"
        },
        {
          "name": "",
          "type": "uint256"
        }
      ],
      "name": "poolsMap",
      "outputs": [
        {
          "name": "",
          "type": "uint256"
        }
      ],
      "payable": false,
      "stateMutability": "view",
      "type": "function"
    },
    {
      "constant": true,
      "inputs": [],
      "name": "paused",
      "outputs": [
        {
          "name": "",
          "type": "bool"
        }
      ],
      "payable": false,
      "stateMutability": "view",
      "type": "function"
    },
    {
      "constant": false,
      "inputs": [
        {
          "name": "_MinPoz",
          "type": "uint256"
        }
      ],
      "name": "SetMinPoz",
      "outputs": [],
      "payable": false,
      "stateMutability": "nonpayable",
      "type": "function"
    },
    {
      "constant": true,
      "inputs": [],
      "name": "GetIsPayble",
      "outputs": [
        {
          "name": "",
          "type": "bool"
        }
      ],
      "payable": false,
      "stateMutability": "view",
      "type": "function"
    },
    {
      "constant": true,
      "inputs": [],
      "name": "GetMyPoolsId",
      "outputs": [
        {
          "name": "",
          "type": "uint256[]"
        }
      ],
      "payable": false,
      "stateMutability": "view",
      "type": "function"
    },
    {
      "constant": true,
      "inputs": [
        {
          "name": "_id",
          "type": "uint256"
        }
      ],
      "name": "GetMorePoolData",
      "outputs": [
        {
          "name": "",
          "type": "bool"
        },
        {
          "name": "",
          "type": "uint256"
        },
        {
          "name": "",
          "type": "uint256"
        },
        {
          "name": "",
          "type": "address"
        }
      ],
      "payable": false,
      "stateMutability": "view",
      "type": "function"
    },
    {
      "constant": false,
      "inputs": [],
      "name": "renounceOwnership",
      "outputs": [],
      "payable": false,
      "stateMutability": "nonpayable",
      "type": "function"
    },
    {
      "constant": false,
      "inputs": [],
      "name": "pause",
      "outputs": [],
      "payable": false,
      "stateMutability": "nonpayable",
      "type": "function"
    },
    {
      "constant": true,
      "inputs": [],
      "name": "poolsCount",
      "outputs": [
        {
          "name": "",
          "type": "uint256"
        }
      ],
      "payable": false,
      "stateMutability": "view",
      "type": "function"
    },
    {
      "constant": true,
      "inputs": [],
      "name": "owner",
      "outputs": [
        {
          "name": "",
          "type": "address"
        }
      ],
      "payable": false,
      "stateMutability": "view",
      "type": "function"
    },
    {
      "constant": false,
      "inputs": [
        {
          "name": "_to",
          "type": "address"
        }
      ],
      "name": "WithdrawETHFee",
      "outputs": [],
      "payable": false,
      "stateMutability": "nonpayable",
      "type": "function"
    },
    {
      "constant": true,
      "inputs": [],
      "name": "GetMinPoz",
      "outputs": [
        {
          "name": "",
          "type": "uint256"
        }
      ],
      "payable": false,
      "stateMutability": "view",
      "type": "function"
    },
    {
      "constant": false,
      "inputs": [
        {
          "name": "_token",
          "type": "address"
        }
      ],
      "name": "AddERC20Maincoin",
      "outputs": [],
      "payable": false,
      "stateMutability": "nonpayable",
      "type": "function"
    },
    {
      "constant": false,
      "inputs": [],
      "name": "SwitchIsPayble",
      "outputs": [],
      "payable": false,
      "stateMutability": "nonpayable",
      "type": "function"
    },
    {
      "constant": true,
      "inputs": [
        {
          "name": "",
          "type": "uint256"
        }
      ],
      "name": "pools",
      "outputs": [
        {
          "name": "Token",
          "type": "address"
        },
        {
          "name": "Creator",
          "type": "address"
        },
        {
          "name": "FinishTime",
          "type": "uint256"
        },
        {
          "name": "Rate",
          "type": "uint256"
        },
        {
          "name": "POZRate",
          "type": "uint256"
        },
        {
          "name": "Maincoin",
          "type": "address"
        },
        {
          "name": "StartAmount",
          "type": "uint256"
        },
        {
          "name": "IsLocked",
          "type": "bool"
        },
        {
          "name": "Lefttokens",
          "type": "uint256"
        },
        {
          "name": "StartTime",
          "type": "uint256"
        },
        {
          "name": "OpenForAll",
          "type": "uint256"
        },
        {
          "name": "UnlockedTokens",
          "type": "uint256"
        },
        {
          "name": "TookLeftOvers",
          "type": "bool"
        }
      ],
      "payable": false,
      "stateMutability": "view",
      "type": "function"
    },
    {
      "constant": false,
      "inputs": [
        {
          "name": "_PoolId",
          "type": "uint256"
        },
        {
          "name": "_Amount",
          "type": "uint256"
        }
      ],
      "name": "InvestERC20",
      "outputs": [],
      "payable": true,
      "stateMutability": "payable",
      "type": "function"
    },
    {
      "constant": true,
      "inputs": [],
      "name": "GetLastPoolId",
      "outputs": [
        {
          "name": "",
          "type": "uint256"
        }
      ],
      "payable": false,
      "stateMutability": "view",
      "type": "function"
    },
    {
      "constant": false,
      "inputs": [
        {
          "name": "_MinETH",
          "type": "uint256"
        }
      ],
      "name": "SetMinETH",
      "outputs": [],
      "payable": false,
      "stateMutability": "nonpayable",
      "type": "function"
    },
    {
      "constant": false,
      "inputs": [
        {
          "name": "_pozTimer",
          "type": "uint16"
        }
      ],
      "name": "SetPozTimer",
      "outputs": [],
      "payable": false,
      "stateMutability": "nonpayable",
      "type": "function"
    },
    {
      "constant": true,
      "inputs": [],
      "name": "GetMinDuration",
      "outputs": [
        {
          "name": "",
          "type": "uint16"
        }
      ],
      "payable": false,
      "stateMutability": "view",
      "type": "function"
    },
    {
      "constant": true,
      "inputs": [
        {
          "name": "_token",
          "type": "address"
        }
      ],
      "name": "IsERC20Maincoin",
      "outputs": [
        {
          "name": "",
          "type": "bool"
        }
      ],
      "payable": false,
      "stateMutability": "view",
      "type": "function"
    },
    {
      "constant": true,
      "inputs": [
        {
          "name": "_id",
          "type": "uint256"
        }
      ],
      "name": "GetPoolData",
      "outputs": [
        {
          "name": "",
          "type": "uint8"
        },
        {
          "name": "",
          "type": "address"
        },
        {
          "name": "",
          "type": "uint256"
        },
        {
          "name": "",
          "type": "uint256"
        },
        {
          "name": "",
          "type": "address"
        },
        {
          "name": "",
          "type": "uint256"
        },
        {
          "name": "",
          "type": "uint256"
        }
      ],
      "payable": false,
      "stateMutability": "view",
      "type": "function"
    },
    {
      "constant": false,
      "inputs": [
        {
          "name": "_minDuration",
          "type": "uint16"
        }
      ],
      "name": "SetMinDuration",
      "outputs": [],
      "payable": false,
      "stateMutability": "nonpayable",
      "type": "function"
    },
    {
      "constant": false,
      "inputs": [
        {
          "name": "_PoolId",
          "type": "uint256"
        }
      ],
      "name": "InvestETH",
      "outputs": [],
      "payable": true,
      "stateMutability": "payable",
      "type": "function"
    },
    {
      "constant": true,
      "inputs": [],
      "name": "GetMinETH",
      "outputs": [
        {
          "name": "",
          "type": "uint256"
        }
      ],
      "payable": false,
      "stateMutability": "view",
      "type": "function"
    },
    {
      "constant": false,
      "inputs": [
        {
          "name": "_newOwner",
          "type": "address"
        }
      ],
      "name": "transferOwnership",
      "outputs": [],
      "payable": false,
      "stateMutability": "nonpayable",
      "type": "function"
    },
    {
      "constant": false,
      "inputs": [
        {
          "name": "_fee",
          "type": "uint16"
        }
      ],
      "name": "SetFee",
      "outputs": [],
      "payable": false,
      "stateMutability": "nonpayable",
      "type": "function"
    },
    {
      "constant": false,
      "inputs": [
        {
          "name": "_Token",
          "type": "address"
        },
        {
          "name": "_to",
          "type": "address"
        }
      ],
      "name": "WithdrawERC20Fee",
      "outputs": [],
      "payable": false,
      "stateMutability": "nonpayable",
      "type": "function"
    },
    {
      "constant": false,
      "inputs": [
        {
          "name": "_PoolId",
          "type": "uint256"
        }
      ],
      "name": "WithdrawLeftOvers",
      "outputs": [
        {
          "name": "",
          "type": "bool"
        }
      ],
      "payable": false,
      "stateMutability": "nonpayable",
      "type": "function"
    },
    {
      "constant": false,
      "inputs": [
        {
          "name": "_Token",
          "type": "address"
        },
        {
          "name": "_FinishTime",
          "type": "uint256"
        },
        {
          "name": "_Rate",
          "type": "uint256"
        },
        {
          "name": "_POZRate",
          "type": "uint256"
        },
        {
          "name": "_StartAmount",
          "type": "uint256"
        },
        {
          "name": "_IsLocked",
          "type": "bool"
        },
        {
          "name": "_MainCoin",
          "type": "address"
        }
      ],
      "name": "CreatePool",
      "outputs": [],
      "payable": false,
      "stateMutability": "nonpayable",
      "type": "function"
    },
    {
      "payable": true,
      "stateMutability": "payable",
      "type": "fallback"
    },
    {
      "anonymous": false,
      "inputs": [
        {
          "indexed": false,
          "name": "token",
          "type": "address"
        },
        {
          "indexed": false,
          "name": "id",
          "type": "uint256"
        }
      ],
      "name": "NewPool",
      "type": "event"
    },
    {
      "anonymous": false,
      "inputs": [
        {
          "indexed": false,
          "name": "id",
          "type": "uint256"
        }
      ],
      "name": "FinishPool",
      "type": "event"
    },
    {
      "anonymous": false,
      "inputs": [
        {
          "indexed": false,
          "name": "Token",
          "type": "address"
        }
      ],
      "name": "MainCoinAdded",
      "type": "event"
    },
    {
      "anonymous": false,
      "inputs": [
        {
          "indexed": false,
          "name": "Token",
          "type": "address"
        }
      ],
      "name": "MainCoinRemoved",
      "type": "event"
    },
    {
      "anonymous": false,
      "inputs": [
        {
          "indexed": false,
          "name": "Amount",
          "type": "uint256"
        },
        {
          "indexed": false,
          "name": "To",
          "type": "address"
        }
      ],
      "name": "TransferOutETH",
      "type": "event"
    },
    {
      "anonymous": false,
      "inputs": [
        {
          "indexed": false,
          "name": "Amount",
          "type": "uint256"
        },
        {
          "indexed": false,
          "name": "From",
          "type": "address"
        }
      ],
      "name": "TransferInETH",
      "type": "event"
    },
    {
      "anonymous": false,
      "inputs": [
        {
          "indexed": false,
          "name": "Amount",
          "type": "uint256"
        },
        {
          "indexed": false,
          "name": "To",
          "type": "address"
        },
        {
          "indexed": false,
          "name": "Token",
          "type": "address"
        }
      ],
      "name": "TransferOut",
      "type": "event"
    },
    {
      "anonymous": false,
      "inputs": [
        {
          "indexed": false,
          "name": "Amount",
          "type": "uint256"
        },
        {
          "indexed": false,
          "name": "From",
          "type": "address"
        },
        {
          "indexed": false,
          "name": "Token",
          "type": "address"
        }
      ],
      "name": "TransferIn",
      "type": "event"
    },
    {
      "anonymous": false,
      "inputs": [],
      "name": "Pause",
      "type": "event"
    },
    {
      "anonymous": false,
      "inputs": [],
      "name": "Unpause",
      "type": "event"
    },
    {
      "anonymous": false,
      "inputs": [
        {
          "indexed": true,
          "name": "previousOwner",
          "type": "address"
        }
      ],
      "name": "OwnershipRenounced",
      "type": "event"
    },
    {
      "anonymous": false,
      "inputs": [
        {
          "indexed": true,
          "name": "previousOwner",
          "type": "address"
        },
        {
          "indexed": true,
          "name": "newOwner",
          "type": "address"
        }
      ],
      "name": "OwnershipTransferred",
      "type": "event"
    },
    {
      "constant": false,
      "inputs": [
        {
          "name": "_id",
          "type": "uint256"
        }
      ],
      "name": "WithdrawInvestment",
      "outputs": [
        {
          "name": "",
          "type": "bool"
        }
      ],
      "payable": false,
      "stateMutability": "nonpayable",
      "type": "function"
    },
    {
      "constant": true,
      "inputs": [],
      "name": "GetMyInvestmentIds",
      "outputs": [
        {
          "name": "",
          "type": "uint256[]"
        }
      ],
      "payable": false,
      "stateMutability": "view",
      "type": "function"
    }
  ],
  "bytecode": "0x608060405260008060146101000a81548160ff021916908315150217905550336000806101000a81548173ffffffffffffffffffffffffffffffffffffffff021916908373ffffffffffffffffffffffffffffffffffffffff160217905550600f600060156101000a81548161ffff021916908361ffff1602179055506103e8600060176101000a81548161ffff021916908361ffff16021790555060506001819055506000600260006101000a81548173ffffffffffffffffffffffffffffffffffffffff021916908373ffffffffffffffffffffffffffffffffffffffff1602179055506000600260146101000a81548160ff0219169083151502179055506127106003819055506014600560006101000a81548161ffff021916908361ffff1602179055506000600560026101000a81548161ffff021916908361ffff16021790555060006007819055506000600a81905550614d7d806101646000396000f3006080604052600436106101f8576000357c0100000000000000000000000000000000000000000000000000000000900463ffffffff168062ea921614610215578063014f3aff146102585780630d08caa01461028b57806311fad209146102da5780631ac8989f1461030b5780633037548a1461033e5780633f4ba83a1461039957806348d9614d146103b057806349e42f10146103e357806356793bc7146104395780635c975abb1461049a5780635ea84ad6146104c9578063624dea1c146104f657806363552a491461052557806366b91da914610591578063715018a6146106175780638456cb591461062e57806387e3c599146106455780638c788de01461068a5780638da5cb5b146106b557806391314dde1461070c578063991e979a146107785780639baf390a146107bb578063a38c6549146107e6578063aac5da5c14610829578063ac4afa3814610840578063be33a3ec14610961578063c5053add1461098b578063cbf476e5146109b6578063e05425e4146109e3578063e4dc37bb14610a14578063e890671614610a47578063ea9223a614610aa2578063ecf1a2c914610b73578063f04be48b14610ba4578063f155e88e14610bc4578063f2fde38b14610bef578063f8d5c26b14610c32578063fc1a86ff14610c63578063fd711a5514610cc6578063ff02c51314610d0b575b600260149054906101000a900460ff16151561021357600080fd5b005b34801561022157600080fd5b50610256600480360381019080803573ffffffffffffffffffffffffffffffffffffffff169060200190929190505050610da2565b005b34801561026457600080fd5b5061026d610ebb565b604051808261ffff1661ffff16815260200191505060405180910390f35b34801561029757600080fd5b506102b660048036038101908080359060200190929190505050610ed2565b604051808260048111156102c657fe5b60ff16815260200191505060405180910390f35b3480156102e657600080fd5b50610309600480360381019080803561ffff1690602001909291905050506112d0565b005b34801561031757600080fd5b50610320611465565b604051808261ffff1661ffff16815260200191505060405180910390f35b34801561034a57600080fd5b5061037f600480360381019080803573ffffffffffffffffffffffffffffffffffffffff16906020019092919050505061147c565b604051808215151515815260200191505060405180910390f35b3480156103a557600080fd5b506103ae61149c565b005b3480156103bc57600080fd5b506103c561155a565b604051808261ffff1661ffff16815260200191505060405180910390f35b3480156103ef57600080fd5b5061040e60048036038101908080359060200190929190505050611572565b6040518083600481111561041e57fe5b60ff1681526020018281526020019250505060405180910390f35b34801561044557600080fd5b50610484600480360381019080803573ffffffffffffffffffffffffffffffffffffffff169060200190929190803590602001909291905050506119ad565b6040518082815260200191505060405180910390f35b3480156104a657600080fd5b506104af6119dd565b604051808215151515815260200191505060405180910390f35b3480156104d557600080fd5b506104f4600480360381019080803590602001909291905050506119f0565b005b34801561050257600080fd5b5061050b611a55565b604051808215151515815260200191505060405180910390f35b34801561053157600080fd5b5061053a611a6c565b6040518080602001828103825283818151815260200191508051906020019060200280838360005b8381101561057d578082015181840152602081019050610562565b505050509050019250505060405180910390f35b34801561059d57600080fd5b506105bc60048036038101908080359060200190929190505050611b01565b60405180851515151581526020018481526020018381526020018273ffffffffffffffffffffffffffffffffffffffff1673ffffffffffffffffffffffffffffffffffffffff16815260200194505050505060405180910390f35b34801561062357600080fd5b5061062c611b9f565b005b34801561063a57600080fd5b50610643611ca1565b005b34801561065157600080fd5b5061067060048036038101908080359060200190929190505050611d61565b604051808215151515815260200191505060405180910390f35b34801561069657600080fd5b5061069f611ea2565b6040518082815260200191505060405180910390f35b3480156106c157600080fd5b506106ca611ea8565b604051808273ffffffffffffffffffffffffffffffffffffffff1673ffffffffffffffffffffffffffffffffffffffff16815260200191505060405180910390f35b34801561071857600080fd5b50610721611ecd565b6040518080602001828103825283818151815260200191508051906020019060200280838360005b83811015610764578082015181840152602081019050610749565b505050509050019250505060405180910390f35b34801561078457600080fd5b506107b9600480360381019080803573ffffffffffffffffffffffffffffffffffffffff169060200190929190505050611f62565b005b3480156107c757600080fd5b506107d061201e565b6040518082815260200191505060405180910390f35b3480156107f257600080fd5b50610827600480360381019080803573ffffffffffffffffffffffffffffffffffffffff169060200190929190505050612028565b005b34801561083557600080fd5b5061083e612141565b005b34801561084c57600080fd5b5061086b600480360381019080803590602001909291905050506121c8565b604051808e73ffffffffffffffffffffffffffffffffffffffff1673ffffffffffffffffffffffffffffffffffffffff1681526020018d73ffffffffffffffffffffffffffffffffffffffff1673ffffffffffffffffffffffffffffffffffffffff1681526020018c81526020018b81526020018a81526020018973ffffffffffffffffffffffffffffffffffffffff1673ffffffffffffffffffffffffffffffffffffffff16815260200188815260200187151515158152602001868152602001858152602001848152602001838152602001821515151581526020019d505050505050505050505050505060405180910390f35b61098960048036038101908080359060200190929190803590602001909291905050506122a8565b005b34801561099757600080fd5b506109a0612d71565b6040518082815260200191505060405180910390f35b3480156109c257600080fd5b506109e160048036038101908080359060200190929190505050612d7b565b005b3480156109ef57600080fd5b50610a12600480360381019080803561ffff169060200190929190505050612de0565b005b348015610a2057600080fd5b50610a29612ede565b604051808261ffff1661ffff16815260200191505060405180910390f35b348015610a5357600080fd5b50610a88600480360381019080803573ffffffffffffffffffffffffffffffffffffffff169060200190929190505050612ef6565b604051808215151515815260200191505060405180910390f35b348015610aae57600080fd5b50610acd60048036038101908080359060200190929190505050612f4c565b60405180886004811115610add57fe5b60ff1681526020018773ffffffffffffffffffffffffffffffffffffffff1673ffffffffffffffffffffffffffffffffffffffff1681526020018681526020018581526020018473ffffffffffffffffffffffffffffffffffffffff1673ffffffffffffffffffffffffffffffffffffffff16815260200183815260200182815260200197505050505050505060405180910390f35b348015610b7f57600080fd5b50610ba2600480360381019080803561ffff1690602001909291905050506130bc565b005b610bc260048036038101908080359060200190929190505050613137565b005b348015610bd057600080fd5b50610bd96139cd565b6040518082815260200191505060405180910390f35b348015610bfb57600080fd5b50610c30600480360381019080803573ffffffffffffffffffffffffffffffffffffffff1690602001909291905050506139d7565b005b348015610c3e57600080fd5b50610c61600480360381019080803561ffff169060200190929190505050613a3e565b005b348015610c6f57600080fd5b50610cc4600480360381019080803573ffffffffffffffffffffffffffffffffffffffff169060200190929190803573ffffffffffffffffffffffffffffffffffffffff169060200190929190505050613ab9565b005b348015610cd257600080fd5b50610cf160048036038101908080359060200190929190505050613c7b565b604051808215151515815260200191505060405180910390f35b348015610d1757600080fd5b50610da0600480360381019080803573ffffffffffffffffffffffffffffffffffffffff16906020019092919080359060200190929190803590602001909291908035906020019092919080359060200190929190803515159060200190929190803573ffffffffffffffffffffffffffffffffffffffff169060200190929190505050613dba565b005b6000809054906101000a900473ffffffffffffffffffffffffffffffffffffffff1673ffffffffffffffffffffffffffffffffffffffff163373ffffffffffffffffffffffffffffffffffffffff16141515610dfd57600080fd5b7f46e7a65ed7662dc42b119afa3a03fc8474ed27a5a48d664c0b5e8b87b04184cf81604051808273ffffffffffffffffffffffffffffffffffffffff1673ffffffffffffffffffffffffffffffffffffffff16815260200191505060405180910390a16000600660008373ffffffffffffffffffffffffffffffffffffffff1673ffffffffffffffffffffffffffffffffffffffff16815260200190815260200160002060006101000a81548160ff02191690831515021790555050565b60008060179054906101000a900461ffff16905090565b600060075482101515610f4d576040517f08c379a000000000000000000000000000000000000000000000000000000000815260040180806020018281038252600d8152602001807f57726f6e6720706f6f6c2069640000000000000000000000000000000000000081525060200191505060405180910390fd5b60086000838152602001908152602001600020600a015442108015610f88575060006008600084815260200190815260200160002060080154115b15610f9657600090506112cb565b60086000838152602001908152602001600020600a01544210158015610fd2575060006008600084815260200190815260200160002060080154115b8015610ff35750600860008381526020019081526020016000206002015442105b1561100157600190506112cb565b6000600860008481526020019081526020016000206008015414801561104757506008600083815260200190815260200160002060070160009054906101000a900460ff165b80156110685750600860008381526020019081526020016000206002015442105b1561107657600290506112cb565b600060086000848152602001908152602001600020600801541480156110bd57506008600083815260200190815260200160002060070160009054906101000a900460ff16155b156110cb57600490506112cb565b6000600860008481526020019081526020016000206008015411801561111257506008600083815260200190815260200160002060070160009054906101000a900460ff16155b801561113f575060086000838152602001908152602001600020600c0160009054906101000a900460ff16155b1561114d57600390506112cb565b6008600083815260200190815260200160002060020154421015801561119457506008600083815260200190815260200160002060070160009054906101000a900460ff16155b156111d45760086000838152602001908152602001600020600c0160009054906101000a900460ff16156111cb57600490506112cb565b600390506112cb565b6008600083815260200190815260200160002060020154421015801561121a57506008600083815260200190815260200160002060070160009054906101000a900460ff165b156112ca5760086000838152602001908152602001600020600c0160009054906101000a900460ff1680611264575060006008600084815260200190815260200160002060080154145b80156112b357506008600083815260200190815260200160002060060154600860008481526020019081526020016000206008015460086000858152602001908152602001600020600b015401145b156112c157600490506112cb565b600390506112cb565b5b919050565b6000809054906101000a900473ffffffffffffffffffffffffffffffffffffffff1673ffffffffffffffffffffffffffffffffffffffff163373ffffffffffffffffffffffffffffffffffffffff1614151561132b57600080fd5b806127108161ffff1610156113f35781600560009054906101000a900461ffff168061ffff168261ffff16111561137e5783600060156101000a81548161ffff021916908361ffff1602179055506113ec565b6040517f08c379a000000000000000000000000000000000000000000000000000000000815260040180806020018281038252600a8152602001807f4e6f74206269676765720000000000000000000000000000000000000000000081525060200191505060405180910390fd5b5050611461565b6040517f08c379a000000000000000000000000000000000000000000000000000000000815260040180806020018281038252600c8152602001807f4e6f7420696e2072616e6765000000000000000000000000000000000000000081525060200191505060405180910390fd5b5050565b60008060159054906101000a900461ffff16905090565b60066020528060005260406000206000915054906101000a900460ff1681565b6000809054906101000a900473ffffffffffffffffffffffffffffffffffffffff1673ffffffffffffffffffffffffffffffffffffffff163373ffffffffffffffffffffffffffffffffffffffff161415156114f757600080fd5b600060149054906101000a900460ff16151561151257600080fd5b60008060146101000a81548160ff0219169083151502179055507f7805862f689e2f13df9f062ff482ad3ad112aca9e0847911ed832e158c525b3360405160405180910390a1565b6000600560009054906101000a900461ffff16905090565b600080600754831015156115ee576040517f08c379a000000000000000000000000000000000000000000000000000000000815260040180806020018281038252600d8152602001807f57726f6e6720706f6f6c2069640000000000000000000000000000000000000081525060200191505060405180910390fd5b60086000848152602001908152602001600020600a015442108015611629575060006008600085815260200190815260200160002060080154115b1561163d57600080809050915091506119a8565b60086000848152602001908152602001600020600a01544210158015611679575060006008600085815260200190815260200160002060080154115b801561169a5750600860008481526020019081526020016000206002015442105b156116ae57600180809050915091506119a8565b600060086000858152602001908152602001600020600801541480156116f457506008600084815260200190815260200160002060070160009054906101000a900460ff165b80156117155750600860008481526020019081526020016000206002015442105b1561172957600280809050915091506119a8565b6000600860008581526020019081526020016000206008015414801561177057506008600084815260200190815260200160002060070160009054906101000a900460ff16155b156117855760046003809050915091506119a8565b600060086000858152602001908152602001600020600801541180156117cc57506008600084815260200190815260200160002060070160009054906101000a900460ff16155b80156117f9575060086000848152602001908152602001600020600c0160009054906101000a900460ff16155b1561180e5760036004809050915091506119a8565b6008600084815260200190815260200160002060020154421015801561185557506008600084815260200190815260200160002060070160009054906101000a900460ff16155b156118a35760086000848152602001908152602001600020600c0160009054906101000a900460ff16156118935760046005809050915091506119a8565b60036006809050915091506119a8565b600860008481526020019081526020016000206002015442101580156118e957506008600084815260200190815260200160002060070160009054906101000a900460ff165b156119a75760086000848152602001908152602001600020600c0160009054906101000a900460ff1680611933575060006008600085815260200190815260200160002060080154145b801561198257506008600084815260200190815260200160002060060154600860008581526020019081526020016000206008015460086000868152602001908152602001600020600b015401145b156119975760046007809050915091506119a8565b60036008809050915091506119a8565b5b915091565b6009602052816000526040600020818154811015156119c857fe5b90600052602060002001600091509150505481565b600060149054906101000a900460ff1681565b6000809054906101000a900473ffffffffffffffffffffffffffffffffffffffff1673ffffffffffffffffffffffffffffffffffffffff163373ffffffffffffffffffffffffffffffffffffffff16141515611a4b57600080fd5b8060018190555050565b6000600260149054906101000a900460ff16905090565b6060600960003373ffffffffffffffffffffffffffffffffffffffff1673ffffffffffffffffffffffffffffffffffffffff168152602001908152602001600020805480602002602001604051908101604052809291908181526020018280548015611af757602002820191906000526020600020905b815481526020019060010190808311611ae3575b5050505050905090565b6000806000806008600086815260200190815260200160002060070160009054906101000a900460ff16600860008781526020019081526020016000206002015460086000888152602001908152602001600020600a01546008600089815260200190815260200160002060010160009054906101000a900473ffffffffffffffffffffffffffffffffffffffff1693509350935093509193509193565b6000809054906101000a900473ffffffffffffffffffffffffffffffffffffffff1673ffffffffffffffffffffffffffffffffffffffff163373ffffffffffffffffffffffffffffffffffffffff16141515611bfa57600080fd5b6000809054906101000a900473ffffffffffffffffffffffffffffffffffffffff1673ffffffffffffffffffffffffffffffffffffffff167ff8df31144d9c2f0f6b59d69b8b98abd5459d07f2742c4df920b25aae33c6482060405160405180910390a260008060006101000a81548173ffffffffffffffffffffffffffffffffffffffff021916908373ffffffffffffffffffffffffffffffffffffffff160217905550565b6000809054906101000a900473ffffffffffffffffffffffffffffffffffffffff1673ffffffffffffffffffffffffffffffffffffffff163373ffffffffffffffffffffffffffffffffffffffff16141515611cfc57600080fd5b600060149054906101000a900460ff16151515611d1857600080fd5b6001600060146101000a81548160ff0219169083151502179055507f6985a02210a168e66602d3235cb6db0e70f92b3ba4d376a33c0f3d9434bff62560405160405180910390a1565b6000600a548211158015611d8b57506000600b600084815260200190815260200160002060040154115b8015611dcb575060036004811115611d9f57fe5b611dbe600b600085815260200190815260200160002060000154610ed2565b6004811115611dc957fe5b145b15611e9857611e7360086000600b600086815260200190815260200160002060000154815260200190815260200160002060000160009054906101000a900473ffffffffffffffffffffffffffffffffffffffff16600b600085815260200190815260200160002060010160009054906101000a900473ffffffffffffffffffffffffffffffffffffffff16600b600086815260200190815260200160002060040154614325565b6000600b60008481526020019081526020016000206004018190555060019050611e9d565b600090505b919050565b60075481565b6000809054906101000a900473ffffffffffffffffffffffffffffffffffffffff1681565b6060600c60003373ffffffffffffffffffffffffffffffffffffffff1673ffffffffffffffffffffffffffffffffffffffff168152602001908152602001600020805480602002602001604051908101604052809291908181526020018280548015611f5857602002820191906000526020600020905b815481526020019060010190808311611f44575b5050505050905090565b6000809054906101000a900473ffffffffffffffffffffffffffffffffffffffff1673ffffffffffffffffffffffffffffffffffffffff163373ffffffffffffffffffffffffffffffffffffffff16141515611fbd57600080fd5b8073ffffffffffffffffffffffffffffffffffffffff166108fc3073ffffffffffffffffffffffffffffffffffffffff16319081150290604051600060405180830381858888f1935050505015801561201a573d6000803e3d6000fd5b5050565b6000600154905090565b6000809054906101000a900473ffffffffffffffffffffffffffffffffffffffff1673ffffffffffffffffffffffffffffffffffffffff163373ffffffffffffffffffffffffffffffffffffffff1614151561208357600080fd5b7f8b732648ec6304b6125c30b24aa7c51736b4c10b079067109e27cbb1e2e9052581604051808273ffffffffffffffffffffffffffffffffffffffff1673ffffffffffffffffffffffffffffffffffffffff16815260200191505060405180910390a16001600660008373ffffffffffffffffffffffffffffffffffffffff1673ffffffffffffffffffffffffffffffffffffffff16815260200190815260200160002060006101000a81548160ff02191690831515021790555050565b6000809054906101000a900473ffffffffffffffffffffffffffffffffffffffff1673ffffffffffffffffffffffffffffffffffffffff163373ffffffffffffffffffffffffffffffffffffffff1614151561219c57600080fd5b600260149054906101000a900460ff1615600260146101000a81548160ff021916908315150217905550565b60086020528060005260406000206000915090508060000160009054906101000a900473ffffffffffffffffffffffffffffffffffffffff16908060010160009054906101000a900473ffffffffffffffffffffffffffffffffffffffff16908060020154908060030154908060040154908060050160009054906101000a900473ffffffffffffffffffffffffffffffffffffffff16908060060154908060070160009054906101000a900460ff169080600801549080600901549080600a01549080600b01549080600c0160009054906101000a900460ff1690508d565b6000806000806000806007548810151561232a576040517f08c379a000000000000000000000000000000000000000000000000000000000815260040180806020018281038252600d8152602001807f57726f6e6720706f6f6c2069640000000000000000000000000000000000000081525060200191505060405180910390fd5b600073ffffffffffffffffffffffffffffffffffffffff16600860008a815260200190815260200160002060050160009054906101000a900473ffffffffffffffffffffffffffffffffffffffff1673ffffffffffffffffffffffffffffffffffffffff1614151515612405576040517f08c379a000000000000000000000000000000000000000000000000000000000815260040180806020018281038252601d8152602001807f506f6f6c20697320666f72204554482c2075736520496e76657445544800000081525060200191505060405180910390fd5b6127108711151561247e576040517f08c379a000000000000000000000000000000000000000000000000000000000815260040180806020018281038252601b8152602001807f4e65656420696e76657374206d6f7265207468656e203130303030000000000081525060200191505060405180910390fd5b6124bf600860008a815260200190815260200160002060050160009054906101000a900473ffffffffffffffffffffffffffffffffffffffff1633896144a8565b60c0604051908101604052808981526020013373ffffffffffffffffffffffffffffffffffffffff1681526020018881526020016124fc336147ea565b151581526020016000815260200142815250600b6000600a5481526020019081526020016000206000820151816000015560208201518160010160006101000a81548173ffffffffffffffffffffffffffffffffffffffff021916908373ffffffffffffffffffffffffffffffffffffffff1602179055506040820151816002015560608201518160030160006101000a81548160ff0219169083151502179055506080820151816004015560a08201518160050155905050600c60003373ffffffffffffffffffffffffffffffffffffffff1673ffffffffffffffffffffffffffffffffffffffff168152602001908152602001600020600a549080600181540180825580915050906001820390600052602060002001600090919290919091505550600a6000815480929190600101919050555061265287600860008b815260200190815260200160002060040154614983565b955061267487600860008b815260200190815260200160002060030154614983565b94506000600481111561268357fe5b61268c89610ed2565b600481111561269757fe5b1480156126a957506126a8336147ea565b5b80156126cb575060086000898152602001908152602001600020600801548611155b156129c0576126f0600860008a81526020019081526020016000206008015487614999565b600860008a8152602001908152602001600020600801819055506008600089815260200190815260200160002060070160009054906101000a900460ff161561277c57612758600b60006001600a5403815260200190815260200160002060040154876149b2565b600b60006001600a54038152602001908152602001600020600401819055506127be565b6127bd600860008a815260200190815260200160002060000160009054906101000a900473ffffffffffffffffffffffffffffffffffffffff163388614325565b5b6127e76127cd34612710614983565b600060159054906101000a900461ffff1661ffff166149ce565b93506127f38785614999565b925061287460046000600860008c815260200190815260200160002060050160009054906101000a900473ffffffffffffffffffffffffffffffffffffffff1673ffffffffffffffffffffffffffffffffffffffff1673ffffffffffffffffffffffffffffffffffffffff16815260200190815260200160002054856149b2565b60046000600860008c815260200190815260200160002060050160009054906101000a900473ffffffffffffffffffffffffffffffffffffffff1673ffffffffffffffffffffffffffffffffffffffff1673ffffffffffffffffffffffffffffffffffffffff16815260200190815260200160002081905550612964600860008a815260200190815260200160002060050160009054906101000a900473ffffffffffffffffffffffffffffffffffffffff16600860008b815260200190815260200160002060010160009054906101000a900473ffffffffffffffffffffffffffffffffffffffff1685614325565b6000600860008a81526020019081526020016000206008015414156129bb577f5aa793a17b0774b891ce2b0dd5dbe8f04132e547df384ab1053d32470050b5fa886040518082815260200191505060405180910390a15b612d67565b600160048111156129cd57fe5b6129d689610ed2565b60048111156129e157fe5b148015612a04575060086000898152602001908152602001600020600801548511155b15612cf957612a29600860008a81526020019081526020016000206008015486614999565b600860008a8152602001908152602001600020600801819055506008600089815260200190815260200160002060070160009054906101000a900460ff1615612ab557612a91600b60006001600a5403815260200190815260200160002060040154866149b2565b600b60006001600a5403815260200190815260200160002060040181905550612af7565b612af6600860008a815260200190815260200160002060000160009054906101000a900473ffffffffffffffffffffffffffffffffffffffff163387614325565b5b612b20612b0634612710614983565b600560009054906101000a900461ffff1661ffff166149ce565b9150612b2c8783614999565b9050612bad60046000600860008c815260200190815260200160002060050160009054906101000a900473ffffffffffffffffffffffffffffffffffffffff1673ffffffffffffffffffffffffffffffffffffffff1673ffffffffffffffffffffffffffffffffffffffff16815260200190815260200160002054836149b2565b60046000600860008c815260200190815260200160002060050160009054906101000a900473ffffffffffffffffffffffffffffffffffffffff1673ffffffffffffffffffffffffffffffffffffffff1673ffffffffffffffffffffffffffffffffffffffff16815260200190815260200160002081905550612c9d600860008a815260200190815260200160002060050160009054906101000a900473ffffffffffffffffffffffffffffffffffffffff16600860008b815260200190815260200160002060010160009054906101000a900473ffffffffffffffffffffffffffffffffffffffff1683614325565b6000600860008a8152602001908152602001600020600801541415612cf4577f5aa793a17b0774b891ce2b0dd5dbe8f04132e547df384ab1053d32470050b5fa886040518082815260200191505060405180910390a15b612d67565b6040517f08c379a00000000000000000000000000000000000000000000000000000000081526004018080602001828103825260188152602001807f496e766573746d656e74206e6f7420636f6d706c69746564000000000000000081525060200191505060405180910390fd5b5050505050505050565b6000600754905090565b6000809054906101000a900473ffffffffffffffffffffffffffffffffffffffff1673ffffffffffffffffffffffffffffffffffffffff163373ffffffffffffffffffffffffffffffffffffffff16141515612dd657600080fd5b8060038190555050565b6000809054906101000a900473ffffffffffffffffffffffffffffffffffffffff1673ffffffffffffffffffffffffffffffffffffffff163373ffffffffffffffffffffffffffffffffffffffff16141515612e3b57600080fd5b806127108161ffff161015612e6c5781600060176101000a81548161ffff021916908361ffff160217905550612eda565b6040517f08c379a000000000000000000000000000000000000000000000000000000000815260040180806020018281038252600c8152602001807f4e6f7420696e2072616e6765000000000000000000000000000000000000000081525060200191505060405180910390fd5b5050565b6000600560009054906101000a900461ffff16905090565b6000600660008373ffffffffffffffffffffffffffffffffffffffff1673ffffffffffffffffffffffffffffffffffffffff16815260200190815260200160002060009054906101000a900460ff169050919050565b600080600080600080600060075488101515612fd0576040517f08c379a00000000000000000000000000000000000000000000000000000000081526004018080602001828103825260088152602001807f57726f6e6720496400000000000000000000000000000000000000000000000081525060200191505060405180910390fd5b612fd988610ed2565b600860008a815260200190815260200160002060000160009054906101000a900473ffffffffffffffffffffffffffffffffffffffff16600860008b815260200190815260200160002060030154600860008c815260200190815260200160002060040154600860008d815260200190815260200160002060050160009054906101000a900473ffffffffffffffffffffffffffffffffffffffff16600860008e815260200190815260200160002060060154600860008f8152602001908152602001600020600801549650965096509650965096509650919395979092949650565b6000809054906101000a900473ffffffffffffffffffffffffffffffffffffffff1673ffffffffffffffffffffffffffffffffffffffff163373ffffffffffffffffffffffffffffffffffffffff1614151561311757600080fd5b80600560026101000a81548161ffff021916908361ffff16021790555050565b600080600080343360035482101515613956577f3a32cdd14cdfd431946dfa0b2aef5ace661340411aaadcaee6aef6738d3023268282604051808381526020018273ffffffffffffffffffffffffffffffffffffffff1673ffffffffffffffffffffffffffffffffffffffff1681526020019250505060405180910390a16007548710151561322e576040517f08c379a000000000000000000000000000000000000000000000000000000000815260040180806020018281038252600d8152602001807f57726f6e6720706f6f6c2069640000000000000000000000000000000000000081525060200191505060405180910390fd5b600073ffffffffffffffffffffffffffffffffffffffff166008600089815260200190815260200160002060050160009054906101000a900473ffffffffffffffffffffffffffffffffffffffff1673ffffffffffffffffffffffffffffffffffffffff16141515613308576040517f08c379a00000000000000000000000000000000000000000000000000000000081526004018080602001828103825260138152602001807f506f6f6c206973206e6f7420666f72204554480000000000000000000000000081525060200191505060405180910390fd5b60c0604051908101604052808881526020013373ffffffffffffffffffffffffffffffffffffffff168152602001348152602001613345336147ea565b151581526020016000815260200142815250600b6000600a5481526020019081526020016000206000820151816000015560208201518160010160006101000a81548173ffffffffffffffffffffffffffffffffffffffff021916908373ffffffffffffffffffffffffffffffffffffffff1602179055506040820151816002015560608201518160030160006101000a81548160ff0219169083151502179055506080820151816004015560a08201518160050155905050600c60003373ffffffffffffffffffffffffffffffffffffffff1673ffffffffffffffffffffffffffffffffffffffff168152602001908152602001600020600a549080600181540180825580915050906001820390600052602060002001600090919290919091505550613476600a5460016149b2565b600a8190555061349c34600860008a815260200190815260200160002060040154614983565b95506134be34600860008a815260200190815260200160002060030154614983565b9450600060048111156134cd57fe5b6134d688610ed2565b60048111156134e157fe5b1480156134f357506134f2336147ea565b5b8015613515575060086000888152602001908152602001600020600801548611155b156136da5761353a600860008981526020019081526020016000206008015487614999565b60086000898152602001908152602001600020600801819055506008600088815260200190815260200160002060070160009054906101000a900460ff16156135c6576135a2600b60006001600a5403815260200190815260200160002060040154876149b2565b600b60006001600a5403815260200190815260200160002060040181905550613608565b6136076008600089815260200190815260200160002060000160009054906101000a900473ffffffffffffffffffffffffffffffffffffffff163388614325565b5b61363c61361734612710614983565b613637612710600060159054906101000a900461ffff1661ffff16614999565b6149ce565b935061367e6008600089815260200190815260200160002060010160009054906101000a900473ffffffffffffffffffffffffffffffffffffffff1685614a06565b6000600860008981526020019081526020016000206008015414156136d5577f5aa793a17b0774b891ce2b0dd5dbe8f04132e547df384ab1053d32470050b5fa876040518082815260200191505060405180910390a15b613951565b600160048111156136e757fe5b6136f088610ed2565b60048111156136fb57fe5b14801561371e575060086000888152602001908152602001600020600801548511155b156138e357613743600860008981526020019081526020016000206008015486614999565b60086000898152602001908152602001600020600801819055506008600088815260200190815260200160002060070160009054906101000a900460ff16156137cf576137ab600b60006001600a5403815260200190815260200160002060040154866149b2565b600b60006001600a5403815260200190815260200160002060040181905550613811565b6138106008600089815260200190815260200160002060000160009054906101000a900473ffffffffffffffffffffffffffffffffffffffff163387614325565b5b61384561382034612710614983565b613840612710600560009054906101000a900461ffff1661ffff16614999565b6149ce565b92506138876008600089815260200190815260200160002060010160009054906101000a900473ffffffffffffffffffffffffffffffffffffffff1684614a06565b6000600860008981526020019081526020016000206008015414156138de577f5aa793a17b0774b891ce2b0dd5dbe8f04132e547df384ab1053d32470050b5fa876040518082815260200191505060405180910390a15b613951565b6040517f08c379a00000000000000000000000000000000000000000000000000000000081526004018080602001828103825260188152602001807f496e766573746d656e74206e6f7420636f6d706c69746564000000000000000081525060200191505060405180910390fd5b6139c4565b6040517f08c379a00000000000000000000000000000000000000000000000000000000081526004018080602001828103825260128152602001807f53656e642045544820746f20696e76657374000000000000000000000000000081525060200191505060405180910390fd5b50505050505050565b6000600354905090565b6000809054906101000a900473ffffffffffffffffffffffffffffffffffffffff1673ffffffffffffffffffffffffffffffffffffffff163373ffffffffffffffffffffffffffffffffffffffff16141515613a3257600080fd5b613a3b81614abc565b50565b6000809054906101000a900473ffffffffffffffffffffffffffffffffffffffff1673ffffffffffffffffffffffffffffffffffffffff163373ffffffffffffffffffffffffffffffffffffffff16141515613a9957600080fd5b80600560006101000a81548161ffff021916908361ffff16021790555050565b6000809054906101000a900473ffffffffffffffffffffffffffffffffffffffff1673ffffffffffffffffffffffffffffffffffffffff163373ffffffffffffffffffffffffffffffffffffffff16141515613b1457600080fd5b8173ffffffffffffffffffffffffffffffffffffffff1663a9059cbb82600460008673ffffffffffffffffffffffffffffffffffffffff1673ffffffffffffffffffffffffffffffffffffffff168152602001908152602001600020546040518363ffffffff167c0100000000000000000000000000000000000000000000000000000000028152600401808373ffffffffffffffffffffffffffffffffffffffff1673ffffffffffffffffffffffffffffffffffffffff16815260200182815260200192505050602060405180830381600087803b158015613bf657600080fd5b505af1158015613c0a573d6000803e3d6000fd5b505050506040513d6020811015613c2057600080fd5b8101908080519060200190929190505050506000600460008473ffffffffffffffffffffffffffffffffffffffff1673ffffffffffffffffffffffffffffffffffffffff168152602001908152602001600020819055505050565b600042600860008481526020019081526020016000206002015411158015613cb9575060006008600084815260200190815260200160002060080154115b8015613ce6575060086000838152602001908152602001600020600c0160009054906101000a900460ff16155b15613db057600160086000848152602001908152602001600020600c0160006101000a81548160ff021916908315150217905550613da76008600084815260200190815260200160002060000160009054906101000a900473ffffffffffffffffffffffffffffffffffffffff166008600085815260200190815260200160002060010160009054906101000a900473ffffffffffffffffffffffffffffffffffffffff166008600086815260200190815260200160002060080154614325565b60019050613db5565b600090505b919050565b6000613dc588614bb6565b1515613e39576040517f08c379a00000000000000000000000000000000000000000000000000000000081526004018080602001828103825260168152602001807f4e6565642056616c696420455243323020546f6b656e0000000000000000000081525060200191505060405180910390fd5b86613e5842600560029054906101000a900461ffff1661ffff166149b2565b11151515613ece576040517f08c379a000000000000000000000000000000000000000000000000000000000815260040180806020018281038252601a8152602001807f4e656564206d6f7265207468656e204d696e4475726174696f6e00000000000081525060200191505060405180910390fd5b600073ffffffffffffffffffffffffffffffffffffffff168273ffffffffffffffffffffffffffffffffffffffff161480613f0e5750613f0d82612ef6565b5b1515613f1957600080fd5b848610151515613fb7576040517f08c379a00000000000000000000000000000000000000000000000000000000081526004018080602001828103825260398152602001807f504f5a20686f6c64657273206e65656420746f2068617665206265747465722081526020017f286f72207468652073616d65203d206f6666292070726963650000000000000081525060400191505060405180910390fd5b613fc28833866144a8565b84861461400957614004613ffe613ff6613fdc8a42614999565b600060179054906101000a900461ffff1661ffff166149ce565b612710614983565b426149b2565b61400b565b425b90506101a0604051908101604052808973ffffffffffffffffffffffffffffffffffffffff1681526020013373ffffffffffffffffffffffffffffffffffffffff1681526020018881526020018781526020018681526020018373ffffffffffffffffffffffffffffffffffffffff1681526020018581526020018415158152602001858152602001428152602001828152602001600081526020016000151581525060086000600754815260200190815260200160002060008201518160000160006101000a81548173ffffffffffffffffffffffffffffffffffffffff021916908373ffffffffffffffffffffffffffffffffffffffff16021790555060208201518160010160006101000a81548173ffffffffffffffffffffffffffffffffffffffff021916908373ffffffffffffffffffffffffffffffffffffffff16021790555060408201518160020155606082015181600301556080820151816004015560a08201518160050160006101000a81548173ffffffffffffffffffffffffffffffffffffffff021916908373ffffffffffffffffffffffffffffffffffffffff16021790555060c0820151816006015560e08201518160070160006101000a81548160ff0219169083151502179055506101008201518160080155610120820151816009015561014082015181600a015561016082015181600b015561018082015181600c0160006101000a81548160ff021916908315150217905550905050600960003373ffffffffffffffffffffffffffffffffffffffff1673ffffffffffffffffffffffffffffffffffffffff16815260200190815260200160002060075490806001815401808255809150509060018203906000526020600020016000909192909190915055507fbe4222bc407cb12031595fc55b46531e46308d31e4572c9c4360d8ae790e1a3188600754604051808373ffffffffffffffffffffffffffffffffffffffff1673ffffffffffffffffffffffffffffffffffffffff1681526020018281526020019250505060405180910390a161431560075460016149b2565b6007819055505050505050505050565b7fe4d818e6f992efbd60db553f3edce819a199baec79a784b95c89bc8ee86f2584818385604051808481526020018373ffffffffffffffffffffffffffffffffffffffff1673ffffffffffffffffffffffffffffffffffffffff1681526020018273ffffffffffffffffffffffffffffffffffffffff1673ffffffffffffffffffffffffffffffffffffffff168152602001935050505060405180910390a18273ffffffffffffffffffffffffffffffffffffffff1663a9059cbb83836040518363ffffffff167c0100000000000000000000000000000000000000000000000000000000028152600401808373ffffffffffffffffffffffffffffffffffffffff1673ffffffffffffffffffffffffffffffffffffffff16815260200182815260200192505050602060405180830381600087803b15801561446757600080fd5b505af115801561447b573d6000803e3d6000fd5b505050506040513d602081101561449157600080fd5b810190808051906020019092919050505050505050565b828282808373ffffffffffffffffffffffffffffffffffffffff1663dd62ed3e84306040518363ffffffff167c0100000000000000000000000000000000000000000000000000000000028152600401808373ffffffffffffffffffffffffffffffffffffffff1673ffffffffffffffffffffffffffffffffffffffff1681526020018273ffffffffffffffffffffffffffffffffffffffff1673ffffffffffffffffffffffffffffffffffffffff16815260200192505050602060405180830381600087803b15801561457b57600080fd5b505af115801561458f573d6000803e3d6000fd5b505050506040513d60208110156145a557600080fd5b8101908080519060200190929190505050101515614774578573ffffffffffffffffffffffffffffffffffffffff166323b872dd8630876040518463ffffffff167c0100000000000000000000000000000000000000000000000000000000028152600401808473ffffffffffffffffffffffffffffffffffffffff1673ffffffffffffffffffffffffffffffffffffffff1681526020018373ffffffffffffffffffffffffffffffffffffffff1673ffffffffffffffffffffffffffffffffffffffff1681526020018281526020019350505050602060405180830381600087803b15801561469457600080fd5b505af11580156146a8573d6000803e3d6000fd5b505050506040513d60208110156146be57600080fd5b8101908080519060200190929190505050507f1fecf4702e692891a7c2f0d328779b085efb5edd094fa5558bd5cd147a167922848688604051808481526020018373ffffffffffffffffffffffffffffffffffffffff1673ffffffffffffffffffffffffffffffffffffffff1681526020018273ffffffffffffffffffffffffffffffffffffffff1673ffffffffffffffffffffffffffffffffffffffff168152602001935050505060405180910390a16147e2565b6040517f08c379a000000000000000000000000000000000000000000000000000000000815260040180806020018281038252600b8152602001807f4e6f20616c6c6f776e636500000000000000000000000000000000000000000081525060200191505060405180910390fd5b505050505050565b60008073ffffffffffffffffffffffffffffffffffffffff16600260009054906101000a900473ffffffffffffffffffffffffffffffffffffffff1673ffffffffffffffffffffffffffffffffffffffff16141561484b576001905061497e565b60015461487a600260009054906101000a900473ffffffffffffffffffffffffffffffffffffffff1684614c71565b10158061497b5750600260009054906101000a900473ffffffffffffffffffffffffffffffffffffffff1673ffffffffffffffffffffffffffffffffffffffff1663b217bb01836040518263ffffffff167c0100000000000000000000000000000000000000000000000000000000028152600401808273ffffffffffffffffffffffffffffffffffffffff1673ffffffffffffffffffffffffffffffffffffffff168152602001915050602060405180830381600087803b15801561493f57600080fd5b505af1158015614953573d6000803e3d6000fd5b505050506040513d602081101561496957600080fd5b81019080805190602001909291905050505b90505b919050565b6000818381151561499057fe5b04905092915050565b60008282111515156149a757fe5b818303905092915050565b600081830190508281101515156149c557fe5b80905092915050565b6000808314156149e15760009050614a00565b81830290508183828115156149f257fe5b041415156149fc57fe5b8090505b92915050565b7feca5ae7bd9109b0f7d228f3f8a8cc834a1f995af62df6dc226dc3ab3f38dc7b38183604051808381526020018273ffffffffffffffffffffffffffffffffffffffff1673ffffffffffffffffffffffffffffffffffffffff1681526020019250505060405180910390a18173ffffffffffffffffffffffffffffffffffffffff166108fc829081150290604051600060405180830381858888f19350505050158015614ab7573d6000803e3d6000fd5b505050565b600073ffffffffffffffffffffffffffffffffffffffff168173ffffffffffffffffffffffffffffffffffffffff1614151515614af857600080fd5b8073ffffffffffffffffffffffffffffffffffffffff166000809054906101000a900473ffffffffffffffffffffffffffffffffffffffff1673ffffffffffffffffffffffffffffffffffffffff167f8be0079c531659141344cd1fd0a4f28419497f9722a3daafe3b4186f6b6457e060405160405180910390a3806000806101000a81548173ffffffffffffffffffffffffffffffffffffffff021916908373ffffffffffffffffffffffffffffffffffffffff16021790555050565b6000808273ffffffffffffffffffffffffffffffffffffffff166318160ddd6040518163ffffffff167c0100000000000000000000000000000000000000000000000000000000028152600401602060405180830381600087803b158015614c1d57600080fd5b505af1158015614c31573d6000803e3d6000fd5b505050506040513d6020811015614c4757600080fd5b81019080805190602001909291905050501115614c675760019050614c6c565b600090505b919050565b60008273ffffffffffffffffffffffffffffffffffffffff166370a08231836040518263ffffffff167c0100000000000000000000000000000000000000000000000000000000028152600401808273ffffffffffffffffffffffffffffffffffffffff1673ffffffffffffffffffffffffffffffffffffffff168152602001915050602060405180830381600087803b158015614d0e57600080fd5b505af1158015614d22573d6000803e3d6000fd5b505050506040513d6020811015614d3857600080fd5b81019080805190602001909291905050509050929150505600a165627a7a72305820990d7265199c0799f8ddb10302c9401184f7a56b72d94de2f999bf6e6153d5b50029",
  "source": "// SPDX-License-Identifier: MIT\r\npragma solidity ^0.4.24;\r\n\r\nimport \"./Invest.sol\";\r\n\r\ncontract InvestorData is Invest {\r\n    function WithdrawInvestment(uint256 _id) public returns (bool) {\r\n        if (_id <= TotalInvestors &&\r\n         Investors[_id].TokensOwn > 0 &&\r\n        GetPoolStatus(Investors[_id].Poolid) == PoolStatus.Finished  ) {\r\n            TransferToken(\r\n                pools[Investors[_id].Poolid].Token,\r\n                Investors[_id].InvestorAddress,\r\n                Investors[_id].TokensOwn\r\n            );\r\n            Investors[_id].TokensOwn = 0;\r\n            return true;\r\n        }\r\n        return false;\r\n    }\r\n\r\n    //Give all the id's of the investment  by sender address\r\n    function GetMyInvestmentIds() public view returns (uint256[]) {\r\n        return InvestorsMap[msg.sender];\r\n    }\r\n}\r\n",
  "sourcePath": "C:\\Users\\Administrator\\Desktop\\Code\\Poolz\\contracts\\InvestorData.sol",
  "compiler": {
    "name": "solc",
    "version": "0.4.26+commit.4563c3fc.Emscripten.clang"
  },
  "schemaVersion": "3.2.5",
  "updatedAt": "2020-10-06T15:00:04.367Z",
  "devdoc": {
    "methods": {
      "pause()": {
        "details": "called by the owner to pause, triggers stopped state"
      },
      "renounceOwnership()": {
        "details": "Allows the current owner to relinquish control of the contract."
      },
      "transferOwnership(address)": {
        "details": "Allows the current owner to transfer control of the contract to a newOwner.",
        "params": {
          "_newOwner": "The address to transfer ownership to."
        }
      },
      "unpause()": {
        "details": "called by the owner to unpause, returns to normal state"
      }
    }
  },
  "userdoc": {
    "methods": {
      "renounceOwnership()": {
        "notice": "Renouncing to ownership will leave the contract without an owner. It will not be possible to call the functions with the `onlyOwner` modifier anymore."
      }
    }
  }
}