{
  "contractName": "Invest",
  "abi": [
    {
      "constant": false,
      "inputs": [
        {
          "name": "_token",
          "type": "address"
        }
      ],
      "name": "RemoveERC20Maincoin",
      "outputs": [],
      "payable": false,
      "stateMutability": "nonpayable",
      "type": "function"
    },
    {
      "constant": true,
      "inputs": [],
      "name": "GetPozTimer",
      "outputs": [
        {
          "name": "",
          "type": "uint16"
        }
      ],
      "payable": false,
      "stateMutability": "view",
      "type": "function"
    },
    {
      "constant": true,
      "inputs": [
        {
          "name": "_id",
          "type": "uint256"
        }
      ],
      "name": "GetPoolStatus",
      "outputs": [
        {
          "name": "",
          "type": "uint8"
        }
      ],
      "payable": false,
      "stateMutability": "view",
      "type": "function"
    },
    {
      "constant": false,
      "inputs": [
        {
          "name": "_fee",
          "type": "uint16"
        }
      ],
      "name": "SetPOZFee",
      "outputs": [],
      "payable": false,
      "stateMutability": "nonpayable",
      "type": "function"
    },
    {
      "constant": true,
      "inputs": [],
      "name": "GetPOZFee",
      "outputs": [
        {
          "name": "",
          "type": "uint16"
        }
      ],
      "payable": false,
      "stateMutability": "view",
      "type": "function"
    },
    {
      "constant": true,
      "inputs": [
        {
          "name": "",
          "type": "address"
        }
      ],
      "name": "ERC20MainCoins",
      "outputs": [
        {
          "name": "",
          "type": "bool"
        }
      ],
      "payable": false,
      "stateMutability": "view",
      "type": "function"
    },
    {
      "constant": false,
      "inputs": [],
      "name": "unpause",
      "outputs": [],
      "payable": false,
      "stateMutability": "nonpayable",
      "type": "function"
    },
    {
      "constant": true,
      "inputs": [],
      "name": "GetFee",
      "outputs": [
        {
          "name": "",
          "type": "uint16"
        }
      ],
      "payable": false,
      "stateMutability": "view",
      "type": "function"
    },
    {
      "constant": true,
      "inputs": [
        {
          "name": "",
          "type": "address"
        },
        {
          "name": "",
          "type": "uint256"
        }
      ],
      "name": "poolsMap",
      "outputs": [
        {
          "name": "",
          "type": "uint256"
        }
      ],
      "payable": false,
      "stateMutability": "view",
      "type": "function"
    },
    {
      "constant": true,
      "inputs": [],
      "name": "paused",
      "outputs": [
        {
          "name": "",
          "type": "bool"
        }
      ],
      "payable": false,
      "stateMutability": "view",
      "type": "function"
    },
    {
      "constant": false,
      "inputs": [
        {
          "name": "_MinPoz",
          "type": "uint256"
        }
      ],
      "name": "SetMinPoz",
      "outputs": [],
      "payable": false,
      "stateMutability": "nonpayable",
      "type": "function"
    },
    {
      "constant": true,
      "inputs": [],
      "name": "GetIsPayble",
      "outputs": [
        {
          "name": "",
          "type": "bool"
        }
      ],
      "payable": false,
      "stateMutability": "view",
      "type": "function"
    },
    {
      "constant": true,
      "inputs": [],
      "name": "GetMyPoolsId",
      "outputs": [
        {
          "name": "",
          "type": "uint256[]"
        }
      ],
      "payable": false,
      "stateMutability": "view",
      "type": "function"
    },
    {
      "constant": true,
      "inputs": [
        {
          "name": "_id",
          "type": "uint256"
        }
      ],
      "name": "GetMorePoolData",
      "outputs": [
        {
          "name": "",
          "type": "bool"
        },
        {
          "name": "",
          "type": "uint256"
        },
        {
          "name": "",
          "type": "uint256"
        },
        {
          "name": "",
          "type": "address"
        }
      ],
      "payable": false,
      "stateMutability": "view",
      "type": "function"
    },
    {
      "constant": false,
      "inputs": [],
      "name": "renounceOwnership",
      "outputs": [],
      "payable": false,
      "stateMutability": "nonpayable",
      "type": "function"
    },
    {
      "constant": false,
      "inputs": [],
      "name": "pause",
      "outputs": [],
      "payable": false,
      "stateMutability": "nonpayable",
      "type": "function"
    },
    {
      "constant": true,
      "inputs": [],
      "name": "poolsCount",
      "outputs": [
        {
          "name": "",
          "type": "uint256"
        }
      ],
      "payable": false,
      "stateMutability": "view",
      "type": "function"
    },
    {
      "constant": true,
      "inputs": [],
      "name": "owner",
      "outputs": [
        {
          "name": "",
          "type": "address"
        }
      ],
      "payable": false,
      "stateMutability": "view",
      "type": "function"
    },
    {
      "constant": false,
      "inputs": [
        {
          "name": "_to",
          "type": "address"
        }
      ],
      "name": "WithdrawETHFee",
      "outputs": [],
      "payable": false,
      "stateMutability": "nonpayable",
      "type": "function"
    },
    {
      "constant": true,
      "inputs": [],
      "name": "GetMinPoz",
      "outputs": [
        {
          "name": "",
          "type": "uint256"
        }
      ],
      "payable": false,
      "stateMutability": "view",
      "type": "function"
    },
    {
      "constant": false,
      "inputs": [
        {
          "name": "_token",
          "type": "address"
        }
      ],
      "name": "AddERC20Maincoin",
      "outputs": [],
      "payable": false,
      "stateMutability": "nonpayable",
      "type": "function"
    },
    {
      "constant": false,
      "inputs": [],
      "name": "SwitchIsPayble",
      "outputs": [],
      "payable": false,
      "stateMutability": "nonpayable",
      "type": "function"
    },
    {
      "constant": true,
      "inputs": [
        {
          "name": "",
          "type": "uint256"
        }
      ],
      "name": "pools",
      "outputs": [
        {
          "name": "Token",
          "type": "address"
        },
        {
          "name": "Creator",
          "type": "address"
        },
        {
          "name": "FinishTime",
          "type": "uint256"
        },
        {
          "name": "Rate",
          "type": "uint256"
        },
        {
          "name": "POZRate",
          "type": "uint256"
        },
        {
          "name": "Maincoin",
          "type": "address"
        },
        {
          "name": "StartAmount",
          "type": "uint256"
        },
        {
          "name": "IsLocked",
          "type": "bool"
        },
        {
          "name": "Lefttokens",
          "type": "uint256"
        },
        {
          "name": "StartTime",
          "type": "uint256"
        },
        {
          "name": "OpenForAll",
          "type": "uint256"
        },
        {
          "name": "UnlockedTokens",
          "type": "uint256"
        },
        {
          "name": "TookLeftOvers",
          "type": "bool"
        }
      ],
      "payable": false,
      "stateMutability": "view",
      "type": "function"
    },
    {
      "constant": true,
      "inputs": [],
      "name": "GetLastPoolId",
      "outputs": [
        {
          "name": "",
          "type": "uint256"
        }
      ],
      "payable": false,
      "stateMutability": "view",
      "type": "function"
    },
    {
      "constant": false,
      "inputs": [
        {
          "name": "_MinETH",
          "type": "uint256"
        }
      ],
      "name": "SetMinETH",
      "outputs": [],
      "payable": false,
      "stateMutability": "nonpayable",
      "type": "function"
    },
    {
      "constant": false,
      "inputs": [
        {
          "name": "_pozTimer",
          "type": "uint16"
        }
      ],
      "name": "SetPozTimer",
      "outputs": [],
      "payable": false,
      "stateMutability": "nonpayable",
      "type": "function"
    },
    {
      "constant": true,
      "inputs": [],
      "name": "GetMinDuration",
      "outputs": [
        {
          "name": "",
          "type": "uint16"
        }
      ],
      "payable": false,
      "stateMutability": "view",
      "type": "function"
    },
    {
      "constant": true,
      "inputs": [
        {
          "name": "_token",
          "type": "address"
        }
      ],
      "name": "IsERC20Maincoin",
      "outputs": [
        {
          "name": "",
          "type": "bool"
        }
      ],
      "payable": false,
      "stateMutability": "view",
      "type": "function"
    },
    {
      "constant": true,
      "inputs": [
        {
          "name": "_id",
          "type": "uint256"
        }
      ],
      "name": "GetPoolData",
      "outputs": [
        {
          "name": "",
          "type": "uint8"
        },
        {
          "name": "",
          "type": "address"
        },
        {
          "name": "",
          "type": "uint256"
        },
        {
          "name": "",
          "type": "uint256"
        },
        {
          "name": "",
          "type": "address"
        },
        {
          "name": "",
          "type": "uint256"
        },
        {
          "name": "",
          "type": "uint256"
        }
      ],
      "payable": false,
      "stateMutability": "view",
      "type": "function"
    },
    {
      "constant": false,
      "inputs": [
        {
          "name": "_minDuration",
          "type": "uint16"
        }
      ],
      "name": "SetMinDuration",
      "outputs": [],
      "payable": false,
      "stateMutability": "nonpayable",
      "type": "function"
    },
    {
      "constant": true,
      "inputs": [],
      "name": "GetMinETH",
      "outputs": [
        {
          "name": "",
          "type": "uint256"
        }
      ],
      "payable": false,
      "stateMutability": "view",
      "type": "function"
    },
    {
      "constant": false,
      "inputs": [
        {
          "name": "_newOwner",
          "type": "address"
        }
      ],
      "name": "transferOwnership",
      "outputs": [],
      "payable": false,
      "stateMutability": "nonpayable",
      "type": "function"
    },
    {
      "constant": false,
      "inputs": [
        {
          "name": "_fee",
          "type": "uint16"
        }
      ],
      "name": "SetFee",
      "outputs": [],
      "payable": false,
      "stateMutability": "nonpayable",
      "type": "function"
    },
    {
      "constant": false,
      "inputs": [
        {
          "name": "_Token",
          "type": "address"
        },
        {
          "name": "_to",
          "type": "address"
        }
      ],
      "name": "WithdrawERC20Fee",
      "outputs": [],
      "payable": false,
      "stateMutability": "nonpayable",
      "type": "function"
    },
    {
      "constant": false,
      "inputs": [
        {
          "name": "_PoolId",
          "type": "uint256"
        }
      ],
      "name": "WithdrawLeftOvers",
      "outputs": [
        {
          "name": "",
          "type": "bool"
        }
      ],
      "payable": false,
      "stateMutability": "nonpayable",
      "type": "function"
    },
    {
      "constant": false,
      "inputs": [
        {
          "name": "_Token",
          "type": "address"
        },
        {
          "name": "_FinishTime",
          "type": "uint256"
        },
        {
          "name": "_Rate",
          "type": "uint256"
        },
        {
          "name": "_POZRate",
          "type": "uint256"
        },
        {
          "name": "_StartAmount",
          "type": "uint256"
        },
        {
          "name": "_IsLocked",
          "type": "bool"
        },
        {
          "name": "_MainCoin",
          "type": "address"
        }
      ],
      "name": "CreatePool",
      "outputs": [],
      "payable": false,
      "stateMutability": "nonpayable",
      "type": "function"
    },
    {
      "payable": true,
      "stateMutability": "payable",
      "type": "fallback"
    },
    {
      "anonymous": false,
      "inputs": [
        {
          "indexed": false,
          "name": "token",
          "type": "address"
        },
        {
          "indexed": false,
          "name": "id",
          "type": "uint256"
        }
      ],
      "name": "NewPool",
      "type": "event"
    },
    {
      "anonymous": false,
      "inputs": [
        {
          "indexed": false,
          "name": "id",
          "type": "uint256"
        }
      ],
      "name": "FinishPool",
      "type": "event"
    },
    {
      "anonymous": false,
      "inputs": [
        {
          "indexed": false,
          "name": "Token",
          "type": "address"
        }
      ],
      "name": "MainCoinAdded",
      "type": "event"
    },
    {
      "anonymous": false,
      "inputs": [
        {
          "indexed": false,
          "name": "Token",
          "type": "address"
        }
      ],
      "name": "MainCoinRemoved",
      "type": "event"
    },
    {
      "anonymous": false,
      "inputs": [
        {
          "indexed": false,
          "name": "Amount",
          "type": "uint256"
        },
        {
          "indexed": false,
          "name": "To",
          "type": "address"
        }
      ],
      "name": "TransferOutETH",
      "type": "event"
    },
    {
      "anonymous": false,
      "inputs": [
        {
          "indexed": false,
          "name": "Amount",
          "type": "uint256"
        },
        {
          "indexed": false,
          "name": "From",
          "type": "address"
        }
      ],
      "name": "TransferInETH",
      "type": "event"
    },
    {
      "anonymous": false,
      "inputs": [
        {
          "indexed": false,
          "name": "Amount",
          "type": "uint256"
        },
        {
          "indexed": false,
          "name": "To",
          "type": "address"
        },
        {
          "indexed": false,
          "name": "Token",
          "type": "address"
        }
      ],
      "name": "TransferOut",
      "type": "event"
    },
    {
      "anonymous": false,
      "inputs": [
        {
          "indexed": false,
          "name": "Amount",
          "type": "uint256"
        },
        {
          "indexed": false,
          "name": "From",
          "type": "address"
        },
        {
          "indexed": false,
          "name": "Token",
          "type": "address"
        }
      ],
      "name": "TransferIn",
      "type": "event"
    },
    {
      "anonymous": false,
      "inputs": [],
      "name": "Pause",
      "type": "event"
    },
    {
      "anonymous": false,
      "inputs": [],
      "name": "Unpause",
      "type": "event"
    },
    {
      "anonymous": false,
      "inputs": [
        {
          "indexed": true,
          "name": "previousOwner",
          "type": "address"
        }
      ],
      "name": "OwnershipRenounced",
      "type": "event"
    },
    {
      "anonymous": false,
      "inputs": [
        {
          "indexed": true,
          "name": "previousOwner",
          "type": "address"
        },
        {
          "indexed": true,
          "name": "newOwner",
          "type": "address"
        }
      ],
      "name": "OwnershipTransferred",
      "type": "event"
    },
    {
      "constant": false,
      "inputs": [
        {
          "name": "_PoolId",
          "type": "uint256"
        }
      ],
      "name": "InvestETH",
      "outputs": [],
      "payable": true,
      "stateMutability": "payable",
      "type": "function"
    },
    {
      "constant": false,
      "inputs": [
        {
          "name": "_PoolId",
          "type": "uint256"
        },
        {
          "name": "_Amount",
          "type": "uint256"
        }
      ],
      "name": "InvestERC20",
      "outputs": [],
      "payable": true,
      "stateMutability": "payable",
      "type": "function"
    }
  ],
  "bytecode": "0x608060405260008060146101000a81548160ff021916908315150217905550336000806101000a81548173ffffffffffffffffffffffffffffffffffffffff021916908373ffffffffffffffffffffffffffffffffffffffff160217905550600f600060156101000a81548161ffff021916908361ffff1602179055506103e8600060176101000a81548161ffff021916908361ffff16021790555060506001819055506000600260006101000a81548173ffffffffffffffffffffffffffffffffffffffff021916908373ffffffffffffffffffffffffffffffffffffffff1602179055506000600260146101000a81548160ff0219169083151502179055506127106003819055506014600460006101000a81548161ffff021916908361ffff1602179055506000600460026101000a81548161ffff021916908361ffff16021790555060006006819055506145498061015c6000396000f3006080604052600436106101d7576000357c0100000000000000000000000000000000000000000000000000000000900463ffffffff168062ea9216146101f4578063014f3aff146102375780630d08caa01461026a57806311fad209146102b95780631ac8989f146102ea5780633037548a1461031d5780633f4ba83a1461037857806348d9614d1461038f57806356793bc7146103c25780635c975abb146104235780635ea84ad614610452578063624dea1c1461047f57806363552a49146104ae57806366b91da91461051a578063715018a6146105a05780638456cb59146105b75780638c788de0146105ce5780638da5cb5b146105f9578063991e979a146106505780639baf390a14610693578063a38c6549146106be578063aac5da5c14610701578063ac4afa3814610718578063be33a3ec14610839578063c5053add14610863578063cbf476e51461088e578063e05425e4146108bb578063e4dc37bb146108ec578063e89067161461091f578063ea9223a61461097a578063ecf1a2c914610a4b578063f04be48b14610a7c578063f155e88e14610a9c578063f2fde38b14610ac7578063f8d5c26b14610b0a578063fc1a86ff14610b3b578063fd711a5514610b9e578063ff02c51314610be3575b600260149054906101000a900460ff1615156101f257600080fd5b005b34801561020057600080fd5b50610235600480360381019080803573ffffffffffffffffffffffffffffffffffffffff169060200190929190505050610c7a565b005b34801561024357600080fd5b5061024c610d93565b604051808261ffff1661ffff16815260200191505060405180910390f35b34801561027657600080fd5b5061029560048036038101908080359060200190929190505050610daa565b604051808260048111156102a557fe5b60ff16815260200191505060405180910390f35b3480156102c557600080fd5b506102e8600480360381019080803561ffff1690602001909291905050506111a9565b005b3480156102f657600080fd5b506102ff61125a565b604051808261ffff1661ffff16815260200191505060405180910390f35b34801561032957600080fd5b5061035e600480360381019080803573ffffffffffffffffffffffffffffffffffffffff169060200190929190505050611271565b604051808215151515815260200191505060405180910390f35b34801561038457600080fd5b5061038d611291565b005b34801561039b57600080fd5b506103a461134f565b604051808261ffff1661ffff16815260200191505060405180910390f35b3480156103ce57600080fd5b5061040d600480360381019080803573ffffffffffffffffffffffffffffffffffffffff16906020019092919080359060200190929190505050611367565b6040518082815260200191505060405180910390f35b34801561042f57600080fd5b50610438611397565b604051808215151515815260200191505060405180910390f35b34801561045e57600080fd5b5061047d600480360381019080803590602001909291905050506113aa565b005b34801561048b57600080fd5b5061049461140f565b604051808215151515815260200191505060405180910390f35b3480156104ba57600080fd5b506104c3611426565b6040518080602001828103825283818151815260200191508051906020019060200280838360005b838110156105065780820151818401526020810190506104eb565b505050509050019250505060405180910390f35b34801561052657600080fd5b50610545600480360381019080803590602001909291905050506114bb565b60405180851515151581526020018481526020018381526020018273ffffffffffffffffffffffffffffffffffffffff1673ffffffffffffffffffffffffffffffffffffffff16815260200194505050505060405180910390f35b3480156105ac57600080fd5b506105b5611559565b005b3480156105c357600080fd5b506105cc61165b565b005b3480156105da57600080fd5b506105e361171b565b6040518082815260200191505060405180910390f35b34801561060557600080fd5b5061060e611721565b604051808273ffffffffffffffffffffffffffffffffffffffff1673ffffffffffffffffffffffffffffffffffffffff16815260200191505060405180910390f35b34801561065c57600080fd5b50610691600480360381019080803573ffffffffffffffffffffffffffffffffffffffff169060200190929190505050611746565b005b34801561069f57600080fd5b506106a8611802565b6040518082815260200191505060405180910390f35b3480156106ca57600080fd5b506106ff600480360381019080803573ffffffffffffffffffffffffffffffffffffffff16906020019092919050505061180c565b005b34801561070d57600080fd5b50610716611925565b005b34801561072457600080fd5b50610743600480360381019080803590602001909291905050506119ac565b604051808e73ffffffffffffffffffffffffffffffffffffffff1673ffffffffffffffffffffffffffffffffffffffff1681526020018d73ffffffffffffffffffffffffffffffffffffffff1673ffffffffffffffffffffffffffffffffffffffff1681526020018c81526020018b81526020018a81526020018973ffffffffffffffffffffffffffffffffffffffff1673ffffffffffffffffffffffffffffffffffffffff16815260200188815260200187151515158152602001868152602001858152602001848152602001838152602001821515151581526020019d505050505050505050505050505060405180910390f35b6108616004803603810190808035906020019092919080359060200190929190505050611a8c565b005b34801561086f57600080fd5b50610878612677565b6040518082815260200191505060405180910390f35b34801561089a57600080fd5b506108b960048036038101908080359060200190929190505050612681565b005b3480156108c757600080fd5b506108ea600480360381019080803561ffff1690602001909291905050506126e6565b005b3480156108f857600080fd5b50610901612772565b604051808261ffff1661ffff16815260200191505060405180910390f35b34801561092b57600080fd5b50610960600480360381019080803573ffffffffffffffffffffffffffffffffffffffff16906020019092919050505061278a565b604051808215151515815260200191505060405180910390f35b34801561098657600080fd5b506109a5600480360381019080803590602001909291905050506127e0565b604051808860048111156109b557fe5b60ff1681526020018773ffffffffffffffffffffffffffffffffffffffff1673ffffffffffffffffffffffffffffffffffffffff1681526020018681526020018581526020018473ffffffffffffffffffffffffffffffffffffffff1673ffffffffffffffffffffffffffffffffffffffff16815260200183815260200182815260200197505050505050505060405180910390f35b348015610a5757600080fd5b50610a7a600480360381019080803561ffff169060200190929190505050612951565b005b610a9a600480360381019080803590602001909291905050506129cc565b005b348015610aa857600080fd5b50610ab16131e6565b6040518082815260200191505060405180910390f35b348015610ad357600080fd5b50610b08600480360381019080803573ffffffffffffffffffffffffffffffffffffffff1690602001909291905050506131f0565b005b348015610b1657600080fd5b50610b39600480360381019080803561ffff169060200190929190505050613257565b005b348015610b4757600080fd5b50610b9c600480360381019080803573ffffffffffffffffffffffffffffffffffffffff169060200190929190803573ffffffffffffffffffffffffffffffffffffffff1690602001909291905050506132d2565b005b348015610baa57600080fd5b50610bc9600480360381019080803590602001909291905050506134e5565b604051808215151515815260200191505060405180910390f35b348015610bef57600080fd5b50610c78600480360381019080803573ffffffffffffffffffffffffffffffffffffffff16906020019092919080359060200190929190803590602001909291908035906020019092919080359060200190929190803515159060200190929190803573ffffffffffffffffffffffffffffffffffffffff169060200190929190505050613624565b005b6000809054906101000a900473ffffffffffffffffffffffffffffffffffffffff1673ffffffffffffffffffffffffffffffffffffffff163373ffffffffffffffffffffffffffffffffffffffff16141515610cd557600080fd5b7f46e7a65ed7662dc42b119afa3a03fc8474ed27a5a48d664c0b5e8b87b04184cf81604051808273ffffffffffffffffffffffffffffffffffffffff1673ffffffffffffffffffffffffffffffffffffffff16815260200191505060405180910390a16000600560008373ffffffffffffffffffffffffffffffffffffffff1673ffffffffffffffffffffffffffffffffffffffff16815260200190815260200160002060006101000a81548160ff02191690831515021790555050565b60008060179054906101000a900461ffff16905090565b60006006548211151515610e26576040517f08c379a000000000000000000000000000000000000000000000000000000000815260040180806020018281038252600d8152602001807f57726f6e6720706f6f6c2069640000000000000000000000000000000000000081525060200191505060405180910390fd5b60076000838152602001908152602001600020600a015442108015610e61575060006007600084815260200190815260200160002060080154115b15610e6f57600090506111a4565b60076000838152602001908152602001600020600a01544210158015610eab575060006007600084815260200190815260200160002060080154115b8015610ecc5750600760008381526020019081526020016000206002015442105b15610eda57600190506111a4565b60006007600084815260200190815260200160002060080154148015610f2057506007600083815260200190815260200160002060070160009054906101000a900460ff165b8015610f415750600760008381526020019081526020016000206002015442105b15610f4f57600290506111a4565b60006007600084815260200190815260200160002060080154148015610f9657506007600083815260200190815260200160002060070160009054906101000a900460ff16155b15610fa457600490506111a4565b60006007600084815260200190815260200160002060080154118015610feb57506007600083815260200190815260200160002060070160009054906101000a900460ff16155b8015611018575060076000838152602001908152602001600020600c0160009054906101000a900460ff16155b1561102657600390506111a4565b6007600083815260200190815260200160002060020154421015801561106d57506007600083815260200190815260200160002060070160009054906101000a900460ff16155b156110ad5760076000838152602001908152602001600020600c0160009054906101000a900460ff16156110a457600490506111a4565b600390506111a4565b600760008381526020019081526020016000206002015442101580156110f357506007600083815260200190815260200160002060070160009054906101000a900460ff165b156111a35760076000838152602001908152602001600020600c0160009054906101000a900460ff168061113d575060006007600084815260200190815260200160002060080154145b801561118c575060076000838152602001908152602001600020600b01546007600084815260200190815260200160002060080154600760008581526020019081526020016000206006015403145b1561119a57600490506111a4565b600390506111a4565b5b919050565b6000809054906101000a900473ffffffffffffffffffffffffffffffffffffffff1673ffffffffffffffffffffffffffffffffffffffff163373ffffffffffffffffffffffffffffffffffffffff1614151561120457600080fd5b806127108161ffff1610156112565781600460009054906101000a900461ffff168061ffff168261ffff1611156112535783600060156101000a81548161ffff021916908361ffff1602179055505b50505b5050565b60008060159054906101000a900461ffff16905090565b60056020528060005260406000206000915054906101000a900460ff1681565b6000809054906101000a900473ffffffffffffffffffffffffffffffffffffffff1673ffffffffffffffffffffffffffffffffffffffff163373ffffffffffffffffffffffffffffffffffffffff161415156112ec57600080fd5b600060149054906101000a900460ff16151561130757600080fd5b60008060146101000a81548160ff0219169083151502179055507f7805862f689e2f13df9f062ff482ad3ad112aca9e0847911ed832e158c525b3360405160405180910390a1565b6000600460009054906101000a900461ffff16905090565b60086020528160005260406000208181548110151561138257fe5b90600052602060002001600091509150505481565b600060149054906101000a900460ff1681565b6000809054906101000a900473ffffffffffffffffffffffffffffffffffffffff1673ffffffffffffffffffffffffffffffffffffffff163373ffffffffffffffffffffffffffffffffffffffff1614151561140557600080fd5b8060018190555050565b6000600260149054906101000a900460ff16905090565b6060600860003373ffffffffffffffffffffffffffffffffffffffff1673ffffffffffffffffffffffffffffffffffffffff1681526020019081526020016000208054806020026020016040519081016040528092919081815260200182805480156114b157602002820191906000526020600020905b81548152602001906001019080831161149d575b5050505050905090565b6000806000806007600086815260200190815260200160002060070160009054906101000a900460ff16600760008781526020019081526020016000206002015460076000888152602001908152602001600020600a01546007600089815260200190815260200160002060010160009054906101000a900473ffffffffffffffffffffffffffffffffffffffff1693509350935093509193509193565b6000809054906101000a900473ffffffffffffffffffffffffffffffffffffffff1673ffffffffffffffffffffffffffffffffffffffff163373ffffffffffffffffffffffffffffffffffffffff161415156115b457600080fd5b6000809054906101000a900473ffffffffffffffffffffffffffffffffffffffff1673ffffffffffffffffffffffffffffffffffffffff167ff8df31144d9c2f0f6b59d69b8b98abd5459d07f2742c4df920b25aae33c6482060405160405180910390a260008060006101000a81548173ffffffffffffffffffffffffffffffffffffffff021916908373ffffffffffffffffffffffffffffffffffffffff160217905550565b6000809054906101000a900473ffffffffffffffffffffffffffffffffffffffff1673ffffffffffffffffffffffffffffffffffffffff163373ffffffffffffffffffffffffffffffffffffffff161415156116b657600080fd5b600060149054906101000a900460ff161515156116d257600080fd5b6001600060146101000a81548160ff0219169083151502179055507f6985a02210a168e66602d3235cb6db0e70f92b3ba4d376a33c0f3d9434bff62560405160405180910390a1565b60065481565b6000809054906101000a900473ffffffffffffffffffffffffffffffffffffffff1681565b6000809054906101000a900473ffffffffffffffffffffffffffffffffffffffff1673ffffffffffffffffffffffffffffffffffffffff163373ffffffffffffffffffffffffffffffffffffffff161415156117a157600080fd5b8073ffffffffffffffffffffffffffffffffffffffff166108fc3073ffffffffffffffffffffffffffffffffffffffff16319081150290604051600060405180830381858888f193505050501580156117fe573d6000803e3d6000fd5b5050565b6000600154905090565b6000809054906101000a900473ffffffffffffffffffffffffffffffffffffffff1673ffffffffffffffffffffffffffffffffffffffff163373ffffffffffffffffffffffffffffffffffffffff1614151561186757600080fd5b7f8b732648ec6304b6125c30b24aa7c51736b4c10b079067109e27cbb1e2e9052581604051808273ffffffffffffffffffffffffffffffffffffffff1673ffffffffffffffffffffffffffffffffffffffff16815260200191505060405180910390a16001600560008373ffffffffffffffffffffffffffffffffffffffff1673ffffffffffffffffffffffffffffffffffffffff16815260200190815260200160002060006101000a81548160ff02191690831515021790555050565b6000809054906101000a900473ffffffffffffffffffffffffffffffffffffffff1673ffffffffffffffffffffffffffffffffffffffff163373ffffffffffffffffffffffffffffffffffffffff1614151561198057600080fd5b600260149054906101000a900460ff1615600260146101000a81548160ff021916908315150217905550565b60076020528060005260406000206000915090508060000160009054906101000a900473ffffffffffffffffffffffffffffffffffffffff16908060010160009054906101000a900473ffffffffffffffffffffffffffffffffffffffff16908060020154908060030154908060040154908060050160009054906101000a900473ffffffffffffffffffffffffffffffffffffffff16908060060154908060070160009054906101000a900460ff169080600801549080600901549080600a01549080600b01549080600c0160009054906101000a900460ff1690508d565b600080600060065485101515611b0a576040517f08c379a000000000000000000000000000000000000000000000000000000000815260040180806020018281038252600d8152602001807f57726f6e6720706f6f6c2069640000000000000000000000000000000000000081525060200191505060405180910390fd5b600073ffffffffffffffffffffffffffffffffffffffff166007600087815260200190815260200160002060050160009054906101000a900473ffffffffffffffffffffffffffffffffffffffff1673ffffffffffffffffffffffffffffffffffffffff1614151515611be5576040517f08c379a000000000000000000000000000000000000000000000000000000000815260040180806020018281038252601d8152602001807f506f6f6c20697320666f72204554482c2075736520496e76657445544800000081525060200191505060405180910390fd5b836007600087815260200190815260200160002060050160009054906101000a900473ffffffffffffffffffffffffffffffffffffffff1673ffffffffffffffffffffffffffffffffffffffff1663dd62ed3e33306040518363ffffffff167c0100000000000000000000000000000000000000000000000000000000028152600401808373ffffffffffffffffffffffffffffffffffffffff1673ffffffffffffffffffffffffffffffffffffffff1681526020018273ffffffffffffffffffffffffffffffffffffffff1673ffffffffffffffffffffffffffffffffffffffff16815260200192505050602060405180830381600087803b158015611ceb57600080fd5b505af1158015611cff573d6000803e3d6000fd5b505050506040513d6020811015611d1557600080fd5b810190808051906020019092919050505010151515611d9c576040517f08c379a00000000000000000000000000000000000000000000000000000000081526004018080602001828103825260128152602001807f546f6b656e73206e6f74206170726f766564000000000000000000000000000081525060200191505060405180910390fd5b61271084111515611e15576040517f08c379a000000000000000000000000000000000000000000000000000000000815260040180806020018281038252601b8152602001807f4e65656420696e76657374206d6f7265207468656e203130303030000000000081525060200191505060405180910390fd5b6007600086815260200190815260200160002060050160009054906101000a900473ffffffffffffffffffffffffffffffffffffffff1673ffffffffffffffffffffffffffffffffffffffff166323b872dd3330876040518463ffffffff167c0100000000000000000000000000000000000000000000000000000000028152600401808473ffffffffffffffffffffffffffffffffffffffff1673ffffffffffffffffffffffffffffffffffffffff1681526020018373ffffffffffffffffffffffffffffffffffffffff1673ffffffffffffffffffffffffffffffffffffffff1681526020018281526020019350505050602060405180830381600087803b158015611f2257600080fd5b505af1158015611f36573d6000803e3d6000fd5b505050506040513d6020811015611f4c57600080fd5b8101908080519060200190929190505050507f1fecf4702e692891a7c2f0d328779b085efb5edd094fa5558bd5cd147a16792284336007600089815260200190815260200160002060000160009054906101000a900473ffffffffffffffffffffffffffffffffffffffff16604051808481526020018373ffffffffffffffffffffffffffffffffffffffff1673ffffffffffffffffffffffffffffffffffffffff1681526020018273ffffffffffffffffffffffffffffffffffffffff1673ffffffffffffffffffffffffffffffffffffffff168152602001935050505060405180910390a160c0604051908101604052808681526020013373ffffffffffffffffffffffffffffffffffffffff16815260200185815260200161207033613b74565b151581526020016000815260200142815250600a600060095481526020019081526020016000206000820151816000015560208201518160010160006101000a81548173ffffffffffffffffffffffffffffffffffffffff021916908373ffffffffffffffffffffffffffffffffffffffff1602179055506040820151816002015560608201518160030160006101000a81548160ff0219169083151502179055506080820151816004015560a08201518160050155905050600b60003373ffffffffffffffffffffffffffffffffffffffff1673ffffffffffffffffffffffffffffffffffffffff16815260200190815260200160002060095490806001815401808255809150509060018203906000526020600020016000909192909190915055506009600081548092919060010191905055506007600086815260200190815260200160002060040154848115156121c757fe5b0492506007600086815260200190815260200160002060030154848115156121eb57fe5b049150600060048111156121fb57fe5b61220486610daa565b600481111561220f57fe5b148015612221575061222033613b74565b5b8015612243575060076000868152602001908152602001600020600801548311155b15612402578260076000878152602001908152602001600020600801600082825403925050819055506007600086815260200190815260200160002060070160009054906101000a900460ff16156122c35782600a6000600160095403815260200190815260200160002060040160008282540192505081905550612305565b6123046007600087815260200190815260200160002060000160009054906101000a900473ffffffffffffffffffffffffffffffffffffffff163385613d0d565b5b600060159054906101000a900461ffff166127100361ffff166127108581151561232b57fe5b040290506123a66007600087815260200190815260200160002060050160009054906101000a900473ffffffffffffffffffffffffffffffffffffffff166007600088815260200190815260200160002060010160009054906101000a900473ffffffffffffffffffffffffffffffffffffffff1683613d0d565b6000600760008781526020019081526020016000206008015414156123fd577f5aa793a17b0774b891ce2b0dd5dbe8f04132e547df384ab1053d32470050b5fa856040518082815260200191505060405180910390a15b612670565b6001600481111561240f57fe5b61241886610daa565b600481111561242357fe5b148015612446575060076000868152602001908152602001600020600801548211155b15612602578160076000878152602001908152602001600020600801600082825403925050819055506007600086815260200190815260200160002060070160009054906101000a900460ff16156124c65781600a6000600160095403815260200190815260200160002060040160008282540192505081905550612508565b6125076007600087815260200190815260200160002060000160009054906101000a900473ffffffffffffffffffffffffffffffffffffffff163384613d0d565b5b6125a66007600087815260200190815260200160002060050160009054906101000a900473ffffffffffffffffffffffffffffffffffffffff166007600088815260200190815260200160002060010160009054906101000a900473ffffffffffffffffffffffffffffffffffffffff16600460009054906101000a900461ffff166127100361ffff166127108881151561259f57fe5b0402613d0d565b6000600760008781526020019081526020016000206008015414156125fd577f5aa793a17b0774b891ce2b0dd5dbe8f04132e547df384ab1053d32470050b5fa856040518082815260200191505060405180910390a15b612670565b6040517f08c379a00000000000000000000000000000000000000000000000000000000081526004018080602001828103825260188152602001807f496e766573746d656e74206e6f7420636f6d706c69746564000000000000000081525060200191505060405180910390fd5b5050505050565b6000600654905090565b6000809054906101000a900473ffffffffffffffffffffffffffffffffffffffff1673ffffffffffffffffffffffffffffffffffffffff163373ffffffffffffffffffffffffffffffffffffffff161415156126dc57600080fd5b8060038190555050565b6000809054906101000a900473ffffffffffffffffffffffffffffffffffffffff1673ffffffffffffffffffffffffffffffffffffffff163373ffffffffffffffffffffffffffffffffffffffff1614151561274157600080fd5b806127108161ffff16101561276e5781600060176101000a81548161ffff021916908361ffff1602179055505b5050565b6000600460009054906101000a900461ffff16905090565b6000600560008373ffffffffffffffffffffffffffffffffffffffff1673ffffffffffffffffffffffffffffffffffffffff16815260200190815260200160002060009054906101000a900460ff169050919050565b60008060008060008060006006548811151515612865576040517f08c379a00000000000000000000000000000000000000000000000000000000081526004018080602001828103825260088152602001807f57726f6e6720496400000000000000000000000000000000000000000000000081525060200191505060405180910390fd5b61286e88610daa565b600760008a815260200190815260200160002060000160009054906101000a900473ffffffffffffffffffffffffffffffffffffffff16600760008b815260200190815260200160002060030154600760008c815260200190815260200160002060040154600760008d815260200190815260200160002060050160009054906101000a900473ffffffffffffffffffffffffffffffffffffffff16600760008e815260200190815260200160002060060154600760008f8152602001908152602001600020600801549650965096509650965096509650919395979092949650565b6000809054906101000a900473ffffffffffffffffffffffffffffffffffffffff1673ffffffffffffffffffffffffffffffffffffffff163373ffffffffffffffffffffffffffffffffffffffff161415156129ac57600080fd5b80600460026101000a81548161ffff021916908361ffff16021790555050565b6000806000343360035482101515613170577f3a32cdd14cdfd431946dfa0b2aef5ace661340411aaadcaee6aef6738d3023268282604051808381526020018273ffffffffffffffffffffffffffffffffffffffff1673ffffffffffffffffffffffffffffffffffffffff1681526020019250505060405180910390a160065486101515612ac2576040517f08c379a000000000000000000000000000000000000000000000000000000000815260040180806020018281038252600d8152602001807f57726f6e6720706f6f6c2069640000000000000000000000000000000000000081525060200191505060405180910390fd5b600073ffffffffffffffffffffffffffffffffffffffff166007600088815260200190815260200160002060050160009054906101000a900473ffffffffffffffffffffffffffffffffffffffff1673ffffffffffffffffffffffffffffffffffffffff16141515612b9c576040517f08c379a00000000000000000000000000000000000000000000000000000000081526004018080602001828103825260138152602001807f506f6f6c206973206e6f7420666f72204554480000000000000000000000000081525060200191505060405180910390fd5b60c0604051908101604052808781526020013373ffffffffffffffffffffffffffffffffffffffff168152602001348152602001612bd933613b74565b151581526020016000815260200142815250600a600060095481526020019081526020016000206000820151816000015560208201518160010160006101000a81548173ffffffffffffffffffffffffffffffffffffffff021916908373ffffffffffffffffffffffffffffffffffffffff1602179055506040820151816002015560608201518160030160006101000a81548160ff0219169083151502179055506080820151816004015560a08201518160050155905050600b60003373ffffffffffffffffffffffffffffffffffffffff1673ffffffffffffffffffffffffffffffffffffffff1681526020019081526020016000206009549080600181540180825580915050906001820390600052602060002001600090919290919091505550600960008154809291906001019190505550600760008781526020019081526020016000206004015434811515612d3057fe5b049450600760008781526020019081526020016000206003015434811515612d5457fe5b04935060006004811115612d6457fe5b612d6d87610daa565b6004811115612d7857fe5b148015612d8a5750612d8933613b74565b5b8015612dac575060076000878152602001908152602001600020600801548511155b15612f34578460076000888152602001908152602001600020600801600082825403925050819055506007600087815260200190815260200160002060070160009054906101000a900460ff1615612e2c5784600a6000600160095403815260200190815260200160002060040160008282540192505081905550612e6e565b612e6d6007600088815260200190815260200160002060000160009054906101000a900473ffffffffffffffffffffffffffffffffffffffff163387613d0d565b5b600060159054906101000a900461ffff166127100361ffff1661271034811515612e9457fe5b04029250612ed86007600088815260200190815260200160002060010160009054906101000a900473ffffffffffffffffffffffffffffffffffffffff1684613e90565b600060076000888152602001908152602001600020600801541415612f2f577f5aa793a17b0774b891ce2b0dd5dbe8f04132e547df384ab1053d32470050b5fa866040518082815260200191505060405180910390a15b61316b565b60016004811115612f4157fe5b612f4a87610daa565b6004811115612f5557fe5b148015612f78575060076000878152602001908152602001600020600801548411155b156130fd578360076000888152602001908152602001600020600801600082825403925050819055506007600087815260200190815260200160002060070160009054906101000a900460ff1615612ff85783600a600060016009540381526020019081526020016000206004016000828254019250508190555061303a565b6130396007600088815260200190815260200160002060000160009054906101000a900473ffffffffffffffffffffffffffffffffffffffff163386613d0d565b5b6130a16007600088815260200190815260200160002060010160009054906101000a900473ffffffffffffffffffffffffffffffffffffffff16600460009054906101000a900461ffff166127100361ffff166127103481151561309a57fe5b0402613e90565b6000600760008881526020019081526020016000206008015414156130f8577f5aa793a17b0774b891ce2b0dd5dbe8f04132e547df384ab1053d32470050b5fa866040518082815260200191505060405180910390a15b61316b565b6040517f08c379a00000000000000000000000000000000000000000000000000000000081526004018080602001828103825260188152602001807f496e766573746d656e74206e6f7420636f6d706c69746564000000000000000081525060200191505060405180910390fd5b6131de565b6040517f08c379a00000000000000000000000000000000000000000000000000000000081526004018080602001828103825260128152602001807f53656e642045544820746f20696e76657374000000000000000000000000000081525060200191505060405180910390fd5b505050505050565b6000600354905090565b6000809054906101000a900473ffffffffffffffffffffffffffffffffffffffff1673ffffffffffffffffffffffffffffffffffffffff163373ffffffffffffffffffffffffffffffffffffffff1614151561324b57600080fd5b61325481613f46565b50565b6000809054906101000a900473ffffffffffffffffffffffffffffffffffffffff1673ffffffffffffffffffffffffffffffffffffffff163373ffffffffffffffffffffffffffffffffffffffff161415156132b257600080fd5b80600460006101000a81548161ffff021916908361ffff16021790555050565b6000809054906101000a900473ffffffffffffffffffffffffffffffffffffffff1673ffffffffffffffffffffffffffffffffffffffff163373ffffffffffffffffffffffffffffffffffffffff1614151561332d57600080fd5b8173ffffffffffffffffffffffffffffffffffffffff1663a9059cbb828473ffffffffffffffffffffffffffffffffffffffff166370a08231306040518263ffffffff167c0100000000000000000000000000000000000000000000000000000000028152600401808273ffffffffffffffffffffffffffffffffffffffff1673ffffffffffffffffffffffffffffffffffffffff168152602001915050602060405180830381600087803b1580156133e557600080fd5b505af11580156133f9573d6000803e3d6000fd5b505050506040513d602081101561340f57600080fd5b81019080805190602001909291905050506040518363ffffffff167c0100000000000000000000000000000000000000000000000000000000028152600401808373ffffffffffffffffffffffffffffffffffffffff1673ffffffffffffffffffffffffffffffffffffffff16815260200182815260200192505050602060405180830381600087803b1580156134a557600080fd5b505af11580156134b9573d6000803e3d6000fd5b505050506040513d60208110156134cf57600080fd5b8101908080519060200190929190505050505050565b600042600760008481526020019081526020016000206002015411158015613523575060006007600084815260200190815260200160002060080154115b8015613550575060076000838152602001908152602001600020600c0160009054906101000a900460ff16155b1561361a57600160076000848152602001908152602001600020600c0160006101000a81548160ff0219169083151502179055506136116007600084815260200190815260200160002060000160009054906101000a900473ffffffffffffffffffffffffffffffffffffffff166007600085815260200190815260200160002060010160009054906101000a900473ffffffffffffffffffffffffffffffffffffffff166007600086815260200190815260200160002060080154613d0d565b6001905061361f565b600090505b919050565b600061362f88614040565b15156136a3576040517f08c379a00000000000000000000000000000000000000000000000000000000081526004018080602001828103825260168152602001807f4e6565642056616c696420455243323020546f6b656e0000000000000000000081525060200191505060405180910390fd5b86600460029054906101000a900461ffff1661ffff16420111151515613731576040517f08c379a000000000000000000000000000000000000000000000000000000000815260040180806020018281038252601a8152602001807f4e656564206d6f7265207468656e204d696e4475726174696f6e00000000000081525060200191505060405180910390fd5b600073ffffffffffffffffffffffffffffffffffffffff168273ffffffffffffffffffffffffffffffffffffffff16148061377157506137708261278a565b5b151561377c57600080fd5b84861015151561381a576040517f08c379a00000000000000000000000000000000000000000000000000000000081526004018080602001828103825260398152602001807f504f5a20686f6c64657273206e65656420746f2068617665206265747465722081526020017f286f72207468652073616d65203d206f6666292070726963650000000000000081525060400191505060405180910390fd5b6138258833866140fb565b8486146138595742612710600060179054906101000a900461ffff1661ffff16428a030281151561385257fe5b040161385b565b425b90506101a0604051908101604052808973ffffffffffffffffffffffffffffffffffffffff1681526020013373ffffffffffffffffffffffffffffffffffffffff1681526020018881526020018781526020018681526020018373ffffffffffffffffffffffffffffffffffffffff1681526020018581526020018415158152602001858152602001428152602001828152602001600081526020016000151581525060076000600654815260200190815260200160002060008201518160000160006101000a81548173ffffffffffffffffffffffffffffffffffffffff021916908373ffffffffffffffffffffffffffffffffffffffff16021790555060208201518160010160006101000a81548173ffffffffffffffffffffffffffffffffffffffff021916908373ffffffffffffffffffffffffffffffffffffffff16021790555060408201518160020155606082015181600301556080820151816004015560a08201518160050160006101000a81548173ffffffffffffffffffffffffffffffffffffffff021916908373ffffffffffffffffffffffffffffffffffffffff16021790555060c0820151816006015560e08201518160070160006101000a81548160ff0219169083151502179055506101008201518160080155610120820151816009015561014082015181600a015561016082015181600b015561018082015181600c0160006101000a81548160ff021916908315150217905550905050600860003373ffffffffffffffffffffffffffffffffffffffff1673ffffffffffffffffffffffffffffffffffffffff16815260200190815260200160002060065490806001815401808255809150509060018203906000526020600020016000909192909190915055507fbe4222bc407cb12031595fc55b46531e46308d31e4572c9c4360d8ae790e1a3188600654604051808373ffffffffffffffffffffffffffffffffffffffff1673ffffffffffffffffffffffffffffffffffffffff1681526020018281526020019250505060405180910390a16006600081548092919060010191905055505050505050505050565b60008073ffffffffffffffffffffffffffffffffffffffff16600260009054906101000a900473ffffffffffffffffffffffffffffffffffffffff1673ffffffffffffffffffffffffffffffffffffffff161415613bd55760019050613d08565b600154613c04600260009054906101000a900473ffffffffffffffffffffffffffffffffffffffff168461443d565b101580613d055750600260009054906101000a900473ffffffffffffffffffffffffffffffffffffffff1673ffffffffffffffffffffffffffffffffffffffff1663b217bb01836040518263ffffffff167c0100000000000000000000000000000000000000000000000000000000028152600401808273ffffffffffffffffffffffffffffffffffffffff1673ffffffffffffffffffffffffffffffffffffffff168152602001915050602060405180830381600087803b158015613cc957600080fd5b505af1158015613cdd573d6000803e3d6000fd5b505050506040513d6020811015613cf357600080fd5b81019080805190602001909291905050505b90505b919050565b7fe4d818e6f992efbd60db553f3edce819a199baec79a784b95c89bc8ee86f2584818385604051808481526020018373ffffffffffffffffffffffffffffffffffffffff1673ffffffffffffffffffffffffffffffffffffffff1681526020018273ffffffffffffffffffffffffffffffffffffffff1673ffffffffffffffffffffffffffffffffffffffff168152602001935050505060405180910390a18273ffffffffffffffffffffffffffffffffffffffff1663a9059cbb83836040518363ffffffff167c0100000000000000000000000000000000000000000000000000000000028152600401808373ffffffffffffffffffffffffffffffffffffffff1673ffffffffffffffffffffffffffffffffffffffff16815260200182815260200192505050602060405180830381600087803b158015613e4f57600080fd5b505af1158015613e63573d6000803e3d6000fd5b505050506040513d6020811015613e7957600080fd5b810190808051906020019092919050505050505050565b7feca5ae7bd9109b0f7d228f3f8a8cc834a1f995af62df6dc226dc3ab3f38dc7b38183604051808381526020018273ffffffffffffffffffffffffffffffffffffffff1673ffffffffffffffffffffffffffffffffffffffff1681526020019250505060405180910390a18173ffffffffffffffffffffffffffffffffffffffff166108fc829081150290604051600060405180830381858888f19350505050158015613f41573d6000803e3d6000fd5b505050565b600073ffffffffffffffffffffffffffffffffffffffff168173ffffffffffffffffffffffffffffffffffffffff1614151515613f8257600080fd5b8073ffffffffffffffffffffffffffffffffffffffff166000809054906101000a900473ffffffffffffffffffffffffffffffffffffffff1673ffffffffffffffffffffffffffffffffffffffff167f8be0079c531659141344cd1fd0a4f28419497f9722a3daafe3b4186f6b6457e060405160405180910390a3806000806101000a81548173ffffffffffffffffffffffffffffffffffffffff021916908373ffffffffffffffffffffffffffffffffffffffff16021790555050565b6000808273ffffffffffffffffffffffffffffffffffffffff166318160ddd6040518163ffffffff167c0100000000000000000000000000000000000000000000000000000000028152600401602060405180830381600087803b1580156140a757600080fd5b505af11580156140bb573d6000803e3d6000fd5b505050506040513d60208110156140d157600080fd5b810190808051906020019092919050505011156140f157600190506140f6565b600090505b919050565b828282808373ffffffffffffffffffffffffffffffffffffffff1663dd62ed3e84306040518363ffffffff167c0100000000000000000000000000000000000000000000000000000000028152600401808373ffffffffffffffffffffffffffffffffffffffff1673ffffffffffffffffffffffffffffffffffffffff1681526020018273ffffffffffffffffffffffffffffffffffffffff1673ffffffffffffffffffffffffffffffffffffffff16815260200192505050602060405180830381600087803b1580156141ce57600080fd5b505af11580156141e2573d6000803e3d6000fd5b505050506040513d60208110156141f857600080fd5b81019080805190602001909291905050501015156143c7578573ffffffffffffffffffffffffffffffffffffffff166323b872dd8630876040518463ffffffff167c0100000000000000000000000000000000000000000000000000000000028152600401808473ffffffffffffffffffffffffffffffffffffffff1673ffffffffffffffffffffffffffffffffffffffff1681526020018373ffffffffffffffffffffffffffffffffffffffff1673ffffffffffffffffffffffffffffffffffffffff1681526020018281526020019350505050602060405180830381600087803b1580156142e757600080fd5b505af11580156142fb573d6000803e3d6000fd5b505050506040513d602081101561431157600080fd5b8101908080519060200190929190505050507f1fecf4702e692891a7c2f0d328779b085efb5edd094fa5558bd5cd147a167922848688604051808481526020018373ffffffffffffffffffffffffffffffffffffffff1673ffffffffffffffffffffffffffffffffffffffff1681526020018273ffffffffffffffffffffffffffffffffffffffff1673ffffffffffffffffffffffffffffffffffffffff168152602001935050505060405180910390a1614435565b6040517f08c379a000000000000000000000000000000000000000000000000000000000815260040180806020018281038252600b8152602001807f4e6f20616c6c6f776e636500000000000000000000000000000000000000000081525060200191505060405180910390fd5b505050505050565b60008273ffffffffffffffffffffffffffffffffffffffff166370a08231836040518263ffffffff167c0100000000000000000000000000000000000000000000000000000000028152600401808273ffffffffffffffffffffffffffffffffffffffff1673ffffffffffffffffffffffffffffffffffffffff168152602001915050602060405180830381600087803b1580156144da57600080fd5b505af11580156144ee573d6000803e3d6000fd5b505050506040513d602081101561450457600080fd5b81019080805190602001909291905050509050929150505600a165627a7a723058203f48cef1f5d36f85808df7d2ad79c90150f92792d9b7d654871242b9307e79d40029",
  "source": "// SPDX-License-Identifier: MIT\r\npragma solidity ^0.4.24;\r\n\r\nimport \"./PoolsData.sol\";\r\n\r\ncontract Invest is PoolsData {\r\n     //Investorsr Data\r\n    uint256 TotalInvestors;\r\n    mapping(uint256 => Investor) Investors;\r\n    mapping(address => uint256[]) InvestorsMap;\r\n    struct Investor {\r\n        uint256 Poolid; //the id of the pool, he got the rate info and the token, check if looked pool\r\n        address InvestorAddress; //\r\n        uint256 MainCoin; //the amount of the main coin invested (eth/dai), calc with rate\r\n        bool IsPozInvestor; //If the blance of the address got > MinPoz, can get discout if got early\r\n        uint256 TokensOwn; //the amount of Tokens the investor needto get from the contract\r\n        uint256 InvestTime; //the time that investment made\r\n    }\r\n\r\n    //@dev Send in wei\r\n    function InvestETH(uint256 _PoolId) external payable ReceivETH(msg.value,msg.sender) {\r\n        require(_PoolId < poolsCount, \"Wrong pool id\");\r\n        require(pools[_PoolId].Maincoin == address(0x0), \"Pool is not for ETH\");\r\n        Investors[TotalInvestors] = Investor(\r\n            _PoolId,\r\n            msg.sender,\r\n            msg.value,\r\n            IsPOZInvestor(msg.sender),\r\n            0,\r\n            block.timestamp\r\n        );\r\n        InvestorsMap[msg.sender].push(TotalInvestors);\r\n        TotalInvestors++;\r\n        uint256 WithDiscount = msg.value / pools[_PoolId].POZRate;\r\n        uint256 TokensAmount = msg.value / pools[_PoolId].Rate;\r\n        if (\r\n            GetPoolStatus(_PoolId) == PoolStatus.Created &&\r\n            IsPOZInvestor(msg.sender) &&\r\n            WithDiscount <= pools[_PoolId].Lefttokens //Got The Tokens\r\n        ) {\r\n            \r\n            //Only for Poz Investor, better price\r\n            pools[_PoolId].Lefttokens -= WithDiscount;\r\n            if (pools[_PoolId].IsLocked) {\r\n                Investors[TotalInvestors - 1].TokensOwn += WithDiscount;\r\n            } else {\r\n                // not locked, will transfer the toke\r\n                TransferToken(pools[_PoolId].Token, msg.sender, WithDiscount);\r\n            }\r\n            uint256 EthMinusFee = (msg.value / 10000) * (10000 - PozFee);\r\n            TransferETH(\r\n                pools[_PoolId].Creator,\r\n                EthMinusFee\r\n            ); // send money to project owner - the fee stays on contract\r\n            if (pools[_PoolId].Lefttokens == 0) emit FinishPool(_PoolId);\r\n            return;\r\n        }\r\n        if (\r\n            GetPoolStatus(_PoolId) == PoolStatus.Open &&\r\n            TokensAmount <= pools[_PoolId].Lefttokens //Got The Tokens\r\n        ) {\r\n            //all can invest, no discout price\r\n            pools[_PoolId].Lefttokens -= TokensAmount;\r\n            if (pools[_PoolId].IsLocked) {\r\n                Investors[TotalInvestors - 1].TokensOwn += TokensAmount;\r\n            } else {\r\n                // not locked, will transfer the tokens\r\n                TransferToken(pools[_PoolId].Token, msg.sender, TokensAmount);\r\n            }\r\n            TransferETH(\r\n                pools[_PoolId].Creator,\r\n                (msg.value / 10000) * (10000 - Fee)\r\n            ); // send money to project owner - the fee stays on contract\r\n            if (pools[_PoolId].Lefttokens == 0) emit FinishPool(_PoolId);\r\n            return;\r\n        }\r\n        //can't invest OutOfstock,Finished,Close // TODO - make msg\r\n        revert(\"Investment not complited\");\r\n    }\r\n        function InvestERC20(uint256 _PoolId,uint _Amount) external payable {\r\n        require(_PoolId < poolsCount, \"Wrong pool id\");\r\n        require(pools[_PoolId].Maincoin != address(0x0), \"Pool is for ETH, use InvetETH\");\r\n        require(ERC20(pools[_PoolId].Maincoin).allowance(msg.sender,address(this)) >= _Amount, \"Tokens not aproved\");\r\n        require(_Amount > 10000, \"Need invest more then 10000\");\r\n        ERC20(pools[_PoolId].Maincoin).transferFrom(msg.sender,address(this),_Amount);\r\n        emit TransferIn(_Amount, msg.sender, pools[_PoolId].Token);\r\n        Investors[TotalInvestors] = Investor(\r\n            _PoolId,\r\n            msg.sender,\r\n            _Amount,\r\n            IsPOZInvestor(msg.sender),\r\n            0,\r\n            block.timestamp\r\n        );\r\n        InvestorsMap[msg.sender].push(TotalInvestors);\r\n        TotalInvestors++;\r\n        uint256 WithDiscount = _Amount / pools[_PoolId].POZRate;\r\n        uint256 TokensAmount = _Amount / pools[_PoolId].Rate;\r\n        if (\r\n            GetPoolStatus(_PoolId) == PoolStatus.Created &&\r\n            IsPOZInvestor(msg.sender) &&        //check if Poz investor;\r\n            WithDiscount <= pools[_PoolId].Lefttokens //Got The Tokens\r\n        ) {\r\n           \r\n            //Only for Poz Investor, better price\r\n            pools[_PoolId].Lefttokens -= WithDiscount;\r\n            if (pools[_PoolId].IsLocked) {\r\n                Investors[TotalInvestors - 1].TokensOwn += WithDiscount;\r\n            } else {\r\n                // not locked, will transfer the toke\r\n                TransferToken(pools[_PoolId].Token, msg.sender, WithDiscount);\r\n            }\r\n            uint256 EthMinusFee = (_Amount / 10000) * (10000 - PozFee);\r\n            TransferToken(\r\n                pools[_PoolId].Maincoin,\r\n                pools[_PoolId].Creator,\r\n                EthMinusFee\r\n            ); // send money to project owner - the fee stays on contract\r\n            if (pools[_PoolId].Lefttokens == 0) emit FinishPool(_PoolId);\r\n            return;\r\n        }\r\n        if (\r\n            GetPoolStatus(_PoolId) == PoolStatus.Open &&\r\n            TokensAmount <= pools[_PoolId].Lefttokens //Got The Tokens\r\n        ) {\r\n           \r\n            //all can invest, no discout price\r\n            pools[_PoolId].Lefttokens -= TokensAmount;\r\n            if (pools[_PoolId].IsLocked) {\r\n                Investors[TotalInvestors - 1].TokensOwn += TokensAmount;\r\n            } else {\r\n                // not locked, will transfer the tokens\r\n                TransferToken(pools[_PoolId].Token, msg.sender, TokensAmount);             \r\n            }\r\n            TransferToken(pools[_PoolId].Maincoin,pools[_PoolId].Creator,(_Amount / 10000) * (10000 - Fee)); // send money to project owner - the fee stays on contract\r\n            if (pools[_PoolId].Lefttokens == 0) emit FinishPool(_PoolId);\r\n            return;\r\n        }\r\n        //can't invest OutOfstock,Finished,Close // TODO - make msg\r\n        revert(\"Investment not complited\");\r\n    }\r\n}",
  "sourcePath": "C:\\Users\\Administrator\\Desktop\\Code\\Poolz\\contracts\\Invest.sol",
  "compiler": {
    "name": "solc",
    "version": "0.4.26+commit.4563c3fc.Emscripten.clang"
  },
  "schemaVersion": "3.2.5",
  "updatedAt": "2020-10-01T14:45:49.300Z",
  "devdoc": {
    "methods": {
      "pause()": {
        "details": "called by the owner to pause, triggers stopped state"
      },
      "renounceOwnership()": {
        "details": "Allows the current owner to relinquish control of the contract."
      },
      "transferOwnership(address)": {
        "details": "Allows the current owner to transfer control of the contract to a newOwner.",
        "params": {
          "_newOwner": "The address to transfer ownership to."
        }
      },
      "unpause()": {
        "details": "called by the owner to unpause, returns to normal state"
      }
    }
  },
  "userdoc": {
    "methods": {
      "renounceOwnership()": {
        "notice": "Renouncing to ownership will leave the contract without an owner. It will not be possible to call the functions with the `onlyOwner` modifier anymore."
      }
    }
  }
}