{
  "contractName": "InvestorData",
  "abi": [
    {
      "constant": false,
      "inputs": [
        {
          "name": "_token",
          "type": "address"
        }
      ],
      "name": "RemoveERC20Maincoin",
      "outputs": [],
      "payable": false,
      "stateMutability": "nonpayable",
      "type": "function"
    },
    {
      "constant": true,
      "inputs": [],
      "name": "GetPozTimer",
      "outputs": [
        {
          "name": "",
          "type": "uint16"
        }
      ],
      "payable": false,
      "stateMutability": "view",
      "type": "function"
    },
    {
      "constant": true,
      "inputs": [
        {
          "name": "_id",
          "type": "uint256"
        }
      ],
      "name": "GetPoolStatus",
      "outputs": [
        {
          "name": "",
          "type": "uint8"
        }
      ],
      "payable": false,
      "stateMutability": "view",
      "type": "function"
    },
    {
      "constant": false,
      "inputs": [
        {
          "name": "_fee",
          "type": "uint16"
        }
      ],
      "name": "SetPOZFee",
      "outputs": [],
      "payable": false,
      "stateMutability": "nonpayable",
      "type": "function"
    },
    {
      "constant": true,
      "inputs": [],
      "name": "GetPOZFee",
      "outputs": [
        {
          "name": "",
          "type": "uint16"
        }
      ],
      "payable": false,
      "stateMutability": "view",
      "type": "function"
    },
    {
      "constant": true,
      "inputs": [
        {
          "name": "",
          "type": "address"
        }
      ],
      "name": "ERC20MainCoins",
      "outputs": [
        {
          "name": "",
          "type": "bool"
        }
      ],
      "payable": false,
      "stateMutability": "view",
      "type": "function"
    },
    {
      "constant": false,
      "inputs": [],
      "name": "unpause",
      "outputs": [],
      "payable": false,
      "stateMutability": "nonpayable",
      "type": "function"
    },
    {
      "constant": true,
      "inputs": [],
      "name": "GetFee",
      "outputs": [
        {
          "name": "",
          "type": "uint16"
        }
      ],
      "payable": false,
      "stateMutability": "view",
      "type": "function"
    },
    {
      "constant": true,
      "inputs": [
        {
          "name": "",
          "type": "address"
        },
        {
          "name": "",
          "type": "uint256"
        }
      ],
      "name": "poolsMap",
      "outputs": [
        {
          "name": "",
          "type": "uint256"
        }
      ],
      "payable": false,
      "stateMutability": "view",
      "type": "function"
    },
    {
      "constant": true,
      "inputs": [],
      "name": "paused",
      "outputs": [
        {
          "name": "",
          "type": "bool"
        }
      ],
      "payable": false,
      "stateMutability": "view",
      "type": "function"
    },
    {
      "constant": false,
      "inputs": [
        {
          "name": "_MinPoz",
          "type": "uint256"
        }
      ],
      "name": "SetMinPoz",
      "outputs": [],
      "payable": false,
      "stateMutability": "nonpayable",
      "type": "function"
    },
    {
      "constant": true,
      "inputs": [],
      "name": "GetIsPayble",
      "outputs": [
        {
          "name": "",
          "type": "bool"
        }
      ],
      "payable": false,
      "stateMutability": "view",
      "type": "function"
    },
    {
      "constant": true,
      "inputs": [],
      "name": "GetMyPoolsId",
      "outputs": [
        {
          "name": "",
          "type": "uint256[]"
        }
      ],
      "payable": false,
      "stateMutability": "view",
      "type": "function"
    },
    {
      "constant": true,
      "inputs": [
        {
          "name": "_id",
          "type": "uint256"
        }
      ],
      "name": "GetMorePoolData",
      "outputs": [
        {
          "name": "",
          "type": "bool"
        },
        {
          "name": "",
          "type": "uint256"
        },
        {
          "name": "",
          "type": "uint256"
        },
        {
          "name": "",
          "type": "address"
        }
      ],
      "payable": false,
      "stateMutability": "view",
      "type": "function"
    },
    {
      "constant": false,
      "inputs": [],
      "name": "renounceOwnership",
      "outputs": [],
      "payable": false,
      "stateMutability": "nonpayable",
      "type": "function"
    },
    {
      "constant": false,
      "inputs": [],
      "name": "pause",
      "outputs": [],
      "payable": false,
      "stateMutability": "nonpayable",
      "type": "function"
    },
    {
      "constant": true,
      "inputs": [],
      "name": "poolsCount",
      "outputs": [
        {
          "name": "",
          "type": "uint256"
        }
      ],
      "payable": false,
      "stateMutability": "view",
      "type": "function"
    },
    {
      "constant": true,
      "inputs": [],
      "name": "owner",
      "outputs": [
        {
          "name": "",
          "type": "address"
        }
      ],
      "payable": false,
      "stateMutability": "view",
      "type": "function"
    },
    {
      "constant": false,
      "inputs": [
        {
          "name": "_to",
          "type": "address"
        }
      ],
      "name": "WithdrawETHFee",
      "outputs": [],
      "payable": false,
      "stateMutability": "nonpayable",
      "type": "function"
    },
    {
      "constant": true,
      "inputs": [],
      "name": "GetMinPoz",
      "outputs": [
        {
          "name": "",
          "type": "uint256"
        }
      ],
      "payable": false,
      "stateMutability": "view",
      "type": "function"
    },
    {
      "constant": false,
      "inputs": [
        {
          "name": "_token",
          "type": "address"
        }
      ],
      "name": "AddERC20Maincoin",
      "outputs": [],
      "payable": false,
      "stateMutability": "nonpayable",
      "type": "function"
    },
    {
      "constant": false,
      "inputs": [],
      "name": "SwitchIsPayble",
      "outputs": [],
      "payable": false,
      "stateMutability": "nonpayable",
      "type": "function"
    },
    {
      "constant": true,
      "inputs": [
        {
          "name": "",
          "type": "uint256"
        }
      ],
      "name": "pools",
      "outputs": [
        {
          "name": "Token",
          "type": "address"
        },
        {
          "name": "Creator",
          "type": "address"
        },
        {
          "name": "FinishTime",
          "type": "uint256"
        },
        {
          "name": "Rate",
          "type": "uint256"
        },
        {
          "name": "POZRate",
          "type": "uint256"
        },
        {
          "name": "Maincoin",
          "type": "address"
        },
        {
          "name": "StartAmount",
          "type": "uint256"
        },
        {
          "name": "IsLocked",
          "type": "bool"
        },
        {
          "name": "Lefttokens",
          "type": "uint256"
        },
        {
          "name": "StartTime",
          "type": "uint256"
        },
        {
          "name": "OpenForAll",
          "type": "uint256"
        },
        {
          "name": "UnlockedTokens",
          "type": "uint256"
        },
        {
          "name": "TookLeftOvers",
          "type": "bool"
        }
      ],
      "payable": false,
      "stateMutability": "view",
      "type": "function"
    },
    {
      "constant": false,
      "inputs": [
        {
          "name": "_PoolId",
          "type": "uint256"
        },
        {
          "name": "_Amount",
          "type": "uint256"
        }
      ],
      "name": "InvestERC20",
      "outputs": [],
      "payable": true,
      "stateMutability": "payable",
      "type": "function"
    },
    {
      "constant": true,
      "inputs": [],
      "name": "GetLastPoolId",
      "outputs": [
        {
          "name": "",
          "type": "uint256"
        }
      ],
      "payable": false,
      "stateMutability": "view",
      "type": "function"
    },
    {
      "constant": false,
      "inputs": [
        {
          "name": "_MinETH",
          "type": "uint256"
        }
      ],
      "name": "SetMinETH",
      "outputs": [],
      "payable": false,
      "stateMutability": "nonpayable",
      "type": "function"
    },
    {
      "constant": false,
      "inputs": [
        {
          "name": "_POZ_Address",
          "type": "address"
        }
      ],
      "name": "SetPozAdress",
      "outputs": [],
      "payable": false,
      "stateMutability": "nonpayable",
      "type": "function"
    },
    {
      "constant": false,
      "inputs": [
        {
          "name": "_pozTimer",
          "type": "uint16"
        }
      ],
      "name": "SetPozTimer",
      "outputs": [],
      "payable": false,
      "stateMutability": "nonpayable",
      "type": "function"
    },
    {
      "constant": true,
      "inputs": [],
      "name": "GetMinDuration",
      "outputs": [
        {
          "name": "",
          "type": "uint16"
        }
      ],
      "payable": false,
      "stateMutability": "view",
      "type": "function"
    },
    {
      "constant": true,
      "inputs": [
        {
          "name": "_token",
          "type": "address"
        }
      ],
      "name": "IsERC20Maincoin",
      "outputs": [
        {
          "name": "",
          "type": "bool"
        }
      ],
      "payable": false,
      "stateMutability": "view",
      "type": "function"
    },
    {
      "constant": true,
      "inputs": [
        {
          "name": "_id",
          "type": "uint256"
        }
      ],
      "name": "GetPoolData",
      "outputs": [
        {
          "name": "",
          "type": "uint8"
        },
        {
          "name": "",
          "type": "address"
        },
        {
          "name": "",
          "type": "uint256"
        },
        {
          "name": "",
          "type": "uint256"
        },
        {
          "name": "",
          "type": "address"
        },
        {
          "name": "",
          "type": "uint256"
        },
        {
          "name": "",
          "type": "uint256"
        }
      ],
      "payable": false,
      "stateMutability": "view",
      "type": "function"
    },
    {
      "constant": false,
      "inputs": [
        {
          "name": "_minDuration",
          "type": "uint16"
        }
      ],
      "name": "SetMinDuration",
      "outputs": [],
      "payable": false,
      "stateMutability": "nonpayable",
      "type": "function"
    },
    {
      "constant": false,
      "inputs": [
        {
          "name": "_PoolId",
          "type": "uint256"
        }
      ],
      "name": "InvestETH",
      "outputs": [],
      "payable": true,
      "stateMutability": "payable",
      "type": "function"
    },
    {
      "constant": true,
      "inputs": [],
      "name": "GetMinETH",
      "outputs": [
        {
          "name": "",
          "type": "uint256"
        }
      ],
      "payable": false,
      "stateMutability": "view",
      "type": "function"
    },
    {
      "constant": false,
      "inputs": [
        {
          "name": "_newOwner",
          "type": "address"
        }
      ],
      "name": "transferOwnership",
      "outputs": [],
      "payable": false,
      "stateMutability": "nonpayable",
      "type": "function"
    },
    {
      "constant": false,
      "inputs": [
        {
          "name": "_fee",
          "type": "uint16"
        }
      ],
      "name": "SetFee",
      "outputs": [],
      "payable": false,
      "stateMutability": "nonpayable",
      "type": "function"
    },
    {
      "constant": false,
      "inputs": [
        {
          "name": "_Token",
          "type": "address"
        },
        {
          "name": "_to",
          "type": "address"
        }
      ],
      "name": "WithdrawERC20Fee",
      "outputs": [],
      "payable": false,
      "stateMutability": "nonpayable",
      "type": "function"
    },
    {
      "constant": false,
      "inputs": [
        {
          "name": "_PoolId",
          "type": "uint256"
        }
      ],
      "name": "WithdrawLeftOvers",
      "outputs": [
        {
          "name": "",
          "type": "bool"
        }
      ],
      "payable": false,
      "stateMutability": "nonpayable",
      "type": "function"
    },
    {
      "constant": false,
      "inputs": [
        {
          "name": "_Token",
          "type": "address"
        },
        {
          "name": "_FinishTime",
          "type": "uint256"
        },
        {
          "name": "_Rate",
          "type": "uint256"
        },
        {
          "name": "_POZRate",
          "type": "uint256"
        },
        {
          "name": "_StartAmount",
          "type": "uint256"
        },
        {
          "name": "_IsLocked",
          "type": "bool"
        },
        {
          "name": "_MainCoin",
          "type": "address"
        }
      ],
      "name": "CreatePool",
      "outputs": [],
      "payable": false,
      "stateMutability": "nonpayable",
      "type": "function"
    },
    {
      "payable": true,
      "stateMutability": "payable",
      "type": "fallback"
    },
    {
      "anonymous": false,
      "inputs": [
        {
          "indexed": false,
          "name": "token",
          "type": "address"
        },
        {
          "indexed": false,
          "name": "id",
          "type": "uint256"
        }
      ],
      "name": "NewPool",
      "type": "event"
    },
    {
      "anonymous": false,
      "inputs": [
        {
          "indexed": false,
          "name": "id",
          "type": "uint256"
        }
      ],
      "name": "FinishPool",
      "type": "event"
    },
    {
      "anonymous": false,
      "inputs": [
        {
          "indexed": false,
          "name": "Token",
          "type": "address"
        }
      ],
      "name": "MainCoinAdded",
      "type": "event"
    },
    {
      "anonymous": false,
      "inputs": [
        {
          "indexed": false,
          "name": "Token",
          "type": "address"
        }
      ],
      "name": "MainCoinRemoved",
      "type": "event"
    },
    {
      "anonymous": false,
      "inputs": [
        {
          "indexed": false,
          "name": "Amount",
          "type": "uint256"
        },
        {
          "indexed": false,
          "name": "To",
          "type": "address"
        }
      ],
      "name": "TransferOutETH",
      "type": "event"
    },
    {
      "anonymous": false,
      "inputs": [
        {
          "indexed": false,
          "name": "Amount",
          "type": "uint256"
        },
        {
          "indexed": false,
          "name": "From",
          "type": "address"
        }
      ],
      "name": "TransferInETH",
      "type": "event"
    },
    {
      "anonymous": false,
      "inputs": [
        {
          "indexed": false,
          "name": "Amount",
          "type": "uint256"
        },
        {
          "indexed": false,
          "name": "To",
          "type": "address"
        },
        {
          "indexed": false,
          "name": "Token",
          "type": "address"
        }
      ],
      "name": "TransferOut",
      "type": "event"
    },
    {
      "anonymous": false,
      "inputs": [
        {
          "indexed": false,
          "name": "Amount",
          "type": "uint256"
        },
        {
          "indexed": false,
          "name": "From",
          "type": "address"
        },
        {
          "indexed": false,
          "name": "Token",
          "type": "address"
        }
      ],
      "name": "TransferIn",
      "type": "event"
    },
    {
      "anonymous": false,
      "inputs": [],
      "name": "Pause",
      "type": "event"
    },
    {
      "anonymous": false,
      "inputs": [],
      "name": "Unpause",
      "type": "event"
    },
    {
      "anonymous": false,
      "inputs": [
        {
          "indexed": true,
          "name": "previousOwner",
          "type": "address"
        }
      ],
      "name": "OwnershipRenounced",
      "type": "event"
    },
    {
      "anonymous": false,
      "inputs": [
        {
          "indexed": true,
          "name": "previousOwner",
          "type": "address"
        },
        {
          "indexed": true,
          "name": "newOwner",
          "type": "address"
        }
      ],
      "name": "OwnershipTransferred",
      "type": "event"
    },
    {
      "constant": false,
      "inputs": [
        {
          "name": "_id",
          "type": "uint256"
        }
      ],
      "name": "WithdrawInvestment",
      "outputs": [
        {
          "name": "",
          "type": "bool"
        }
      ],
      "payable": false,
      "stateMutability": "nonpayable",
      "type": "function"
    },
    {
      "constant": true,
      "inputs": [],
      "name": "GetMyInvestmentIds",
      "outputs": [
        {
          "name": "",
          "type": "uint256[]"
        }
      ],
      "payable": false,
      "stateMutability": "view",
      "type": "function"
    },
    {
      "constant": true,
      "inputs": [
        {
          "name": "_id",
          "type": "uint256"
        }
      ],
      "name": "GetInvestmentData",
      "outputs": [
        {
          "name": "",
          "type": "uint256"
        },
        {
          "name": "",
          "type": "address"
        },
        {
          "name": "",
          "type": "uint256"
        },
        {
          "name": "",
          "type": "bool"
        },
        {
          "name": "",
          "type": "uint256"
        },
        {
          "name": "",
          "type": "uint256"
        }
      ],
      "payable": false,
      "stateMutability": "view",
      "type": "function"
    }
  ],
  "bytecode": "0x608060405260008060146101000a81548160ff021916908315150217905550336000806101000a81548173ffffffffffffffffffffffffffffffffffffffff021916908373ffffffffffffffffffffffffffffffffffffffff160217905550600f600060156101000a81548161ffff021916908361ffff1602179055506103e8600060176101000a81548161ffff021916908361ffff16021790555060506001819055506000600260006101000a81548173ffffffffffffffffffffffffffffffffffffffff021916908373ffffffffffffffffffffffffffffffffffffffff1602179055506000600260146101000a81548160ff0219169083151502179055506127106003819055506014600560006101000a81548161ffff021916908361ffff1602179055506000600560026101000a81548161ffff021916908361ffff16021790555060006007819055506000600a81905550614e08806101646000396000f300608060405260043610610203576000357c0100000000000000000000000000000000000000000000000000000000900463ffffffff168062ea921614610220578063014f3aff146102635780630d08caa01461029657806311fad209146102e55780631ac8989f146103165780633037548a146103495780633f4ba83a146103a457806348d9614d146103bb57806356793bc7146103ee5780635c975abb1461044f5780635ea84ad61461047e57806360f9e80a146104ab578063624dea1c1461053f57806363552a491461056e57806366b91da9146105da578063715018a6146106605780638456cb591461067757806387e3c5991461068e5780638c788de0146106d35780638da5cb5b146106fe57806391314dde14610755578063991e979a146107c15780639baf390a14610804578063a38c65491461082f578063aac5da5c14610872578063ac4afa3814610889578063be33a3ec146109aa578063c5053add146109d4578063cbf476e5146109ff578063de5b521d14610a2c578063e05425e414610a6f578063e4dc37bb14610aa0578063e890671614610ad3578063ea9223a614610b2e578063ecf1a2c914610bff578063f04be48b14610c30578063f155e88e14610c50578063f2fde38b14610c7b578063f8d5c26b14610cbe578063fc1a86ff14610cef578063fd711a5514610d52578063ff02c51314610d97575b600260149054906101000a900460ff16151561021e57600080fd5b005b34801561022c57600080fd5b50610261600480360381019080803573ffffffffffffffffffffffffffffffffffffffff169060200190929190505050610e2e565b005b34801561026f57600080fd5b50610278610f47565b604051808261ffff1661ffff16815260200191505060405180910390f35b3480156102a257600080fd5b506102c160048036038101908080359060200190929190505050610f5e565b604051808260048111156102d157fe5b60ff16815260200191505060405180910390f35b3480156102f157600080fd5b50610314600480360381019080803561ffff16906020019092919050505061135c565b005b34801561032257600080fd5b5061032b6114f1565b604051808261ffff1661ffff16815260200191505060405180910390f35b34801561035557600080fd5b5061038a600480360381019080803573ffffffffffffffffffffffffffffffffffffffff169060200190929190505050611508565b604051808215151515815260200191505060405180910390f35b3480156103b057600080fd5b506103b9611528565b005b3480156103c757600080fd5b506103d06115e6565b604051808261ffff1661ffff16815260200191505060405180910390f35b3480156103fa57600080fd5b50610439600480360381019080803573ffffffffffffffffffffffffffffffffffffffff169060200190929190803590602001909291905050506115fe565b6040518082815260200191505060405180910390f35b34801561045b57600080fd5b5061046461162e565b604051808215151515815260200191505060405180910390f35b34801561048a57600080fd5b506104a960048036038101908080359060200190929190505050611641565b005b3480156104b757600080fd5b506104d6600480360381019080803590602001909291905050506116a6565b604051808781526020018673ffffffffffffffffffffffffffffffffffffffff1673ffffffffffffffffffffffffffffffffffffffff16815260200185815260200184151515158152602001838152602001828152602001965050505050505060405180910390f35b34801561054b57600080fd5b506105546118ab565b604051808215151515815260200191505060405180910390f35b34801561057a57600080fd5b506105836118c2565b6040518080602001828103825283818151815260200191508051906020019060200280838360005b838110156105c65780820151818401526020810190506105ab565b505050509050019250505060405180910390f35b3480156105e657600080fd5b5061060560048036038101908080359060200190929190505050611957565b60405180851515151581526020018481526020018381526020018273ffffffffffffffffffffffffffffffffffffffff1673ffffffffffffffffffffffffffffffffffffffff16815260200194505050505060405180910390f35b34801561066c57600080fd5b506106756119f5565b005b34801561068357600080fd5b5061068c611af7565b005b34801561069a57600080fd5b506106b960048036038101908080359060200190929190505050611bb7565b604051808215151515815260200191505060405180910390f35b3480156106df57600080fd5b506106e8611d74565b6040518082815260200191505060405180910390f35b34801561070a57600080fd5b50610713611d7a565b604051808273ffffffffffffffffffffffffffffffffffffffff1673ffffffffffffffffffffffffffffffffffffffff16815260200191505060405180910390f35b34801561076157600080fd5b5061076a611d9f565b6040518080602001828103825283818151815260200191508051906020019060200280838360005b838110156107ad578082015181840152602081019050610792565b505050509050019250505060405180910390f35b3480156107cd57600080fd5b50610802600480360381019080803573ffffffffffffffffffffffffffffffffffffffff169060200190929190505050611e34565b005b34801561081057600080fd5b50610819611ef0565b6040518082815260200191505060405180910390f35b34801561083b57600080fd5b50610870600480360381019080803573ffffffffffffffffffffffffffffffffffffffff169060200190929190505050611efa565b005b34801561087e57600080fd5b50610887612013565b005b34801561089557600080fd5b506108b46004803603810190808035906020019092919050505061209a565b604051808e73ffffffffffffffffffffffffffffffffffffffff1673ffffffffffffffffffffffffffffffffffffffff1681526020018d73ffffffffffffffffffffffffffffffffffffffff1673ffffffffffffffffffffffffffffffffffffffff1681526020018c81526020018b81526020018a81526020018973ffffffffffffffffffffffffffffffffffffffff1673ffffffffffffffffffffffffffffffffffffffff16815260200188815260200187151515158152602001868152602001858152602001848152602001838152602001821515151581526020019d505050505050505050505050505060405180910390f35b6109d2600480360381019080803590602001909291908035906020019092919050505061217a565b005b3480156109e057600080fd5b506109e9612c43565b6040518082815260200191505060405180910390f35b348015610a0b57600080fd5b50610a2a60048036038101908080359060200190929190505050612c4d565b005b348015610a3857600080fd5b50610a6d600480360381019080803573ffffffffffffffffffffffffffffffffffffffff169060200190929190505050612cb2565b005b348015610a7b57600080fd5b50610a9e600480360381019080803561ffff169060200190929190505050612d51565b005b348015610aac57600080fd5b50610ab5612e4f565b604051808261ffff1661ffff16815260200191505060405180910390f35b348015610adf57600080fd5b50610b14600480360381019080803573ffffffffffffffffffffffffffffffffffffffff169060200190929190505050612e67565b604051808215151515815260200191505060405180910390f35b348015610b3a57600080fd5b50610b5960048036038101908080359060200190929190505050612ebd565b60405180886004811115610b6957fe5b60ff1681526020018773ffffffffffffffffffffffffffffffffffffffff1673ffffffffffffffffffffffffffffffffffffffff1681526020018681526020018581526020018473ffffffffffffffffffffffffffffffffffffffff1673ffffffffffffffffffffffffffffffffffffffff16815260200183815260200182815260200197505050505050505060405180910390f35b348015610c0b57600080fd5b50610c2e600480360381019080803561ffff16906020019092919050505061302d565b005b610c4e600480360381019080803590602001909291905050506130a8565b005b348015610c5c57600080fd5b50610c6561393e565b6040518082815260200191505060405180910390f35b348015610c8757600080fd5b50610cbc600480360381019080803573ffffffffffffffffffffffffffffffffffffffff169060200190929190505050613948565b005b348015610cca57600080fd5b50610ced600480360381019080803561ffff1690602001909291905050506139af565b005b348015610cfb57600080fd5b50610d50600480360381019080803573ffffffffffffffffffffffffffffffffffffffff169060200190929190803573ffffffffffffffffffffffffffffffffffffffff169060200190929190505050613b44565b005b348015610d5e57600080fd5b50610d7d60048036038101908080359060200190929190505050613d06565b604051808215151515815260200191505060405180910390f35b348015610da357600080fd5b50610e2c600480360381019080803573ffffffffffffffffffffffffffffffffffffffff16906020019092919080359060200190929190803590602001909291908035906020019092919080359060200190929190803515159060200190929190803573ffffffffffffffffffffffffffffffffffffffff169060200190929190505050613e45565b005b6000809054906101000a900473ffffffffffffffffffffffffffffffffffffffff1673ffffffffffffffffffffffffffffffffffffffff163373ffffffffffffffffffffffffffffffffffffffff16141515610e8957600080fd5b7f46e7a65ed7662dc42b119afa3a03fc8474ed27a5a48d664c0b5e8b87b04184cf81604051808273ffffffffffffffffffffffffffffffffffffffff1673ffffffffffffffffffffffffffffffffffffffff16815260200191505060405180910390a16000600660008373ffffffffffffffffffffffffffffffffffffffff1673ffffffffffffffffffffffffffffffffffffffff16815260200190815260200160002060006101000a81548160ff02191690831515021790555050565b60008060179054906101000a900461ffff16905090565b600060075482101515610fd9576040517f08c379a000000000000000000000000000000000000000000000000000000000815260040180806020018281038252600d8152602001807f57726f6e6720706f6f6c2069640000000000000000000000000000000000000081525060200191505060405180910390fd5b60086000838152602001908152602001600020600a015442108015611014575060006008600084815260200190815260200160002060080154115b156110225760009050611357565b60086000838152602001908152602001600020600a0154421015801561105e575060006008600084815260200190815260200160002060080154115b801561107f5750600860008381526020019081526020016000206002015442105b1561108d5760019050611357565b600060086000848152602001908152602001600020600801541480156110d357506008600083815260200190815260200160002060070160009054906101000a900460ff165b80156110f45750600860008381526020019081526020016000206002015442105b156111025760029050611357565b6000600860008481526020019081526020016000206008015414801561114957506008600083815260200190815260200160002060070160009054906101000a900460ff16155b156111575760049050611357565b6000600860008481526020019081526020016000206008015411801561119e57506008600083815260200190815260200160002060070160009054906101000a900460ff16155b80156111cb575060086000838152602001908152602001600020600c0160009054906101000a900460ff16155b156111d95760039050611357565b6008600083815260200190815260200160002060020154421015801561122057506008600083815260200190815260200160002060070160009054906101000a900460ff16155b156112605760086000838152602001908152602001600020600c0160009054906101000a900460ff16156112575760049050611357565b60039050611357565b600860008381526020019081526020016000206002015442101580156112a657506008600083815260200190815260200160002060070160009054906101000a900460ff165b156113565760086000838152602001908152602001600020600c0160009054906101000a900460ff16806112f0575060006008600084815260200190815260200160002060080154145b801561133f57506008600083815260200190815260200160002060060154600860008481526020019081526020016000206008015460086000858152602001908152602001600020600b015401145b1561134d5760049050611357565b60039050611357565b5b919050565b6000809054906101000a900473ffffffffffffffffffffffffffffffffffffffff1673ffffffffffffffffffffffffffffffffffffffff163373ffffffffffffffffffffffffffffffffffffffff161415156113b757600080fd5b806127108161ffff16101561147f57600560009054906101000a900461ffff16828061ffff168261ffff16111561140a5783600060156101000a81548161ffff021916908361ffff160217905550611478565b6040517f08c379a000000000000000000000000000000000000000000000000000000000815260040180806020018281038252600a8152602001807f4e6f74206269676765720000000000000000000000000000000000000000000081525060200191505060405180910390fd5b50506114ed565b6040517f08c379a000000000000000000000000000000000000000000000000000000000815260040180806020018281038252600c8152602001807f4e6f7420696e2072616e6765000000000000000000000000000000000000000081525060200191505060405180910390fd5b5050565b60008060159054906101000a900461ffff16905090565b60066020528060005260406000206000915054906101000a900460ff1681565b6000809054906101000a900473ffffffffffffffffffffffffffffffffffffffff1673ffffffffffffffffffffffffffffffffffffffff163373ffffffffffffffffffffffffffffffffffffffff1614151561158357600080fd5b600060149054906101000a900460ff16151561159e57600080fd5b60008060146101000a81548160ff0219169083151502179055507f7805862f689e2f13df9f062ff482ad3ad112aca9e0847911ed832e158c525b3360405160405180910390a1565b6000600560009054906101000a900461ffff16905090565b60096020528160005260406000208181548110151561161957fe5b90600052602060002001600091509150505481565b600060149054906101000a900460ff1681565b6000809054906101000a900473ffffffffffffffffffffffffffffffffffffffff1673ffffffffffffffffffffffffffffffffffffffff163373ffffffffffffffffffffffffffffffffffffffff1614151561169c57600080fd5b8060018190555050565b6000806000806000803373ffffffffffffffffffffffffffffffffffffffff16600b600089815260200190815260200160002060010160009054906101000a900473ffffffffffffffffffffffffffffffffffffffff1673ffffffffffffffffffffffffffffffffffffffff16148061176b57506000809054906101000a900473ffffffffffffffffffffffffffffffffffffffff1673ffffffffffffffffffffffffffffffffffffffff163373ffffffffffffffffffffffffffffffffffffffff16145b15156117df576040517f08c379a00000000000000000000000000000000000000000000000000000000081526004018080602001828103825260208152602001807f4f6e6c7920666f722074686520696e766573746f7220286f722041646d696e2981525060200191505060405180910390fd5b600b600088815260200190815260200160002060000154600b600089815260200190815260200160002060010160009054906101000a900473ffffffffffffffffffffffffffffffffffffffff16600b60008a815260200190815260200160002060020154600b60008b815260200190815260200160002060030160009054906101000a900460ff16600b60008c815260200190815260200160002060040154600b60008d81526020019081526020016000206005015495509550955095509550955091939550919395565b6000600260149054906101000a900460ff16905090565b6060600960003373ffffffffffffffffffffffffffffffffffffffff1673ffffffffffffffffffffffffffffffffffffffff16815260200190815260200160002080548060200260200160405190810160405280929190818152602001828054801561194d57602002820191906000526020600020905b815481526020019060010190808311611939575b5050505050905090565b6000806000806008600086815260200190815260200160002060070160009054906101000a900460ff16600860008781526020019081526020016000206002015460086000888152602001908152602001600020600a01546008600089815260200190815260200160002060010160009054906101000a900473ffffffffffffffffffffffffffffffffffffffff1693509350935093509193509193565b6000809054906101000a900473ffffffffffffffffffffffffffffffffffffffff1673ffffffffffffffffffffffffffffffffffffffff163373ffffffffffffffffffffffffffffffffffffffff16141515611a5057600080fd5b6000809054906101000a900473ffffffffffffffffffffffffffffffffffffffff1673ffffffffffffffffffffffffffffffffffffffff167ff8df31144d9c2f0f6b59d69b8b98abd5459d07f2742c4df920b25aae33c6482060405160405180910390a260008060006101000a81548173ffffffffffffffffffffffffffffffffffffffff021916908373ffffffffffffffffffffffffffffffffffffffff160217905550565b6000809054906101000a900473ffffffffffffffffffffffffffffffffffffffff1673ffffffffffffffffffffffffffffffffffffffff163373ffffffffffffffffffffffffffffffffffffffff16141515611b5257600080fd5b600060149054906101000a900460ff16151515611b6e57600080fd5b6001600060146101000a81548160ff0219169083151502179055507f6985a02210a168e66602d3235cb6db0e70f92b3ba4d376a33c0f3d9434bff62560405160405180910390a1565b6000600a548211158015611be157506000600b600084815260200190815260200160002060040154115b8015611c21575060036004811115611bf557fe5b611c14600b600085815260200190815260200160002060000154610f5e565b6004811115611c1f57fe5b145b15611d6a57611cc960086000600b600086815260200190815260200160002060000154815260200190815260200160002060000160009054906101000a900473ffffffffffffffffffffffffffffffffffffffff16600b600085815260200190815260200160002060010160009054906101000a900473ffffffffffffffffffffffffffffffffffffffff16600b6000868152602001908152602001600020600401546143b0565b611d1560086000600b6000868152602001908152602001600020600001548152602001908152602001600020600b0154600b600085815260200190815260200160002060040154614533565b60086000600b6000868152602001908152602001600020600001548152602001908152602001600020600b01819055506000600b60008481526020019081526020016000206004018190555060019050611d6f565b600090505b919050565b60075481565b6000809054906101000a900473ffffffffffffffffffffffffffffffffffffffff1681565b6060600c60003373ffffffffffffffffffffffffffffffffffffffff1673ffffffffffffffffffffffffffffffffffffffff168152602001908152602001600020805480602002602001604051908101604052809291908181526020018280548015611e2a57602002820191906000526020600020905b815481526020019060010190808311611e16575b5050505050905090565b6000809054906101000a900473ffffffffffffffffffffffffffffffffffffffff1673ffffffffffffffffffffffffffffffffffffffff163373ffffffffffffffffffffffffffffffffffffffff16141515611e8f57600080fd5b8073ffffffffffffffffffffffffffffffffffffffff166108fc3073ffffffffffffffffffffffffffffffffffffffff16319081150290604051600060405180830381858888f19350505050158015611eec573d6000803e3d6000fd5b5050565b6000600154905090565b6000809054906101000a900473ffffffffffffffffffffffffffffffffffffffff1673ffffffffffffffffffffffffffffffffffffffff163373ffffffffffffffffffffffffffffffffffffffff16141515611f5557600080fd5b7f8b732648ec6304b6125c30b24aa7c51736b4c10b079067109e27cbb1e2e9052581604051808273ffffffffffffffffffffffffffffffffffffffff1673ffffffffffffffffffffffffffffffffffffffff16815260200191505060405180910390a16001600660008373ffffffffffffffffffffffffffffffffffffffff1673ffffffffffffffffffffffffffffffffffffffff16815260200190815260200160002060006101000a81548160ff02191690831515021790555050565b6000809054906101000a900473ffffffffffffffffffffffffffffffffffffffff1673ffffffffffffffffffffffffffffffffffffffff163373ffffffffffffffffffffffffffffffffffffffff1614151561206e57600080fd5b600260149054906101000a900460ff1615600260146101000a81548160ff021916908315150217905550565b60086020528060005260406000206000915090508060000160009054906101000a900473ffffffffffffffffffffffffffffffffffffffff16908060010160009054906101000a900473ffffffffffffffffffffffffffffffffffffffff16908060020154908060030154908060040154908060050160009054906101000a900473ffffffffffffffffffffffffffffffffffffffff16908060060154908060070160009054906101000a900460ff169080600801549080600901549080600a01549080600b01549080600c0160009054906101000a900460ff1690508d565b600080600080600080600754881015156121fc576040517f08c379a000000000000000000000000000000000000000000000000000000000815260040180806020018281038252600d8152602001807f57726f6e6720706f6f6c2069640000000000000000000000000000000000000081525060200191505060405180910390fd5b600073ffffffffffffffffffffffffffffffffffffffff16600860008a815260200190815260200160002060050160009054906101000a900473ffffffffffffffffffffffffffffffffffffffff1673ffffffffffffffffffffffffffffffffffffffff16141515156122d7576040517f08c379a000000000000000000000000000000000000000000000000000000000815260040180806020018281038252601d8152602001807f506f6f6c20697320666f72204554482c2075736520496e76657445544800000081525060200191505060405180910390fd5b61271087111515612350576040517f08c379a000000000000000000000000000000000000000000000000000000000815260040180806020018281038252601b8152602001807f4e65656420696e76657374206d6f7265207468656e203130303030000000000081525060200191505060405180910390fd5b612391600860008a815260200190815260200160002060050160009054906101000a900473ffffffffffffffffffffffffffffffffffffffff16338961454f565b60c0604051908101604052808981526020013373ffffffffffffffffffffffffffffffffffffffff1681526020018881526020016123ce33614891565b151581526020016000815260200142815250600b6000600a5481526020019081526020016000206000820151816000015560208201518160010160006101000a81548173ffffffffffffffffffffffffffffffffffffffff021916908373ffffffffffffffffffffffffffffffffffffffff1602179055506040820151816002015560608201518160030160006101000a81548160ff0219169083151502179055506080820151816004015560a08201518160050155905050600c60003373ffffffffffffffffffffffffffffffffffffffff1673ffffffffffffffffffffffffffffffffffffffff168152602001908152602001600020600a549080600181540180825580915050906001820390600052602060002001600090919290919091505550600a6000815480929190600101919050555061252487600860008b815260200190815260200160002060040154614a2a565b955061254687600860008b815260200190815260200160002060030154614a2a565b94506000600481111561255557fe5b61255e89610f5e565b600481111561256957fe5b14801561257b575061257a33614891565b5b801561259d575060086000898152602001908152602001600020600801548611155b15612892576125c2600860008a81526020019081526020016000206008015487614a40565b600860008a8152602001908152602001600020600801819055506008600089815260200190815260200160002060070160009054906101000a900460ff161561264e5761262a600b60006001600a540381526020019081526020016000206004015487614533565b600b60006001600a5403815260200190815260200160002060040181905550612690565b61268f600860008a815260200190815260200160002060000160009054906101000a900473ffffffffffffffffffffffffffffffffffffffff1633886143b0565b5b6126b961269f88612710614a2a565b600060159054906101000a900461ffff1661ffff16614a59565b93506126c58785614a40565b925061274660046000600860008c815260200190815260200160002060050160009054906101000a900473ffffffffffffffffffffffffffffffffffffffff1673ffffffffffffffffffffffffffffffffffffffff1673ffffffffffffffffffffffffffffffffffffffff1681526020019081526020016000205485614533565b60046000600860008c815260200190815260200160002060050160009054906101000a900473ffffffffffffffffffffffffffffffffffffffff1673ffffffffffffffffffffffffffffffffffffffff1673ffffffffffffffffffffffffffffffffffffffff16815260200190815260200160002081905550612836600860008a815260200190815260200160002060050160009054906101000a900473ffffffffffffffffffffffffffffffffffffffff16600860008b815260200190815260200160002060010160009054906101000a900473ffffffffffffffffffffffffffffffffffffffff16856143b0565b6000600860008a815260200190815260200160002060080154141561288d577f5aa793a17b0774b891ce2b0dd5dbe8f04132e547df384ab1053d32470050b5fa886040518082815260200191505060405180910390a15b612c39565b6001600481111561289f57fe5b6128a889610f5e565b60048111156128b357fe5b1480156128d6575060086000898152602001908152602001600020600801548511155b15612bcb576128fb600860008a81526020019081526020016000206008015486614a40565b600860008a8152602001908152602001600020600801819055506008600089815260200190815260200160002060070160009054906101000a900460ff161561298757612963600b60006001600a540381526020019081526020016000206004015486614533565b600b60006001600a54038152602001908152602001600020600401819055506129c9565b6129c8600860008a815260200190815260200160002060000160009054906101000a900473ffffffffffffffffffffffffffffffffffffffff1633876143b0565b5b6129f26129d888612710614a2a565b600560009054906101000a900461ffff1661ffff16614a59565b91506129fe8783614a40565b9050612a7f60046000600860008c815260200190815260200160002060050160009054906101000a900473ffffffffffffffffffffffffffffffffffffffff1673ffffffffffffffffffffffffffffffffffffffff1673ffffffffffffffffffffffffffffffffffffffff1681526020019081526020016000205483614533565b60046000600860008c815260200190815260200160002060050160009054906101000a900473ffffffffffffffffffffffffffffffffffffffff1673ffffffffffffffffffffffffffffffffffffffff1673ffffffffffffffffffffffffffffffffffffffff16815260200190815260200160002081905550612b6f600860008a815260200190815260200160002060050160009054906101000a900473ffffffffffffffffffffffffffffffffffffffff16600860008b815260200190815260200160002060010160009054906101000a900473ffffffffffffffffffffffffffffffffffffffff16836143b0565b6000600860008a8152602001908152602001600020600801541415612bc6577f5aa793a17b0774b891ce2b0dd5dbe8f04132e547df384ab1053d32470050b5fa886040518082815260200191505060405180910390a15b612c39565b6040517f08c379a00000000000000000000000000000000000000000000000000000000081526004018080602001828103825260188152602001807f496e766573746d656e74206e6f7420636f6d706c69746564000000000000000081525060200191505060405180910390fd5b5050505050505050565b6000600754905090565b6000809054906101000a900473ffffffffffffffffffffffffffffffffffffffff1673ffffffffffffffffffffffffffffffffffffffff163373ffffffffffffffffffffffffffffffffffffffff16141515612ca857600080fd5b8060038190555050565b6000809054906101000a900473ffffffffffffffffffffffffffffffffffffffff1673ffffffffffffffffffffffffffffffffffffffff163373ffffffffffffffffffffffffffffffffffffffff16141515612d0d57600080fd5b80600260006101000a81548173ffffffffffffffffffffffffffffffffffffffff021916908373ffffffffffffffffffffffffffffffffffffffff16021790555050565b6000809054906101000a900473ffffffffffffffffffffffffffffffffffffffff1673ffffffffffffffffffffffffffffffffffffffff163373ffffffffffffffffffffffffffffffffffffffff16141515612dac57600080fd5b806127108161ffff161015612ddd5781600060176101000a81548161ffff021916908361ffff160217905550612e4b565b6040517f08c379a000000000000000000000000000000000000000000000000000000000815260040180806020018281038252600c8152602001807f4e6f7420696e2072616e6765000000000000000000000000000000000000000081525060200191505060405180910390fd5b5050565b6000600560029054906101000a900461ffff16905090565b6000600660008373ffffffffffffffffffffffffffffffffffffffff1673ffffffffffffffffffffffffffffffffffffffff16815260200190815260200160002060009054906101000a900460ff169050919050565b600080600080600080600060075488101515612f41576040517f08c379a00000000000000000000000000000000000000000000000000000000081526004018080602001828103825260088152602001807f57726f6e6720496400000000000000000000000000000000000000000000000081525060200191505060405180910390fd5b612f4a88610f5e565b600860008a815260200190815260200160002060000160009054906101000a900473ffffffffffffffffffffffffffffffffffffffff16600860008b815260200190815260200160002060030154600860008c815260200190815260200160002060040154600860008d815260200190815260200160002060050160009054906101000a900473ffffffffffffffffffffffffffffffffffffffff16600860008e815260200190815260200160002060060154600860008f8152602001908152602001600020600801549650965096509650965096509650919395979092949650565b6000809054906101000a900473ffffffffffffffffffffffffffffffffffffffff1673ffffffffffffffffffffffffffffffffffffffff163373ffffffffffffffffffffffffffffffffffffffff1614151561308857600080fd5b80600560026101000a81548161ffff021916908361ffff16021790555050565b6000806000803433600354821015156138c7577f3a32cdd14cdfd431946dfa0b2aef5ace661340411aaadcaee6aef6738d3023268282604051808381526020018273ffffffffffffffffffffffffffffffffffffffff1673ffffffffffffffffffffffffffffffffffffffff1681526020019250505060405180910390a16007548710151561319f576040517f08c379a000000000000000000000000000000000000000000000000000000000815260040180806020018281038252600d8152602001807f57726f6e6720706f6f6c2069640000000000000000000000000000000000000081525060200191505060405180910390fd5b600073ffffffffffffffffffffffffffffffffffffffff166008600089815260200190815260200160002060050160009054906101000a900473ffffffffffffffffffffffffffffffffffffffff1673ffffffffffffffffffffffffffffffffffffffff16141515613279576040517f08c379a00000000000000000000000000000000000000000000000000000000081526004018080602001828103825260138152602001807f506f6f6c206973206e6f7420666f72204554480000000000000000000000000081525060200191505060405180910390fd5b60c0604051908101604052808881526020013373ffffffffffffffffffffffffffffffffffffffff1681526020013481526020016132b633614891565b151581526020016000815260200142815250600b6000600a5481526020019081526020016000206000820151816000015560208201518160010160006101000a81548173ffffffffffffffffffffffffffffffffffffffff021916908373ffffffffffffffffffffffffffffffffffffffff1602179055506040820151816002015560608201518160030160006101000a81548160ff0219169083151502179055506080820151816004015560a08201518160050155905050600c60003373ffffffffffffffffffffffffffffffffffffffff1673ffffffffffffffffffffffffffffffffffffffff168152602001908152602001600020600a5490806001815401808255809150509060018203906000526020600020016000909192909190915055506133e7600a546001614533565b600a8190555061340d34600860008a815260200190815260200160002060040154614a2a565b955061342f34600860008a815260200190815260200160002060030154614a2a565b94506000600481111561343e57fe5b61344788610f5e565b600481111561345257fe5b148015613464575061346333614891565b5b8015613486575060086000888152602001908152602001600020600801548611155b1561364b576134ab600860008981526020019081526020016000206008015487614a40565b60086000898152602001908152602001600020600801819055506008600088815260200190815260200160002060070160009054906101000a900460ff161561353757613513600b60006001600a540381526020019081526020016000206004015487614533565b600b60006001600a5403815260200190815260200160002060040181905550613579565b6135786008600089815260200190815260200160002060000160009054906101000a900473ffffffffffffffffffffffffffffffffffffffff1633886143b0565b5b6135ad61358834612710614a2a565b6135a8612710600060159054906101000a900461ffff1661ffff16614a40565b614a59565b93506135ef6008600089815260200190815260200160002060010160009054906101000a900473ffffffffffffffffffffffffffffffffffffffff1685614a91565b600060086000898152602001908152602001600020600801541415613646577f5aa793a17b0774b891ce2b0dd5dbe8f04132e547df384ab1053d32470050b5fa876040518082815260200191505060405180910390a15b6138c2565b6001600481111561365857fe5b61366188610f5e565b600481111561366c57fe5b14801561368f575060086000888152602001908152602001600020600801548511155b15613854576136b4600860008981526020019081526020016000206008015486614a40565b60086000898152602001908152602001600020600801819055506008600088815260200190815260200160002060070160009054906101000a900460ff16156137405761371c600b60006001600a540381526020019081526020016000206004015486614533565b600b60006001600a5403815260200190815260200160002060040181905550613782565b6137816008600089815260200190815260200160002060000160009054906101000a900473ffffffffffffffffffffffffffffffffffffffff1633876143b0565b5b6137b661379134612710614a2a565b6137b1612710600560009054906101000a900461ffff1661ffff16614a40565b614a59565b92506137f86008600089815260200190815260200160002060010160009054906101000a900473ffffffffffffffffffffffffffffffffffffffff1684614a91565b60006008600089815260200190815260200160002060080154141561384f577f5aa793a17b0774b891ce2b0dd5dbe8f04132e547df384ab1053d32470050b5fa876040518082815260200191505060405180910390a15b6138c2565b6040517f08c379a00000000000000000000000000000000000000000000000000000000081526004018080602001828103825260188152602001807f496e766573746d656e74206e6f7420636f6d706c69746564000000000000000081525060200191505060405180910390fd5b613935565b6040517f08c379a00000000000000000000000000000000000000000000000000000000081526004018080602001828103825260128152602001807f53656e642045544820746f20696e76657374000000000000000000000000000081525060200191505060405180910390fd5b50505050505050565b6000600354905090565b6000809054906101000a900473ffffffffffffffffffffffffffffffffffffffff1673ffffffffffffffffffffffffffffffffffffffff163373ffffffffffffffffffffffffffffffffffffffff161415156139a357600080fd5b6139ac81614b47565b50565b6000809054906101000a900473ffffffffffffffffffffffffffffffffffffffff1673ffffffffffffffffffffffffffffffffffffffff163373ffffffffffffffffffffffffffffffffffffffff16141515613a0a57600080fd5b806127108161ffff161015613ad25781600060159054906101000a900461ffff168061ffff168261ffff161115613a5d5783600560006101000a81548161ffff021916908361ffff160217905550613acb565b6040517f08c379a000000000000000000000000000000000000000000000000000000000815260040180806020018281038252600a8152602001807f4e6f74206269676765720000000000000000000000000000000000000000000081525060200191505060405180910390fd5b5050613b40565b6040517f08c379a000000000000000000000000000000000000000000000000000000000815260040180806020018281038252600c8152602001807f4e6f7420696e2072616e6765000000000000000000000000000000000000000081525060200191505060405180910390fd5b5050565b6000809054906101000a900473ffffffffffffffffffffffffffffffffffffffff1673ffffffffffffffffffffffffffffffffffffffff163373ffffffffffffffffffffffffffffffffffffffff16141515613b9f57600080fd5b8173ffffffffffffffffffffffffffffffffffffffff1663a9059cbb82600460008673ffffffffffffffffffffffffffffffffffffffff1673ffffffffffffffffffffffffffffffffffffffff168152602001908152602001600020546040518363ffffffff167c0100000000000000000000000000000000000000000000000000000000028152600401808373ffffffffffffffffffffffffffffffffffffffff1673ffffffffffffffffffffffffffffffffffffffff16815260200182815260200192505050602060405180830381600087803b158015613c8157600080fd5b505af1158015613c95573d6000803e3d6000fd5b505050506040513d6020811015613cab57600080fd5b8101908080519060200190929190505050506000600460008473ffffffffffffffffffffffffffffffffffffffff1673ffffffffffffffffffffffffffffffffffffffff168152602001908152602001600020819055505050565b600042600860008481526020019081526020016000206002015411158015613d44575060006008600084815260200190815260200160002060080154115b8015613d71575060086000838152602001908152602001600020600c0160009054906101000a900460ff16155b15613e3b57600160086000848152602001908152602001600020600c0160006101000a81548160ff021916908315150217905550613e326008600084815260200190815260200160002060000160009054906101000a900473ffffffffffffffffffffffffffffffffffffffff166008600085815260200190815260200160002060010160009054906101000a900473ffffffffffffffffffffffffffffffffffffffff1660086000868152602001908152602001600020600801546143b0565b60019050613e40565b600090505b919050565b6000613e5088614c41565b1515613ec4576040517f08c379a00000000000000000000000000000000000000000000000000000000081526004018080602001828103825260168152602001807f4e6565642056616c696420455243323020546f6b656e0000000000000000000081525060200191505060405180910390fd5b86613ee342600560029054906101000a900461ffff1661ffff16614533565b11151515613f59576040517f08c379a000000000000000000000000000000000000000000000000000000000815260040180806020018281038252601a8152602001807f4e656564206d6f7265207468656e204d696e4475726174696f6e00000000000081525060200191505060405180910390fd5b600073ffffffffffffffffffffffffffffffffffffffff168273ffffffffffffffffffffffffffffffffffffffff161480613f995750613f9882612e67565b5b1515613fa457600080fd5b848611151515614042576040517f08c379a00000000000000000000000000000000000000000000000000000000081526004018080602001828103825260398152602001807f504f5a20686f6c64657273206e65656420746f2068617665206265747465722081526020017f286f72207468652073616d65203d206f6666292070726963650000000000000081525060400191505060405180910390fd5b61404d88338661454f565b8486146140945761408f6140896140816140678a42614a40565b600060179054906101000a900461ffff1661ffff16614a59565b612710614a2a565b42614533565b614096565b425b90506101a0604051908101604052808973ffffffffffffffffffffffffffffffffffffffff1681526020013373ffffffffffffffffffffffffffffffffffffffff1681526020018881526020018781526020018681526020018373ffffffffffffffffffffffffffffffffffffffff1681526020018581526020018415158152602001858152602001428152602001828152602001600081526020016000151581525060086000600754815260200190815260200160002060008201518160000160006101000a81548173ffffffffffffffffffffffffffffffffffffffff021916908373ffffffffffffffffffffffffffffffffffffffff16021790555060208201518160010160006101000a81548173ffffffffffffffffffffffffffffffffffffffff021916908373ffffffffffffffffffffffffffffffffffffffff16021790555060408201518160020155606082015181600301556080820151816004015560a08201518160050160006101000a81548173ffffffffffffffffffffffffffffffffffffffff021916908373ffffffffffffffffffffffffffffffffffffffff16021790555060c0820151816006015560e08201518160070160006101000a81548160ff0219169083151502179055506101008201518160080155610120820151816009015561014082015181600a015561016082015181600b015561018082015181600c0160006101000a81548160ff021916908315150217905550905050600960003373ffffffffffffffffffffffffffffffffffffffff1673ffffffffffffffffffffffffffffffffffffffff16815260200190815260200160002060075490806001815401808255809150509060018203906000526020600020016000909192909190915055507fbe4222bc407cb12031595fc55b46531e46308d31e4572c9c4360d8ae790e1a3188600754604051808373ffffffffffffffffffffffffffffffffffffffff1673ffffffffffffffffffffffffffffffffffffffff1681526020018281526020019250505060405180910390a16143a06007546001614533565b6007819055505050505050505050565b7fe4d818e6f992efbd60db553f3edce819a199baec79a784b95c89bc8ee86f2584818385604051808481526020018373ffffffffffffffffffffffffffffffffffffffff1673ffffffffffffffffffffffffffffffffffffffff1681526020018273ffffffffffffffffffffffffffffffffffffffff1673ffffffffffffffffffffffffffffffffffffffff168152602001935050505060405180910390a18273ffffffffffffffffffffffffffffffffffffffff1663a9059cbb83836040518363ffffffff167c0100000000000000000000000000000000000000000000000000000000028152600401808373ffffffffffffffffffffffffffffffffffffffff1673ffffffffffffffffffffffffffffffffffffffff16815260200182815260200192505050602060405180830381600087803b1580156144f257600080fd5b505af1158015614506573d6000803e3d6000fd5b505050506040513d602081101561451c57600080fd5b810190808051906020019092919050505050505050565b6000818301905082811015151561454657fe5b80905092915050565b828282808373ffffffffffffffffffffffffffffffffffffffff1663dd62ed3e84306040518363ffffffff167c0100000000000000000000000000000000000000000000000000000000028152600401808373ffffffffffffffffffffffffffffffffffffffff1673ffffffffffffffffffffffffffffffffffffffff1681526020018273ffffffffffffffffffffffffffffffffffffffff1673ffffffffffffffffffffffffffffffffffffffff16815260200192505050602060405180830381600087803b15801561462257600080fd5b505af1158015614636573d6000803e3d6000fd5b505050506040513d602081101561464c57600080fd5b810190808051906020019092919050505010151561481b578573ffffffffffffffffffffffffffffffffffffffff166323b872dd8630876040518463ffffffff167c0100000000000000000000000000000000000000000000000000000000028152600401808473ffffffffffffffffffffffffffffffffffffffff1673ffffffffffffffffffffffffffffffffffffffff1681526020018373ffffffffffffffffffffffffffffffffffffffff1673ffffffffffffffffffffffffffffffffffffffff1681526020018281526020019350505050602060405180830381600087803b15801561473b57600080fd5b505af115801561474f573d6000803e3d6000fd5b505050506040513d602081101561476557600080fd5b8101908080519060200190929190505050507f1fecf4702e692891a7c2f0d328779b085efb5edd094fa5558bd5cd147a167922848688604051808481526020018373ffffffffffffffffffffffffffffffffffffffff1673ffffffffffffffffffffffffffffffffffffffff1681526020018273ffffffffffffffffffffffffffffffffffffffff1673ffffffffffffffffffffffffffffffffffffffff168152602001935050505060405180910390a1614889565b6040517f08c379a000000000000000000000000000000000000000000000000000000000815260040180806020018281038252600b8152602001807f4e6f20616c6c6f776e636500000000000000000000000000000000000000000081525060200191505060405180910390fd5b505050505050565b60008073ffffffffffffffffffffffffffffffffffffffff16600260009054906101000a900473ffffffffffffffffffffffffffffffffffffffff1673ffffffffffffffffffffffffffffffffffffffff1614156148f25760019050614a25565b600154614921600260009054906101000a900473ffffffffffffffffffffffffffffffffffffffff1684614cfc565b101580614a225750600260009054906101000a900473ffffffffffffffffffffffffffffffffffffffff1673ffffffffffffffffffffffffffffffffffffffff1663b217bb01836040518263ffffffff167c0100000000000000000000000000000000000000000000000000000000028152600401808273ffffffffffffffffffffffffffffffffffffffff1673ffffffffffffffffffffffffffffffffffffffff168152602001915050602060405180830381600087803b1580156149e657600080fd5b505af11580156149fa573d6000803e3d6000fd5b505050506040513d6020811015614a1057600080fd5b81019080805190602001909291905050505b90505b919050565b60008183811515614a3757fe5b04905092915050565b6000828211151515614a4e57fe5b818303905092915050565b600080831415614a6c5760009050614a8b565b8183029050818382811515614a7d57fe5b04141515614a8757fe5b8090505b92915050565b7feca5ae7bd9109b0f7d228f3f8a8cc834a1f995af62df6dc226dc3ab3f38dc7b38183604051808381526020018273ffffffffffffffffffffffffffffffffffffffff1673ffffffffffffffffffffffffffffffffffffffff1681526020019250505060405180910390a18173ffffffffffffffffffffffffffffffffffffffff166108fc829081150290604051600060405180830381858888f19350505050158015614b42573d6000803e3d6000fd5b505050565b600073ffffffffffffffffffffffffffffffffffffffff168173ffffffffffffffffffffffffffffffffffffffff1614151515614b8357600080fd5b8073ffffffffffffffffffffffffffffffffffffffff166000809054906101000a900473ffffffffffffffffffffffffffffffffffffffff1673ffffffffffffffffffffffffffffffffffffffff167f8be0079c531659141344cd1fd0a4f28419497f9722a3daafe3b4186f6b6457e060405160405180910390a3806000806101000a81548173ffffffffffffffffffffffffffffffffffffffff021916908373ffffffffffffffffffffffffffffffffffffffff16021790555050565b6000808273ffffffffffffffffffffffffffffffffffffffff166318160ddd6040518163ffffffff167c0100000000000000000000000000000000000000000000000000000000028152600401602060405180830381600087803b158015614ca857600080fd5b505af1158015614cbc573d6000803e3d6000fd5b505050506040513d6020811015614cd257600080fd5b81019080805190602001909291905050501115614cf25760019050614cf7565b600090505b919050565b60008273ffffffffffffffffffffffffffffffffffffffff166370a08231836040518263ffffffff167c0100000000000000000000000000000000000000000000000000000000028152600401808273ffffffffffffffffffffffffffffffffffffffff1673ffffffffffffffffffffffffffffffffffffffff168152602001915050602060405180830381600087803b158015614d9957600080fd5b505af1158015614dad573d6000803e3d6000fd5b505050506040513d6020811015614dc357600080fd5b81019080805190602001909291905050509050929150505600a165627a7a723058200e66eab19f4605de20e2c7004bc14f12a8c28ec5f389cb17b715348b87af0ffd0029",
  "source": "// SPDX-License-Identifier: MIT\r\npragma solidity ^0.4.24;\r\n\r\nimport \"openzeppelin-solidity/contracts/math/SafeMath.sol\";\r\nimport \"./Invest.sol\";\r\n\r\ncontract InvestorData is Invest {\r\n    function WithdrawInvestment(uint256 _id) public returns (bool) {\r\n        if (\r\n            _id <= TotalInvestors &&\r\n            Investors[_id].TokensOwn > 0 &&\r\n            GetPoolStatus(Investors[_id].Poolid) == PoolStatus.Finished\r\n        ) {\r\n            TransferToken(\r\n                pools[Investors[_id].Poolid].Token,\r\n                Investors[_id].InvestorAddress,\r\n                Investors[_id].TokensOwn\r\n            );\r\n            pools[Investors[_id].Poolid].UnlockedTokens = SafeMath.add(\r\n                pools[Investors[_id].Poolid].UnlockedTokens,\r\n                Investors[_id].TokensOwn\r\n            );\r\n            Investors[_id].TokensOwn = 0;\r\n            return true;\r\n        }\r\n        return false;\r\n    }\r\n\r\n    //Give all the id's of the investment  by sender address\r\n    function GetMyInvestmentIds() public view returns (uint256[]) {\r\n        return InvestorsMap[msg.sender];\r\n    }\r\n\r\n    function GetInvestmentData(uint256 _id)\r\n        public\r\n        view\r\n        returns (\r\n            uint256,\r\n            address,\r\n            uint256,\r\n            bool,\r\n            uint256,\r\n            uint256\r\n        )\r\n    {\r\n        require(\r\n            Investors[_id].InvestorAddress == msg.sender || msg.sender == owner,\r\n            \"Only for the investor (or Admin)\"\r\n        );\r\n        return (\r\n            Investors[_id].Poolid,\r\n            Investors[_id].InvestorAddress,\r\n            Investors[_id].MainCoin,\r\n            Investors[_id].IsPozInvestor,\r\n            Investors[_id].TokensOwn,\r\n            Investors[_id].InvestTime\r\n        );\r\n    }\r\n}\r\n",
  "sourcePath": "C:\\Users\\Administrator\\Desktop\\Code\\Poolz\\contracts\\InvestorData.sol",
  "compiler": {
    "name": "solc",
    "version": "0.4.26+commit.4563c3fc.Emscripten.clang"
  },
  "schemaVersion": "3.3.0",
  "updatedAt": "2020-10-11T14:45:14.628Z",
  "devdoc": {
    "methods": {
      "pause()": {
        "details": "called by the owner to pause, triggers stopped state"
      },
      "renounceOwnership()": {
        "details": "Allows the current owner to relinquish control of the contract."
      },
      "transferOwnership(address)": {
        "details": "Allows the current owner to transfer control of the contract to a newOwner.",
        "params": {
          "_newOwner": "The address to transfer ownership to."
        }
      },
      "unpause()": {
        "details": "called by the owner to unpause, returns to normal state"
      }
    }
  },
  "userdoc": {
    "methods": {
      "renounceOwnership()": {
        "notice": "Renouncing to ownership will leave the contract without an owner. It will not be possible to call the functions with the `onlyOwner` modifier anymore."
      }
    }
  }
}