{
  "contractName": "Invest",
  "abi": [
    {
      "constant": false,
      "inputs": [
        {
          "name": "_token",
          "type": "address"
        }
      ],
      "name": "RemoveERC20Maincoin",
      "outputs": [],
      "payable": false,
      "stateMutability": "nonpayable",
      "type": "function"
    },
    {
      "constant": true,
      "inputs": [],
      "name": "GetPozTimer",
      "outputs": [
        {
          "name": "",
          "type": "uint16"
        }
      ],
      "payable": false,
      "stateMutability": "view",
      "type": "function"
    },
    {
      "constant": true,
      "inputs": [
        {
          "name": "_id",
          "type": "uint256"
        }
      ],
      "name": "GetPoolStatus",
      "outputs": [
        {
          "name": "",
          "type": "uint8"
        }
      ],
      "payable": false,
      "stateMutability": "view",
      "type": "function"
    },
    {
      "constant": false,
      "inputs": [
        {
          "name": "_fee",
          "type": "uint16"
        }
      ],
      "name": "SetPOZFee",
      "outputs": [],
      "payable": false,
      "stateMutability": "nonpayable",
      "type": "function"
    },
    {
      "constant": true,
      "inputs": [],
      "name": "GetPOZFee",
      "outputs": [
        {
          "name": "",
          "type": "uint16"
        }
      ],
      "payable": false,
      "stateMutability": "view",
      "type": "function"
    },
    {
      "constant": true,
      "inputs": [
        {
          "name": "",
          "type": "address"
        }
      ],
      "name": "ERC20MainCoins",
      "outputs": [
        {
          "name": "",
          "type": "bool"
        }
      ],
      "payable": false,
      "stateMutability": "view",
      "type": "function"
    },
    {
      "constant": false,
      "inputs": [],
      "name": "unpause",
      "outputs": [],
      "payable": false,
      "stateMutability": "nonpayable",
      "type": "function"
    },
    {
      "constant": true,
      "inputs": [],
      "name": "GetFee",
      "outputs": [
        {
          "name": "",
          "type": "uint16"
        }
      ],
      "payable": false,
      "stateMutability": "view",
      "type": "function"
    },
    {
      "constant": true,
      "inputs": [
        {
          "name": "",
          "type": "address"
        },
        {
          "name": "",
          "type": "uint256"
        }
      ],
      "name": "poolsMap",
      "outputs": [
        {
          "name": "",
          "type": "uint256"
        }
      ],
      "payable": false,
      "stateMutability": "view",
      "type": "function"
    },
    {
      "constant": true,
      "inputs": [],
      "name": "paused",
      "outputs": [
        {
          "name": "",
          "type": "bool"
        }
      ],
      "payable": false,
      "stateMutability": "view",
      "type": "function"
    },
    {
      "constant": false,
      "inputs": [
        {
          "name": "_MinPoz",
          "type": "uint256"
        }
      ],
      "name": "SetMinPoz",
      "outputs": [],
      "payable": false,
      "stateMutability": "nonpayable",
      "type": "function"
    },
    {
      "constant": true,
      "inputs": [],
      "name": "GetIsPayble",
      "outputs": [
        {
          "name": "",
          "type": "bool"
        }
      ],
      "payable": false,
      "stateMutability": "view",
      "type": "function"
    },
    {
      "constant": true,
      "inputs": [],
      "name": "GetMyPoolsId",
      "outputs": [
        {
          "name": "",
          "type": "uint256[]"
        }
      ],
      "payable": false,
      "stateMutability": "view",
      "type": "function"
    },
    {
      "constant": true,
      "inputs": [
        {
          "name": "_id",
          "type": "uint256"
        }
      ],
      "name": "GetMorePoolData",
      "outputs": [
        {
          "name": "",
          "type": "bool"
        },
        {
          "name": "",
          "type": "uint256"
        },
        {
          "name": "",
          "type": "uint256"
        },
        {
          "name": "",
          "type": "address"
        }
      ],
      "payable": false,
      "stateMutability": "view",
      "type": "function"
    },
    {
      "constant": false,
      "inputs": [],
      "name": "renounceOwnership",
      "outputs": [],
      "payable": false,
      "stateMutability": "nonpayable",
      "type": "function"
    },
    {
      "constant": false,
      "inputs": [],
      "name": "pause",
      "outputs": [],
      "payable": false,
      "stateMutability": "nonpayable",
      "type": "function"
    },
    {
      "constant": true,
      "inputs": [],
      "name": "poolsCount",
      "outputs": [
        {
          "name": "",
          "type": "uint256"
        }
      ],
      "payable": false,
      "stateMutability": "view",
      "type": "function"
    },
    {
      "constant": true,
      "inputs": [],
      "name": "owner",
      "outputs": [
        {
          "name": "",
          "type": "address"
        }
      ],
      "payable": false,
      "stateMutability": "view",
      "type": "function"
    },
    {
      "constant": false,
      "inputs": [
        {
          "name": "_to",
          "type": "address"
        }
      ],
      "name": "WithdrawETHFee",
      "outputs": [],
      "payable": false,
      "stateMutability": "nonpayable",
      "type": "function"
    },
    {
      "constant": true,
      "inputs": [],
      "name": "GetMinPoz",
      "outputs": [
        {
          "name": "",
          "type": "uint256"
        }
      ],
      "payable": false,
      "stateMutability": "view",
      "type": "function"
    },
    {
      "constant": false,
      "inputs": [
        {
          "name": "_token",
          "type": "address"
        }
      ],
      "name": "AddERC20Maincoin",
      "outputs": [],
      "payable": false,
      "stateMutability": "nonpayable",
      "type": "function"
    },
    {
      "constant": false,
      "inputs": [],
      "name": "SwitchIsPayble",
      "outputs": [],
      "payable": false,
      "stateMutability": "nonpayable",
      "type": "function"
    },
    {
      "constant": true,
      "inputs": [
        {
          "name": "",
          "type": "uint256"
        }
      ],
      "name": "pools",
      "outputs": [
        {
          "name": "Token",
          "type": "address"
        },
        {
          "name": "Creator",
          "type": "address"
        },
        {
          "name": "FinishTime",
          "type": "uint256"
        },
        {
          "name": "Rate",
          "type": "uint256"
        },
        {
          "name": "POZRate",
          "type": "uint256"
        },
        {
          "name": "Maincoin",
          "type": "address"
        },
        {
          "name": "StartAmount",
          "type": "uint256"
        },
        {
          "name": "IsLocked",
          "type": "bool"
        },
        {
          "name": "Lefttokens",
          "type": "uint256"
        },
        {
          "name": "StartTime",
          "type": "uint256"
        },
        {
          "name": "OpenForAll",
          "type": "uint256"
        },
        {
          "name": "UnlockedTokens",
          "type": "uint256"
        },
        {
          "name": "TookLeftOvers",
          "type": "bool"
        }
      ],
      "payable": false,
      "stateMutability": "view",
      "type": "function"
    },
    {
      "constant": true,
      "inputs": [],
      "name": "GetLastPoolId",
      "outputs": [
        {
          "name": "",
          "type": "uint256"
        }
      ],
      "payable": false,
      "stateMutability": "view",
      "type": "function"
    },
    {
      "constant": false,
      "inputs": [
        {
          "name": "_MinETH",
          "type": "uint256"
        }
      ],
      "name": "SetMinETH",
      "outputs": [],
      "payable": false,
      "stateMutability": "nonpayable",
      "type": "function"
    },
    {
      "constant": false,
      "inputs": [
        {
          "name": "_pozTimer",
          "type": "uint16"
        }
      ],
      "name": "SetPozTimer",
      "outputs": [],
      "payable": false,
      "stateMutability": "nonpayable",
      "type": "function"
    },
    {
      "constant": true,
      "inputs": [],
      "name": "GetMinDuration",
      "outputs": [
        {
          "name": "",
          "type": "uint16"
        }
      ],
      "payable": false,
      "stateMutability": "view",
      "type": "function"
    },
    {
      "constant": true,
      "inputs": [
        {
          "name": "_token",
          "type": "address"
        }
      ],
      "name": "IsERC20Maincoin",
      "outputs": [
        {
          "name": "",
          "type": "bool"
        }
      ],
      "payable": false,
      "stateMutability": "view",
      "type": "function"
    },
    {
      "constant": true,
      "inputs": [
        {
          "name": "_id",
          "type": "uint256"
        }
      ],
      "name": "GetPoolData",
      "outputs": [
        {
          "name": "",
          "type": "uint8"
        },
        {
          "name": "",
          "type": "address"
        },
        {
          "name": "",
          "type": "uint256"
        },
        {
          "name": "",
          "type": "uint256"
        },
        {
          "name": "",
          "type": "address"
        },
        {
          "name": "",
          "type": "uint256"
        },
        {
          "name": "",
          "type": "uint256"
        }
      ],
      "payable": false,
      "stateMutability": "view",
      "type": "function"
    },
    {
      "constant": false,
      "inputs": [
        {
          "name": "_minDuration",
          "type": "uint16"
        }
      ],
      "name": "SetMinDuration",
      "outputs": [],
      "payable": false,
      "stateMutability": "nonpayable",
      "type": "function"
    },
    {
      "constant": true,
      "inputs": [],
      "name": "GetMinETH",
      "outputs": [
        {
          "name": "",
          "type": "uint256"
        }
      ],
      "payable": false,
      "stateMutability": "view",
      "type": "function"
    },
    {
      "constant": false,
      "inputs": [
        {
          "name": "_newOwner",
          "type": "address"
        }
      ],
      "name": "transferOwnership",
      "outputs": [],
      "payable": false,
      "stateMutability": "nonpayable",
      "type": "function"
    },
    {
      "constant": false,
      "inputs": [
        {
          "name": "_fee",
          "type": "uint16"
        }
      ],
      "name": "SetFee",
      "outputs": [],
      "payable": false,
      "stateMutability": "nonpayable",
      "type": "function"
    },
    {
      "constant": false,
      "inputs": [
        {
          "name": "_Token",
          "type": "address"
        },
        {
          "name": "_to",
          "type": "address"
        }
      ],
      "name": "WithdrawERC20Fee",
      "outputs": [],
      "payable": false,
      "stateMutability": "nonpayable",
      "type": "function"
    },
    {
      "constant": false,
      "inputs": [
        {
          "name": "_PoolId",
          "type": "uint256"
        }
      ],
      "name": "WithdrawLeftOvers",
      "outputs": [
        {
          "name": "",
          "type": "bool"
        }
      ],
      "payable": false,
      "stateMutability": "nonpayable",
      "type": "function"
    },
    {
      "constant": false,
      "inputs": [
        {
          "name": "_Token",
          "type": "address"
        },
        {
          "name": "_FinishTime",
          "type": "uint256"
        },
        {
          "name": "_Rate",
          "type": "uint256"
        },
        {
          "name": "_POZRate",
          "type": "uint256"
        },
        {
          "name": "_StartAmount",
          "type": "uint256"
        },
        {
          "name": "_IsLocked",
          "type": "bool"
        },
        {
          "name": "_MainCoin",
          "type": "address"
        }
      ],
      "name": "CreatePool",
      "outputs": [],
      "payable": false,
      "stateMutability": "nonpayable",
      "type": "function"
    },
    {
      "inputs": [],
      "payable": false,
      "stateMutability": "nonpayable",
      "type": "constructor"
    },
    {
      "payable": true,
      "stateMutability": "payable",
      "type": "fallback"
    },
    {
      "anonymous": false,
      "inputs": [
        {
          "indexed": false,
          "name": "token",
          "type": "address"
        },
        {
          "indexed": false,
          "name": "id",
          "type": "uint256"
        }
      ],
      "name": "NewPool",
      "type": "event"
    },
    {
      "anonymous": false,
      "inputs": [
        {
          "indexed": false,
          "name": "id",
          "type": "uint256"
        }
      ],
      "name": "FinishPool",
      "type": "event"
    },
    {
      "anonymous": false,
      "inputs": [
        {
          "indexed": false,
          "name": "Token",
          "type": "address"
        }
      ],
      "name": "MainCoinAdded",
      "type": "event"
    },
    {
      "anonymous": false,
      "inputs": [
        {
          "indexed": false,
          "name": "Token",
          "type": "address"
        }
      ],
      "name": "MainCoinRemoved",
      "type": "event"
    },
    {
      "anonymous": false,
      "inputs": [
        {
          "indexed": false,
          "name": "Amount",
          "type": "uint256"
        },
        {
          "indexed": false,
          "name": "To",
          "type": "address"
        }
      ],
      "name": "TransferOutETH",
      "type": "event"
    },
    {
      "anonymous": false,
      "inputs": [
        {
          "indexed": false,
          "name": "Amount",
          "type": "uint256"
        },
        {
          "indexed": false,
          "name": "From",
          "type": "address"
        }
      ],
      "name": "TransferInETH",
      "type": "event"
    },
    {
      "anonymous": false,
      "inputs": [
        {
          "indexed": false,
          "name": "Amount",
          "type": "uint256"
        },
        {
          "indexed": false,
          "name": "To",
          "type": "address"
        },
        {
          "indexed": false,
          "name": "Token",
          "type": "address"
        }
      ],
      "name": "TransferOut",
      "type": "event"
    },
    {
      "anonymous": false,
      "inputs": [
        {
          "indexed": false,
          "name": "Amount",
          "type": "uint256"
        },
        {
          "indexed": false,
          "name": "From",
          "type": "address"
        },
        {
          "indexed": false,
          "name": "Token",
          "type": "address"
        }
      ],
      "name": "TransferIn",
      "type": "event"
    },
    {
      "anonymous": false,
      "inputs": [],
      "name": "Pause",
      "type": "event"
    },
    {
      "anonymous": false,
      "inputs": [],
      "name": "Unpause",
      "type": "event"
    },
    {
      "anonymous": false,
      "inputs": [
        {
          "indexed": true,
          "name": "previousOwner",
          "type": "address"
        }
      ],
      "name": "OwnershipRenounced",
      "type": "event"
    },
    {
      "anonymous": false,
      "inputs": [
        {
          "indexed": true,
          "name": "previousOwner",
          "type": "address"
        },
        {
          "indexed": true,
          "name": "newOwner",
          "type": "address"
        }
      ],
      "name": "OwnershipTransferred",
      "type": "event"
    },
    {
      "constant": false,
      "inputs": [
        {
          "name": "_PoolId",
          "type": "uint256"
        }
      ],
      "name": "InvestETH",
      "outputs": [],
      "payable": true,
      "stateMutability": "payable",
      "type": "function"
    },
    {
      "constant": false,
      "inputs": [
        {
          "name": "_PoolId",
          "type": "uint256"
        },
        {
          "name": "_Amount",
          "type": "uint256"
        }
      ],
      "name": "InvestERC20",
      "outputs": [],
      "payable": true,
      "stateMutability": "payable",
      "type": "function"
    }
  ],
  "bytecode": "0x608060405260008060146101000a81548160ff02191690831515021790555034801561002a57600080fd5b50336000806101000a81548173ffffffffffffffffffffffffffffffffffffffff021916908373ffffffffffffffffffffffffffffffffffffffff160217905550600f600060156101000a81548161ffff021916908361ffff1602179055506103e8600060176101000a81548161ffff021916908361ffff16021790555060506001819055506000600260006101000a81548173ffffffffffffffffffffffffffffffffffffffff021916908373ffffffffffffffffffffffffffffffffffffffff1602179055506000600260146101000a81548160ff0219169083151502179055506127106003819055506014600560006101000a81548161ffff021916908361ffff1602179055506000600560026101000a81548161ffff021916908361ffff16021790555060006007819055506000600a8190555061475e806101716000396000f3006080604052600436106101d7576000357c0100000000000000000000000000000000000000000000000000000000900463ffffffff168062ea9216146101f4578063014f3aff146102375780630d08caa01461026a57806311fad209146102b95780631ac8989f146102ea5780633037548a1461031d5780633f4ba83a1461037857806348d9614d1461038f57806356793bc7146103c25780635c975abb146104235780635ea84ad614610452578063624dea1c1461047f57806363552a49146104ae57806366b91da91461051a578063715018a6146105a05780638456cb59146105b75780638c788de0146105ce5780638da5cb5b146105f9578063991e979a146106505780639baf390a14610693578063a38c6549146106be578063aac5da5c14610701578063ac4afa3814610718578063be33a3ec14610839578063c5053add14610863578063cbf476e51461088e578063e05425e4146108bb578063e4dc37bb146108ec578063e89067161461091f578063ea9223a61461097a578063ecf1a2c914610a4b578063f04be48b14610a7c578063f155e88e14610a9c578063f2fde38b14610ac7578063f8d5c26b14610b0a578063fc1a86ff14610b3b578063fd711a5514610b9e578063ff02c51314610be3575b600260149054906101000a900460ff1615156101f257600080fd5b005b34801561020057600080fd5b50610235600480360381019080803573ffffffffffffffffffffffffffffffffffffffff169060200190929190505050610c7a565b005b34801561024357600080fd5b5061024c610d93565b604051808261ffff1661ffff16815260200191505060405180910390f35b34801561027657600080fd5b5061029560048036038101908080359060200190929190505050610daa565b604051808260048111156102a557fe5b60ff16815260200191505060405180910390f35b3480156102c557600080fd5b506102e8600480360381019080803561ffff1690602001909291905050506111a8565b005b3480156102f657600080fd5b506102ff61133d565b604051808261ffff1661ffff16815260200191505060405180910390f35b34801561032957600080fd5b5061035e600480360381019080803573ffffffffffffffffffffffffffffffffffffffff169060200190929190505050611354565b604051808215151515815260200191505060405180910390f35b34801561038457600080fd5b5061038d611374565b005b34801561039b57600080fd5b506103a4611432565b604051808261ffff1661ffff16815260200191505060405180910390f35b3480156103ce57600080fd5b5061040d600480360381019080803573ffffffffffffffffffffffffffffffffffffffff1690602001909291908035906020019092919050505061144a565b6040518082815260200191505060405180910390f35b34801561042f57600080fd5b5061043861147a565b604051808215151515815260200191505060405180910390f35b34801561045e57600080fd5b5061047d6004803603810190808035906020019092919050505061148d565b005b34801561048b57600080fd5b506104946114f2565b604051808215151515815260200191505060405180910390f35b3480156104ba57600080fd5b506104c3611509565b6040518080602001828103825283818151815260200191508051906020019060200280838360005b838110156105065780820151818401526020810190506104eb565b505050509050019250505060405180910390f35b34801561052657600080fd5b506105456004803603810190808035906020019092919050505061159e565b60405180851515151581526020018481526020018381526020018273ffffffffffffffffffffffffffffffffffffffff1673ffffffffffffffffffffffffffffffffffffffff16815260200194505050505060405180910390f35b3480156105ac57600080fd5b506105b561163c565b005b3480156105c357600080fd5b506105cc61173e565b005b3480156105da57600080fd5b506105e36117fe565b6040518082815260200191505060405180910390f35b34801561060557600080fd5b5061060e611804565b604051808273ffffffffffffffffffffffffffffffffffffffff1673ffffffffffffffffffffffffffffffffffffffff16815260200191505060405180910390f35b34801561065c57600080fd5b50610691600480360381019080803573ffffffffffffffffffffffffffffffffffffffff169060200190929190505050611829565b005b34801561069f57600080fd5b506106a86118e5565b6040518082815260200191505060405180910390f35b3480156106ca57600080fd5b506106ff600480360381019080803573ffffffffffffffffffffffffffffffffffffffff1690602001909291905050506118ef565b005b34801561070d57600080fd5b50610716611a08565b005b34801561072457600080fd5b5061074360048036038101908080359060200190929190505050611a8f565b604051808e73ffffffffffffffffffffffffffffffffffffffff1673ffffffffffffffffffffffffffffffffffffffff1681526020018d73ffffffffffffffffffffffffffffffffffffffff1673ffffffffffffffffffffffffffffffffffffffff1681526020018c81526020018b81526020018a81526020018973ffffffffffffffffffffffffffffffffffffffff1673ffffffffffffffffffffffffffffffffffffffff16815260200188815260200187151515158152602001868152602001858152602001848152602001838152602001821515151581526020019d505050505050505050505050505060405180910390f35b6108616004803603810190808035906020019092919080359060200190929190505050611b6f565b005b34801561086f57600080fd5b50610878612638565b6040518082815260200191505060405180910390f35b34801561089a57600080fd5b506108b960048036038101908080359060200190929190505050612642565b005b3480156108c757600080fd5b506108ea600480360381019080803561ffff1690602001909291905050506126a7565b005b3480156108f857600080fd5b506109016127a5565b604051808261ffff1661ffff16815260200191505060405180910390f35b34801561092b57600080fd5b50610960600480360381019080803573ffffffffffffffffffffffffffffffffffffffff1690602001909291905050506127bd565b604051808215151515815260200191505060405180910390f35b34801561098657600080fd5b506109a560048036038101908080359060200190929190505050612813565b604051808860048111156109b557fe5b60ff1681526020018773ffffffffffffffffffffffffffffffffffffffff1673ffffffffffffffffffffffffffffffffffffffff1681526020018681526020018581526020018473ffffffffffffffffffffffffffffffffffffffff1673ffffffffffffffffffffffffffffffffffffffff16815260200183815260200182815260200197505050505050505060405180910390f35b348015610a5757600080fd5b50610a7a600480360381019080803561ffff169060200190929190505050612983565b005b610a9a600480360381019080803590602001909291905050506129fe565b005b348015610aa857600080fd5b50610ab1613294565b6040518082815260200191505060405180910390f35b348015610ad357600080fd5b50610b08600480360381019080803573ffffffffffffffffffffffffffffffffffffffff16906020019092919050505061329e565b005b348015610b1657600080fd5b50610b39600480360381019080803561ffff169060200190929190505050613305565b005b348015610b4757600080fd5b50610b9c600480360381019080803573ffffffffffffffffffffffffffffffffffffffff169060200190929190803573ffffffffffffffffffffffffffffffffffffffff16906020019092919050505061349a565b005b348015610baa57600080fd5b50610bc96004803603810190808035906020019092919050505061365c565b604051808215151515815260200191505060405180910390f35b348015610bef57600080fd5b50610c78600480360381019080803573ffffffffffffffffffffffffffffffffffffffff16906020019092919080359060200190929190803590602001909291908035906020019092919080359060200190929190803515159060200190929190803573ffffffffffffffffffffffffffffffffffffffff16906020019092919050505061379b565b005b6000809054906101000a900473ffffffffffffffffffffffffffffffffffffffff1673ffffffffffffffffffffffffffffffffffffffff163373ffffffffffffffffffffffffffffffffffffffff16141515610cd557600080fd5b7f46e7a65ed7662dc42b119afa3a03fc8474ed27a5a48d664c0b5e8b87b04184cf81604051808273ffffffffffffffffffffffffffffffffffffffff1673ffffffffffffffffffffffffffffffffffffffff16815260200191505060405180910390a16000600660008373ffffffffffffffffffffffffffffffffffffffff1673ffffffffffffffffffffffffffffffffffffffff16815260200190815260200160002060006101000a81548160ff02191690831515021790555050565b60008060179054906101000a900461ffff16905090565b600060075482101515610e25576040517f08c379a000000000000000000000000000000000000000000000000000000000815260040180806020018281038252600d8152602001807f57726f6e6720706f6f6c2069640000000000000000000000000000000000000081525060200191505060405180910390fd5b60086000838152602001908152602001600020600a015442108015610e60575060006008600084815260200190815260200160002060080154115b15610e6e57600090506111a3565b60086000838152602001908152602001600020600a01544210158015610eaa575060006008600084815260200190815260200160002060080154115b8015610ecb5750600860008381526020019081526020016000206002015442105b15610ed957600190506111a3565b60006008600084815260200190815260200160002060080154148015610f1f57506008600083815260200190815260200160002060070160009054906101000a900460ff165b8015610f405750600860008381526020019081526020016000206002015442105b15610f4e57600290506111a3565b60006008600084815260200190815260200160002060080154148015610f9557506008600083815260200190815260200160002060070160009054906101000a900460ff16155b15610fa357600490506111a3565b60006008600084815260200190815260200160002060080154118015610fea57506008600083815260200190815260200160002060070160009054906101000a900460ff16155b8015611017575060086000838152602001908152602001600020600c0160009054906101000a900460ff16155b1561102557600390506111a3565b6008600083815260200190815260200160002060020154421015801561106c57506008600083815260200190815260200160002060070160009054906101000a900460ff16155b156110ac5760086000838152602001908152602001600020600c0160009054906101000a900460ff16156110a357600490506111a3565b600390506111a3565b600860008381526020019081526020016000206002015442101580156110f257506008600083815260200190815260200160002060070160009054906101000a900460ff165b156111a25760086000838152602001908152602001600020600c0160009054906101000a900460ff168061113c575060006008600084815260200190815260200160002060080154145b801561118b57506008600083815260200190815260200160002060060154600860008481526020019081526020016000206008015460086000858152602001908152602001600020600b015401145b1561119957600490506111a3565b600390506111a3565b5b919050565b6000809054906101000a900473ffffffffffffffffffffffffffffffffffffffff1673ffffffffffffffffffffffffffffffffffffffff163373ffffffffffffffffffffffffffffffffffffffff1614151561120357600080fd5b806127108161ffff1610156112cb57600560009054906101000a900461ffff16828061ffff168261ffff1611156112565783600060156101000a81548161ffff021916908361ffff1602179055506112c4565b6040517f08c379a000000000000000000000000000000000000000000000000000000000815260040180806020018281038252600a8152602001807f4e6f74206269676765720000000000000000000000000000000000000000000081525060200191505060405180910390fd5b5050611339565b6040517f08c379a000000000000000000000000000000000000000000000000000000000815260040180806020018281038252600c8152602001807f4e6f7420696e2072616e6765000000000000000000000000000000000000000081525060200191505060405180910390fd5b5050565b60008060159054906101000a900461ffff16905090565b60066020528060005260406000206000915054906101000a900460ff1681565b6000809054906101000a900473ffffffffffffffffffffffffffffffffffffffff1673ffffffffffffffffffffffffffffffffffffffff163373ffffffffffffffffffffffffffffffffffffffff161415156113cf57600080fd5b600060149054906101000a900460ff1615156113ea57600080fd5b60008060146101000a81548160ff0219169083151502179055507f7805862f689e2f13df9f062ff482ad3ad112aca9e0847911ed832e158c525b3360405160405180910390a1565b6000600560009054906101000a900461ffff16905090565b60096020528160005260406000208181548110151561146557fe5b90600052602060002001600091509150505481565b600060149054906101000a900460ff1681565b6000809054906101000a900473ffffffffffffffffffffffffffffffffffffffff1673ffffffffffffffffffffffffffffffffffffffff163373ffffffffffffffffffffffffffffffffffffffff161415156114e857600080fd5b8060018190555050565b6000600260149054906101000a900460ff16905090565b6060600960003373ffffffffffffffffffffffffffffffffffffffff1673ffffffffffffffffffffffffffffffffffffffff16815260200190815260200160002080548060200260200160405190810160405280929190818152602001828054801561159457602002820191906000526020600020905b815481526020019060010190808311611580575b5050505050905090565b6000806000806008600086815260200190815260200160002060070160009054906101000a900460ff16600860008781526020019081526020016000206002015460086000888152602001908152602001600020600a01546008600089815260200190815260200160002060010160009054906101000a900473ffffffffffffffffffffffffffffffffffffffff1693509350935093509193509193565b6000809054906101000a900473ffffffffffffffffffffffffffffffffffffffff1673ffffffffffffffffffffffffffffffffffffffff163373ffffffffffffffffffffffffffffffffffffffff1614151561169757600080fd5b6000809054906101000a900473ffffffffffffffffffffffffffffffffffffffff1673ffffffffffffffffffffffffffffffffffffffff167ff8df31144d9c2f0f6b59d69b8b98abd5459d07f2742c4df920b25aae33c6482060405160405180910390a260008060006101000a81548173ffffffffffffffffffffffffffffffffffffffff021916908373ffffffffffffffffffffffffffffffffffffffff160217905550565b6000809054906101000a900473ffffffffffffffffffffffffffffffffffffffff1673ffffffffffffffffffffffffffffffffffffffff163373ffffffffffffffffffffffffffffffffffffffff1614151561179957600080fd5b600060149054906101000a900460ff161515156117b557600080fd5b6001600060146101000a81548160ff0219169083151502179055507f6985a02210a168e66602d3235cb6db0e70f92b3ba4d376a33c0f3d9434bff62560405160405180910390a1565b60075481565b6000809054906101000a900473ffffffffffffffffffffffffffffffffffffffff1681565b6000809054906101000a900473ffffffffffffffffffffffffffffffffffffffff1673ffffffffffffffffffffffffffffffffffffffff163373ffffffffffffffffffffffffffffffffffffffff1614151561188457600080fd5b8073ffffffffffffffffffffffffffffffffffffffff166108fc3073ffffffffffffffffffffffffffffffffffffffff16319081150290604051600060405180830381858888f193505050501580156118e1573d6000803e3d6000fd5b5050565b6000600154905090565b6000809054906101000a900473ffffffffffffffffffffffffffffffffffffffff1673ffffffffffffffffffffffffffffffffffffffff163373ffffffffffffffffffffffffffffffffffffffff1614151561194a57600080fd5b7f8b732648ec6304b6125c30b24aa7c51736b4c10b079067109e27cbb1e2e9052581604051808273ffffffffffffffffffffffffffffffffffffffff1673ffffffffffffffffffffffffffffffffffffffff16815260200191505060405180910390a16001600660008373ffffffffffffffffffffffffffffffffffffffff1673ffffffffffffffffffffffffffffffffffffffff16815260200190815260200160002060006101000a81548160ff02191690831515021790555050565b6000809054906101000a900473ffffffffffffffffffffffffffffffffffffffff1673ffffffffffffffffffffffffffffffffffffffff163373ffffffffffffffffffffffffffffffffffffffff16141515611a6357600080fd5b600260149054906101000a900460ff1615600260146101000a81548160ff021916908315150217905550565b60086020528060005260406000206000915090508060000160009054906101000a900473ffffffffffffffffffffffffffffffffffffffff16908060010160009054906101000a900473ffffffffffffffffffffffffffffffffffffffff16908060020154908060030154908060040154908060050160009054906101000a900473ffffffffffffffffffffffffffffffffffffffff16908060060154908060070160009054906101000a900460ff169080600801549080600901549080600a01549080600b01549080600c0160009054906101000a900460ff1690508d565b60008060008060008060075488101515611bf1576040517f08c379a000000000000000000000000000000000000000000000000000000000815260040180806020018281038252600d8152602001807f57726f6e6720706f6f6c2069640000000000000000000000000000000000000081525060200191505060405180910390fd5b600073ffffffffffffffffffffffffffffffffffffffff16600860008a815260200190815260200160002060050160009054906101000a900473ffffffffffffffffffffffffffffffffffffffff1673ffffffffffffffffffffffffffffffffffffffff1614151515611ccc576040517f08c379a000000000000000000000000000000000000000000000000000000000815260040180806020018281038252601d8152602001807f506f6f6c20697320666f72204554482c2075736520496e76657445544800000081525060200191505060405180910390fd5b61271087111515611d45576040517f08c379a000000000000000000000000000000000000000000000000000000000815260040180806020018281038252601b8152602001807f4e65656420696e76657374206d6f7265207468656e203130303030000000000081525060200191505060405180910390fd5b611d86600860008a815260200190815260200160002060050160009054906101000a900473ffffffffffffffffffffffffffffffffffffffff163389613d06565b60c0604051908101604052808981526020013373ffffffffffffffffffffffffffffffffffffffff168152602001888152602001611dc333614048565b151581526020016000815260200142815250600b6000600a5481526020019081526020016000206000820151816000015560208201518160010160006101000a81548173ffffffffffffffffffffffffffffffffffffffff021916908373ffffffffffffffffffffffffffffffffffffffff1602179055506040820151816002015560608201518160030160006101000a81548160ff0219169083151502179055506080820151816004015560a08201518160050155905050600c60003373ffffffffffffffffffffffffffffffffffffffff1673ffffffffffffffffffffffffffffffffffffffff168152602001908152602001600020600a549080600181540180825580915050906001820390600052602060002001600090919290919091505550600a60008154809291906001019190505550611f1987600860008b8152602001908152602001600020600401546141e1565b9550611f3b87600860008b8152602001908152602001600020600301546141e1565b945060006004811115611f4a57fe5b611f5389610daa565b6004811115611f5e57fe5b148015611f705750611f6f33614048565b5b8015611f92575060086000898152602001908152602001600020600801548611155b1561228757611fb7600860008a815260200190815260200160002060080154876141f7565b600860008a8152602001908152602001600020600801819055506008600089815260200190815260200160002060070160009054906101000a900460ff16156120435761201f600b60006001600a540381526020019081526020016000206004015487614210565b600b60006001600a5403815260200190815260200160002060040181905550612085565b612084600860008a815260200190815260200160002060000160009054906101000a900473ffffffffffffffffffffffffffffffffffffffff16338861422c565b5b6120ae612094346127106141e1565b600060159054906101000a900461ffff1661ffff166143af565b93506120ba87856141f7565b925061213b60046000600860008c815260200190815260200160002060050160009054906101000a900473ffffffffffffffffffffffffffffffffffffffff1673ffffffffffffffffffffffffffffffffffffffff1673ffffffffffffffffffffffffffffffffffffffff1681526020019081526020016000205485614210565b60046000600860008c815260200190815260200160002060050160009054906101000a900473ffffffffffffffffffffffffffffffffffffffff1673ffffffffffffffffffffffffffffffffffffffff1673ffffffffffffffffffffffffffffffffffffffff1681526020019081526020016000208190555061222b600860008a815260200190815260200160002060050160009054906101000a900473ffffffffffffffffffffffffffffffffffffffff16600860008b815260200190815260200160002060010160009054906101000a900473ffffffffffffffffffffffffffffffffffffffff168561422c565b6000600860008a8152602001908152602001600020600801541415612282577f5aa793a17b0774b891ce2b0dd5dbe8f04132e547df384ab1053d32470050b5fa886040518082815260200191505060405180910390a15b61262e565b6001600481111561229457fe5b61229d89610daa565b60048111156122a857fe5b1480156122cb575060086000898152602001908152602001600020600801548511155b156125c0576122f0600860008a815260200190815260200160002060080154866141f7565b600860008a8152602001908152602001600020600801819055506008600089815260200190815260200160002060070160009054906101000a900460ff161561237c57612358600b60006001600a540381526020019081526020016000206004015486614210565b600b60006001600a54038152602001908152602001600020600401819055506123be565b6123bd600860008a815260200190815260200160002060000160009054906101000a900473ffffffffffffffffffffffffffffffffffffffff16338761422c565b5b6123e76123cd346127106141e1565b600560009054906101000a900461ffff1661ffff166143af565b91506123f387836141f7565b905061247460046000600860008c815260200190815260200160002060050160009054906101000a900473ffffffffffffffffffffffffffffffffffffffff1673ffffffffffffffffffffffffffffffffffffffff1673ffffffffffffffffffffffffffffffffffffffff1681526020019081526020016000205483614210565b60046000600860008c815260200190815260200160002060050160009054906101000a900473ffffffffffffffffffffffffffffffffffffffff1673ffffffffffffffffffffffffffffffffffffffff1673ffffffffffffffffffffffffffffffffffffffff16815260200190815260200160002081905550612564600860008a815260200190815260200160002060050160009054906101000a900473ffffffffffffffffffffffffffffffffffffffff16600860008b815260200190815260200160002060010160009054906101000a900473ffffffffffffffffffffffffffffffffffffffff168361422c565b6000600860008a81526020019081526020016000206008015414156125bb577f5aa793a17b0774b891ce2b0dd5dbe8f04132e547df384ab1053d32470050b5fa886040518082815260200191505060405180910390a15b61262e565b6040517f08c379a00000000000000000000000000000000000000000000000000000000081526004018080602001828103825260188152602001807f496e766573746d656e74206e6f7420636f6d706c69746564000000000000000081525060200191505060405180910390fd5b5050505050505050565b6000600754905090565b6000809054906101000a900473ffffffffffffffffffffffffffffffffffffffff1673ffffffffffffffffffffffffffffffffffffffff163373ffffffffffffffffffffffffffffffffffffffff1614151561269d57600080fd5b8060038190555050565b6000809054906101000a900473ffffffffffffffffffffffffffffffffffffffff1673ffffffffffffffffffffffffffffffffffffffff163373ffffffffffffffffffffffffffffffffffffffff1614151561270257600080fd5b806127108161ffff1610156127335781600060176101000a81548161ffff021916908361ffff1602179055506127a1565b6040517f08c379a000000000000000000000000000000000000000000000000000000000815260040180806020018281038252600c8152602001807f4e6f7420696e2072616e6765000000000000000000000000000000000000000081525060200191505060405180910390fd5b5050565b6000600560029054906101000a900461ffff16905090565b6000600660008373ffffffffffffffffffffffffffffffffffffffff1673ffffffffffffffffffffffffffffffffffffffff16815260200190815260200160002060009054906101000a900460ff169050919050565b600080600080600080600060075488101515612897576040517f08c379a00000000000000000000000000000000000000000000000000000000081526004018080602001828103825260088152602001807f57726f6e6720496400000000000000000000000000000000000000000000000081525060200191505060405180910390fd5b6128a088610daa565b600860008a815260200190815260200160002060000160009054906101000a900473ffffffffffffffffffffffffffffffffffffffff16600860008b815260200190815260200160002060030154600860008c815260200190815260200160002060040154600860008d815260200190815260200160002060050160009054906101000a900473ffffffffffffffffffffffffffffffffffffffff16600860008e815260200190815260200160002060060154600860008f8152602001908152602001600020600801549650965096509650965096509650919395979092949650565b6000809054906101000a900473ffffffffffffffffffffffffffffffffffffffff1673ffffffffffffffffffffffffffffffffffffffff163373ffffffffffffffffffffffffffffffffffffffff161415156129de57600080fd5b80600560026101000a81548161ffff021916908361ffff16021790555050565b60008060008034336003548210151561321d577f3a32cdd14cdfd431946dfa0b2aef5ace661340411aaadcaee6aef6738d3023268282604051808381526020018273ffffffffffffffffffffffffffffffffffffffff1673ffffffffffffffffffffffffffffffffffffffff1681526020019250505060405180910390a160075487101515612af5576040517f08c379a000000000000000000000000000000000000000000000000000000000815260040180806020018281038252600d8152602001807f57726f6e6720706f6f6c2069640000000000000000000000000000000000000081525060200191505060405180910390fd5b600073ffffffffffffffffffffffffffffffffffffffff166008600089815260200190815260200160002060050160009054906101000a900473ffffffffffffffffffffffffffffffffffffffff1673ffffffffffffffffffffffffffffffffffffffff16141515612bcf576040517f08c379a00000000000000000000000000000000000000000000000000000000081526004018080602001828103825260138152602001807f506f6f6c206973206e6f7420666f72204554480000000000000000000000000081525060200191505060405180910390fd5b60c0604051908101604052808881526020013373ffffffffffffffffffffffffffffffffffffffff168152602001348152602001612c0c33614048565b151581526020016000815260200142815250600b6000600a5481526020019081526020016000206000820151816000015560208201518160010160006101000a81548173ffffffffffffffffffffffffffffffffffffffff021916908373ffffffffffffffffffffffffffffffffffffffff1602179055506040820151816002015560608201518160030160006101000a81548160ff0219169083151502179055506080820151816004015560a08201518160050155905050600c60003373ffffffffffffffffffffffffffffffffffffffff1673ffffffffffffffffffffffffffffffffffffffff168152602001908152602001600020600a549080600181540180825580915050906001820390600052602060002001600090919290919091505550612d3d600a546001614210565b600a81905550612d6334600860008a8152602001908152602001600020600401546141e1565b9550612d8534600860008a8152602001908152602001600020600301546141e1565b945060006004811115612d9457fe5b612d9d88610daa565b6004811115612da857fe5b148015612dba5750612db933614048565b5b8015612ddc575060086000888152602001908152602001600020600801548611155b15612fa157612e016008600089815260200190815260200160002060080154876141f7565b60086000898152602001908152602001600020600801819055506008600088815260200190815260200160002060070160009054906101000a900460ff1615612e8d57612e69600b60006001600a540381526020019081526020016000206004015487614210565b600b60006001600a5403815260200190815260200160002060040181905550612ecf565b612ece6008600089815260200190815260200160002060000160009054906101000a900473ffffffffffffffffffffffffffffffffffffffff16338861422c565b5b612f03612ede346127106141e1565b612efe612710600060159054906101000a900461ffff1661ffff166141f7565b6143af565b9350612f456008600089815260200190815260200160002060010160009054906101000a900473ffffffffffffffffffffffffffffffffffffffff16856143e7565b600060086000898152602001908152602001600020600801541415612f9c577f5aa793a17b0774b891ce2b0dd5dbe8f04132e547df384ab1053d32470050b5fa876040518082815260200191505060405180910390a15b613218565b60016004811115612fae57fe5b612fb788610daa565b6004811115612fc257fe5b148015612fe5575060086000888152602001908152602001600020600801548511155b156131aa5761300a6008600089815260200190815260200160002060080154866141f7565b60086000898152602001908152602001600020600801819055506008600088815260200190815260200160002060070160009054906101000a900460ff161561309657613072600b60006001600a540381526020019081526020016000206004015486614210565b600b60006001600a54038152602001908152602001600020600401819055506130d8565b6130d76008600089815260200190815260200160002060000160009054906101000a900473ffffffffffffffffffffffffffffffffffffffff16338761422c565b5b61310c6130e7346127106141e1565b613107612710600560009054906101000a900461ffff1661ffff166141f7565b6143af565b925061314e6008600089815260200190815260200160002060010160009054906101000a900473ffffffffffffffffffffffffffffffffffffffff16846143e7565b6000600860008981526020019081526020016000206008015414156131a5577f5aa793a17b0774b891ce2b0dd5dbe8f04132e547df384ab1053d32470050b5fa876040518082815260200191505060405180910390a15b613218565b6040517f08c379a00000000000000000000000000000000000000000000000000000000081526004018080602001828103825260188152602001807f496e766573746d656e74206e6f7420636f6d706c69746564000000000000000081525060200191505060405180910390fd5b61328b565b6040517f08c379a00000000000000000000000000000000000000000000000000000000081526004018080602001828103825260128152602001807f53656e642045544820746f20696e76657374000000000000000000000000000081525060200191505060405180910390fd5b50505050505050565b6000600354905090565b6000809054906101000a900473ffffffffffffffffffffffffffffffffffffffff1673ffffffffffffffffffffffffffffffffffffffff163373ffffffffffffffffffffffffffffffffffffffff161415156132f957600080fd5b6133028161449d565b50565b6000809054906101000a900473ffffffffffffffffffffffffffffffffffffffff1673ffffffffffffffffffffffffffffffffffffffff163373ffffffffffffffffffffffffffffffffffffffff1614151561336057600080fd5b806127108161ffff1610156134285781600060159054906101000a900461ffff168061ffff168261ffff1611156133b35783600560006101000a81548161ffff021916908361ffff160217905550613421565b6040517f08c379a000000000000000000000000000000000000000000000000000000000815260040180806020018281038252600a8152602001807f4e6f74206269676765720000000000000000000000000000000000000000000081525060200191505060405180910390fd5b5050613496565b6040517f08c379a000000000000000000000000000000000000000000000000000000000815260040180806020018281038252600c8152602001807f4e6f7420696e2072616e6765000000000000000000000000000000000000000081525060200191505060405180910390fd5b5050565b6000809054906101000a900473ffffffffffffffffffffffffffffffffffffffff1673ffffffffffffffffffffffffffffffffffffffff163373ffffffffffffffffffffffffffffffffffffffff161415156134f557600080fd5b8173ffffffffffffffffffffffffffffffffffffffff1663a9059cbb82600460008673ffffffffffffffffffffffffffffffffffffffff1673ffffffffffffffffffffffffffffffffffffffff168152602001908152602001600020546040518363ffffffff167c0100000000000000000000000000000000000000000000000000000000028152600401808373ffffffffffffffffffffffffffffffffffffffff1673ffffffffffffffffffffffffffffffffffffffff16815260200182815260200192505050602060405180830381600087803b1580156135d757600080fd5b505af11580156135eb573d6000803e3d6000fd5b505050506040513d602081101561360157600080fd5b8101908080519060200190929190505050506000600460008473ffffffffffffffffffffffffffffffffffffffff1673ffffffffffffffffffffffffffffffffffffffff168152602001908152602001600020819055505050565b60004260086000848152602001908152602001600020600201541115801561369a575060006008600084815260200190815260200160002060080154115b80156136c7575060086000838152602001908152602001600020600c0160009054906101000a900460ff16155b1561379157600160086000848152602001908152602001600020600c0160006101000a81548160ff0219169083151502179055506137886008600084815260200190815260200160002060000160009054906101000a900473ffffffffffffffffffffffffffffffffffffffff166008600085815260200190815260200160002060010160009054906101000a900473ffffffffffffffffffffffffffffffffffffffff16600860008681526020019081526020016000206008015461422c565b60019050613796565b600090505b919050565b60006137a688614597565b151561381a576040517f08c379a00000000000000000000000000000000000000000000000000000000081526004018080602001828103825260168152602001807f4e6565642056616c696420455243323020546f6b656e0000000000000000000081525060200191505060405180910390fd5b8661383942600560029054906101000a900461ffff1661ffff16614210565b111515156138af576040517f08c379a000000000000000000000000000000000000000000000000000000000815260040180806020018281038252601a8152602001807f4e656564206d6f7265207468656e204d696e4475726174696f6e00000000000081525060200191505060405180910390fd5b600073ffffffffffffffffffffffffffffffffffffffff168273ffffffffffffffffffffffffffffffffffffffff1614806138ef57506138ee826127bd565b5b15156138fa57600080fd5b848610151515613998576040517f08c379a00000000000000000000000000000000000000000000000000000000081526004018080602001828103825260398152602001807f504f5a20686f6c64657273206e65656420746f2068617665206265747465722081526020017f286f72207468652073616d65203d206f6666292070726963650000000000000081525060400191505060405180910390fd5b6139a3883386613d06565b8486146139ea576139e56139df6139d76139bd8a426141f7565b600060179054906101000a900461ffff1661ffff166143af565b6127106141e1565b42614210565b6139ec565b425b90506101a0604051908101604052808973ffffffffffffffffffffffffffffffffffffffff1681526020013373ffffffffffffffffffffffffffffffffffffffff1681526020018881526020018781526020018681526020018373ffffffffffffffffffffffffffffffffffffffff1681526020018581526020018415158152602001858152602001428152602001828152602001600081526020016000151581525060086000600754815260200190815260200160002060008201518160000160006101000a81548173ffffffffffffffffffffffffffffffffffffffff021916908373ffffffffffffffffffffffffffffffffffffffff16021790555060208201518160010160006101000a81548173ffffffffffffffffffffffffffffffffffffffff021916908373ffffffffffffffffffffffffffffffffffffffff16021790555060408201518160020155606082015181600301556080820151816004015560a08201518160050160006101000a81548173ffffffffffffffffffffffffffffffffffffffff021916908373ffffffffffffffffffffffffffffffffffffffff16021790555060c0820151816006015560e08201518160070160006101000a81548160ff0219169083151502179055506101008201518160080155610120820151816009015561014082015181600a015561016082015181600b015561018082015181600c0160006101000a81548160ff021916908315150217905550905050600960003373ffffffffffffffffffffffffffffffffffffffff1673ffffffffffffffffffffffffffffffffffffffff16815260200190815260200160002060075490806001815401808255809150509060018203906000526020600020016000909192909190915055507fbe4222bc407cb12031595fc55b46531e46308d31e4572c9c4360d8ae790e1a3188600754604051808373ffffffffffffffffffffffffffffffffffffffff1673ffffffffffffffffffffffffffffffffffffffff1681526020018281526020019250505060405180910390a1613cf66007546001614210565b6007819055505050505050505050565b828282808373ffffffffffffffffffffffffffffffffffffffff1663dd62ed3e84306040518363ffffffff167c0100000000000000000000000000000000000000000000000000000000028152600401808373ffffffffffffffffffffffffffffffffffffffff1673ffffffffffffffffffffffffffffffffffffffff1681526020018273ffffffffffffffffffffffffffffffffffffffff1673ffffffffffffffffffffffffffffffffffffffff16815260200192505050602060405180830381600087803b158015613dd957600080fd5b505af1158015613ded573d6000803e3d6000fd5b505050506040513d6020811015613e0357600080fd5b8101908080519060200190929190505050101515613fd2578573ffffffffffffffffffffffffffffffffffffffff166323b872dd8630876040518463ffffffff167c0100000000000000000000000000000000000000000000000000000000028152600401808473ffffffffffffffffffffffffffffffffffffffff1673ffffffffffffffffffffffffffffffffffffffff1681526020018373ffffffffffffffffffffffffffffffffffffffff1673ffffffffffffffffffffffffffffffffffffffff1681526020018281526020019350505050602060405180830381600087803b158015613ef257600080fd5b505af1158015613f06573d6000803e3d6000fd5b505050506040513d6020811015613f1c57600080fd5b8101908080519060200190929190505050507f1fecf4702e692891a7c2f0d328779b085efb5edd094fa5558bd5cd147a167922848688604051808481526020018373ffffffffffffffffffffffffffffffffffffffff1673ffffffffffffffffffffffffffffffffffffffff1681526020018273ffffffffffffffffffffffffffffffffffffffff1673ffffffffffffffffffffffffffffffffffffffff168152602001935050505060405180910390a1614040565b6040517f08c379a000000000000000000000000000000000000000000000000000000000815260040180806020018281038252600b8152602001807f4e6f20616c6c6f776e636500000000000000000000000000000000000000000081525060200191505060405180910390fd5b505050505050565b60008073ffffffffffffffffffffffffffffffffffffffff16600260009054906101000a900473ffffffffffffffffffffffffffffffffffffffff1673ffffffffffffffffffffffffffffffffffffffff1614156140a957600190506141dc565b6001546140d8600260009054906101000a900473ffffffffffffffffffffffffffffffffffffffff1684614652565b1015806141d95750600260009054906101000a900473ffffffffffffffffffffffffffffffffffffffff1673ffffffffffffffffffffffffffffffffffffffff1663b217bb01836040518263ffffffff167c0100000000000000000000000000000000000000000000000000000000028152600401808273ffffffffffffffffffffffffffffffffffffffff1673ffffffffffffffffffffffffffffffffffffffff168152602001915050602060405180830381600087803b15801561419d57600080fd5b505af11580156141b1573d6000803e3d6000fd5b505050506040513d60208110156141c757600080fd5b81019080805190602001909291905050505b90505b919050565b600081838115156141ee57fe5b04905092915050565b600082821115151561420557fe5b818303905092915050565b6000818301905082811015151561422357fe5b80905092915050565b7fe4d818e6f992efbd60db553f3edce819a199baec79a784b95c89bc8ee86f2584818385604051808481526020018373ffffffffffffffffffffffffffffffffffffffff1673ffffffffffffffffffffffffffffffffffffffff1681526020018273ffffffffffffffffffffffffffffffffffffffff1673ffffffffffffffffffffffffffffffffffffffff168152602001935050505060405180910390a18273ffffffffffffffffffffffffffffffffffffffff1663a9059cbb83836040518363ffffffff167c0100000000000000000000000000000000000000000000000000000000028152600401808373ffffffffffffffffffffffffffffffffffffffff1673ffffffffffffffffffffffffffffffffffffffff16815260200182815260200192505050602060405180830381600087803b15801561436e57600080fd5b505af1158015614382573d6000803e3d6000fd5b505050506040513d602081101561439857600080fd5b810190808051906020019092919050505050505050565b6000808314156143c257600090506143e1565b81830290508183828115156143d357fe5b041415156143dd57fe5b8090505b92915050565b7feca5ae7bd9109b0f7d228f3f8a8cc834a1f995af62df6dc226dc3ab3f38dc7b38183604051808381526020018273ffffffffffffffffffffffffffffffffffffffff1673ffffffffffffffffffffffffffffffffffffffff1681526020019250505060405180910390a18173ffffffffffffffffffffffffffffffffffffffff166108fc829081150290604051600060405180830381858888f19350505050158015614498573d6000803e3d6000fd5b505050565b600073ffffffffffffffffffffffffffffffffffffffff168173ffffffffffffffffffffffffffffffffffffffff16141515156144d957600080fd5b8073ffffffffffffffffffffffffffffffffffffffff166000809054906101000a900473ffffffffffffffffffffffffffffffffffffffff1673ffffffffffffffffffffffffffffffffffffffff167f8be0079c531659141344cd1fd0a4f28419497f9722a3daafe3b4186f6b6457e060405160405180910390a3806000806101000a81548173ffffffffffffffffffffffffffffffffffffffff021916908373ffffffffffffffffffffffffffffffffffffffff16021790555050565b6000808273ffffffffffffffffffffffffffffffffffffffff166318160ddd6040518163ffffffff167c0100000000000000000000000000000000000000000000000000000000028152600401602060405180830381600087803b1580156145fe57600080fd5b505af1158015614612573d6000803e3d6000fd5b505050506040513d602081101561462857600080fd5b81019080805190602001909291905050501115614648576001905061464d565b600090505b919050565b60008273ffffffffffffffffffffffffffffffffffffffff166370a08231836040518263ffffffff167c0100000000000000000000000000000000000000000000000000000000028152600401808273ffffffffffffffffffffffffffffffffffffffff1673ffffffffffffffffffffffffffffffffffffffff168152602001915050602060405180830381600087803b1580156146ef57600080fd5b505af1158015614703573d6000803e3d6000fd5b505050506040513d602081101561471957600080fd5b81019080805190602001909291905050509050929150505600a165627a7a72305820dff9f2fb10950e90bbf5c7195028526cd1bf570f2cef38aa5604b428dbce4a370029",
  "source": "// SPDX-License-Identifier: MIT\r\npragma solidity ^0.4.24;\r\n\r\nimport \"./PoolsData.sol\";\r\nimport \"openzeppelin-solidity/contracts/math/SafeMath.sol\";\r\n\r\ncontract Invest is PoolsData {\r\n    //using SafeMath for uint256;\r\n    constructor() public {\r\n        TotalInvestors = 0;\r\n    }\r\n\r\n    //Investorsr Data\r\n    uint256 internal TotalInvestors;\r\n    mapping(uint256 => Investor) Investors;\r\n    mapping(address => uint256[]) InvestorsMap;\r\n    struct Investor {\r\n        uint256 Poolid; //the id of the pool, he got the rate info and the token, check if looked pool\r\n        address InvestorAddress; //\r\n        uint256 MainCoin; //the amount of the main coin invested (eth/dai), calc with rate\r\n        bool IsPozInvestor; //If the blance of the address got > MinPoz, can get discout if got early\r\n        uint256 TokensOwn; //the amount of Tokens the investor needto get from the contract\r\n        uint256 InvestTime; //the time that investment made\r\n    }\r\n\r\n    //@dev Send in wei\r\n    function InvestETH(uint256 _PoolId)\r\n        external\r\n        payable\r\n        ReceivETH(msg.value, msg.sender)\r\n    {\r\n        require(_PoolId < poolsCount, \"Wrong pool id\");\r\n        require(pools[_PoolId].Maincoin == address(0x0), \"Pool is not for ETH\");\r\n        Investors[TotalInvestors] = Investor(\r\n            _PoolId,\r\n            msg.sender,\r\n            msg.value,\r\n            IsPOZInvestor(msg.sender),\r\n            0,\r\n            block.timestamp\r\n        );\r\n        InvestorsMap[msg.sender].push(TotalInvestors);\r\n        TotalInvestors = SafeMath.add(TotalInvestors,1);\r\n        uint256 WithDiscount = SafeMath.div(msg.value, pools[_PoolId].POZRate);\r\n        uint256 TokensAmount = SafeMath.div(msg.value, pools[_PoolId].Rate);\r\n        if (\r\n            GetPoolStatus(_PoolId) == PoolStatus.Created &&\r\n            IsPOZInvestor(msg.sender) &&\r\n            WithDiscount <= pools[_PoolId].Lefttokens //Got The Tokens\r\n        ) {\r\n            //Only for Poz Investor, better price\r\n            pools[_PoolId].Lefttokens = SafeMath.sub(\r\n                pools[_PoolId].Lefttokens,\r\n                WithDiscount\r\n            );\r\n            if (pools[_PoolId].IsLocked) {\r\n                Investors[TotalInvestors - 1].TokensOwn = SafeMath.add(\r\n                    Investors[TotalInvestors - 1].TokensOwn,\r\n                    WithDiscount\r\n                );\r\n            } else {\r\n                // not locked, will transfer the toke\r\n                TransferToken(pools[_PoolId].Token, msg.sender, WithDiscount);\r\n            }\r\n            uint256 EthMinusPozFee = SafeMath.mul(\r\n                SafeMath.div(msg.value, 10000),\r\n                SafeMath.sub(10000, PozFee)\r\n            );\r\n            TransferETH(pools[_PoolId].Creator, EthMinusPozFee); // send money to project owner - the fee stays on contract\r\n            if (pools[_PoolId].Lefttokens == 0) emit FinishPool(_PoolId);\r\n            return;\r\n        }\r\n        else if (\r\n            GetPoolStatus(_PoolId) == PoolStatus.Open &&\r\n            TokensAmount <= pools[_PoolId].Lefttokens //Got The Tokens\r\n        ) {\r\n            //all can invest, no discout price\r\n            pools[_PoolId].Lefttokens =SafeMath.sub(\r\n                pools[_PoolId].Lefttokens,\r\n                TokensAmount\r\n            ); \r\n            if (pools[_PoolId].IsLocked) {\r\n                Investors[TotalInvestors - 1].TokensOwn = SafeMath.add(\r\n                    Investors[TotalInvestors - 1].TokensOwn,\r\n                    TokensAmount\r\n                );\r\n            } else {\r\n                // not locked, will transfer the tokens\r\n                TransferToken(pools[_PoolId].Token, msg.sender, TokensAmount);\r\n            }\r\n            uint256 EthMinusFee = SafeMath.mul(\r\n                SafeMath.div(msg.value, 10000),\r\n                SafeMath.sub(10000, Fee)\r\n            );\r\n            TransferETH(\r\n                pools[_PoolId].Creator,\r\n                EthMinusFee\r\n            ); // send money to project owner - the fee stays on contract\r\n            if (pools[_PoolId].Lefttokens == 0) emit FinishPool(_PoolId);\r\n            return;\r\n        }\r\n        //can't invest OutOfstock,Finished,Close // TODO - make msg\r\n        revert(\"Investment not complited\");\r\n    }\r\n\r\n    function InvestERC20(uint256 _PoolId, uint256 _Amount) external payable {\r\n        require(_PoolId < poolsCount, \"Wrong pool id\");\r\n        require(\r\n            pools[_PoolId].Maincoin != address(0x0),\r\n            \"Pool is for ETH, use InvetETH\"\r\n        );\r\n        require(_Amount > 10000, \"Need invest more then 10000\");\r\n        TransferInToken(pools[_PoolId].Maincoin,msg.sender,_Amount);  \r\n        Investors[TotalInvestors] = Investor(\r\n            _PoolId,\r\n            msg.sender,\r\n            _Amount,\r\n            IsPOZInvestor(msg.sender),\r\n            0,\r\n            block.timestamp\r\n        );\r\n        InvestorsMap[msg.sender].push(TotalInvestors);\r\n        TotalInvestors++;\r\n        uint256 WithDiscount = SafeMath.div(_Amount, pools[_PoolId].POZRate);\r\n        uint256 TokensAmount = SafeMath.div(_Amount, pools[_PoolId].Rate);\r\n        if (\r\n            GetPoolStatus(_PoolId) == PoolStatus.Created &&\r\n            IsPOZInvestor(msg.sender) && //check if Poz investor;\r\n            WithDiscount <= pools[_PoolId].Lefttokens //Got The Tokens\r\n        ) {\r\n            //Only for Poz Investor, better price\r\n            pools[_PoolId].Lefttokens = SafeMath.sub(\r\n                pools[_PoolId].Lefttokens,\r\n                WithDiscount\r\n            );\r\n            if (pools[_PoolId].IsLocked) {\r\n               Investors[TotalInvestors - 1].TokensOwn = SafeMath.add(\r\n                    Investors[TotalInvestors - 1].TokensOwn,\r\n                    WithDiscount\r\n                );\r\n            } else {\r\n                // not locked, will transfer the toke\r\n                TransferToken(pools[_PoolId].Token, msg.sender, WithDiscount);\r\n            }\r\n            uint256 FeePay = SafeMath.mul(\r\n                SafeMath.div(msg.value, 10000),\r\n                PozFee\r\n            );\r\n            uint256 PaymentMinusFee = SafeMath.sub(_Amount , FeePay);\r\n            FeeMap[pools[_PoolId].Maincoin] = SafeMath.add(FeeMap[pools[_PoolId].Maincoin] ,FeePay); //save the fee amount, in case some one put main coin as pool coin\r\n            TransferToken(\r\n                pools[_PoolId].Maincoin,\r\n                pools[_PoolId].Creator,\r\n                PaymentMinusFee\r\n            ); // send money to project owner - the fee stays on contract\r\n            if (pools[_PoolId].Lefttokens == 0) emit FinishPool(_PoolId);\r\n            return;\r\n        } else if (\r\n            GetPoolStatus(_PoolId) == PoolStatus.Open &&\r\n            TokensAmount <= pools[_PoolId].Lefttokens //Got The Tokens\r\n        ) {\r\n            //all can invest, no discout price\r\n            pools[_PoolId].Lefttokens=SafeMath.sub(\r\n                pools[_PoolId].Lefttokens,\r\n                TokensAmount\r\n            ); \r\n            if (pools[_PoolId].IsLocked) {\r\n               Investors[TotalInvestors - 1].TokensOwn = SafeMath.add(\r\n                    Investors[TotalInvestors - 1].TokensOwn,\r\n                    TokensAmount\r\n                );\r\n            } else {\r\n                // not locked, will transfer the tokens\r\n                TransferToken(pools[_PoolId].Token, msg.sender, TokensAmount);\r\n            }\r\n            uint256 RegularFeePay = SafeMath.mul(\r\n                SafeMath.div(msg.value, 10000),\r\n                Fee\r\n            );\r\n            uint256 RegularPaymentMinusFee = SafeMath.sub(_Amount , RegularFeePay);\r\n            FeeMap[pools[_PoolId].Maincoin] = SafeMath.add(FeeMap[pools[_PoolId].Maincoin] ,RegularFeePay);\r\n            TransferToken(\r\n                pools[_PoolId].Maincoin,\r\n                pools[_PoolId].Creator,\r\n                RegularPaymentMinusFee\r\n            ); // send money to project owner - the fee stays on contract\r\n            if (pools[_PoolId].Lefttokens == 0) emit FinishPool(_PoolId);\r\n            return;\r\n        }\r\n        //can't invest OutOfstock,Finished,Close // TODO - make msg\r\n        revert(\"Investment not complited\");\r\n    }\r\n}\r\n",
  "sourcePath": "C:\\Users\\Administrator\\Desktop\\Code\\Poolz\\contracts\\Invest.sol",
  "compiler": {
    "name": "solc",
    "version": "0.4.26+commit.4563c3fc.Emscripten.clang"
  },
  "schemaVersion": "3.0.22",
  "updatedAt": "2020-10-11T10:34:54.027Z",
  "devdoc": {
    "methods": {
      "pause()": {
        "details": "called by the owner to pause, triggers stopped state"
      },
      "renounceOwnership()": {
        "details": "Allows the current owner to relinquish control of the contract."
      },
      "transferOwnership(address)": {
        "details": "Allows the current owner to transfer control of the contract to a newOwner.",
        "params": {
          "_newOwner": "The address to transfer ownership to."
        }
      },
      "unpause()": {
        "details": "called by the owner to unpause, returns to normal state"
      }
    }
  },
  "userdoc": {
    "methods": {
      "renounceOwnership()": {
        "notice": "Renouncing to ownership will leave the contract without an owner. It will not be possible to call the functions with the `onlyOwner` modifier anymore."
      }
    }
  }
}