{
  "contractName": "PoolsData",
  "abi": [
    {
      "constant": false,
      "inputs": [
        {
          "name": "_token",
          "type": "address"
        }
      ],
      "name": "RemoveERC20Maincoin",
      "outputs": [],
      "payable": false,
      "stateMutability": "nonpayable",
      "type": "function"
    },
    {
      "constant": true,
      "inputs": [],
      "name": "GetPozTimer",
      "outputs": [
        {
          "name": "",
          "type": "uint16"
        }
      ],
      "payable": false,
      "stateMutability": "view",
      "type": "function"
    },
    {
      "constant": false,
      "inputs": [
        {
          "name": "_fee",
          "type": "uint16"
        }
      ],
      "name": "SetPOZFee",
      "outputs": [],
      "payable": false,
      "stateMutability": "nonpayable",
      "type": "function"
    },
    {
      "constant": true,
      "inputs": [],
      "name": "GetPOZFee",
      "outputs": [
        {
          "name": "",
          "type": "uint16"
        }
      ],
      "payable": false,
      "stateMutability": "view",
      "type": "function"
    },
    {
      "constant": true,
      "inputs": [
        {
          "name": "",
          "type": "address"
        }
      ],
      "name": "ERC20MainCoins",
      "outputs": [
        {
          "name": "",
          "type": "bool"
        }
      ],
      "payable": false,
      "stateMutability": "view",
      "type": "function"
    },
    {
      "constant": false,
      "inputs": [],
      "name": "unpause",
      "outputs": [],
      "payable": false,
      "stateMutability": "nonpayable",
      "type": "function"
    },
    {
      "constant": true,
      "inputs": [],
      "name": "GetFee",
      "outputs": [
        {
          "name": "",
          "type": "uint16"
        }
      ],
      "payable": false,
      "stateMutability": "view",
      "type": "function"
    },
    {
      "constant": true,
      "inputs": [
        {
          "name": "",
          "type": "address"
        },
        {
          "name": "",
          "type": "uint256"
        }
      ],
      "name": "poolsMap",
      "outputs": [
        {
          "name": "",
          "type": "uint256"
        }
      ],
      "payable": false,
      "stateMutability": "view",
      "type": "function"
    },
    {
      "constant": true,
      "inputs": [],
      "name": "paused",
      "outputs": [
        {
          "name": "",
          "type": "bool"
        }
      ],
      "payable": false,
      "stateMutability": "view",
      "type": "function"
    },
    {
      "constant": false,
      "inputs": [
        {
          "name": "_MinPoz",
          "type": "uint256"
        }
      ],
      "name": "SetMinPoz",
      "outputs": [],
      "payable": false,
      "stateMutability": "nonpayable",
      "type": "function"
    },
    {
      "constant": true,
      "inputs": [],
      "name": "GetIsPayble",
      "outputs": [
        {
          "name": "",
          "type": "bool"
        }
      ],
      "payable": false,
      "stateMutability": "view",
      "type": "function"
    },
    {
      "constant": false,
      "inputs": [],
      "name": "renounceOwnership",
      "outputs": [],
      "payable": false,
      "stateMutability": "nonpayable",
      "type": "function"
    },
    {
      "constant": false,
      "inputs": [],
      "name": "pause",
      "outputs": [],
      "payable": false,
      "stateMutability": "nonpayable",
      "type": "function"
    },
    {
      "constant": true,
      "inputs": [],
      "name": "poolsCount",
      "outputs": [
        {
          "name": "",
          "type": "uint256"
        }
      ],
      "payable": false,
      "stateMutability": "view",
      "type": "function"
    },
    {
      "constant": true,
      "inputs": [],
      "name": "owner",
      "outputs": [
        {
          "name": "",
          "type": "address"
        }
      ],
      "payable": false,
      "stateMutability": "view",
      "type": "function"
    },
    {
      "constant": false,
      "inputs": [
        {
          "name": "_to",
          "type": "address"
        }
      ],
      "name": "WithdrawETHFee",
      "outputs": [],
      "payable": false,
      "stateMutability": "nonpayable",
      "type": "function"
    },
    {
      "constant": true,
      "inputs": [],
      "name": "GetMinPoz",
      "outputs": [
        {
          "name": "",
          "type": "uint256"
        }
      ],
      "payable": false,
      "stateMutability": "view",
      "type": "function"
    },
    {
      "constant": false,
      "inputs": [
        {
          "name": "_token",
          "type": "address"
        }
      ],
      "name": "AddERC20Maincoin",
      "outputs": [],
      "payable": false,
      "stateMutability": "nonpayable",
      "type": "function"
    },
    {
      "constant": false,
      "inputs": [],
      "name": "SwitchIsPayble",
      "outputs": [],
      "payable": false,
      "stateMutability": "nonpayable",
      "type": "function"
    },
    {
      "constant": true,
      "inputs": [
        {
          "name": "",
          "type": "uint256"
        }
      ],
      "name": "pools",
      "outputs": [
        {
          "name": "Token",
          "type": "address"
        },
        {
          "name": "Creator",
          "type": "address"
        },
        {
          "name": "FinishTime",
          "type": "uint256"
        },
        {
          "name": "Rate",
          "type": "uint256"
        },
        {
          "name": "POZRate",
          "type": "uint256"
        },
        {
          "name": "Maincoin",
          "type": "address"
        },
        {
          "name": "StartAmount",
          "type": "uint256"
        },
        {
          "name": "IsLocked",
          "type": "bool"
        },
        {
          "name": "Lefttokens",
          "type": "uint256"
        },
        {
          "name": "StartTime",
          "type": "uint256"
        },
        {
          "name": "OpenForAll",
          "type": "uint256"
        },
        {
          "name": "UnlockedTokens",
          "type": "uint256"
        },
        {
          "name": "TookLeftOvers",
          "type": "bool"
        }
      ],
      "payable": false,
      "stateMutability": "view",
      "type": "function"
    },
    {
      "constant": true,
      "inputs": [],
      "name": "GetLastPoolId",
      "outputs": [
        {
          "name": "",
          "type": "uint256"
        }
      ],
      "payable": false,
      "stateMutability": "view",
      "type": "function"
    },
    {
      "constant": false,
      "inputs": [
        {
          "name": "_MinETH",
          "type": "uint256"
        }
      ],
      "name": "SetMinETH",
      "outputs": [],
      "payable": false,
      "stateMutability": "nonpayable",
      "type": "function"
    },
    {
      "constant": false,
      "inputs": [
        {
          "name": "_pozTimer",
          "type": "uint16"
        }
      ],
      "name": "SetPozTimer",
      "outputs": [],
      "payable": false,
      "stateMutability": "nonpayable",
      "type": "function"
    },
    {
      "constant": true,
      "inputs": [],
      "name": "GetMinDuration",
      "outputs": [
        {
          "name": "",
          "type": "uint16"
        }
      ],
      "payable": false,
      "stateMutability": "view",
      "type": "function"
    },
    {
      "constant": true,
      "inputs": [
        {
          "name": "_token",
          "type": "address"
        }
      ],
      "name": "IsERC20Maincoin",
      "outputs": [
        {
          "name": "",
          "type": "bool"
        }
      ],
      "payable": false,
      "stateMutability": "view",
      "type": "function"
    },
    {
      "constant": false,
      "inputs": [
        {
          "name": "_minDuration",
          "type": "uint16"
        }
      ],
      "name": "SetMinDuration",
      "outputs": [],
      "payable": false,
      "stateMutability": "nonpayable",
      "type": "function"
    },
    {
      "constant": true,
      "inputs": [],
      "name": "GetMinETH",
      "outputs": [
        {
          "name": "",
          "type": "uint256"
        }
      ],
      "payable": false,
      "stateMutability": "view",
      "type": "function"
    },
    {
      "constant": false,
      "inputs": [
        {
          "name": "_newOwner",
          "type": "address"
        }
      ],
      "name": "transferOwnership",
      "outputs": [],
      "payable": false,
      "stateMutability": "nonpayable",
      "type": "function"
    },
    {
      "constant": false,
      "inputs": [
        {
          "name": "_fee",
          "type": "uint16"
        }
      ],
      "name": "SetFee",
      "outputs": [],
      "payable": false,
      "stateMutability": "nonpayable",
      "type": "function"
    },
    {
      "constant": false,
      "inputs": [
        {
          "name": "_Token",
          "type": "address"
        },
        {
          "name": "_to",
          "type": "address"
        }
      ],
      "name": "WithdrawERC20Fee",
      "outputs": [],
      "payable": false,
      "stateMutability": "nonpayable",
      "type": "function"
    },
    {
      "constant": false,
      "inputs": [
        {
          "name": "_Token",
          "type": "address"
        },
        {
          "name": "_FinishTime",
          "type": "uint256"
        },
        {
          "name": "_Rate",
          "type": "uint256"
        },
        {
          "name": "_POZRate",
          "type": "uint256"
        },
        {
          "name": "_StartAmount",
          "type": "uint256"
        },
        {
          "name": "_IsLocked",
          "type": "bool"
        },
        {
          "name": "_MainCoin",
          "type": "address"
        }
      ],
      "name": "CreatePool",
      "outputs": [],
      "payable": false,
      "stateMutability": "nonpayable",
      "type": "function"
    },
    {
      "payable": true,
      "stateMutability": "payable",
      "type": "fallback"
    },
    {
      "anonymous": false,
      "inputs": [
        {
          "indexed": false,
          "name": "token",
          "type": "address"
        },
        {
          "indexed": false,
          "name": "id",
          "type": "uint256"
        }
      ],
      "name": "NewPool",
      "type": "event"
    },
    {
      "anonymous": false,
      "inputs": [
        {
          "indexed": false,
          "name": "id",
          "type": "uint256"
        }
      ],
      "name": "FinishPool",
      "type": "event"
    },
    {
      "anonymous": false,
      "inputs": [
        {
          "indexed": false,
          "name": "Token",
          "type": "address"
        }
      ],
      "name": "MainCoinAdded",
      "type": "event"
    },
    {
      "anonymous": false,
      "inputs": [
        {
          "indexed": false,
          "name": "Token",
          "type": "address"
        }
      ],
      "name": "MainCoinRemoved",
      "type": "event"
    },
    {
      "anonymous": false,
      "inputs": [
        {
          "indexed": false,
          "name": "Amount",
          "type": "uint256"
        },
        {
          "indexed": false,
          "name": "To",
          "type": "address"
        }
      ],
      "name": "TransferOutETH",
      "type": "event"
    },
    {
      "anonymous": false,
      "inputs": [
        {
          "indexed": false,
          "name": "Amount",
          "type": "uint256"
        },
        {
          "indexed": false,
          "name": "From",
          "type": "address"
        }
      ],
      "name": "TransferInETH",
      "type": "event"
    },
    {
      "anonymous": false,
      "inputs": [
        {
          "indexed": false,
          "name": "Amount",
          "type": "uint256"
        },
        {
          "indexed": false,
          "name": "To",
          "type": "address"
        },
        {
          "indexed": false,
          "name": "Token",
          "type": "address"
        }
      ],
      "name": "TransferOut",
      "type": "event"
    },
    {
      "anonymous": false,
      "inputs": [
        {
          "indexed": false,
          "name": "Amount",
          "type": "uint256"
        },
        {
          "indexed": false,
          "name": "From",
          "type": "address"
        },
        {
          "indexed": false,
          "name": "Token",
          "type": "address"
        }
      ],
      "name": "TransferIn",
      "type": "event"
    },
    {
      "anonymous": false,
      "inputs": [],
      "name": "Pause",
      "type": "event"
    },
    {
      "anonymous": false,
      "inputs": [],
      "name": "Unpause",
      "type": "event"
    },
    {
      "anonymous": false,
      "inputs": [
        {
          "indexed": true,
          "name": "previousOwner",
          "type": "address"
        }
      ],
      "name": "OwnershipRenounced",
      "type": "event"
    },
    {
      "anonymous": false,
      "inputs": [
        {
          "indexed": true,
          "name": "previousOwner",
          "type": "address"
        },
        {
          "indexed": true,
          "name": "newOwner",
          "type": "address"
        }
      ],
      "name": "OwnershipTransferred",
      "type": "event"
    },
    {
      "constant": true,
      "inputs": [],
      "name": "GetMyPoolsId",
      "outputs": [
        {
          "name": "",
          "type": "uint256[]"
        }
      ],
      "payable": false,
      "stateMutability": "view",
      "type": "function"
    },
    {
      "constant": false,
      "inputs": [
        {
          "name": "_PoolId",
          "type": "uint256"
        }
      ],
      "name": "WithdrawLeftOvers",
      "outputs": [
        {
          "name": "",
          "type": "bool"
        }
      ],
      "payable": false,
      "stateMutability": "nonpayable",
      "type": "function"
    },
    {
      "constant": true,
      "inputs": [
        {
          "name": "_id",
          "type": "uint256"
        }
      ],
      "name": "GetPoolData",
      "outputs": [
        {
          "name": "",
          "type": "uint8"
        },
        {
          "name": "",
          "type": "address"
        },
        {
          "name": "",
          "type": "uint256"
        },
        {
          "name": "",
          "type": "uint256"
        },
        {
          "name": "",
          "type": "address"
        },
        {
          "name": "",
          "type": "uint256"
        },
        {
          "name": "",
          "type": "uint256"
        }
      ],
      "payable": false,
      "stateMutability": "view",
      "type": "function"
    },
    {
      "constant": true,
      "inputs": [
        {
          "name": "_id",
          "type": "uint256"
        }
      ],
      "name": "GetMorePoolData",
      "outputs": [
        {
          "name": "",
          "type": "bool"
        },
        {
          "name": "",
          "type": "uint256"
        },
        {
          "name": "",
          "type": "uint256"
        },
        {
          "name": "",
          "type": "address"
        }
      ],
      "payable": false,
      "stateMutability": "view",
      "type": "function"
    },
    {
      "constant": true,
      "inputs": [
        {
          "name": "_id",
          "type": "uint256"
        }
      ],
      "name": "GetPoolStatus",
      "outputs": [
        {
          "name": "",
          "type": "uint8"
        }
      ],
      "payable": false,
      "stateMutability": "view",
      "type": "function"
    },
    {
      "constant": true,
      "inputs": [
        {
          "name": "_id",
          "type": "uint256"
        }
      ],
      "name": "GetTestPoolStatus",
      "outputs": [
        {
          "name": "",
          "type": "uint8"
        },
        {
          "name": "",
          "type": "uint256"
        }
      ],
      "payable": false,
      "stateMutability": "view",
      "type": "function"
    }
  ],
  "bytecode": "0x608060405260008060146101000a81548160ff021916908315150217905550336000806101000a81548173ffffffffffffffffffffffffffffffffffffffff021916908373ffffffffffffffffffffffffffffffffffffffff160217905550600f600060156101000a81548161ffff021916908361ffff1602179055506103e8600060176101000a81548161ffff021916908361ffff16021790555060506001819055506000600260006101000a81548173ffffffffffffffffffffffffffffffffffffffff021916908373ffffffffffffffffffffffffffffffffffffffff1602179055506000600260146101000a81548160ff0219169083151502179055506127106003819055506014600560006101000a81548161ffff021916908361ffff1602179055506000600560026101000a81548161ffff021916908361ffff16021790555060006007819055506133f28061015c6000396000f3006080604052600436106101cc576000357c0100000000000000000000000000000000000000000000000000000000900463ffffffff168062ea9216146101e9578063014f3aff1461022c5780630d08caa01461025f57806311fad209146102ae5780631ac8989f146102df5780633037548a146103125780633f4ba83a1461036d57806348d9614d1461038457806349e42f10146103b757806356793bc71461040d5780635c975abb1461046e5780635ea84ad61461049d578063624dea1c146104ca57806363552a49146104f957806366b91da914610565578063715018a6146105eb5780638456cb59146106025780638c788de0146106195780638da5cb5b14610644578063991e979a1461069b5780639baf390a146106de578063a38c654914610709578063aac5da5c1461074c578063ac4afa3814610763578063c5053add14610884578063cbf476e5146108af578063e05425e4146108dc578063e4dc37bb1461090d578063e890671614610940578063ea9223a61461099b578063ecf1a2c914610a6c578063f155e88e14610a9d578063f2fde38b14610ac8578063f8d5c26b14610b0b578063fc1a86ff14610b3c578063fd711a5514610b9f578063ff02c51314610be4575b600260149054906101000a900460ff1615156101e757600080fd5b005b3480156101f557600080fd5b5061022a600480360381019080803573ffffffffffffffffffffffffffffffffffffffff169060200190929190505050610c7b565b005b34801561023857600080fd5b50610241610d94565b604051808261ffff1661ffff16815260200191505060405180910390f35b34801561026b57600080fd5b5061028a60048036038101908080359060200190929190505050610dab565b6040518082600481111561029a57fe5b60ff16815260200191505060405180910390f35b3480156102ba57600080fd5b506102dd600480360381019080803561ffff1690602001909291905050506111a9565b005b3480156102eb57600080fd5b506102f461133e565b604051808261ffff1661ffff16815260200191505060405180910390f35b34801561031e57600080fd5b50610353600480360381019080803573ffffffffffffffffffffffffffffffffffffffff169060200190929190505050611355565b604051808215151515815260200191505060405180910390f35b34801561037957600080fd5b50610382611375565b005b34801561039057600080fd5b50610399611433565b604051808261ffff1661ffff16815260200191505060405180910390f35b3480156103c357600080fd5b506103e26004803603810190808035906020019092919050505061144b565b604051808360048111156103f257fe5b60ff1681526020018281526020019250505060405180910390f35b34801561041957600080fd5b50610458600480360381019080803573ffffffffffffffffffffffffffffffffffffffff16906020019092919080359060200190929190505050611886565b6040518082815260200191505060405180910390f35b34801561047a57600080fd5b506104836118b6565b604051808215151515815260200191505060405180910390f35b3480156104a957600080fd5b506104c8600480360381019080803590602001909291905050506118c9565b005b3480156104d657600080fd5b506104df61192e565b604051808215151515815260200191505060405180910390f35b34801561050557600080fd5b5061050e611945565b6040518080602001828103825283818151815260200191508051906020019060200280838360005b83811015610551578082015181840152602081019050610536565b505050509050019250505060405180910390f35b34801561057157600080fd5b50610590600480360381019080803590602001909291905050506119da565b60405180851515151581526020018481526020018381526020018273ffffffffffffffffffffffffffffffffffffffff1673ffffffffffffffffffffffffffffffffffffffff16815260200194505050505060405180910390f35b3480156105f757600080fd5b50610600611a78565b005b34801561060e57600080fd5b50610617611b7a565b005b34801561062557600080fd5b5061062e611c3a565b6040518082815260200191505060405180910390f35b34801561065057600080fd5b50610659611c40565b604051808273ffffffffffffffffffffffffffffffffffffffff1673ffffffffffffffffffffffffffffffffffffffff16815260200191505060405180910390f35b3480156106a757600080fd5b506106dc600480360381019080803573ffffffffffffffffffffffffffffffffffffffff169060200190929190505050611c65565b005b3480156106ea57600080fd5b506106f3611d21565b6040518082815260200191505060405180910390f35b34801561071557600080fd5b5061074a600480360381019080803573ffffffffffffffffffffffffffffffffffffffff169060200190929190505050611d2b565b005b34801561075857600080fd5b50610761611e44565b005b34801561076f57600080fd5b5061078e60048036038101908080359060200190929190505050611ecb565b604051808e73ffffffffffffffffffffffffffffffffffffffff1673ffffffffffffffffffffffffffffffffffffffff1681526020018d73ffffffffffffffffffffffffffffffffffffffff1673ffffffffffffffffffffffffffffffffffffffff1681526020018c81526020018b81526020018a81526020018973ffffffffffffffffffffffffffffffffffffffff1673ffffffffffffffffffffffffffffffffffffffff16815260200188815260200187151515158152602001868152602001858152602001848152602001838152602001821515151581526020019d505050505050505050505050505060405180910390f35b34801561089057600080fd5b50610899611fab565b6040518082815260200191505060405180910390f35b3480156108bb57600080fd5b506108da60048036038101908080359060200190929190505050611fb5565b005b3480156108e857600080fd5b5061090b600480360381019080803561ffff16906020019092919050505061201a565b005b34801561091957600080fd5b50610922612118565b604051808261ffff1661ffff16815260200191505060405180910390f35b34801561094c57600080fd5b50610981600480360381019080803573ffffffffffffffffffffffffffffffffffffffff169060200190929190505050612130565b604051808215151515815260200191505060405180910390f35b3480156109a757600080fd5b506109c660048036038101908080359060200190929190505050612186565b604051808860048111156109d657fe5b60ff1681526020018773ffffffffffffffffffffffffffffffffffffffff1673ffffffffffffffffffffffffffffffffffffffff1681526020018681526020018581526020018473ffffffffffffffffffffffffffffffffffffffff1673ffffffffffffffffffffffffffffffffffffffff16815260200183815260200182815260200197505050505050505060405180910390f35b348015610a7857600080fd5b50610a9b600480360381019080803561ffff1690602001909291905050506122f6565b005b348015610aa957600080fd5b50610ab2612371565b6040518082815260200191505060405180910390f35b348015610ad457600080fd5b50610b09600480360381019080803573ffffffffffffffffffffffffffffffffffffffff16906020019092919050505061237b565b005b348015610b1757600080fd5b50610b3a600480360381019080803561ffff1690602001909291905050506123e2565b005b348015610b4857600080fd5b50610b9d600480360381019080803573ffffffffffffffffffffffffffffffffffffffff169060200190929190803573ffffffffffffffffffffffffffffffffffffffff16906020019092919050505061245d565b005b348015610bab57600080fd5b50610bca6004803603810190808035906020019092919050505061261f565b604051808215151515815260200191505060405180910390f35b348015610bf057600080fd5b50610c79600480360381019080803573ffffffffffffffffffffffffffffffffffffffff16906020019092919080359060200190929190803590602001909291908035906020019092919080359060200190929190803515159060200190929190803573ffffffffffffffffffffffffffffffffffffffff16906020019092919050505061275e565b005b6000809054906101000a900473ffffffffffffffffffffffffffffffffffffffff1673ffffffffffffffffffffffffffffffffffffffff163373ffffffffffffffffffffffffffffffffffffffff16141515610cd657600080fd5b7f46e7a65ed7662dc42b119afa3a03fc8474ed27a5a48d664c0b5e8b87b04184cf81604051808273ffffffffffffffffffffffffffffffffffffffff1673ffffffffffffffffffffffffffffffffffffffff16815260200191505060405180910390a16000600660008373ffffffffffffffffffffffffffffffffffffffff1673ffffffffffffffffffffffffffffffffffffffff16815260200190815260200160002060006101000a81548160ff02191690831515021790555050565b60008060179054906101000a900461ffff16905090565b600060075482101515610e26576040517f08c379a000000000000000000000000000000000000000000000000000000000815260040180806020018281038252600d8152602001807f57726f6e6720706f6f6c2069640000000000000000000000000000000000000081525060200191505060405180910390fd5b60086000838152602001908152602001600020600a015442108015610e61575060006008600084815260200190815260200160002060080154115b15610e6f57600090506111a4565b60086000838152602001908152602001600020600a01544210158015610eab575060006008600084815260200190815260200160002060080154115b8015610ecc5750600860008381526020019081526020016000206002015442105b15610eda57600190506111a4565b60006008600084815260200190815260200160002060080154148015610f2057506008600083815260200190815260200160002060070160009054906101000a900460ff165b8015610f415750600860008381526020019081526020016000206002015442105b15610f4f57600290506111a4565b60006008600084815260200190815260200160002060080154148015610f9657506008600083815260200190815260200160002060070160009054906101000a900460ff16155b15610fa457600490506111a4565b60006008600084815260200190815260200160002060080154118015610feb57506008600083815260200190815260200160002060070160009054906101000a900460ff16155b8015611018575060086000838152602001908152602001600020600c0160009054906101000a900460ff16155b1561102657600390506111a4565b6008600083815260200190815260200160002060020154421015801561106d57506008600083815260200190815260200160002060070160009054906101000a900460ff16155b156110ad5760086000838152602001908152602001600020600c0160009054906101000a900460ff16156110a457600490506111a4565b600390506111a4565b600860008381526020019081526020016000206002015442101580156110f357506008600083815260200190815260200160002060070160009054906101000a900460ff165b156111a35760086000838152602001908152602001600020600c0160009054906101000a900460ff168061113d575060006008600084815260200190815260200160002060080154145b801561118c57506008600083815260200190815260200160002060060154600860008481526020019081526020016000206008015460086000858152602001908152602001600020600b015401145b1561119a57600490506111a4565b600390506111a4565b5b919050565b6000809054906101000a900473ffffffffffffffffffffffffffffffffffffffff1673ffffffffffffffffffffffffffffffffffffffff163373ffffffffffffffffffffffffffffffffffffffff1614151561120457600080fd5b806127108161ffff1610156112cc5781600560009054906101000a900461ffff168061ffff168261ffff1611156112575783600060156101000a81548161ffff021916908361ffff1602179055506112c5565b6040517f08c379a000000000000000000000000000000000000000000000000000000000815260040180806020018281038252600a8152602001807f4e6f74206269676765720000000000000000000000000000000000000000000081525060200191505060405180910390fd5b505061133a565b6040517f08c379a000000000000000000000000000000000000000000000000000000000815260040180806020018281038252600c8152602001807f4e6f7420696e2072616e6765000000000000000000000000000000000000000081525060200191505060405180910390fd5b5050565b60008060159054906101000a900461ffff16905090565b60066020528060005260406000206000915054906101000a900460ff1681565b6000809054906101000a900473ffffffffffffffffffffffffffffffffffffffff1673ffffffffffffffffffffffffffffffffffffffff163373ffffffffffffffffffffffffffffffffffffffff161415156113d057600080fd5b600060149054906101000a900460ff1615156113eb57600080fd5b60008060146101000a81548160ff0219169083151502179055507f7805862f689e2f13df9f062ff482ad3ad112aca9e0847911ed832e158c525b3360405160405180910390a1565b6000600560009054906101000a900461ffff16905090565b600080600754831015156114c7576040517f08c379a000000000000000000000000000000000000000000000000000000000815260040180806020018281038252600d8152602001807f57726f6e6720706f6f6c2069640000000000000000000000000000000000000081525060200191505060405180910390fd5b60086000848152602001908152602001600020600a015442108015611502575060006008600085815260200190815260200160002060080154115b156115165760008080905091509150611881565b60086000848152602001908152602001600020600a01544210158015611552575060006008600085815260200190815260200160002060080154115b80156115735750600860008481526020019081526020016000206002015442105b156115875760018080905091509150611881565b600060086000858152602001908152602001600020600801541480156115cd57506008600084815260200190815260200160002060070160009054906101000a900460ff165b80156115ee5750600860008481526020019081526020016000206002015442105b156116025760028080905091509150611881565b6000600860008581526020019081526020016000206008015414801561164957506008600084815260200190815260200160002060070160009054906101000a900460ff16155b1561165e576004600380905091509150611881565b600060086000858152602001908152602001600020600801541180156116a557506008600084815260200190815260200160002060070160009054906101000a900460ff16155b80156116d2575060086000848152602001908152602001600020600c0160009054906101000a900460ff16155b156116e7576003600480905091509150611881565b6008600084815260200190815260200160002060020154421015801561172e57506008600084815260200190815260200160002060070160009054906101000a900460ff16155b1561177c5760086000848152602001908152602001600020600c0160009054906101000a900460ff161561176c576004600580905091509150611881565b6003600680905091509150611881565b600860008481526020019081526020016000206002015442101580156117c257506008600084815260200190815260200160002060070160009054906101000a900460ff165b156118805760086000848152602001908152602001600020600c0160009054906101000a900460ff168061180c575060006008600085815260200190815260200160002060080154145b801561185b57506008600084815260200190815260200160002060060154600860008581526020019081526020016000206008015460086000868152602001908152602001600020600b015401145b15611870576004600780905091509150611881565b6003600880905091509150611881565b5b915091565b6009602052816000526040600020818154811015156118a157fe5b90600052602060002001600091509150505481565b600060149054906101000a900460ff1681565b6000809054906101000a900473ffffffffffffffffffffffffffffffffffffffff1673ffffffffffffffffffffffffffffffffffffffff163373ffffffffffffffffffffffffffffffffffffffff1614151561192457600080fd5b8060018190555050565b6000600260149054906101000a900460ff16905090565b6060600960003373ffffffffffffffffffffffffffffffffffffffff1673ffffffffffffffffffffffffffffffffffffffff1681526020019081526020016000208054806020026020016040519081016040528092919081815260200182805480156119d057602002820191906000526020600020905b8154815260200190600101908083116119bc575b5050505050905090565b6000806000806008600086815260200190815260200160002060070160009054906101000a900460ff16600860008781526020019081526020016000206002015460086000888152602001908152602001600020600a01546008600089815260200190815260200160002060010160009054906101000a900473ffffffffffffffffffffffffffffffffffffffff1693509350935093509193509193565b6000809054906101000a900473ffffffffffffffffffffffffffffffffffffffff1673ffffffffffffffffffffffffffffffffffffffff163373ffffffffffffffffffffffffffffffffffffffff16141515611ad357600080fd5b6000809054906101000a900473ffffffffffffffffffffffffffffffffffffffff1673ffffffffffffffffffffffffffffffffffffffff167ff8df31144d9c2f0f6b59d69b8b98abd5459d07f2742c4df920b25aae33c6482060405160405180910390a260008060006101000a81548173ffffffffffffffffffffffffffffffffffffffff021916908373ffffffffffffffffffffffffffffffffffffffff160217905550565b6000809054906101000a900473ffffffffffffffffffffffffffffffffffffffff1673ffffffffffffffffffffffffffffffffffffffff163373ffffffffffffffffffffffffffffffffffffffff16141515611bd557600080fd5b600060149054906101000a900460ff16151515611bf157600080fd5b6001600060146101000a81548160ff0219169083151502179055507f6985a02210a168e66602d3235cb6db0e70f92b3ba4d376a33c0f3d9434bff62560405160405180910390a1565b60075481565b6000809054906101000a900473ffffffffffffffffffffffffffffffffffffffff1681565b6000809054906101000a900473ffffffffffffffffffffffffffffffffffffffff1673ffffffffffffffffffffffffffffffffffffffff163373ffffffffffffffffffffffffffffffffffffffff16141515611cc057600080fd5b8073ffffffffffffffffffffffffffffffffffffffff166108fc3073ffffffffffffffffffffffffffffffffffffffff16319081150290604051600060405180830381858888f19350505050158015611d1d573d6000803e3d6000fd5b5050565b6000600154905090565b6000809054906101000a900473ffffffffffffffffffffffffffffffffffffffff1673ffffffffffffffffffffffffffffffffffffffff163373ffffffffffffffffffffffffffffffffffffffff16141515611d8657600080fd5b7f8b732648ec6304b6125c30b24aa7c51736b4c10b079067109e27cbb1e2e9052581604051808273ffffffffffffffffffffffffffffffffffffffff1673ffffffffffffffffffffffffffffffffffffffff16815260200191505060405180910390a16001600660008373ffffffffffffffffffffffffffffffffffffffff1673ffffffffffffffffffffffffffffffffffffffff16815260200190815260200160002060006101000a81548160ff02191690831515021790555050565b6000809054906101000a900473ffffffffffffffffffffffffffffffffffffffff1673ffffffffffffffffffffffffffffffffffffffff163373ffffffffffffffffffffffffffffffffffffffff16141515611e9f57600080fd5b600260149054906101000a900460ff1615600260146101000a81548160ff021916908315150217905550565b60086020528060005260406000206000915090508060000160009054906101000a900473ffffffffffffffffffffffffffffffffffffffff16908060010160009054906101000a900473ffffffffffffffffffffffffffffffffffffffff16908060020154908060030154908060040154908060050160009054906101000a900473ffffffffffffffffffffffffffffffffffffffff16908060060154908060070160009054906101000a900460ff169080600801549080600901549080600a01549080600b01549080600c0160009054906101000a900460ff1690508d565b6000600754905090565b6000809054906101000a900473ffffffffffffffffffffffffffffffffffffffff1673ffffffffffffffffffffffffffffffffffffffff163373ffffffffffffffffffffffffffffffffffffffff1614151561201057600080fd5b8060038190555050565b6000809054906101000a900473ffffffffffffffffffffffffffffffffffffffff1673ffffffffffffffffffffffffffffffffffffffff163373ffffffffffffffffffffffffffffffffffffffff1614151561207557600080fd5b806127108161ffff1610156120a65781600060176101000a81548161ffff021916908361ffff160217905550612114565b6040517f08c379a000000000000000000000000000000000000000000000000000000000815260040180806020018281038252600c8152602001807f4e6f7420696e2072616e6765000000000000000000000000000000000000000081525060200191505060405180910390fd5b5050565b6000600560009054906101000a900461ffff16905090565b6000600660008373ffffffffffffffffffffffffffffffffffffffff1673ffffffffffffffffffffffffffffffffffffffff16815260200190815260200160002060009054906101000a900460ff169050919050565b60008060008060008060006007548810151561220a576040517f08c379a00000000000000000000000000000000000000000000000000000000081526004018080602001828103825260088152602001807f57726f6e6720496400000000000000000000000000000000000000000000000081525060200191505060405180910390fd5b61221388610dab565b600860008a815260200190815260200160002060000160009054906101000a900473ffffffffffffffffffffffffffffffffffffffff16600860008b815260200190815260200160002060030154600860008c815260200190815260200160002060040154600860008d815260200190815260200160002060050160009054906101000a900473ffffffffffffffffffffffffffffffffffffffff16600860008e815260200190815260200160002060060154600860008f8152602001908152602001600020600801549650965096509650965096509650919395979092949650565b6000809054906101000a900473ffffffffffffffffffffffffffffffffffffffff1673ffffffffffffffffffffffffffffffffffffffff163373ffffffffffffffffffffffffffffffffffffffff1614151561235157600080fd5b80600560026101000a81548161ffff021916908361ffff16021790555050565b6000600354905090565b6000809054906101000a900473ffffffffffffffffffffffffffffffffffffffff1673ffffffffffffffffffffffffffffffffffffffff163373ffffffffffffffffffffffffffffffffffffffff161415156123d657600080fd5b6123df81612cc9565b50565b6000809054906101000a900473ffffffffffffffffffffffffffffffffffffffff1673ffffffffffffffffffffffffffffffffffffffff163373ffffffffffffffffffffffffffffffffffffffff1614151561243d57600080fd5b80600560006101000a81548161ffff021916908361ffff16021790555050565b6000809054906101000a900473ffffffffffffffffffffffffffffffffffffffff1673ffffffffffffffffffffffffffffffffffffffff163373ffffffffffffffffffffffffffffffffffffffff161415156124b857600080fd5b8173ffffffffffffffffffffffffffffffffffffffff1663a9059cbb82600460008673ffffffffffffffffffffffffffffffffffffffff1673ffffffffffffffffffffffffffffffffffffffff168152602001908152602001600020546040518363ffffffff167c0100000000000000000000000000000000000000000000000000000000028152600401808373ffffffffffffffffffffffffffffffffffffffff1673ffffffffffffffffffffffffffffffffffffffff16815260200182815260200192505050602060405180830381600087803b15801561259a57600080fd5b505af11580156125ae573d6000803e3d6000fd5b505050506040513d60208110156125c457600080fd5b8101908080519060200190929190505050506000600460008473ffffffffffffffffffffffffffffffffffffffff1673ffffffffffffffffffffffffffffffffffffffff168152602001908152602001600020819055505050565b60004260086000848152602001908152602001600020600201541115801561265d575060006008600084815260200190815260200160002060080154115b801561268a575060086000838152602001908152602001600020600c0160009054906101000a900460ff16155b1561275457600160086000848152602001908152602001600020600c0160006101000a81548160ff02191690831515021790555061274b6008600084815260200190815260200160002060000160009054906101000a900473ffffffffffffffffffffffffffffffffffffffff166008600085815260200190815260200160002060010160009054906101000a900473ffffffffffffffffffffffffffffffffffffffff166008600086815260200190815260200160002060080154612dc3565b60019050612759565b600090505b919050565b600061276988612f46565b15156127dd576040517f08c379a00000000000000000000000000000000000000000000000000000000081526004018080602001828103825260168152602001807f4e6565642056616c696420455243323020546f6b656e0000000000000000000081525060200191505060405180910390fd5b866127fc42600560029054906101000a900461ffff1661ffff16613001565b11151515612872576040517f08c379a000000000000000000000000000000000000000000000000000000000815260040180806020018281038252601a8152602001807f4e656564206d6f7265207468656e204d696e4475726174696f6e00000000000081525060200191505060405180910390fd5b600073ffffffffffffffffffffffffffffffffffffffff168273ffffffffffffffffffffffffffffffffffffffff1614806128b257506128b182612130565b5b15156128bd57600080fd5b84861015151561295b576040517f08c379a00000000000000000000000000000000000000000000000000000000081526004018080602001828103825260398152602001807f504f5a20686f6c64657273206e65656420746f2068617665206265747465722081526020017f286f72207468652073616d65203d206f6666292070726963650000000000000081525060400191505060405180910390fd5b61296688338661301d565b8486146129ad576129a86129a261299a6129808a4261335f565b600060179054906101000a900461ffff1661ffff16613378565b6127106133b0565b42613001565b6129af565b425b90506101a0604051908101604052808973ffffffffffffffffffffffffffffffffffffffff1681526020013373ffffffffffffffffffffffffffffffffffffffff1681526020018881526020018781526020018681526020018373ffffffffffffffffffffffffffffffffffffffff1681526020018581526020018415158152602001858152602001428152602001828152602001600081526020016000151581525060086000600754815260200190815260200160002060008201518160000160006101000a81548173ffffffffffffffffffffffffffffffffffffffff021916908373ffffffffffffffffffffffffffffffffffffffff16021790555060208201518160010160006101000a81548173ffffffffffffffffffffffffffffffffffffffff021916908373ffffffffffffffffffffffffffffffffffffffff16021790555060408201518160020155606082015181600301556080820151816004015560a08201518160050160006101000a81548173ffffffffffffffffffffffffffffffffffffffff021916908373ffffffffffffffffffffffffffffffffffffffff16021790555060c0820151816006015560e08201518160070160006101000a81548160ff0219169083151502179055506101008201518160080155610120820151816009015561014082015181600a015561016082015181600b015561018082015181600c0160006101000a81548160ff021916908315150217905550905050600960003373ffffffffffffffffffffffffffffffffffffffff1673ffffffffffffffffffffffffffffffffffffffff16815260200190815260200160002060075490806001815401808255809150509060018203906000526020600020016000909192909190915055507fbe4222bc407cb12031595fc55b46531e46308d31e4572c9c4360d8ae790e1a3188600754604051808373ffffffffffffffffffffffffffffffffffffffff1673ffffffffffffffffffffffffffffffffffffffff1681526020018281526020019250505060405180910390a1612cb96007546001613001565b6007819055505050505050505050565b600073ffffffffffffffffffffffffffffffffffffffff168173ffffffffffffffffffffffffffffffffffffffff1614151515612d0557600080fd5b8073ffffffffffffffffffffffffffffffffffffffff166000809054906101000a900473ffffffffffffffffffffffffffffffffffffffff1673ffffffffffffffffffffffffffffffffffffffff167f8be0079c531659141344cd1fd0a4f28419497f9722a3daafe3b4186f6b6457e060405160405180910390a3806000806101000a81548173ffffffffffffffffffffffffffffffffffffffff021916908373ffffffffffffffffffffffffffffffffffffffff16021790555050565b7fe4d818e6f992efbd60db553f3edce819a199baec79a784b95c89bc8ee86f2584818385604051808481526020018373ffffffffffffffffffffffffffffffffffffffff1673ffffffffffffffffffffffffffffffffffffffff1681526020018273ffffffffffffffffffffffffffffffffffffffff1673ffffffffffffffffffffffffffffffffffffffff168152602001935050505060405180910390a18273ffffffffffffffffffffffffffffffffffffffff1663a9059cbb83836040518363ffffffff167c0100000000000000000000000000000000000000000000000000000000028152600401808373ffffffffffffffffffffffffffffffffffffffff1673ffffffffffffffffffffffffffffffffffffffff16815260200182815260200192505050602060405180830381600087803b158015612f0557600080fd5b505af1158015612f19573d6000803e3d6000fd5b505050506040513d6020811015612f2f57600080fd5b810190808051906020019092919050505050505050565b6000808273ffffffffffffffffffffffffffffffffffffffff166318160ddd6040518163ffffffff167c0100000000000000000000000000000000000000000000000000000000028152600401602060405180830381600087803b158015612fad57600080fd5b505af1158015612fc1573d6000803e3d6000fd5b505050506040513d6020811015612fd757600080fd5b81019080805190602001909291905050501115612ff75760019050612ffc565b600090505b919050565b6000818301905082811015151561301457fe5b80905092915050565b828282808373ffffffffffffffffffffffffffffffffffffffff1663dd62ed3e84306040518363ffffffff167c0100000000000000000000000000000000000000000000000000000000028152600401808373ffffffffffffffffffffffffffffffffffffffff1673ffffffffffffffffffffffffffffffffffffffff1681526020018273ffffffffffffffffffffffffffffffffffffffff1673ffffffffffffffffffffffffffffffffffffffff16815260200192505050602060405180830381600087803b1580156130f057600080fd5b505af1158015613104573d6000803e3d6000fd5b505050506040513d602081101561311a57600080fd5b81019080805190602001909291905050501015156132e9578573ffffffffffffffffffffffffffffffffffffffff166323b872dd8630876040518463ffffffff167c0100000000000000000000000000000000000000000000000000000000028152600401808473ffffffffffffffffffffffffffffffffffffffff1673ffffffffffffffffffffffffffffffffffffffff1681526020018373ffffffffffffffffffffffffffffffffffffffff1673ffffffffffffffffffffffffffffffffffffffff1681526020018281526020019350505050602060405180830381600087803b15801561320957600080fd5b505af115801561321d573d6000803e3d6000fd5b505050506040513d602081101561323357600080fd5b8101908080519060200190929190505050507f1fecf4702e692891a7c2f0d328779b085efb5edd094fa5558bd5cd147a167922848688604051808481526020018373ffffffffffffffffffffffffffffffffffffffff1673ffffffffffffffffffffffffffffffffffffffff1681526020018273ffffffffffffffffffffffffffffffffffffffff1673ffffffffffffffffffffffffffffffffffffffff168152602001935050505060405180910390a1613357565b6040517f08c379a000000000000000000000000000000000000000000000000000000000815260040180806020018281038252600b8152602001807f4e6f20616c6c6f776e636500000000000000000000000000000000000000000081525060200191505060405180910390fd5b505050505050565b600082821115151561336d57fe5b818303905092915050565b60008083141561338b57600090506133aa565b818302905081838281151561339c57fe5b041415156133a657fe5b8090505b92915050565b600081838115156133bd57fe5b049050929150505600a165627a7a72305820b84df594b9c08b464856528c9e60db5c8eef7b1500b069717177e1553edb1f790029",
  "source": "// SPDX-License-Identifier: MIT\r\npragma solidity ^0.4.24;\r\n\r\nimport \"./Pools.sol\";\r\n\r\ncontract PoolsData is Pools {\r\n    enum PoolStatus {Created, Open, OutOfstock, Finished, Close} //the status of the pools\r\n\r\n    function GetMyPoolsId() public view returns (uint256[]) {\r\n        return poolsMap[msg.sender];\r\n    }\r\n\r\n    //@dev no use of revert to make sure the loop will work\r\n    function WithdrawLeftOvers(uint256 _PoolId) public returns (bool) {\r\n        //pool is finished + got left overs + did not took them\r\n        if (\r\n            pools[_PoolId].FinishTime <= now &&\r\n            pools[_PoolId].Lefttokens > 0 &&\r\n            !pools[_PoolId].TookLeftOvers\r\n        ) {\r\n            pools[_PoolId].TookLeftOvers = true;\r\n            TransferToken(\r\n                pools[_PoolId].Token,\r\n                pools[_PoolId].Creator,\r\n                pools[_PoolId].Lefttokens\r\n            );\r\n            return true;\r\n        }\r\n        return false;\r\n    }\r\n\r\n    //give the data of the pool, by id\r\n    function GetPoolData(uint256 _id)\r\n        public\r\n        view\r\n        returns (\r\n            PoolStatus,\r\n            address,\r\n            uint256,\r\n            uint256,\r\n            address,\r\n            uint256,\r\n            uint256\r\n        )\r\n    {\r\n        require(_id < poolsCount, \"Wrong Id\");\r\n        return (\r\n            //check if sender POZ Invester?\r\n            GetPoolStatus(_id),\r\n            pools[_id].Token,\r\n            pools[_id].Rate,\r\n            pools[_id].POZRate,\r\n            pools[_id].Maincoin, //incase of ETH will be address.zero\r\n            pools[_id].StartAmount,\r\n            pools[_id].Lefttokens\r\n        );\r\n    }\r\n\r\n    function GetMorePoolData(uint256 _id)\r\n        public\r\n        view\r\n        returns (\r\n            bool,\r\n            uint256,\r\n            uint256,\r\n            address\r\n        )\r\n    {\r\n        return (\r\n            pools[_id].IsLocked,\r\n            pools[_id].FinishTime,\r\n            pools[_id].OpenForAll,\r\n            pools[_id].Creator\r\n        );\r\n    }\r\n\r\n    //calculate the status of a pool\r\n    function GetPoolStatus(uint256 _id) public view returns (PoolStatus) {\r\n        require(_id < poolsCount, \"Wrong pool id\");\r\n        //Don't like the logic here - ToDo Boolean checks (truth table)\r\n        if (now < pools[_id].OpenForAll && pools[_id].Lefttokens > 0) {\r\n            //got tokens + only poz investors\r\n            return (PoolStatus.Created);\r\n        }\r\n        if (\r\n            now >= pools[_id].OpenForAll &&\r\n            pools[_id].Lefttokens > 0 &&\r\n            now < pools[_id].FinishTime\r\n        ) {\r\n            //got tokens + all investors\r\n            return (PoolStatus.Open);\r\n        }\r\n        if (\r\n            pools[_id].Lefttokens == 0 &&\r\n            pools[_id].IsLocked &&\r\n            now < pools[_id].FinishTime\r\n        ) //no tokens on locked pool, got time\r\n        {\r\n            return (PoolStatus.OutOfstock);\r\n        }\r\n        if (\r\n            pools[_id].Lefttokens == 0 && !pools[_id].IsLocked\r\n        ) //no tokens on direct pool\r\n        {\r\n            return (PoolStatus.Close);\r\n        }\r\n        if (\r\n            pools[_id].Lefttokens > 0 &&\r\n            !pools[_id].IsLocked &&\r\n            !pools[_id].TookLeftOvers\r\n        ) {\r\n            //Got left overs on direct pool\r\n            return (PoolStatus.Finished);\r\n        }\r\n        if (now >= pools[_id].FinishTime && !pools[_id].IsLocked) {\r\n            // After finish time - not locked\r\n            if (pools[_id].TookLeftOvers) return (PoolStatus.Close);\r\n            return (PoolStatus.Finished);\r\n        }\r\n        if (now >= pools[_id].FinishTime && pools[_id].IsLocked) {\r\n            // After finish time -  locked\r\n            if (\r\n                (pools[_id].TookLeftOvers || pools[_id].Lefttokens == 0) &&\r\n                (pools[_id].UnlockedTokens + pools[_id].Lefttokens ==\r\n                    pools[_id].StartAmount)\r\n            ) return (PoolStatus.Close);\r\n            return (PoolStatus.Finished);\r\n        }\r\n    }\r\n    function GetTestPoolStatus(uint256 _id) public view returns (PoolStatus, uint) {\r\n        require(_id < poolsCount, \"Wrong pool id\");\r\n        //Don't like the logic here - ToDo Boolean checks (truth table)\r\n        if (now < pools[_id].OpenForAll && pools[_id].Lefttokens > 0) {\r\n            //got tokens + only poz investors\r\n            return (PoolStatus.Created,0);\r\n        }\r\n        if (\r\n            now >= pools[_id].OpenForAll &&\r\n            pools[_id].Lefttokens > 0 &&\r\n            now < pools[_id].FinishTime\r\n        ) {\r\n            //got tokens + all investors\r\n            return (PoolStatus.Open,1);\r\n        }\r\n        if (\r\n            pools[_id].Lefttokens == 0 &&\r\n            pools[_id].IsLocked &&\r\n            now < pools[_id].FinishTime\r\n        ) //no tokens on locked pool, got time\r\n        {\r\n            return (PoolStatus.OutOfstock,2);\r\n        }\r\n        if (\r\n            pools[_id].Lefttokens == 0 && !pools[_id].IsLocked\r\n        ) //no tokens on direct pool\r\n        {\r\n            return (PoolStatus.Close,3);\r\n        }\r\n        if (\r\n            pools[_id].Lefttokens > 0 &&\r\n            !pools[_id].IsLocked &&\r\n            !pools[_id].TookLeftOvers\r\n        ) {\r\n            //Got left overs on direct pool\r\n            return (PoolStatus.Finished,4);\r\n        }\r\n        if (now >= pools[_id].FinishTime && !pools[_id].IsLocked) {\r\n            // After finish time - not locked\r\n            if (pools[_id].TookLeftOvers) return (PoolStatus.Close,5);\r\n            return (PoolStatus.Finished,6);\r\n        }\r\n        if (now >= pools[_id].FinishTime && pools[_id].IsLocked) {\r\n            // After finish time -  locked\r\n            if (\r\n                (pools[_id].TookLeftOvers || pools[_id].Lefttokens == 0) &&\r\n                (pools[_id].UnlockedTokens + pools[_id].Lefttokens ==\r\n                    pools[_id].StartAmount)\r\n            ) return (PoolStatus.Close,7);\r\n            return (PoolStatus.Finished,8);\r\n        }\r\n    }\r\n}\r\n",
  "sourcePath": "C:\\Users\\Administrator\\Desktop\\Code\\Poolz\\contracts\\PoolsData.sol",
  "compiler": {
    "name": "solc",
    "version": "0.4.26+commit.4563c3fc.Emscripten.clang"
  },
  "schemaVersion": "3.2.5",
  "updatedAt": "2020-10-06T15:00:04.554Z",
  "devdoc": {
    "methods": {
      "pause()": {
        "details": "called by the owner to pause, triggers stopped state"
      },
      "renounceOwnership()": {
        "details": "Allows the current owner to relinquish control of the contract."
      },
      "transferOwnership(address)": {
        "details": "Allows the current owner to transfer control of the contract to a newOwner.",
        "params": {
          "_newOwner": "The address to transfer ownership to."
        }
      },
      "unpause()": {
        "details": "called by the owner to unpause, returns to normal state"
      }
    }
  },
  "userdoc": {
    "methods": {
      "renounceOwnership()": {
        "notice": "Renouncing to ownership will leave the contract without an owner. It will not be possible to call the functions with the `onlyOwner` modifier anymore."
      }
    }
  }
}