{
  "contractName": "PoolsData",
  "abi": [
    {
      "constant": false,
      "inputs": [
        {
          "name": "_token",
          "type": "address"
        }
      ],
      "name": "RemoveERC20Maincoin",
      "outputs": [],
      "payable": false,
      "stateMutability": "nonpayable",
      "type": "function"
    },
    {
      "constant": true,
      "inputs": [],
      "name": "GetPozTimer",
      "outputs": [
        {
          "name": "",
          "type": "uint16"
        }
      ],
      "payable": false,
      "stateMutability": "view",
      "type": "function"
    },
    {
      "constant": false,
      "inputs": [
        {
          "name": "_fee",
          "type": "uint16"
        }
      ],
      "name": "SetPOZFee",
      "outputs": [],
      "payable": false,
      "stateMutability": "nonpayable",
      "type": "function"
    },
    {
      "constant": true,
      "inputs": [],
      "name": "GetPOZFee",
      "outputs": [
        {
          "name": "",
          "type": "uint16"
        }
      ],
      "payable": false,
      "stateMutability": "view",
      "type": "function"
    },
    {
      "constant": true,
      "inputs": [
        {
          "name": "",
          "type": "address"
        }
      ],
      "name": "ERC20MainCoins",
      "outputs": [
        {
          "name": "",
          "type": "bool"
        }
      ],
      "payable": false,
      "stateMutability": "view",
      "type": "function"
    },
    {
      "constant": false,
      "inputs": [],
      "name": "unpause",
      "outputs": [],
      "payable": false,
      "stateMutability": "nonpayable",
      "type": "function"
    },
    {
      "constant": true,
      "inputs": [],
      "name": "GetFee",
      "outputs": [
        {
          "name": "",
          "type": "uint16"
        }
      ],
      "payable": false,
      "stateMutability": "view",
      "type": "function"
    },
    {
      "constant": true,
      "inputs": [
        {
          "name": "",
          "type": "address"
        },
        {
          "name": "",
          "type": "uint256"
        }
      ],
      "name": "poolsMap",
      "outputs": [
        {
          "name": "",
          "type": "uint256"
        }
      ],
      "payable": false,
      "stateMutability": "view",
      "type": "function"
    },
    {
      "constant": true,
      "inputs": [],
      "name": "paused",
      "outputs": [
        {
          "name": "",
          "type": "bool"
        }
      ],
      "payable": false,
      "stateMutability": "view",
      "type": "function"
    },
    {
      "constant": false,
      "inputs": [
        {
          "name": "_MinPoz",
          "type": "uint256"
        }
      ],
      "name": "SetMinPoz",
      "outputs": [],
      "payable": false,
      "stateMutability": "nonpayable",
      "type": "function"
    },
    {
      "constant": true,
      "inputs": [],
      "name": "GetIsPayble",
      "outputs": [
        {
          "name": "",
          "type": "bool"
        }
      ],
      "payable": false,
      "stateMutability": "view",
      "type": "function"
    },
    {
      "constant": false,
      "inputs": [],
      "name": "renounceOwnership",
      "outputs": [],
      "payable": false,
      "stateMutability": "nonpayable",
      "type": "function"
    },
    {
      "constant": false,
      "inputs": [],
      "name": "pause",
      "outputs": [],
      "payable": false,
      "stateMutability": "nonpayable",
      "type": "function"
    },
    {
      "constant": true,
      "inputs": [],
      "name": "poolsCount",
      "outputs": [
        {
          "name": "",
          "type": "uint256"
        }
      ],
      "payable": false,
      "stateMutability": "view",
      "type": "function"
    },
    {
      "constant": true,
      "inputs": [],
      "name": "owner",
      "outputs": [
        {
          "name": "",
          "type": "address"
        }
      ],
      "payable": false,
      "stateMutability": "view",
      "type": "function"
    },
    {
      "constant": false,
      "inputs": [
        {
          "name": "_to",
          "type": "address"
        }
      ],
      "name": "WithdrawETHFee",
      "outputs": [],
      "payable": false,
      "stateMutability": "nonpayable",
      "type": "function"
    },
    {
      "constant": true,
      "inputs": [],
      "name": "GetMinPoz",
      "outputs": [
        {
          "name": "",
          "type": "uint256"
        }
      ],
      "payable": false,
      "stateMutability": "view",
      "type": "function"
    },
    {
      "constant": false,
      "inputs": [
        {
          "name": "_token",
          "type": "address"
        }
      ],
      "name": "AddERC20Maincoin",
      "outputs": [],
      "payable": false,
      "stateMutability": "nonpayable",
      "type": "function"
    },
    {
      "constant": false,
      "inputs": [],
      "name": "SwitchIsPayble",
      "outputs": [],
      "payable": false,
      "stateMutability": "nonpayable",
      "type": "function"
    },
    {
      "constant": true,
      "inputs": [
        {
          "name": "",
          "type": "uint256"
        }
      ],
      "name": "pools",
      "outputs": [
        {
          "name": "Token",
          "type": "address"
        },
        {
          "name": "Creator",
          "type": "address"
        },
        {
          "name": "FinishTime",
          "type": "uint256"
        },
        {
          "name": "Rate",
          "type": "uint256"
        },
        {
          "name": "POZRate",
          "type": "uint256"
        },
        {
          "name": "Maincoin",
          "type": "address"
        },
        {
          "name": "StartAmount",
          "type": "uint256"
        },
        {
          "name": "IsLocked",
          "type": "bool"
        },
        {
          "name": "Lefttokens",
          "type": "uint256"
        },
        {
          "name": "StartTime",
          "type": "uint256"
        },
        {
          "name": "OpenForAll",
          "type": "uint256"
        },
        {
          "name": "UnlockedTokens",
          "type": "uint256"
        },
        {
          "name": "TookLeftOvers",
          "type": "bool"
        }
      ],
      "payable": false,
      "stateMutability": "view",
      "type": "function"
    },
    {
      "constant": true,
      "inputs": [],
      "name": "GetLastPoolId",
      "outputs": [
        {
          "name": "",
          "type": "uint256"
        }
      ],
      "payable": false,
      "stateMutability": "view",
      "type": "function"
    },
    {
      "constant": false,
      "inputs": [
        {
          "name": "_MinETH",
          "type": "uint256"
        }
      ],
      "name": "SetMinETH",
      "outputs": [],
      "payable": false,
      "stateMutability": "nonpayable",
      "type": "function"
    },
    {
      "constant": false,
      "inputs": [
        {
          "name": "_pozTimer",
          "type": "uint16"
        }
      ],
      "name": "SetPozTimer",
      "outputs": [],
      "payable": false,
      "stateMutability": "nonpayable",
      "type": "function"
    },
    {
      "constant": true,
      "inputs": [],
      "name": "GetMinDuration",
      "outputs": [
        {
          "name": "",
          "type": "uint16"
        }
      ],
      "payable": false,
      "stateMutability": "view",
      "type": "function"
    },
    {
      "constant": true,
      "inputs": [
        {
          "name": "_token",
          "type": "address"
        }
      ],
      "name": "IsERC20Maincoin",
      "outputs": [
        {
          "name": "",
          "type": "bool"
        }
      ],
      "payable": false,
      "stateMutability": "view",
      "type": "function"
    },
    {
      "constant": false,
      "inputs": [
        {
          "name": "_minDuration",
          "type": "uint16"
        }
      ],
      "name": "SetMinDuration",
      "outputs": [],
      "payable": false,
      "stateMutability": "nonpayable",
      "type": "function"
    },
    {
      "constant": true,
      "inputs": [],
      "name": "GetMinETH",
      "outputs": [
        {
          "name": "",
          "type": "uint256"
        }
      ],
      "payable": false,
      "stateMutability": "view",
      "type": "function"
    },
    {
      "constant": false,
      "inputs": [
        {
          "name": "_newOwner",
          "type": "address"
        }
      ],
      "name": "transferOwnership",
      "outputs": [],
      "payable": false,
      "stateMutability": "nonpayable",
      "type": "function"
    },
    {
      "constant": false,
      "inputs": [
        {
          "name": "_fee",
          "type": "uint16"
        }
      ],
      "name": "SetFee",
      "outputs": [],
      "payable": false,
      "stateMutability": "nonpayable",
      "type": "function"
    },
    {
      "constant": false,
      "inputs": [
        {
          "name": "_Token",
          "type": "address"
        },
        {
          "name": "_to",
          "type": "address"
        }
      ],
      "name": "WithdrawERC20Fee",
      "outputs": [],
      "payable": false,
      "stateMutability": "nonpayable",
      "type": "function"
    },
    {
      "constant": false,
      "inputs": [
        {
          "name": "_Token",
          "type": "address"
        },
        {
          "name": "_FinishTime",
          "type": "uint256"
        },
        {
          "name": "_Rate",
          "type": "uint256"
        },
        {
          "name": "_POZRate",
          "type": "uint256"
        },
        {
          "name": "_StartAmount",
          "type": "uint256"
        },
        {
          "name": "_IsLocked",
          "type": "bool"
        },
        {
          "name": "_MainCoin",
          "type": "address"
        }
      ],
      "name": "CreatePool",
      "outputs": [],
      "payable": false,
      "stateMutability": "nonpayable",
      "type": "function"
    },
    {
      "payable": true,
      "stateMutability": "payable",
      "type": "fallback"
    },
    {
      "anonymous": false,
      "inputs": [
        {
          "indexed": false,
          "name": "token",
          "type": "address"
        },
        {
          "indexed": false,
          "name": "id",
          "type": "uint256"
        }
      ],
      "name": "NewPool",
      "type": "event"
    },
    {
      "anonymous": false,
      "inputs": [
        {
          "indexed": false,
          "name": "id",
          "type": "uint256"
        }
      ],
      "name": "FinishPool",
      "type": "event"
    },
    {
      "anonymous": false,
      "inputs": [
        {
          "indexed": false,
          "name": "Token",
          "type": "address"
        }
      ],
      "name": "MainCoinAdded",
      "type": "event"
    },
    {
      "anonymous": false,
      "inputs": [
        {
          "indexed": false,
          "name": "Token",
          "type": "address"
        }
      ],
      "name": "MainCoinRemoved",
      "type": "event"
    },
    {
      "anonymous": false,
      "inputs": [
        {
          "indexed": false,
          "name": "Amount",
          "type": "uint256"
        },
        {
          "indexed": false,
          "name": "To",
          "type": "address"
        }
      ],
      "name": "TransferOutETH",
      "type": "event"
    },
    {
      "anonymous": false,
      "inputs": [
        {
          "indexed": false,
          "name": "Amount",
          "type": "uint256"
        },
        {
          "indexed": false,
          "name": "From",
          "type": "address"
        }
      ],
      "name": "TransferInETH",
      "type": "event"
    },
    {
      "anonymous": false,
      "inputs": [
        {
          "indexed": false,
          "name": "Amount",
          "type": "uint256"
        },
        {
          "indexed": false,
          "name": "To",
          "type": "address"
        },
        {
          "indexed": false,
          "name": "Token",
          "type": "address"
        }
      ],
      "name": "TransferOut",
      "type": "event"
    },
    {
      "anonymous": false,
      "inputs": [
        {
          "indexed": false,
          "name": "Amount",
          "type": "uint256"
        },
        {
          "indexed": false,
          "name": "From",
          "type": "address"
        },
        {
          "indexed": false,
          "name": "Token",
          "type": "address"
        }
      ],
      "name": "TransferIn",
      "type": "event"
    },
    {
      "anonymous": false,
      "inputs": [],
      "name": "Pause",
      "type": "event"
    },
    {
      "anonymous": false,
      "inputs": [],
      "name": "Unpause",
      "type": "event"
    },
    {
      "anonymous": false,
      "inputs": [
        {
          "indexed": true,
          "name": "previousOwner",
          "type": "address"
        }
      ],
      "name": "OwnershipRenounced",
      "type": "event"
    },
    {
      "anonymous": false,
      "inputs": [
        {
          "indexed": true,
          "name": "previousOwner",
          "type": "address"
        },
        {
          "indexed": true,
          "name": "newOwner",
          "type": "address"
        }
      ],
      "name": "OwnershipTransferred",
      "type": "event"
    },
    {
      "constant": true,
      "inputs": [],
      "name": "GetMyPoolsId",
      "outputs": [
        {
          "name": "",
          "type": "uint256[]"
        }
      ],
      "payable": false,
      "stateMutability": "view",
      "type": "function"
    },
    {
      "constant": false,
      "inputs": [
        {
          "name": "_PoolId",
          "type": "uint256"
        }
      ],
      "name": "WithdrawLeftOvers",
      "outputs": [
        {
          "name": "",
          "type": "bool"
        }
      ],
      "payable": false,
      "stateMutability": "nonpayable",
      "type": "function"
    },
    {
      "constant": true,
      "inputs": [
        {
          "name": "_id",
          "type": "uint256"
        }
      ],
      "name": "GetPoolData",
      "outputs": [
        {
          "name": "",
          "type": "uint8"
        },
        {
          "name": "",
          "type": "address"
        },
        {
          "name": "",
          "type": "uint256"
        },
        {
          "name": "",
          "type": "uint256"
        },
        {
          "name": "",
          "type": "address"
        },
        {
          "name": "",
          "type": "uint256"
        },
        {
          "name": "",
          "type": "uint256"
        }
      ],
      "payable": false,
      "stateMutability": "view",
      "type": "function"
    },
    {
      "constant": true,
      "inputs": [
        {
          "name": "_id",
          "type": "uint256"
        }
      ],
      "name": "GetMorePoolData",
      "outputs": [
        {
          "name": "",
          "type": "bool"
        },
        {
          "name": "",
          "type": "uint256"
        },
        {
          "name": "",
          "type": "uint256"
        },
        {
          "name": "",
          "type": "address"
        }
      ],
      "payable": false,
      "stateMutability": "view",
      "type": "function"
    },
    {
      "constant": true,
      "inputs": [
        {
          "name": "_id",
          "type": "uint256"
        }
      ],
      "name": "GetPoolStatus",
      "outputs": [
        {
          "name": "",
          "type": "uint8"
        }
      ],
      "payable": false,
      "stateMutability": "view",
      "type": "function"
    }
  ],
  "bytecode": "0x608060405260008060146101000a81548160ff021916908315150217905550336000806101000a81548173ffffffffffffffffffffffffffffffffffffffff021916908373ffffffffffffffffffffffffffffffffffffffff160217905550600f600060156101000a81548161ffff021916908361ffff1602179055506103e8600060176101000a81548161ffff021916908361ffff16021790555060506001819055506000600260006101000a81548173ffffffffffffffffffffffffffffffffffffffff021916908373ffffffffffffffffffffffffffffffffffffffff1602179055506000600260146101000a81548160ff0219169083151502179055506127106003819055506014600560006101000a81548161ffff021916908361ffff1602179055506000600560026101000a81548161ffff021916908361ffff1602179055506000600781905550612d648061015c6000396000f3006080604052600436106101c1576000357c0100000000000000000000000000000000000000000000000000000000900463ffffffff168062ea9216146101de578063014f3aff146102215780630d08caa01461025457806311fad209146102a35780631ac8989f146102d45780633037548a146103075780633f4ba83a1461036257806348d9614d1461037957806356793bc7146103ac5780635c975abb1461040d5780635ea84ad61461043c578063624dea1c1461046957806363552a491461049857806366b91da914610504578063715018a61461058a5780638456cb59146105a15780638c788de0146105b85780638da5cb5b146105e3578063991e979a1461063a5780639baf390a1461067d578063a38c6549146106a8578063aac5da5c146106eb578063ac4afa3814610702578063c5053add14610823578063cbf476e51461084e578063e05425e41461087b578063e4dc37bb146108ac578063e8906716146108df578063ea9223a61461093a578063ecf1a2c914610a0b578063f155e88e14610a3c578063f2fde38b14610a67578063f8d5c26b14610aaa578063fc1a86ff14610adb578063fd711a5514610b3e578063ff02c51314610b83575b600260149054906101000a900460ff1615156101dc57600080fd5b005b3480156101ea57600080fd5b5061021f600480360381019080803573ffffffffffffffffffffffffffffffffffffffff169060200190929190505050610c1a565b005b34801561022d57600080fd5b50610236610d33565b604051808261ffff1661ffff16815260200191505060405180910390f35b34801561026057600080fd5b5061027f60048036038101908080359060200190929190505050610d4a565b6040518082600481111561028f57fe5b60ff16815260200191505060405180910390f35b3480156102af57600080fd5b506102d2600480360381019080803561ffff169060200190929190505050611149565b005b3480156102e057600080fd5b506102e96111fa565b604051808261ffff1661ffff16815260200191505060405180910390f35b34801561031357600080fd5b50610348600480360381019080803573ffffffffffffffffffffffffffffffffffffffff169060200190929190505050611211565b604051808215151515815260200191505060405180910390f35b34801561036e57600080fd5b50610377611231565b005b34801561038557600080fd5b5061038e6112ef565b604051808261ffff1661ffff16815260200191505060405180910390f35b3480156103b857600080fd5b506103f7600480360381019080803573ffffffffffffffffffffffffffffffffffffffff16906020019092919080359060200190929190505050611307565b6040518082815260200191505060405180910390f35b34801561041957600080fd5b50610422611337565b604051808215151515815260200191505060405180910390f35b34801561044857600080fd5b506104676004803603810190808035906020019092919050505061134a565b005b34801561047557600080fd5b5061047e6113af565b604051808215151515815260200191505060405180910390f35b3480156104a457600080fd5b506104ad6113c6565b6040518080602001828103825283818151815260200191508051906020019060200280838360005b838110156104f05780820151818401526020810190506104d5565b505050509050019250505060405180910390f35b34801561051057600080fd5b5061052f6004803603810190808035906020019092919050505061145b565b60405180851515151581526020018481526020018381526020018273ffffffffffffffffffffffffffffffffffffffff1673ffffffffffffffffffffffffffffffffffffffff16815260200194505050505060405180910390f35b34801561059657600080fd5b5061059f6114f9565b005b3480156105ad57600080fd5b506105b66115fb565b005b3480156105c457600080fd5b506105cd6116bb565b6040518082815260200191505060405180910390f35b3480156105ef57600080fd5b506105f86116c1565b604051808273ffffffffffffffffffffffffffffffffffffffff1673ffffffffffffffffffffffffffffffffffffffff16815260200191505060405180910390f35b34801561064657600080fd5b5061067b600480360381019080803573ffffffffffffffffffffffffffffffffffffffff1690602001909291905050506116e6565b005b34801561068957600080fd5b506106926117a2565b6040518082815260200191505060405180910390f35b3480156106b457600080fd5b506106e9600480360381019080803573ffffffffffffffffffffffffffffffffffffffff1690602001909291905050506117ac565b005b3480156106f757600080fd5b506107006118c5565b005b34801561070e57600080fd5b5061072d6004803603810190808035906020019092919050505061194c565b604051808e73ffffffffffffffffffffffffffffffffffffffff1673ffffffffffffffffffffffffffffffffffffffff1681526020018d73ffffffffffffffffffffffffffffffffffffffff1673ffffffffffffffffffffffffffffffffffffffff1681526020018c81526020018b81526020018a81526020018973ffffffffffffffffffffffffffffffffffffffff1673ffffffffffffffffffffffffffffffffffffffff16815260200188815260200187151515158152602001868152602001858152602001848152602001838152602001821515151581526020019d505050505050505050505050505060405180910390f35b34801561082f57600080fd5b50610838611a2c565b6040518082815260200191505060405180910390f35b34801561085a57600080fd5b5061087960048036038101908080359060200190929190505050611a36565b005b34801561088757600080fd5b506108aa600480360381019080803561ffff169060200190929190505050611a9b565b005b3480156108b857600080fd5b506108c1611b27565b604051808261ffff1661ffff16815260200191505060405180910390f35b3480156108eb57600080fd5b50610920600480360381019080803573ffffffffffffffffffffffffffffffffffffffff169060200190929190505050611b3f565b604051808215151515815260200191505060405180910390f35b34801561094657600080fd5b5061096560048036038101908080359060200190929190505050611b95565b6040518088600481111561097557fe5b60ff1681526020018773ffffffffffffffffffffffffffffffffffffffff1673ffffffffffffffffffffffffffffffffffffffff1681526020018681526020018581526020018473ffffffffffffffffffffffffffffffffffffffff1673ffffffffffffffffffffffffffffffffffffffff16815260200183815260200182815260200197505050505050505060405180910390f35b348015610a1757600080fd5b50610a3a600480360381019080803561ffff169060200190929190505050611d06565b005b348015610a4857600080fd5b50610a51611d81565b6040518082815260200191505060405180910390f35b348015610a7357600080fd5b50610aa8600480360381019080803573ffffffffffffffffffffffffffffffffffffffff169060200190929190505050611d8b565b005b348015610ab657600080fd5b50610ad9600480360381019080803561ffff169060200190929190505050611df2565b005b348015610ae757600080fd5b50610b3c600480360381019080803573ffffffffffffffffffffffffffffffffffffffff169060200190929190803573ffffffffffffffffffffffffffffffffffffffff169060200190929190505050611e6d565b005b348015610b4a57600080fd5b50610b696004803603810190808035906020019092919050505061202f565b604051808215151515815260200191505060405180910390f35b348015610b8f57600080fd5b50610c18600480360381019080803573ffffffffffffffffffffffffffffffffffffffff16906020019092919080359060200190929190803590602001909291908035906020019092919080359060200190929190803515159060200190929190803573ffffffffffffffffffffffffffffffffffffffff16906020019092919050505061216e565b005b6000809054906101000a900473ffffffffffffffffffffffffffffffffffffffff1673ffffffffffffffffffffffffffffffffffffffff163373ffffffffffffffffffffffffffffffffffffffff16141515610c7557600080fd5b7f46e7a65ed7662dc42b119afa3a03fc8474ed27a5a48d664c0b5e8b87b04184cf81604051808273ffffffffffffffffffffffffffffffffffffffff1673ffffffffffffffffffffffffffffffffffffffff16815260200191505060405180910390a16000600660008373ffffffffffffffffffffffffffffffffffffffff1673ffffffffffffffffffffffffffffffffffffffff16815260200190815260200160002060006101000a81548160ff02191690831515021790555050565b60008060179054906101000a900461ffff16905090565b60006007548211151515610dc6576040517f08c379a000000000000000000000000000000000000000000000000000000000815260040180806020018281038252600d8152602001807f57726f6e6720706f6f6c2069640000000000000000000000000000000000000081525060200191505060405180910390fd5b60086000838152602001908152602001600020600a015442108015610e01575060006008600084815260200190815260200160002060080154115b15610e0f5760009050611144565b60086000838152602001908152602001600020600a01544210158015610e4b575060006008600084815260200190815260200160002060080154115b8015610e6c5750600860008381526020019081526020016000206002015442105b15610e7a5760019050611144565b60006008600084815260200190815260200160002060080154148015610ec057506008600083815260200190815260200160002060070160009054906101000a900460ff165b8015610ee15750600860008381526020019081526020016000206002015442105b15610eef5760029050611144565b60006008600084815260200190815260200160002060080154148015610f3657506008600083815260200190815260200160002060070160009054906101000a900460ff16155b15610f445760049050611144565b60006008600084815260200190815260200160002060080154118015610f8b57506008600083815260200190815260200160002060070160009054906101000a900460ff16155b8015610fb8575060086000838152602001908152602001600020600c0160009054906101000a900460ff16155b15610fc65760039050611144565b6008600083815260200190815260200160002060020154421015801561100d57506008600083815260200190815260200160002060070160009054906101000a900460ff16155b1561104d5760086000838152602001908152602001600020600c0160009054906101000a900460ff16156110445760049050611144565b60039050611144565b6008600083815260200190815260200160002060020154421015801561109357506008600083815260200190815260200160002060070160009054906101000a900460ff165b156111435760086000838152602001908152602001600020600c0160009054906101000a900460ff16806110dd575060006008600084815260200190815260200160002060080154145b801561112c575060086000838152602001908152602001600020600b01546008600084815260200190815260200160002060080154600860008581526020019081526020016000206006015403145b1561113a5760049050611144565b60039050611144565b5b919050565b6000809054906101000a900473ffffffffffffffffffffffffffffffffffffffff1673ffffffffffffffffffffffffffffffffffffffff163373ffffffffffffffffffffffffffffffffffffffff161415156111a457600080fd5b806127108161ffff1610156111f65781600560009054906101000a900461ffff168061ffff168261ffff1611156111f35783600060156101000a81548161ffff021916908361ffff1602179055505b50505b5050565b60008060159054906101000a900461ffff16905090565b60066020528060005260406000206000915054906101000a900460ff1681565b6000809054906101000a900473ffffffffffffffffffffffffffffffffffffffff1673ffffffffffffffffffffffffffffffffffffffff163373ffffffffffffffffffffffffffffffffffffffff1614151561128c57600080fd5b600060149054906101000a900460ff1615156112a757600080fd5b60008060146101000a81548160ff0219169083151502179055507f7805862f689e2f13df9f062ff482ad3ad112aca9e0847911ed832e158c525b3360405160405180910390a1565b6000600560009054906101000a900461ffff16905090565b60096020528160005260406000208181548110151561132257fe5b90600052602060002001600091509150505481565b600060149054906101000a900460ff1681565b6000809054906101000a900473ffffffffffffffffffffffffffffffffffffffff1673ffffffffffffffffffffffffffffffffffffffff163373ffffffffffffffffffffffffffffffffffffffff161415156113a557600080fd5b8060018190555050565b6000600260149054906101000a900460ff16905090565b6060600960003373ffffffffffffffffffffffffffffffffffffffff1673ffffffffffffffffffffffffffffffffffffffff16815260200190815260200160002080548060200260200160405190810160405280929190818152602001828054801561145157602002820191906000526020600020905b81548152602001906001019080831161143d575b5050505050905090565b6000806000806008600086815260200190815260200160002060070160009054906101000a900460ff16600860008781526020019081526020016000206002015460086000888152602001908152602001600020600a01546008600089815260200190815260200160002060010160009054906101000a900473ffffffffffffffffffffffffffffffffffffffff1693509350935093509193509193565b6000809054906101000a900473ffffffffffffffffffffffffffffffffffffffff1673ffffffffffffffffffffffffffffffffffffffff163373ffffffffffffffffffffffffffffffffffffffff1614151561155457600080fd5b6000809054906101000a900473ffffffffffffffffffffffffffffffffffffffff1673ffffffffffffffffffffffffffffffffffffffff167ff8df31144d9c2f0f6b59d69b8b98abd5459d07f2742c4df920b25aae33c6482060405160405180910390a260008060006101000a81548173ffffffffffffffffffffffffffffffffffffffff021916908373ffffffffffffffffffffffffffffffffffffffff160217905550565b6000809054906101000a900473ffffffffffffffffffffffffffffffffffffffff1673ffffffffffffffffffffffffffffffffffffffff163373ffffffffffffffffffffffffffffffffffffffff1614151561165657600080fd5b600060149054906101000a900460ff1615151561167257600080fd5b6001600060146101000a81548160ff0219169083151502179055507f6985a02210a168e66602d3235cb6db0e70f92b3ba4d376a33c0f3d9434bff62560405160405180910390a1565b60075481565b6000809054906101000a900473ffffffffffffffffffffffffffffffffffffffff1681565b6000809054906101000a900473ffffffffffffffffffffffffffffffffffffffff1673ffffffffffffffffffffffffffffffffffffffff163373ffffffffffffffffffffffffffffffffffffffff1614151561174157600080fd5b8073ffffffffffffffffffffffffffffffffffffffff166108fc3073ffffffffffffffffffffffffffffffffffffffff16319081150290604051600060405180830381858888f1935050505015801561179e573d6000803e3d6000fd5b5050565b6000600154905090565b6000809054906101000a900473ffffffffffffffffffffffffffffffffffffffff1673ffffffffffffffffffffffffffffffffffffffff163373ffffffffffffffffffffffffffffffffffffffff1614151561180757600080fd5b7f8b732648ec6304b6125c30b24aa7c51736b4c10b079067109e27cbb1e2e9052581604051808273ffffffffffffffffffffffffffffffffffffffff1673ffffffffffffffffffffffffffffffffffffffff16815260200191505060405180910390a16001600660008373ffffffffffffffffffffffffffffffffffffffff1673ffffffffffffffffffffffffffffffffffffffff16815260200190815260200160002060006101000a81548160ff02191690831515021790555050565b6000809054906101000a900473ffffffffffffffffffffffffffffffffffffffff1673ffffffffffffffffffffffffffffffffffffffff163373ffffffffffffffffffffffffffffffffffffffff1614151561192057600080fd5b600260149054906101000a900460ff1615600260146101000a81548160ff021916908315150217905550565b60086020528060005260406000206000915090508060000160009054906101000a900473ffffffffffffffffffffffffffffffffffffffff16908060010160009054906101000a900473ffffffffffffffffffffffffffffffffffffffff16908060020154908060030154908060040154908060050160009054906101000a900473ffffffffffffffffffffffffffffffffffffffff16908060060154908060070160009054906101000a900460ff169080600801549080600901549080600a01549080600b01549080600c0160009054906101000a900460ff1690508d565b6000600754905090565b6000809054906101000a900473ffffffffffffffffffffffffffffffffffffffff1673ffffffffffffffffffffffffffffffffffffffff163373ffffffffffffffffffffffffffffffffffffffff16141515611a9157600080fd5b8060038190555050565b6000809054906101000a900473ffffffffffffffffffffffffffffffffffffffff1673ffffffffffffffffffffffffffffffffffffffff163373ffffffffffffffffffffffffffffffffffffffff16141515611af657600080fd5b806127108161ffff161015611b235781600060176101000a81548161ffff021916908361ffff1602179055505b5050565b6000600560009054906101000a900461ffff16905090565b6000600660008373ffffffffffffffffffffffffffffffffffffffff1673ffffffffffffffffffffffffffffffffffffffff16815260200190815260200160002060009054906101000a900460ff169050919050565b60008060008060008060006007548811151515611c1a576040517f08c379a00000000000000000000000000000000000000000000000000000000081526004018080602001828103825260088152602001807f57726f6e6720496400000000000000000000000000000000000000000000000081525060200191505060405180910390fd5b611c2388610d4a565b600860008a815260200190815260200160002060000160009054906101000a900473ffffffffffffffffffffffffffffffffffffffff16600860008b815260200190815260200160002060030154600860008c815260200190815260200160002060040154600860008d815260200190815260200160002060050160009054906101000a900473ffffffffffffffffffffffffffffffffffffffff16600860008e815260200190815260200160002060060154600860008f8152602001908152602001600020600801549650965096509650965096509650919395979092949650565b6000809054906101000a900473ffffffffffffffffffffffffffffffffffffffff1673ffffffffffffffffffffffffffffffffffffffff163373ffffffffffffffffffffffffffffffffffffffff16141515611d6157600080fd5b80600560026101000a81548161ffff021916908361ffff16021790555050565b6000600354905090565b6000809054906101000a900473ffffffffffffffffffffffffffffffffffffffff1673ffffffffffffffffffffffffffffffffffffffff163373ffffffffffffffffffffffffffffffffffffffff16141515611de657600080fd5b611def816126be565b50565b6000809054906101000a900473ffffffffffffffffffffffffffffffffffffffff1673ffffffffffffffffffffffffffffffffffffffff163373ffffffffffffffffffffffffffffffffffffffff16141515611e4d57600080fd5b80600560006101000a81548161ffff021916908361ffff16021790555050565b6000809054906101000a900473ffffffffffffffffffffffffffffffffffffffff1673ffffffffffffffffffffffffffffffffffffffff163373ffffffffffffffffffffffffffffffffffffffff16141515611ec857600080fd5b8173ffffffffffffffffffffffffffffffffffffffff1663a9059cbb82600460008673ffffffffffffffffffffffffffffffffffffffff1673ffffffffffffffffffffffffffffffffffffffff168152602001908152602001600020546040518363ffffffff167c0100000000000000000000000000000000000000000000000000000000028152600401808373ffffffffffffffffffffffffffffffffffffffff1673ffffffffffffffffffffffffffffffffffffffff16815260200182815260200192505050602060405180830381600087803b158015611faa57600080fd5b505af1158015611fbe573d6000803e3d6000fd5b505050506040513d6020811015611fd457600080fd5b8101908080519060200190929190505050506000600460008473ffffffffffffffffffffffffffffffffffffffff1673ffffffffffffffffffffffffffffffffffffffff168152602001908152602001600020819055505050565b60004260086000848152602001908152602001600020600201541115801561206d575060006008600084815260200190815260200160002060080154115b801561209a575060086000838152602001908152602001600020600c0160009054906101000a900460ff16155b1561216457600160086000848152602001908152602001600020600c0160006101000a81548160ff02191690831515021790555061215b6008600084815260200190815260200160002060000160009054906101000a900473ffffffffffffffffffffffffffffffffffffffff166008600085815260200190815260200160002060010160009054906101000a900473ffffffffffffffffffffffffffffffffffffffff1660086000868152602001908152602001600020600801546127b8565b60019050612169565b600090505b919050565b60006121798861293b565b15156121ed576040517f08c379a00000000000000000000000000000000000000000000000000000000081526004018080602001828103825260168152602001807f4e6565642056616c696420455243323020546f6b656e0000000000000000000081525060200191505060405180910390fd5b86600560029054906101000a900461ffff1661ffff1642011115151561227b576040517f08c379a000000000000000000000000000000000000000000000000000000000815260040180806020018281038252601a8152602001807f4e656564206d6f7265207468656e204d696e4475726174696f6e00000000000081525060200191505060405180910390fd5b600073ffffffffffffffffffffffffffffffffffffffff168273ffffffffffffffffffffffffffffffffffffffff1614806122bb57506122ba82611b3f565b5b15156122c657600080fd5b848610151515612364576040517f08c379a00000000000000000000000000000000000000000000000000000000081526004018080602001828103825260398152602001807f504f5a20686f6c64657273206e65656420746f2068617665206265747465722081526020017f286f72207468652073616d65203d206f6666292070726963650000000000000081525060400191505060405180910390fd5b61236f8833866129f6565b8486146123a35742612710600060179054906101000a900461ffff1661ffff16428a030281151561239c57fe5b04016123a5565b425b90506101a0604051908101604052808973ffffffffffffffffffffffffffffffffffffffff1681526020013373ffffffffffffffffffffffffffffffffffffffff1681526020018881526020018781526020018681526020018373ffffffffffffffffffffffffffffffffffffffff1681526020018581526020018415158152602001858152602001428152602001828152602001600081526020016000151581525060086000600754815260200190815260200160002060008201518160000160006101000a81548173ffffffffffffffffffffffffffffffffffffffff021916908373ffffffffffffffffffffffffffffffffffffffff16021790555060208201518160010160006101000a81548173ffffffffffffffffffffffffffffffffffffffff021916908373ffffffffffffffffffffffffffffffffffffffff16021790555060408201518160020155606082015181600301556080820151816004015560a08201518160050160006101000a81548173ffffffffffffffffffffffffffffffffffffffff021916908373ffffffffffffffffffffffffffffffffffffffff16021790555060c0820151816006015560e08201518160070160006101000a81548160ff0219169083151502179055506101008201518160080155610120820151816009015561014082015181600a015561016082015181600b015561018082015181600c0160006101000a81548160ff021916908315150217905550905050600960003373ffffffffffffffffffffffffffffffffffffffff1673ffffffffffffffffffffffffffffffffffffffff16815260200190815260200160002060075490806001815401808255809150509060018203906000526020600020016000909192909190915055507fbe4222bc407cb12031595fc55b46531e46308d31e4572c9c4360d8ae790e1a3188600754604051808373ffffffffffffffffffffffffffffffffffffffff1673ffffffffffffffffffffffffffffffffffffffff1681526020018281526020019250505060405180910390a16007600081548092919060010191905055505050505050505050565b600073ffffffffffffffffffffffffffffffffffffffff168173ffffffffffffffffffffffffffffffffffffffff16141515156126fa57600080fd5b8073ffffffffffffffffffffffffffffffffffffffff166000809054906101000a900473ffffffffffffffffffffffffffffffffffffffff1673ffffffffffffffffffffffffffffffffffffffff167f8be0079c531659141344cd1fd0a4f28419497f9722a3daafe3b4186f6b6457e060405160405180910390a3806000806101000a81548173ffffffffffffffffffffffffffffffffffffffff021916908373ffffffffffffffffffffffffffffffffffffffff16021790555050565b7fe4d818e6f992efbd60db553f3edce819a199baec79a784b95c89bc8ee86f2584818385604051808481526020018373ffffffffffffffffffffffffffffffffffffffff1673ffffffffffffffffffffffffffffffffffffffff1681526020018273ffffffffffffffffffffffffffffffffffffffff1673ffffffffffffffffffffffffffffffffffffffff168152602001935050505060405180910390a18273ffffffffffffffffffffffffffffffffffffffff1663a9059cbb83836040518363ffffffff167c0100000000000000000000000000000000000000000000000000000000028152600401808373ffffffffffffffffffffffffffffffffffffffff1673ffffffffffffffffffffffffffffffffffffffff16815260200182815260200192505050602060405180830381600087803b1580156128fa57600080fd5b505af115801561290e573d6000803e3d6000fd5b505050506040513d602081101561292457600080fd5b810190808051906020019092919050505050505050565b6000808273ffffffffffffffffffffffffffffffffffffffff166318160ddd6040518163ffffffff167c0100000000000000000000000000000000000000000000000000000000028152600401602060405180830381600087803b1580156129a257600080fd5b505af11580156129b6573d6000803e3d6000fd5b505050506040513d60208110156129cc57600080fd5b810190808051906020019092919050505011156129ec57600190506129f1565b600090505b919050565b828282808373ffffffffffffffffffffffffffffffffffffffff1663dd62ed3e84306040518363ffffffff167c0100000000000000000000000000000000000000000000000000000000028152600401808373ffffffffffffffffffffffffffffffffffffffff1673ffffffffffffffffffffffffffffffffffffffff1681526020018273ffffffffffffffffffffffffffffffffffffffff1673ffffffffffffffffffffffffffffffffffffffff16815260200192505050602060405180830381600087803b158015612ac957600080fd5b505af1158015612add573d6000803e3d6000fd5b505050506040513d6020811015612af357600080fd5b8101908080519060200190929190505050101515612cc2578573ffffffffffffffffffffffffffffffffffffffff166323b872dd8630876040518463ffffffff167c0100000000000000000000000000000000000000000000000000000000028152600401808473ffffffffffffffffffffffffffffffffffffffff1673ffffffffffffffffffffffffffffffffffffffff1681526020018373ffffffffffffffffffffffffffffffffffffffff1673ffffffffffffffffffffffffffffffffffffffff1681526020018281526020019350505050602060405180830381600087803b158015612be257600080fd5b505af1158015612bf6573d6000803e3d6000fd5b505050506040513d6020811015612c0c57600080fd5b8101908080519060200190929190505050507f1fecf4702e692891a7c2f0d328779b085efb5edd094fa5558bd5cd147a167922848688604051808481526020018373ffffffffffffffffffffffffffffffffffffffff1673ffffffffffffffffffffffffffffffffffffffff1681526020018273ffffffffffffffffffffffffffffffffffffffff1673ffffffffffffffffffffffffffffffffffffffff168152602001935050505060405180910390a1612d30565b6040517f08c379a000000000000000000000000000000000000000000000000000000000815260040180806020018281038252600b8152602001807f4e6f20616c6c6f776e636500000000000000000000000000000000000000000081525060200191505060405180910390fd5b5050505050505600a165627a7a723058209b29fff591fe00d1dcc67823db71ca77731667e94a4b0a0bbfc17429898401a10029",
  "source": "// SPDX-License-Identifier: MIT\r\npragma solidity ^0.4.24;\r\n\r\nimport \"./Pools.sol\";\r\n\r\ncontract PoolsData is Pools {\r\n    enum PoolStatus {Created, Open, OutOfstock, Finished, Close} //the status of the pools\r\n\r\n    function GetMyPoolsId() public view returns (uint256[]) {\r\n        return poolsMap[msg.sender];\r\n    }\r\n    //@dev no use of revert to make sure the loop will work\r\n    function WithdrawLeftOvers(uint256 _PoolId) public returns (bool) {\r\n        //pool is finished + got left overs + did not took them\r\n        if (\r\n            pools[_PoolId].FinishTime <= now &&\r\n            pools[_PoolId].Lefttokens > 0 &&\r\n            !pools[_PoolId].TookLeftOvers\r\n        ) {\r\n            pools[_PoolId].TookLeftOvers = true;\r\n            TransferToken(\r\n                pools[_PoolId].Token,\r\n                pools[_PoolId].Creator,\r\n                pools[_PoolId].Lefttokens\r\n            );\r\n            return true;\r\n        }\r\n        return false;\r\n    }\r\n    //give the data of the pool, by id\r\n    function GetPoolData(uint256 _id)\r\n        public\r\n        view\r\n        returns (\r\n            PoolStatus,\r\n            address,\r\n            uint256,\r\n            uint256,\r\n            address,\r\n            uint256,\r\n            uint256\r\n        )\r\n    {\r\n        require(_id <= poolsCount, \"Wrong Id\");\r\n        return (\r\n            //check if sender POZ Invester?\r\n            GetPoolStatus(_id),\r\n            pools[_id].Token,\r\n            pools[_id].Rate,\r\n            pools[_id].POZRate,\r\n            pools[_id].Maincoin, //incase of ETH will be address.zero\r\n            pools[_id].StartAmount,\r\n            pools[_id].Lefttokens\r\n        );\r\n    }\r\n\r\n    function GetMorePoolData(uint256 _id)\r\n        public\r\n        view\r\n        returns (\r\n            bool,\r\n            uint256,\r\n            uint256,\r\n            address\r\n        )\r\n    {\r\n        return (\r\n            pools[_id].IsLocked,\r\n            pools[_id].FinishTime,\r\n            pools[_id].OpenForAll,\r\n            pools[_id].Creator\r\n        );\r\n    }\r\n\r\n    //calculate the status of a pool \r\n    function GetPoolStatus(uint256 _id) public view returns (PoolStatus) {\r\n        require(_id <= poolsCount, \"Wrong pool id\");\r\n        //Don't like the logic here - ToDo Boolean checks (truth table)\r\n        if (now < pools[_id].OpenForAll && pools[_id].Lefttokens > 0) {\r\n            //got tokens + only poz investors\r\n            return PoolStatus.Created;\r\n        }\r\n        if (\r\n            now >= pools[_id].OpenForAll &&\r\n            pools[_id].Lefttokens > 0 &&\r\n            now < pools[_id].FinishTime\r\n        ) {\r\n            //got tokens + all investors\r\n            return PoolStatus.Open;\r\n        }\r\n        if (\r\n            pools[_id].Lefttokens == 0 &&\r\n            pools[_id].IsLocked &&\r\n            now < pools[_id].FinishTime\r\n        ) //no tokens on locked pool, got time\r\n        {\r\n            return PoolStatus.OutOfstock;\r\n        }\r\n        if (\r\n            pools[_id].Lefttokens == 0 && !pools[_id].IsLocked\r\n        ) //no tokens on direct pool\r\n        {\r\n            return PoolStatus.Close;\r\n        }\r\n        if (\r\n            pools[_id].Lefttokens > 0 &&\r\n            !pools[_id].IsLocked &&\r\n            !pools[_id].TookLeftOvers\r\n        ) {\r\n            //Got left overs on direct pool\r\n            return PoolStatus.Finished;\r\n        }\r\n        if (now >= pools[_id].FinishTime && !pools[_id].IsLocked) {\r\n            // After finish time - not locked\r\n            if (pools[_id].TookLeftOvers) return PoolStatus.Close;\r\n            return PoolStatus.Finished;\r\n        }\r\n        if (now >= pools[_id].FinishTime && pools[_id].IsLocked) {\r\n            // After finish time -  locked\r\n            if (\r\n                (pools[_id].TookLeftOvers || pools[_id].Lefttokens == 0) &&\r\n                pools[_id].StartAmount - pools[_id].Lefttokens ==\r\n                pools[_id].UnlockedTokens\r\n            ) return PoolStatus.Close;\r\n            return PoolStatus.Finished;\r\n        }\r\n    }\r\n}\r\n",
  "sourcePath": "C:\\Users\\Administrator\\Desktop\\Code\\Poolz\\contracts\\PoolsData.sol",
  "compiler": {
    "name": "solc",
    "version": "0.4.26+commit.4563c3fc.Emscripten.clang"
  },
  "schemaVersion": "3.2.5",
  "updatedAt": "2020-10-04T14:51:12.840Z",
  "devdoc": {
    "methods": {
      "pause()": {
        "details": "called by the owner to pause, triggers stopped state"
      },
      "renounceOwnership()": {
        "details": "Allows the current owner to relinquish control of the contract."
      },
      "transferOwnership(address)": {
        "details": "Allows the current owner to transfer control of the contract to a newOwner.",
        "params": {
          "_newOwner": "The address to transfer ownership to."
        }
      },
      "unpause()": {
        "details": "called by the owner to unpause, returns to normal state"
      }
    }
  },
  "userdoc": {
    "methods": {
      "renounceOwnership()": {
        "notice": "Renouncing to ownership will leave the contract without an owner. It will not be possible to call the functions with the `onlyOwner` modifier anymore."
      }
    }
  }
}