{
  "contractName": "PoolsData",
  "abi": [
    {
      "constant": false,
      "inputs": [
        {
          "name": "_token",
          "type": "address"
        }
      ],
      "name": "RemoveERC20Maincoin",
      "outputs": [],
      "payable": false,
      "stateMutability": "nonpayable",
      "type": "function"
    },
    {
      "constant": true,
      "inputs": [],
      "name": "GetPozTimer",
      "outputs": [
        {
          "name": "",
          "type": "uint16"
        }
      ],
      "payable": false,
      "stateMutability": "view",
      "type": "function"
    },
    {
      "constant": false,
      "inputs": [
        {
          "name": "_fee",
          "type": "uint16"
        }
      ],
      "name": "SetPOZFee",
      "outputs": [],
      "payable": false,
      "stateMutability": "nonpayable",
      "type": "function"
    },
    {
      "constant": true,
      "inputs": [],
      "name": "GetPOZFee",
      "outputs": [
        {
          "name": "",
          "type": "uint16"
        }
      ],
      "payable": false,
      "stateMutability": "view",
      "type": "function"
    },
    {
      "constant": true,
      "inputs": [
        {
          "name": "",
          "type": "address"
        }
      ],
      "name": "ERC20MainCoins",
      "outputs": [
        {
          "name": "",
          "type": "bool"
        }
      ],
      "payable": false,
      "stateMutability": "view",
      "type": "function"
    },
    {
      "constant": false,
      "inputs": [],
      "name": "unpause",
      "outputs": [],
      "payable": false,
      "stateMutability": "nonpayable",
      "type": "function"
    },
    {
      "constant": true,
      "inputs": [],
      "name": "GetFee",
      "outputs": [
        {
          "name": "",
          "type": "uint16"
        }
      ],
      "payable": false,
      "stateMutability": "view",
      "type": "function"
    },
    {
      "constant": true,
      "inputs": [
        {
          "name": "",
          "type": "address"
        },
        {
          "name": "",
          "type": "uint256"
        }
      ],
      "name": "poolsMap",
      "outputs": [
        {
          "name": "",
          "type": "uint256"
        }
      ],
      "payable": false,
      "stateMutability": "view",
      "type": "function"
    },
    {
      "constant": true,
      "inputs": [],
      "name": "paused",
      "outputs": [
        {
          "name": "",
          "type": "bool"
        }
      ],
      "payable": false,
      "stateMutability": "view",
      "type": "function"
    },
    {
      "constant": false,
      "inputs": [
        {
          "name": "_MinPoz",
          "type": "uint256"
        }
      ],
      "name": "SetMinPoz",
      "outputs": [],
      "payable": false,
      "stateMutability": "nonpayable",
      "type": "function"
    },
    {
      "constant": true,
      "inputs": [],
      "name": "GetIsPayble",
      "outputs": [
        {
          "name": "",
          "type": "bool"
        }
      ],
      "payable": false,
      "stateMutability": "view",
      "type": "function"
    },
    {
      "constant": false,
      "inputs": [],
      "name": "renounceOwnership",
      "outputs": [],
      "payable": false,
      "stateMutability": "nonpayable",
      "type": "function"
    },
    {
      "constant": false,
      "inputs": [],
      "name": "pause",
      "outputs": [],
      "payable": false,
      "stateMutability": "nonpayable",
      "type": "function"
    },
    {
      "constant": true,
      "inputs": [],
      "name": "poolsCount",
      "outputs": [
        {
          "name": "",
          "type": "uint256"
        }
      ],
      "payable": false,
      "stateMutability": "view",
      "type": "function"
    },
    {
      "constant": true,
      "inputs": [],
      "name": "owner",
      "outputs": [
        {
          "name": "",
          "type": "address"
        }
      ],
      "payable": false,
      "stateMutability": "view",
      "type": "function"
    },
    {
      "constant": false,
      "inputs": [
        {
          "name": "_to",
          "type": "address"
        }
      ],
      "name": "WithdrawETHFee",
      "outputs": [],
      "payable": false,
      "stateMutability": "nonpayable",
      "type": "function"
    },
    {
      "constant": true,
      "inputs": [],
      "name": "GetMinPoz",
      "outputs": [
        {
          "name": "",
          "type": "uint256"
        }
      ],
      "payable": false,
      "stateMutability": "view",
      "type": "function"
    },
    {
      "constant": false,
      "inputs": [
        {
          "name": "_token",
          "type": "address"
        }
      ],
      "name": "AddERC20Maincoin",
      "outputs": [],
      "payable": false,
      "stateMutability": "nonpayable",
      "type": "function"
    },
    {
      "constant": false,
      "inputs": [],
      "name": "SwitchIsPayble",
      "outputs": [],
      "payable": false,
      "stateMutability": "nonpayable",
      "type": "function"
    },
    {
      "constant": true,
      "inputs": [
        {
          "name": "",
          "type": "uint256"
        }
      ],
      "name": "pools",
      "outputs": [
        {
          "name": "Token",
          "type": "address"
        },
        {
          "name": "Creator",
          "type": "address"
        },
        {
          "name": "FinishTime",
          "type": "uint256"
        },
        {
          "name": "Rate",
          "type": "uint256"
        },
        {
          "name": "POZRate",
          "type": "uint256"
        },
        {
          "name": "Maincoin",
          "type": "address"
        },
        {
          "name": "StartAmount",
          "type": "uint256"
        },
        {
          "name": "IsLocked",
          "type": "bool"
        },
        {
          "name": "Lefttokens",
          "type": "uint256"
        },
        {
          "name": "StartTime",
          "type": "uint256"
        },
        {
          "name": "OpenForAll",
          "type": "uint256"
        },
        {
          "name": "UnlockedTokens",
          "type": "uint256"
        },
        {
          "name": "TookLeftOvers",
          "type": "bool"
        }
      ],
      "payable": false,
      "stateMutability": "view",
      "type": "function"
    },
    {
      "constant": true,
      "inputs": [],
      "name": "GetLastPoolId",
      "outputs": [
        {
          "name": "",
          "type": "uint256"
        }
      ],
      "payable": false,
      "stateMutability": "view",
      "type": "function"
    },
    {
      "constant": false,
      "inputs": [
        {
          "name": "_MinETH",
          "type": "uint256"
        }
      ],
      "name": "SetMinETH",
      "outputs": [],
      "payable": false,
      "stateMutability": "nonpayable",
      "type": "function"
    },
    {
      "constant": false,
      "inputs": [
        {
          "name": "_POZ_Address",
          "type": "address"
        }
      ],
      "name": "SetPozAdress",
      "outputs": [],
      "payable": false,
      "stateMutability": "nonpayable",
      "type": "function"
    },
    {
      "constant": false,
      "inputs": [
        {
          "name": "_pozTimer",
          "type": "uint16"
        }
      ],
      "name": "SetPozTimer",
      "outputs": [],
      "payable": false,
      "stateMutability": "nonpayable",
      "type": "function"
    },
    {
      "constant": true,
      "inputs": [],
      "name": "GetMinDuration",
      "outputs": [
        {
          "name": "",
          "type": "uint16"
        }
      ],
      "payable": false,
      "stateMutability": "view",
      "type": "function"
    },
    {
      "constant": true,
      "inputs": [
        {
          "name": "_token",
          "type": "address"
        }
      ],
      "name": "IsERC20Maincoin",
      "outputs": [
        {
          "name": "",
          "type": "bool"
        }
      ],
      "payable": false,
      "stateMutability": "view",
      "type": "function"
    },
    {
      "constant": false,
      "inputs": [
        {
          "name": "_minDuration",
          "type": "uint16"
        }
      ],
      "name": "SetMinDuration",
      "outputs": [],
      "payable": false,
      "stateMutability": "nonpayable",
      "type": "function"
    },
    {
      "constant": true,
      "inputs": [],
      "name": "GetMinETH",
      "outputs": [
        {
          "name": "",
          "type": "uint256"
        }
      ],
      "payable": false,
      "stateMutability": "view",
      "type": "function"
    },
    {
      "constant": false,
      "inputs": [
        {
          "name": "_newOwner",
          "type": "address"
        }
      ],
      "name": "transferOwnership",
      "outputs": [],
      "payable": false,
      "stateMutability": "nonpayable",
      "type": "function"
    },
    {
      "constant": false,
      "inputs": [
        {
          "name": "_fee",
          "type": "uint16"
        }
      ],
      "name": "SetFee",
      "outputs": [],
      "payable": false,
      "stateMutability": "nonpayable",
      "type": "function"
    },
    {
      "constant": false,
      "inputs": [
        {
          "name": "_Token",
          "type": "address"
        },
        {
          "name": "_to",
          "type": "address"
        }
      ],
      "name": "WithdrawERC20Fee",
      "outputs": [],
      "payable": false,
      "stateMutability": "nonpayable",
      "type": "function"
    },
    {
      "constant": false,
      "inputs": [
        {
          "name": "_Token",
          "type": "address"
        },
        {
          "name": "_FinishTime",
          "type": "uint256"
        },
        {
          "name": "_Rate",
          "type": "uint256"
        },
        {
          "name": "_POZRate",
          "type": "uint256"
        },
        {
          "name": "_StartAmount",
          "type": "uint256"
        },
        {
          "name": "_IsLocked",
          "type": "bool"
        },
        {
          "name": "_MainCoin",
          "type": "address"
        }
      ],
      "name": "CreatePool",
      "outputs": [],
      "payable": false,
      "stateMutability": "nonpayable",
      "type": "function"
    },
    {
      "payable": true,
      "stateMutability": "payable",
      "type": "fallback"
    },
    {
      "anonymous": false,
      "inputs": [
        {
          "indexed": false,
          "name": "token",
          "type": "address"
        },
        {
          "indexed": false,
          "name": "id",
          "type": "uint256"
        }
      ],
      "name": "NewPool",
      "type": "event"
    },
    {
      "anonymous": false,
      "inputs": [
        {
          "indexed": false,
          "name": "id",
          "type": "uint256"
        }
      ],
      "name": "FinishPool",
      "type": "event"
    },
    {
      "anonymous": false,
      "inputs": [
        {
          "indexed": false,
          "name": "Token",
          "type": "address"
        }
      ],
      "name": "MainCoinAdded",
      "type": "event"
    },
    {
      "anonymous": false,
      "inputs": [
        {
          "indexed": false,
          "name": "Token",
          "type": "address"
        }
      ],
      "name": "MainCoinRemoved",
      "type": "event"
    },
    {
      "anonymous": false,
      "inputs": [
        {
          "indexed": false,
          "name": "Amount",
          "type": "uint256"
        },
        {
          "indexed": false,
          "name": "To",
          "type": "address"
        }
      ],
      "name": "TransferOutETH",
      "type": "event"
    },
    {
      "anonymous": false,
      "inputs": [
        {
          "indexed": false,
          "name": "Amount",
          "type": "uint256"
        },
        {
          "indexed": false,
          "name": "From",
          "type": "address"
        }
      ],
      "name": "TransferInETH",
      "type": "event"
    },
    {
      "anonymous": false,
      "inputs": [
        {
          "indexed": false,
          "name": "Amount",
          "type": "uint256"
        },
        {
          "indexed": false,
          "name": "To",
          "type": "address"
        },
        {
          "indexed": false,
          "name": "Token",
          "type": "address"
        }
      ],
      "name": "TransferOut",
      "type": "event"
    },
    {
      "anonymous": false,
      "inputs": [
        {
          "indexed": false,
          "name": "Amount",
          "type": "uint256"
        },
        {
          "indexed": false,
          "name": "From",
          "type": "address"
        },
        {
          "indexed": false,
          "name": "Token",
          "type": "address"
        }
      ],
      "name": "TransferIn",
      "type": "event"
    },
    {
      "anonymous": false,
      "inputs": [],
      "name": "Pause",
      "type": "event"
    },
    {
      "anonymous": false,
      "inputs": [],
      "name": "Unpause",
      "type": "event"
    },
    {
      "anonymous": false,
      "inputs": [
        {
          "indexed": true,
          "name": "previousOwner",
          "type": "address"
        }
      ],
      "name": "OwnershipRenounced",
      "type": "event"
    },
    {
      "anonymous": false,
      "inputs": [
        {
          "indexed": true,
          "name": "previousOwner",
          "type": "address"
        },
        {
          "indexed": true,
          "name": "newOwner",
          "type": "address"
        }
      ],
      "name": "OwnershipTransferred",
      "type": "event"
    },
    {
      "constant": true,
      "inputs": [],
      "name": "GetMyPoolsId",
      "outputs": [
        {
          "name": "",
          "type": "uint256[]"
        }
      ],
      "payable": false,
      "stateMutability": "view",
      "type": "function"
    },
    {
      "constant": false,
      "inputs": [
        {
          "name": "_PoolId",
          "type": "uint256"
        }
      ],
      "name": "WithdrawLeftOvers",
      "outputs": [
        {
          "name": "",
          "type": "bool"
        }
      ],
      "payable": false,
      "stateMutability": "nonpayable",
      "type": "function"
    },
    {
      "constant": true,
      "inputs": [
        {
          "name": "_id",
          "type": "uint256"
        }
      ],
      "name": "GetPoolData",
      "outputs": [
        {
          "name": "",
          "type": "uint8"
        },
        {
          "name": "",
          "type": "address"
        },
        {
          "name": "",
          "type": "uint256"
        },
        {
          "name": "",
          "type": "uint256"
        },
        {
          "name": "",
          "type": "address"
        },
        {
          "name": "",
          "type": "uint256"
        },
        {
          "name": "",
          "type": "uint256"
        }
      ],
      "payable": false,
      "stateMutability": "view",
      "type": "function"
    },
    {
      "constant": true,
      "inputs": [
        {
          "name": "_id",
          "type": "uint256"
        }
      ],
      "name": "GetMorePoolData",
      "outputs": [
        {
          "name": "",
          "type": "bool"
        },
        {
          "name": "",
          "type": "uint256"
        },
        {
          "name": "",
          "type": "uint256"
        },
        {
          "name": "",
          "type": "address"
        }
      ],
      "payable": false,
      "stateMutability": "view",
      "type": "function"
    },
    {
      "constant": true,
      "inputs": [
        {
          "name": "_id",
          "type": "uint256"
        }
      ],
      "name": "GetPoolStatus",
      "outputs": [
        {
          "name": "",
          "type": "uint8"
        }
      ],
      "payable": false,
      "stateMutability": "view",
      "type": "function"
    }
  ],
  "bytecode": "0x608060405260008060146101000a81548160ff021916908315150217905550336000806101000a81548173ffffffffffffffffffffffffffffffffffffffff021916908373ffffffffffffffffffffffffffffffffffffffff160217905550600f600060156101000a81548161ffff021916908361ffff1602179055506103e8600060176101000a81548161ffff021916908361ffff16021790555060506001819055506000600260006101000a81548173ffffffffffffffffffffffffffffffffffffffff021916908373ffffffffffffffffffffffffffffffffffffffff1602179055506000600260146101000a81548160ff0219169083151502179055506127106003819055506014600560006101000a81548161ffff021916908361ffff1602179055506000600560026101000a81548161ffff021916908361ffff16021790555060006007819055506131c68061015c6000396000f3006080604052600436106101cc576000357c0100000000000000000000000000000000000000000000000000000000900463ffffffff168062ea9216146101e9578063014f3aff1461022c5780630d08caa01461025f57806311fad209146102ae5780631ac8989f146102df5780633037548a146103125780633f4ba83a1461036d57806348d9614d1461038457806356793bc7146103b75780635c975abb146104185780635ea84ad614610447578063624dea1c1461047457806363552a49146104a357806366b91da91461050f578063715018a6146105955780638456cb59146105ac5780638c788de0146105c35780638da5cb5b146105ee578063991e979a146106455780639baf390a14610688578063a38c6549146106b3578063aac5da5c146106f6578063ac4afa381461070d578063c5053add1461082e578063cbf476e514610859578063de5b521d14610886578063e05425e4146108c9578063e4dc37bb146108fa578063e89067161461092d578063ea9223a614610988578063ecf1a2c914610a59578063f155e88e14610a8a578063f2fde38b14610ab5578063f8d5c26b14610af8578063fc1a86ff14610b29578063fd711a5514610b8c578063ff02c51314610bd1575b600260149054906101000a900460ff1615156101e757600080fd5b005b3480156101f557600080fd5b5061022a600480360381019080803573ffffffffffffffffffffffffffffffffffffffff169060200190929190505050610c68565b005b34801561023857600080fd5b50610241610d81565b604051808261ffff1661ffff16815260200191505060405180910390f35b34801561026b57600080fd5b5061028a60048036038101908080359060200190929190505050610d98565b6040518082600481111561029a57fe5b60ff16815260200191505060405180910390f35b3480156102ba57600080fd5b506102dd600480360381019080803561ffff169060200190929190505050611196565b005b3480156102eb57600080fd5b506102f461132b565b604051808261ffff1661ffff16815260200191505060405180910390f35b34801561031e57600080fd5b50610353600480360381019080803573ffffffffffffffffffffffffffffffffffffffff169060200190929190505050611342565b604051808215151515815260200191505060405180910390f35b34801561037957600080fd5b50610382611362565b005b34801561039057600080fd5b50610399611420565b604051808261ffff1661ffff16815260200191505060405180910390f35b3480156103c357600080fd5b50610402600480360381019080803573ffffffffffffffffffffffffffffffffffffffff16906020019092919080359060200190929190505050611438565b6040518082815260200191505060405180910390f35b34801561042457600080fd5b5061042d611468565b604051808215151515815260200191505060405180910390f35b34801561045357600080fd5b506104726004803603810190808035906020019092919050505061147b565b005b34801561048057600080fd5b506104896114e0565b604051808215151515815260200191505060405180910390f35b3480156104af57600080fd5b506104b86114f7565b6040518080602001828103825283818151815260200191508051906020019060200280838360005b838110156104fb5780820151818401526020810190506104e0565b505050509050019250505060405180910390f35b34801561051b57600080fd5b5061053a6004803603810190808035906020019092919050505061158c565b60405180851515151581526020018481526020018381526020018273ffffffffffffffffffffffffffffffffffffffff1673ffffffffffffffffffffffffffffffffffffffff16815260200194505050505060405180910390f35b3480156105a157600080fd5b506105aa61162a565b005b3480156105b857600080fd5b506105c161172c565b005b3480156105cf57600080fd5b506105d86117ec565b6040518082815260200191505060405180910390f35b3480156105fa57600080fd5b506106036117f2565b604051808273ffffffffffffffffffffffffffffffffffffffff1673ffffffffffffffffffffffffffffffffffffffff16815260200191505060405180910390f35b34801561065157600080fd5b50610686600480360381019080803573ffffffffffffffffffffffffffffffffffffffff169060200190929190505050611817565b005b34801561069457600080fd5b5061069d6118d3565b6040518082815260200191505060405180910390f35b3480156106bf57600080fd5b506106f4600480360381019080803573ffffffffffffffffffffffffffffffffffffffff1690602001909291905050506118dd565b005b34801561070257600080fd5b5061070b6119f6565b005b34801561071957600080fd5b5061073860048036038101908080359060200190929190505050611a7d565b604051808e73ffffffffffffffffffffffffffffffffffffffff1673ffffffffffffffffffffffffffffffffffffffff1681526020018d73ffffffffffffffffffffffffffffffffffffffff1673ffffffffffffffffffffffffffffffffffffffff1681526020018c81526020018b81526020018a81526020018973ffffffffffffffffffffffffffffffffffffffff1673ffffffffffffffffffffffffffffffffffffffff16815260200188815260200187151515158152602001868152602001858152602001848152602001838152602001821515151581526020019d505050505050505050505050505060405180910390f35b34801561083a57600080fd5b50610843611b5d565b6040518082815260200191505060405180910390f35b34801561086557600080fd5b5061088460048036038101908080359060200190929190505050611b67565b005b34801561089257600080fd5b506108c7600480360381019080803573ffffffffffffffffffffffffffffffffffffffff169060200190929190505050611bcc565b005b3480156108d557600080fd5b506108f8600480360381019080803561ffff169060200190929190505050611c6b565b005b34801561090657600080fd5b5061090f611d69565b604051808261ffff1661ffff16815260200191505060405180910390f35b34801561093957600080fd5b5061096e600480360381019080803573ffffffffffffffffffffffffffffffffffffffff169060200190929190505050611d81565b604051808215151515815260200191505060405180910390f35b34801561099457600080fd5b506109b360048036038101908080359060200190929190505050611dd7565b604051808860048111156109c357fe5b60ff1681526020018773ffffffffffffffffffffffffffffffffffffffff1673ffffffffffffffffffffffffffffffffffffffff1681526020018681526020018581526020018473ffffffffffffffffffffffffffffffffffffffff1673ffffffffffffffffffffffffffffffffffffffff16815260200183815260200182815260200197505050505050505060405180910390f35b348015610a6557600080fd5b50610a88600480360381019080803561ffff169060200190929190505050611f47565b005b348015610a9657600080fd5b50610a9f611fc2565b6040518082815260200191505060405180910390f35b348015610ac157600080fd5b50610af6600480360381019080803573ffffffffffffffffffffffffffffffffffffffff169060200190929190505050611fcc565b005b348015610b0457600080fd5b50610b27600480360381019080803561ffff169060200190929190505050612033565b005b348015610b3557600080fd5b50610b8a600480360381019080803573ffffffffffffffffffffffffffffffffffffffff169060200190929190803573ffffffffffffffffffffffffffffffffffffffff1690602001909291905050506121c8565b005b348015610b9857600080fd5b50610bb76004803603810190808035906020019092919050505061238a565b604051808215151515815260200191505060405180910390f35b348015610bdd57600080fd5b50610c66600480360381019080803573ffffffffffffffffffffffffffffffffffffffff16906020019092919080359060200190929190803590602001909291908035906020019092919080359060200190929190803515159060200190929190803573ffffffffffffffffffffffffffffffffffffffff1690602001909291905050506124c9565b005b6000809054906101000a900473ffffffffffffffffffffffffffffffffffffffff1673ffffffffffffffffffffffffffffffffffffffff163373ffffffffffffffffffffffffffffffffffffffff16141515610cc357600080fd5b7f46e7a65ed7662dc42b119afa3a03fc8474ed27a5a48d664c0b5e8b87b04184cf81604051808273ffffffffffffffffffffffffffffffffffffffff1673ffffffffffffffffffffffffffffffffffffffff16815260200191505060405180910390a16000600660008373ffffffffffffffffffffffffffffffffffffffff1673ffffffffffffffffffffffffffffffffffffffff16815260200190815260200160002060006101000a81548160ff02191690831515021790555050565b60008060179054906101000a900461ffff16905090565b600060075482101515610e13576040517f08c379a000000000000000000000000000000000000000000000000000000000815260040180806020018281038252600d8152602001807f57726f6e6720706f6f6c2069640000000000000000000000000000000000000081525060200191505060405180910390fd5b60086000838152602001908152602001600020600a015442108015610e4e575060006008600084815260200190815260200160002060080154115b15610e5c5760009050611191565b60086000838152602001908152602001600020600a01544210158015610e98575060006008600084815260200190815260200160002060080154115b8015610eb95750600860008381526020019081526020016000206002015442105b15610ec75760019050611191565b60006008600084815260200190815260200160002060080154148015610f0d57506008600083815260200190815260200160002060070160009054906101000a900460ff165b8015610f2e5750600860008381526020019081526020016000206002015442105b15610f3c5760029050611191565b60006008600084815260200190815260200160002060080154148015610f8357506008600083815260200190815260200160002060070160009054906101000a900460ff16155b15610f915760049050611191565b60006008600084815260200190815260200160002060080154118015610fd857506008600083815260200190815260200160002060070160009054906101000a900460ff16155b8015611005575060086000838152602001908152602001600020600c0160009054906101000a900460ff16155b156110135760039050611191565b6008600083815260200190815260200160002060020154421015801561105a57506008600083815260200190815260200160002060070160009054906101000a900460ff16155b1561109a5760086000838152602001908152602001600020600c0160009054906101000a900460ff16156110915760049050611191565b60039050611191565b600860008381526020019081526020016000206002015442101580156110e057506008600083815260200190815260200160002060070160009054906101000a900460ff165b156111905760086000838152602001908152602001600020600c0160009054906101000a900460ff168061112a575060006008600084815260200190815260200160002060080154145b801561117957506008600083815260200190815260200160002060060154600860008481526020019081526020016000206008015460086000858152602001908152602001600020600b015401145b156111875760049050611191565b60039050611191565b5b919050565b6000809054906101000a900473ffffffffffffffffffffffffffffffffffffffff1673ffffffffffffffffffffffffffffffffffffffff163373ffffffffffffffffffffffffffffffffffffffff161415156111f157600080fd5b806127108161ffff1610156112b957600560009054906101000a900461ffff16828061ffff168261ffff1611156112445783600060156101000a81548161ffff021916908361ffff1602179055506112b2565b6040517f08c379a000000000000000000000000000000000000000000000000000000000815260040180806020018281038252600a8152602001807f4e6f74206269676765720000000000000000000000000000000000000000000081525060200191505060405180910390fd5b5050611327565b6040517f08c379a000000000000000000000000000000000000000000000000000000000815260040180806020018281038252600c8152602001807f4e6f7420696e2072616e6765000000000000000000000000000000000000000081525060200191505060405180910390fd5b5050565b60008060159054906101000a900461ffff16905090565b60066020528060005260406000206000915054906101000a900460ff1681565b6000809054906101000a900473ffffffffffffffffffffffffffffffffffffffff1673ffffffffffffffffffffffffffffffffffffffff163373ffffffffffffffffffffffffffffffffffffffff161415156113bd57600080fd5b600060149054906101000a900460ff1615156113d857600080fd5b60008060146101000a81548160ff0219169083151502179055507f7805862f689e2f13df9f062ff482ad3ad112aca9e0847911ed832e158c525b3360405160405180910390a1565b6000600560009054906101000a900461ffff16905090565b60096020528160005260406000208181548110151561145357fe5b90600052602060002001600091509150505481565b600060149054906101000a900460ff1681565b6000809054906101000a900473ffffffffffffffffffffffffffffffffffffffff1673ffffffffffffffffffffffffffffffffffffffff163373ffffffffffffffffffffffffffffffffffffffff161415156114d657600080fd5b8060018190555050565b6000600260149054906101000a900460ff16905090565b6060600960003373ffffffffffffffffffffffffffffffffffffffff1673ffffffffffffffffffffffffffffffffffffffff16815260200190815260200160002080548060200260200160405190810160405280929190818152602001828054801561158257602002820191906000526020600020905b81548152602001906001019080831161156e575b5050505050905090565b6000806000806008600086815260200190815260200160002060070160009054906101000a900460ff16600860008781526020019081526020016000206002015460086000888152602001908152602001600020600a01546008600089815260200190815260200160002060010160009054906101000a900473ffffffffffffffffffffffffffffffffffffffff1693509350935093509193509193565b6000809054906101000a900473ffffffffffffffffffffffffffffffffffffffff1673ffffffffffffffffffffffffffffffffffffffff163373ffffffffffffffffffffffffffffffffffffffff1614151561168557600080fd5b6000809054906101000a900473ffffffffffffffffffffffffffffffffffffffff1673ffffffffffffffffffffffffffffffffffffffff167ff8df31144d9c2f0f6b59d69b8b98abd5459d07f2742c4df920b25aae33c6482060405160405180910390a260008060006101000a81548173ffffffffffffffffffffffffffffffffffffffff021916908373ffffffffffffffffffffffffffffffffffffffff160217905550565b6000809054906101000a900473ffffffffffffffffffffffffffffffffffffffff1673ffffffffffffffffffffffffffffffffffffffff163373ffffffffffffffffffffffffffffffffffffffff1614151561178757600080fd5b600060149054906101000a900460ff161515156117a357600080fd5b6001600060146101000a81548160ff0219169083151502179055507f6985a02210a168e66602d3235cb6db0e70f92b3ba4d376a33c0f3d9434bff62560405160405180910390a1565b60075481565b6000809054906101000a900473ffffffffffffffffffffffffffffffffffffffff1681565b6000809054906101000a900473ffffffffffffffffffffffffffffffffffffffff1673ffffffffffffffffffffffffffffffffffffffff163373ffffffffffffffffffffffffffffffffffffffff1614151561187257600080fd5b8073ffffffffffffffffffffffffffffffffffffffff166108fc3073ffffffffffffffffffffffffffffffffffffffff16319081150290604051600060405180830381858888f193505050501580156118cf573d6000803e3d6000fd5b5050565b6000600154905090565b6000809054906101000a900473ffffffffffffffffffffffffffffffffffffffff1673ffffffffffffffffffffffffffffffffffffffff163373ffffffffffffffffffffffffffffffffffffffff1614151561193857600080fd5b7f8b732648ec6304b6125c30b24aa7c51736b4c10b079067109e27cbb1e2e9052581604051808273ffffffffffffffffffffffffffffffffffffffff1673ffffffffffffffffffffffffffffffffffffffff16815260200191505060405180910390a16001600660008373ffffffffffffffffffffffffffffffffffffffff1673ffffffffffffffffffffffffffffffffffffffff16815260200190815260200160002060006101000a81548160ff02191690831515021790555050565b6000809054906101000a900473ffffffffffffffffffffffffffffffffffffffff1673ffffffffffffffffffffffffffffffffffffffff163373ffffffffffffffffffffffffffffffffffffffff16141515611a5157600080fd5b600260149054906101000a900460ff1615600260146101000a81548160ff021916908315150217905550565b60086020528060005260406000206000915090508060000160009054906101000a900473ffffffffffffffffffffffffffffffffffffffff16908060010160009054906101000a900473ffffffffffffffffffffffffffffffffffffffff16908060020154908060030154908060040154908060050160009054906101000a900473ffffffffffffffffffffffffffffffffffffffff16908060060154908060070160009054906101000a900460ff169080600801549080600901549080600a01549080600b01549080600c0160009054906101000a900460ff1690508d565b6000600754905090565b6000809054906101000a900473ffffffffffffffffffffffffffffffffffffffff1673ffffffffffffffffffffffffffffffffffffffff163373ffffffffffffffffffffffffffffffffffffffff16141515611bc257600080fd5b8060038190555050565b6000809054906101000a900473ffffffffffffffffffffffffffffffffffffffff1673ffffffffffffffffffffffffffffffffffffffff163373ffffffffffffffffffffffffffffffffffffffff16141515611c2757600080fd5b80600260006101000a81548173ffffffffffffffffffffffffffffffffffffffff021916908373ffffffffffffffffffffffffffffffffffffffff16021790555050565b6000809054906101000a900473ffffffffffffffffffffffffffffffffffffffff1673ffffffffffffffffffffffffffffffffffffffff163373ffffffffffffffffffffffffffffffffffffffff16141515611cc657600080fd5b806127108161ffff161015611cf75781600060176101000a81548161ffff021916908361ffff160217905550611d65565b6040517f08c379a000000000000000000000000000000000000000000000000000000000815260040180806020018281038252600c8152602001807f4e6f7420696e2072616e6765000000000000000000000000000000000000000081525060200191505060405180910390fd5b5050565b6000600560029054906101000a900461ffff16905090565b6000600660008373ffffffffffffffffffffffffffffffffffffffff1673ffffffffffffffffffffffffffffffffffffffff16815260200190815260200160002060009054906101000a900460ff169050919050565b600080600080600080600060075488101515611e5b576040517f08c379a00000000000000000000000000000000000000000000000000000000081526004018080602001828103825260088152602001807f57726f6e6720496400000000000000000000000000000000000000000000000081525060200191505060405180910390fd5b611e6488610d98565b600860008a815260200190815260200160002060000160009054906101000a900473ffffffffffffffffffffffffffffffffffffffff16600860008b815260200190815260200160002060030154600860008c815260200190815260200160002060040154600860008d815260200190815260200160002060050160009054906101000a900473ffffffffffffffffffffffffffffffffffffffff16600860008e815260200190815260200160002060060154600860008f8152602001908152602001600020600801549650965096509650965096509650919395979092949650565b6000809054906101000a900473ffffffffffffffffffffffffffffffffffffffff1673ffffffffffffffffffffffffffffffffffffffff163373ffffffffffffffffffffffffffffffffffffffff16141515611fa257600080fd5b80600560026101000a81548161ffff021916908361ffff16021790555050565b6000600354905090565b6000809054906101000a900473ffffffffffffffffffffffffffffffffffffffff1673ffffffffffffffffffffffffffffffffffffffff163373ffffffffffffffffffffffffffffffffffffffff1614151561202757600080fd5b61203081612a9d565b50565b6000809054906101000a900473ffffffffffffffffffffffffffffffffffffffff1673ffffffffffffffffffffffffffffffffffffffff163373ffffffffffffffffffffffffffffffffffffffff1614151561208e57600080fd5b806127108161ffff1610156121565781600060159054906101000a900461ffff168061ffff168261ffff1611156120e15783600560006101000a81548161ffff021916908361ffff16021790555061214f565b6040517f08c379a000000000000000000000000000000000000000000000000000000000815260040180806020018281038252600a8152602001807f4e6f74206269676765720000000000000000000000000000000000000000000081525060200191505060405180910390fd5b50506121c4565b6040517f08c379a000000000000000000000000000000000000000000000000000000000815260040180806020018281038252600c8152602001807f4e6f7420696e2072616e6765000000000000000000000000000000000000000081525060200191505060405180910390fd5b5050565b6000809054906101000a900473ffffffffffffffffffffffffffffffffffffffff1673ffffffffffffffffffffffffffffffffffffffff163373ffffffffffffffffffffffffffffffffffffffff1614151561222357600080fd5b8173ffffffffffffffffffffffffffffffffffffffff1663a9059cbb82600460008673ffffffffffffffffffffffffffffffffffffffff1673ffffffffffffffffffffffffffffffffffffffff168152602001908152602001600020546040518363ffffffff167c0100000000000000000000000000000000000000000000000000000000028152600401808373ffffffffffffffffffffffffffffffffffffffff1673ffffffffffffffffffffffffffffffffffffffff16815260200182815260200192505050602060405180830381600087803b15801561230557600080fd5b505af1158015612319573d6000803e3d6000fd5b505050506040513d602081101561232f57600080fd5b8101908080519060200190929190505050506000600460008473ffffffffffffffffffffffffffffffffffffffff1673ffffffffffffffffffffffffffffffffffffffff168152602001908152602001600020819055505050565b6000426008600084815260200190815260200160002060020154111580156123c8575060006008600084815260200190815260200160002060080154115b80156123f5575060086000838152602001908152602001600020600c0160009054906101000a900460ff16155b156124bf57600160086000848152602001908152602001600020600c0160006101000a81548160ff0219169083151502179055506124b66008600084815260200190815260200160002060000160009054906101000a900473ffffffffffffffffffffffffffffffffffffffff166008600085815260200190815260200160002060010160009054906101000a900473ffffffffffffffffffffffffffffffffffffffff166008600086815260200190815260200160002060080154612b97565b600190506124c4565b600090505b919050565b60006124d488612d1a565b1515612548576040517f08c379a00000000000000000000000000000000000000000000000000000000081526004018080602001828103825260168152602001807f4e6565642056616c696420455243323020546f6b656e0000000000000000000081525060200191505060405180910390fd5b8661256742600560029054906101000a900461ffff1661ffff16612dd5565b111515156125dd576040517f08c379a000000000000000000000000000000000000000000000000000000000815260040180806020018281038252601a8152602001807f4e656564206d6f7265207468656e204d696e4475726174696f6e00000000000081525060200191505060405180910390fd5b600073ffffffffffffffffffffffffffffffffffffffff168273ffffffffffffffffffffffffffffffffffffffff16148061261d575061261c82611d81565b5b1515612691576040517f08c379a00000000000000000000000000000000000000000000000000000000081526004018080602001828103825260158152602001807f4d61696e20636f696e206e6f7420696e206c697374000000000000000000000081525060200191505060405180910390fd5b85851015151561272f576040517f08c379a00000000000000000000000000000000000000000000000000000000081526004018080602001828103825260338152602001807f504f5a20686f6c64657273206e65656420746f2068617665206265747465722081526020017f707269636520286f72207468652073616d65290000000000000000000000000081525060400191505060405180910390fd5b61273a883386612df1565b8486146127815761277c61277661276e6127548a42613133565b600060179054906101000a900461ffff1661ffff1661314c565b612710613184565b42612dd5565b612783565b425b90506101a0604051908101604052808973ffffffffffffffffffffffffffffffffffffffff1681526020013373ffffffffffffffffffffffffffffffffffffffff1681526020018881526020018781526020018681526020018373ffffffffffffffffffffffffffffffffffffffff1681526020018581526020018415158152602001858152602001428152602001828152602001600081526020016000151581525060086000600754815260200190815260200160002060008201518160000160006101000a81548173ffffffffffffffffffffffffffffffffffffffff021916908373ffffffffffffffffffffffffffffffffffffffff16021790555060208201518160010160006101000a81548173ffffffffffffffffffffffffffffffffffffffff021916908373ffffffffffffffffffffffffffffffffffffffff16021790555060408201518160020155606082015181600301556080820151816004015560a08201518160050160006101000a81548173ffffffffffffffffffffffffffffffffffffffff021916908373ffffffffffffffffffffffffffffffffffffffff16021790555060c0820151816006015560e08201518160070160006101000a81548160ff0219169083151502179055506101008201518160080155610120820151816009015561014082015181600a015561016082015181600b015561018082015181600c0160006101000a81548160ff021916908315150217905550905050600960003373ffffffffffffffffffffffffffffffffffffffff1673ffffffffffffffffffffffffffffffffffffffff16815260200190815260200160002060075490806001815401808255809150509060018203906000526020600020016000909192909190915055507fbe4222bc407cb12031595fc55b46531e46308d31e4572c9c4360d8ae790e1a3188600754604051808373ffffffffffffffffffffffffffffffffffffffff1673ffffffffffffffffffffffffffffffffffffffff1681526020018281526020019250505060405180910390a1612a8d6007546001612dd5565b6007819055505050505050505050565b600073ffffffffffffffffffffffffffffffffffffffff168173ffffffffffffffffffffffffffffffffffffffff1614151515612ad957600080fd5b8073ffffffffffffffffffffffffffffffffffffffff166000809054906101000a900473ffffffffffffffffffffffffffffffffffffffff1673ffffffffffffffffffffffffffffffffffffffff167f8be0079c531659141344cd1fd0a4f28419497f9722a3daafe3b4186f6b6457e060405160405180910390a3806000806101000a81548173ffffffffffffffffffffffffffffffffffffffff021916908373ffffffffffffffffffffffffffffffffffffffff16021790555050565b7fe4d818e6f992efbd60db553f3edce819a199baec79a784b95c89bc8ee86f2584818385604051808481526020018373ffffffffffffffffffffffffffffffffffffffff1673ffffffffffffffffffffffffffffffffffffffff1681526020018273ffffffffffffffffffffffffffffffffffffffff1673ffffffffffffffffffffffffffffffffffffffff168152602001935050505060405180910390a18273ffffffffffffffffffffffffffffffffffffffff1663a9059cbb83836040518363ffffffff167c0100000000000000000000000000000000000000000000000000000000028152600401808373ffffffffffffffffffffffffffffffffffffffff1673ffffffffffffffffffffffffffffffffffffffff16815260200182815260200192505050602060405180830381600087803b158015612cd957600080fd5b505af1158015612ced573d6000803e3d6000fd5b505050506040513d6020811015612d0357600080fd5b810190808051906020019092919050505050505050565b6000808273ffffffffffffffffffffffffffffffffffffffff166318160ddd6040518163ffffffff167c0100000000000000000000000000000000000000000000000000000000028152600401602060405180830381600087803b158015612d8157600080fd5b505af1158015612d95573d6000803e3d6000fd5b505050506040513d6020811015612dab57600080fd5b81019080805190602001909291905050501115612dcb5760019050612dd0565b600090505b919050565b60008183019050828110151515612de857fe5b80905092915050565b828282808373ffffffffffffffffffffffffffffffffffffffff1663dd62ed3e84306040518363ffffffff167c0100000000000000000000000000000000000000000000000000000000028152600401808373ffffffffffffffffffffffffffffffffffffffff1673ffffffffffffffffffffffffffffffffffffffff1681526020018273ffffffffffffffffffffffffffffffffffffffff1673ffffffffffffffffffffffffffffffffffffffff16815260200192505050602060405180830381600087803b158015612ec457600080fd5b505af1158015612ed8573d6000803e3d6000fd5b505050506040513d6020811015612eee57600080fd5b81019080805190602001909291905050501015156130bd578573ffffffffffffffffffffffffffffffffffffffff166323b872dd8630876040518463ffffffff167c0100000000000000000000000000000000000000000000000000000000028152600401808473ffffffffffffffffffffffffffffffffffffffff1673ffffffffffffffffffffffffffffffffffffffff1681526020018373ffffffffffffffffffffffffffffffffffffffff1673ffffffffffffffffffffffffffffffffffffffff1681526020018281526020019350505050602060405180830381600087803b158015612fdd57600080fd5b505af1158015612ff1573d6000803e3d6000fd5b505050506040513d602081101561300757600080fd5b8101908080519060200190929190505050507f1fecf4702e692891a7c2f0d328779b085efb5edd094fa5558bd5cd147a167922848688604051808481526020018373ffffffffffffffffffffffffffffffffffffffff1673ffffffffffffffffffffffffffffffffffffffff1681526020018273ffffffffffffffffffffffffffffffffffffffff1673ffffffffffffffffffffffffffffffffffffffff168152602001935050505060405180910390a161312b565b6040517f08c379a000000000000000000000000000000000000000000000000000000000815260040180806020018281038252600b8152602001807f4e6f20616c6c6f776e636500000000000000000000000000000000000000000081525060200191505060405180910390fd5b505050505050565b600082821115151561314157fe5b818303905092915050565b60008083141561315f576000905061317e565b818302905081838281151561317057fe5b0414151561317a57fe5b8090505b92915050565b6000818381151561319157fe5b049050929150505600a165627a7a723058201a0f6bea9c2c2c6b930fd497b43f31ff05515e5c024cadc47c3a20eb4952fa9e0029",
  "source": "// SPDX-License-Identifier: MIT\r\npragma solidity ^0.4.24;\r\n\r\nimport \"./Pools.sol\";\r\n\r\ncontract PoolsData is Pools {\r\n    enum PoolStatus {Created, Open, OutOfstock, Finished, Close} //the status of the pools\r\n\r\n    function GetMyPoolsId() public view returns (uint256[]) {\r\n        return poolsMap[msg.sender];\r\n    }\r\n\r\n    //@dev no use of revert to make sure the loop will work\r\n    function WithdrawLeftOvers(uint256 _PoolId) public returns (bool) {\r\n        //pool is finished + got left overs + did not took them\r\n        if (\r\n            pools[_PoolId].FinishTime <= now &&\r\n            pools[_PoolId].Lefttokens > 0 &&\r\n            !pools[_PoolId].TookLeftOvers\r\n        ) {\r\n            pools[_PoolId].TookLeftOvers = true;\r\n            TransferToken(\r\n                pools[_PoolId].Token,\r\n                pools[_PoolId].Creator,\r\n                pools[_PoolId].Lefttokens\r\n            );\r\n            return true;\r\n        }\r\n        return false;\r\n    }\r\n\r\n    //give the data of the pool, by id\r\n    function GetPoolData(uint256 _id)\r\n        public\r\n        view\r\n        returns (\r\n            PoolStatus,\r\n            address,\r\n            uint256,\r\n            uint256,\r\n            address,\r\n            uint256,\r\n            uint256\r\n        )\r\n    {\r\n        require(_id < poolsCount, \"Wrong Id\");\r\n        return (\r\n            //check if sender POZ Invester?\r\n            GetPoolStatus(_id),\r\n            pools[_id].Token,\r\n            pools[_id].Rate,\r\n            pools[_id].POZRate,\r\n            pools[_id].Maincoin, //incase of ETH will be address.zero\r\n            pools[_id].StartAmount,\r\n            pools[_id].Lefttokens\r\n        );\r\n    }\r\n\r\n    function GetMorePoolData(uint256 _id)\r\n        public\r\n        view\r\n        returns (\r\n            bool,\r\n            uint256,\r\n            uint256,\r\n            address\r\n        )\r\n    {\r\n        return (\r\n            pools[_id].IsLocked,\r\n            pools[_id].FinishTime,\r\n            pools[_id].OpenForAll,\r\n            pools[_id].Creator\r\n        );\r\n    }\r\n\r\n    //calculate the status of a pool\r\n    function GetPoolStatus(uint256 _id) public view returns (PoolStatus) {\r\n        require(_id < poolsCount, \"Wrong pool id\");\r\n        //Don't like the logic here - ToDo Boolean checks (truth table)\r\n        if (now < pools[_id].OpenForAll && pools[_id].Lefttokens > 0) {\r\n            //got tokens + only poz investors\r\n            return (PoolStatus.Created);\r\n        }\r\n        if (\r\n            now >= pools[_id].OpenForAll &&\r\n            pools[_id].Lefttokens > 0 &&\r\n            now < pools[_id].FinishTime\r\n        ) {\r\n            //got tokens + all investors\r\n            return (PoolStatus.Open);\r\n        }\r\n        if (\r\n            pools[_id].Lefttokens == 0 &&\r\n            pools[_id].IsLocked &&\r\n            now < pools[_id].FinishTime\r\n        ) //no tokens on locked pool, got time\r\n        {\r\n            return (PoolStatus.OutOfstock);\r\n        }\r\n        if (\r\n            pools[_id].Lefttokens == 0 && !pools[_id].IsLocked\r\n        ) //no tokens on direct pool\r\n        {\r\n            return (PoolStatus.Close);\r\n        }\r\n        if (\r\n            pools[_id].Lefttokens > 0 &&\r\n            !pools[_id].IsLocked &&\r\n            !pools[_id].TookLeftOvers\r\n        ) {\r\n            //Got left overs on direct pool\r\n            return (PoolStatus.Finished);\r\n        }\r\n        if (now >= pools[_id].FinishTime && !pools[_id].IsLocked) {\r\n            // After finish time - not locked\r\n            if (pools[_id].TookLeftOvers) return (PoolStatus.Close);\r\n            return (PoolStatus.Finished);\r\n        }\r\n        if (now >= pools[_id].FinishTime && pools[_id].IsLocked) {\r\n            // After finish time -  locked\r\n            if (\r\n                (pools[_id].TookLeftOvers || pools[_id].Lefttokens == 0) &&\r\n                (pools[_id].UnlockedTokens + pools[_id].Lefttokens ==\r\n                    pools[_id].StartAmount)\r\n            ) return (PoolStatus.Close);\r\n            return (PoolStatus.Finished);\r\n        }\r\n    }\r\n}\r\n",
  "sourcePath": "C:\\Users\\Administrator\\Desktop\\Code\\Poolz\\contracts\\PoolsData.sol",
  "compiler": {
    "name": "solc",
    "version": "0.4.26+commit.4563c3fc.Emscripten.clang"
  },
  "schemaVersion": "3.3.0",
  "updatedAt": "2020-10-12T09:56:40.744Z",
  "devdoc": {
    "methods": {
      "pause()": {
        "details": "called by the owner to pause, triggers stopped state"
      },
      "renounceOwnership()": {
        "details": "Allows the current owner to relinquish control of the contract."
      },
      "transferOwnership(address)": {
        "details": "Allows the current owner to transfer control of the contract to a newOwner.",
        "params": {
          "_newOwner": "The address to transfer ownership to."
        }
      },
      "unpause()": {
        "details": "called by the owner to unpause, returns to normal state"
      }
    }
  },
  "userdoc": {
    "methods": {
      "renounceOwnership()": {
        "notice": "Renouncing to ownership will leave the contract without an owner. It will not be possible to call the functions with the `onlyOwner` modifier anymore."
      }
    }
  }
}