{
  "contractName": "PozBenefit",
  "abi": [
    {
      "constant": false,
      "inputs": [],
      "name": "unpause",
      "outputs": [],
      "payable": false,
      "stateMutability": "nonpayable",
      "type": "function"
    },
    {
      "constant": true,
      "inputs": [],
      "name": "paused",
      "outputs": [
        {
          "name": "",
          "type": "bool"
        }
      ],
      "payable": false,
      "stateMutability": "view",
      "type": "function"
    },
    {
      "constant": false,
      "inputs": [],
      "name": "renounceOwnership",
      "outputs": [],
      "payable": false,
      "stateMutability": "nonpayable",
      "type": "function"
    },
    {
      "constant": false,
      "inputs": [],
      "name": "pause",
      "outputs": [],
      "payable": false,
      "stateMutability": "nonpayable",
      "type": "function"
    },
    {
      "constant": true,
      "inputs": [],
      "name": "owner",
      "outputs": [
        {
          "name": "",
          "type": "address"
        }
      ],
      "payable": false,
      "stateMutability": "view",
      "type": "function"
    },
    {
      "constant": false,
      "inputs": [
        {
          "name": "_newOwner",
          "type": "address"
        }
      ],
      "name": "transferOwnership",
      "outputs": [],
      "payable": false,
      "stateMutability": "nonpayable",
      "type": "function"
    },
    {
      "inputs": [],
      "payable": false,
      "stateMutability": "nonpayable",
      "type": "constructor"
    },
    {
      "anonymous": false,
      "inputs": [
        {
          "indexed": false,
          "name": "Amount",
          "type": "uint256"
        },
        {
          "indexed": false,
          "name": "To",
          "type": "address"
        },
        {
          "indexed": false,
          "name": "Token",
          "type": "address"
        }
      ],
      "name": "TransferOut",
      "type": "event"
    },
    {
      "anonymous": false,
      "inputs": [
        {
          "indexed": false,
          "name": "Amount",
          "type": "uint256"
        },
        {
          "indexed": false,
          "name": "From",
          "type": "address"
        },
        {
          "indexed": false,
          "name": "Token",
          "type": "address"
        }
      ],
      "name": "TransferIn",
      "type": "event"
    },
    {
      "anonymous": false,
      "inputs": [],
      "name": "Pause",
      "type": "event"
    },
    {
      "anonymous": false,
      "inputs": [],
      "name": "Unpause",
      "type": "event"
    },
    {
      "anonymous": false,
      "inputs": [
        {
          "indexed": true,
          "name": "previousOwner",
          "type": "address"
        }
      ],
      "name": "OwnershipRenounced",
      "type": "event"
    },
    {
      "anonymous": false,
      "inputs": [
        {
          "indexed": true,
          "name": "previousOwner",
          "type": "address"
        },
        {
          "indexed": true,
          "name": "newOwner",
          "type": "address"
        }
      ],
      "name": "OwnershipTransferred",
      "type": "event"
    },
    {
      "constant": true,
      "inputs": [],
      "name": "GetPozTimer",
      "outputs": [
        {
          "name": "",
          "type": "uint16"
        }
      ],
      "payable": false,
      "stateMutability": "view",
      "type": "function"
    },
    {
      "constant": false,
      "inputs": [
        {
          "name": "_pozTimer",
          "type": "uint16"
        }
      ],
      "name": "SetPozTimer",
      "outputs": [],
      "payable": false,
      "stateMutability": "nonpayable",
      "type": "function"
    },
    {
      "constant": true,
      "inputs": [],
      "name": "GetPOZFee",
      "outputs": [
        {
          "name": "",
          "type": "uint16"
        }
      ],
      "payable": false,
      "stateMutability": "view",
      "type": "function"
    },
    {
      "constant": true,
      "inputs": [],
      "name": "GetMinPoz",
      "outputs": [
        {
          "name": "",
          "type": "uint256"
        }
      ],
      "payable": false,
      "stateMutability": "view",
      "type": "function"
    },
    {
      "constant": false,
      "inputs": [
        {
          "name": "_MinPoz",
          "type": "uint256"
        }
      ],
      "name": "SetMinPoz",
      "outputs": [],
      "payable": false,
      "stateMutability": "nonpayable",
      "type": "function"
    }
  ],
  "bytecode": "0x608060405260008060146101000a81548160ff02191690831515021790555034801561002a57600080fd5b50336000806101000a81548173ffffffffffffffffffffffffffffffffffffffff021916908373ffffffffffffffffffffffffffffffffffffffff160217905550600f600060156101000a81548161ffff021916908361ffff1602179055506103e8600060176101000a81548161ffff021916908361ffff16021790555060506001819055506000600260006101000a81548173ffffffffffffffffffffffffffffffffffffffff021916908373ffffffffffffffffffffffffffffffffffffffff160217905550610891806101016000396000f3006080604052600436106100af576000357c0100000000000000000000000000000000000000000000000000000000900463ffffffff168063014f3aff146100b45780631ac8989f146100e75780633f4ba83a1461011a5780635c975abb146101315780635ea84ad614610160578063715018a61461018d5780638456cb59146101a45780638da5cb5b146101bb5780639baf390a14610212578063e05425e41461023d578063f2fde38b1461026e575b600080fd5b3480156100c057600080fd5b506100c96102b1565b604051808261ffff1661ffff16815260200191505060405180910390f35b3480156100f357600080fd5b506100fc6102c8565b604051808261ffff1661ffff16815260200191505060405180910390f35b34801561012657600080fd5b5061012f6102df565b005b34801561013d57600080fd5b5061014661039d565b604051808215151515815260200191505060405180910390f35b34801561016c57600080fd5b5061018b600480360381019080803590602001909291905050506103b0565b005b34801561019957600080fd5b506101a2610415565b005b3480156101b057600080fd5b506101b9610517565b005b3480156101c757600080fd5b506101d06105d7565b604051808273ffffffffffffffffffffffffffffffffffffffff1673ffffffffffffffffffffffffffffffffffffffff16815260200191505060405180910390f35b34801561021e57600080fd5b506102276105fc565b6040518082815260200191505060405180910390f35b34801561024957600080fd5b5061026c600480360381019080803561ffff169060200190929190505050610606565b005b34801561027a57600080fd5b506102af600480360381019080803573ffffffffffffffffffffffffffffffffffffffff169060200190929190505050610704565b005b60008060179054906101000a900461ffff16905090565b60008060159054906101000a900461ffff16905090565b6000809054906101000a900473ffffffffffffffffffffffffffffffffffffffff1673ffffffffffffffffffffffffffffffffffffffff163373ffffffffffffffffffffffffffffffffffffffff1614151561033a57600080fd5b600060149054906101000a900460ff16151561035557600080fd5b60008060146101000a81548160ff0219169083151502179055507f7805862f689e2f13df9f062ff482ad3ad112aca9e0847911ed832e158c525b3360405160405180910390a1565b600060149054906101000a900460ff1681565b6000809054906101000a900473ffffffffffffffffffffffffffffffffffffffff1673ffffffffffffffffffffffffffffffffffffffff163373ffffffffffffffffffffffffffffffffffffffff1614151561040b57600080fd5b8060018190555050565b6000809054906101000a900473ffffffffffffffffffffffffffffffffffffffff1673ffffffffffffffffffffffffffffffffffffffff163373ffffffffffffffffffffffffffffffffffffffff1614151561047057600080fd5b6000809054906101000a900473ffffffffffffffffffffffffffffffffffffffff1673ffffffffffffffffffffffffffffffffffffffff167ff8df31144d9c2f0f6b59d69b8b98abd5459d07f2742c4df920b25aae33c6482060405160405180910390a260008060006101000a81548173ffffffffffffffffffffffffffffffffffffffff021916908373ffffffffffffffffffffffffffffffffffffffff160217905550565b6000809054906101000a900473ffffffffffffffffffffffffffffffffffffffff1673ffffffffffffffffffffffffffffffffffffffff163373ffffffffffffffffffffffffffffffffffffffff1614151561057257600080fd5b600060149054906101000a900460ff1615151561058e57600080fd5b6001600060146101000a81548160ff0219169083151502179055507f6985a02210a168e66602d3235cb6db0e70f92b3ba4d376a33c0f3d9434bff62560405160405180910390a1565b6000809054906101000a900473ffffffffffffffffffffffffffffffffffffffff1681565b6000600154905090565b6000809054906101000a900473ffffffffffffffffffffffffffffffffffffffff1673ffffffffffffffffffffffffffffffffffffffff163373ffffffffffffffffffffffffffffffffffffffff1614151561066157600080fd5b806127108161ffff1610156106925781600060176101000a81548161ffff021916908361ffff160217905550610700565b6040517f08c379a000000000000000000000000000000000000000000000000000000000815260040180806020018281038252600c8152602001807f4e6f7420696e2072616e6765000000000000000000000000000000000000000081525060200191505060405180910390fd5b5050565b6000809054906101000a900473ffffffffffffffffffffffffffffffffffffffff1673ffffffffffffffffffffffffffffffffffffffff163373ffffffffffffffffffffffffffffffffffffffff1614151561075f57600080fd5b6107688161076b565b50565b600073ffffffffffffffffffffffffffffffffffffffff168173ffffffffffffffffffffffffffffffffffffffff16141515156107a757600080fd5b8073ffffffffffffffffffffffffffffffffffffffff166000809054906101000a900473ffffffffffffffffffffffffffffffffffffffff1673ffffffffffffffffffffffffffffffffffffffff167f8be0079c531659141344cd1fd0a4f28419497f9722a3daafe3b4186f6b6457e060405160405180910390a3806000806101000a81548173ffffffffffffffffffffffffffffffffffffffff021916908373ffffffffffffffffffffffffffffffffffffffff160217905550505600a165627a7a72305820549812032e0b7588d5322839612b72f3e844a0df9ccb81a00815b333163b79b30029",
  "source": "// SPDX-License-Identifier: MIT\r\n\r\npragma solidity ^0.4.24;\r\nimport \"openzeppelin-solidity/contracts/lifecycle/Pausable.sol\";\r\nimport \"./ERC20Helper.sol\";\r\nimport \"./IPozBenefit.sol\";\r\n\r\ncontract PozBenefit is Pausable, ERC20Helper {\r\n    constructor() public {\r\n        PozFee = 15; // *10000\r\n        PozTimer = 1000; // *10000\r\n        MinPoz = 80; // ^Token.decimals\r\n        POZ_Address = address(0x0);\r\n    }\r\n\r\n    uint16 internal PozFee; // the fee for the first part of the pool\r\n    uint16 internal PozTimer; //the timer for the first part fo the pool\r\n    uint256 internal MinPoz; //minimum ammount ofpoz to be part of the discount\r\n    address internal POZ_Address; //The address of the POZ Token\r\n\r\n    modifier PercentCheckOk(uint16 _percent) {\r\n        if (_percent < 10000) _;\r\n        else revert(\"Not in range\");\r\n    }\r\n    modifier LeftIsBigger(uint16 _left, uint16 _right){\r\n        if(_left > _right) _;\r\n        else revert(\"Not bigger\");\r\n    }\r\n\r\n    function GetPozTimer() public view returns (uint16) {\r\n        return PozTimer;\r\n    }\r\n\r\n    function SetPozTimer(uint16 _pozTimer)\r\n        public\r\n        onlyOwner\r\n        PercentCheckOk(_pozTimer)\r\n    {\r\n        PozTimer = _pozTimer;\r\n    }\r\n\r\n    function GetPOZFee() public view returns (uint16) {\r\n        return PozFee;\r\n    }\r\n\r\n    function GetMinPoz() public view returns (uint256) {\r\n        return MinPoz;\r\n    }\r\n\r\n    function SetMinPoz(uint256 _MinPoz) public onlyOwner {\r\n        MinPoz = _MinPoz;\r\n    }\r\n    //@dev Taken from interface, To join the POZ Benefit club\r\n    function IsPOZInvestor(address _investor) internal view returns (bool) {\r\n        if (POZ_Address == address(0x0)) return true;//false; // for testing stage, until got the address\r\n        return (CheckBalance(POZ_Address,_investor) >= MinPoz || IPOZBenefit(POZ_Address).IsPOZHolder(_investor));\r\n    }\r\n}\r\n",
  "sourcePath": "C:\\Users\\Administrator\\Desktop\\Code\\Poolz\\contracts\\PozBenefit.sol",
  "compiler": {
    "name": "solc",
    "version": "0.4.26+commit.4563c3fc.Emscripten.clang"
  },
  "schemaVersion": "3.2.5",
  "updatedAt": "2020-10-06T15:00:04.701Z",
  "devdoc": {
    "methods": {
      "pause()": {
        "details": "called by the owner to pause, triggers stopped state"
      },
      "renounceOwnership()": {
        "details": "Allows the current owner to relinquish control of the contract."
      },
      "transferOwnership(address)": {
        "details": "Allows the current owner to transfer control of the contract to a newOwner.",
        "params": {
          "_newOwner": "The address to transfer ownership to."
        }
      },
      "unpause()": {
        "details": "called by the owner to unpause, returns to normal state"
      }
    }
  },
  "userdoc": {
    "methods": {
      "renounceOwnership()": {
        "notice": "Renouncing to ownership will leave the contract without an owner. It will not be possible to call the functions with the `onlyOwner` modifier anymore."
      }
    }
  }
}