{
  "contractName": "ThePoolz",
  "abi": [
    {
      "constant": true,
      "inputs": [],
      "name": "MinDuration",
      "outputs": [
        {
          "name": "",
          "type": "uint256"
        }
      ],
      "payable": false,
      "stateMutability": "view",
      "type": "function"
    },
    {
      "constant": true,
      "inputs": [],
      "name": "POZ_Address",
      "outputs": [
        {
          "name": "",
          "type": "address"
        }
      ],
      "payable": false,
      "stateMutability": "view",
      "type": "function"
    },
    {
      "constant": true,
      "inputs": [],
      "name": "PozFee",
      "outputs": [
        {
          "name": "",
          "type": "uint256"
        }
      ],
      "payable": false,
      "stateMutability": "view",
      "type": "function"
    },
    {
      "constant": true,
      "inputs": [
        {
          "name": "",
          "type": "address"
        },
        {
          "name": "",
          "type": "uint256"
        }
      ],
      "name": "poolsMap",
      "outputs": [
        {
          "name": "",
          "type": "uint256"
        }
      ],
      "payable": false,
      "stateMutability": "view",
      "type": "function"
    },
    {
      "constant": true,
      "inputs": [],
      "name": "poolsCount",
      "outputs": [
        {
          "name": "",
          "type": "uint256"
        }
      ],
      "payable": false,
      "stateMutability": "view",
      "type": "function"
    },
    {
      "constant": true,
      "inputs": [],
      "name": "MinPoz",
      "outputs": [
        {
          "name": "",
          "type": "uint256"
        }
      ],
      "payable": false,
      "stateMutability": "view",
      "type": "function"
    },
    {
      "constant": true,
      "inputs": [],
      "name": "PozTimer",
      "outputs": [
        {
          "name": "",
          "type": "uint256"
        }
      ],
      "payable": false,
      "stateMutability": "view",
      "type": "function"
    },
    {
      "constant": true,
      "inputs": [
        {
          "name": "",
          "type": "uint256"
        }
      ],
      "name": "pools",
      "outputs": [
        {
          "name": "Token",
          "type": "address"
        },
        {
          "name": "Creator",
          "type": "address"
        },
        {
          "name": "FinishTime",
          "type": "uint256"
        },
        {
          "name": "Rate",
          "type": "uint256"
        },
        {
          "name": "PaymentIsETH",
          "type": "bool"
        },
        {
          "name": "StartAmount",
          "type": "uint256"
        },
        {
          "name": "IsLocked",
          "type": "bool"
        },
        {
          "name": "Lefttokens",
          "type": "uint256"
        },
        {
          "name": "StartTime",
          "type": "uint256"
        },
        {
          "name": "OpenForAll",
          "type": "uint256"
        },
        {
          "name": "UnlockedTokens",
          "type": "uint256"
        },
        {
          "name": "TookLeftOvers",
          "type": "bool"
        }
      ],
      "payable": false,
      "stateMutability": "view",
      "type": "function"
    },
    {
      "constant": true,
      "inputs": [],
      "name": "Fee",
      "outputs": [
        {
          "name": "",
          "type": "uint256"
        }
      ],
      "payable": false,
      "stateMutability": "view",
      "type": "function"
    },
    {
      "constant": true,
      "inputs": [],
      "name": "PozDiscount",
      "outputs": [
        {
          "name": "",
          "type": "uint256"
        }
      ],
      "payable": false,
      "stateMutability": "view",
      "type": "function"
    },
    {
      "constant": true,
      "inputs": [],
      "name": "Dai_Address",
      "outputs": [
        {
          "name": "",
          "type": "address"
        }
      ],
      "payable": false,
      "stateMutability": "view",
      "type": "function"
    },
    {
      "constant": true,
      "inputs": [],
      "name": "Admin",
      "outputs": [
        {
          "name": "",
          "type": "address"
        }
      ],
      "payable": false,
      "stateMutability": "view",
      "type": "function"
    },
    {
      "inputs": [],
      "payable": false,
      "stateMutability": "nonpayable",
      "type": "constructor"
    },
    {
      "payable": true,
      "stateMutability": "payable",
      "type": "fallback"
    },
    {
      "anonymous": false,
      "inputs": [
        {
          "indexed": false,
          "name": "Amount",
          "type": "uint256"
        },
        {
          "indexed": false,
          "name": "To",
          "type": "address"
        },
        {
          "indexed": false,
          "name": "Token",
          "type": "address"
        }
      ],
      "name": "TransferOut",
      "type": "event"
    },
    {
      "anonymous": false,
      "inputs": [
        {
          "indexed": false,
          "name": "Amount",
          "type": "uint256"
        },
        {
          "indexed": false,
          "name": "To",
          "type": "address"
        }
      ],
      "name": "TransferOutETH",
      "type": "event"
    },
    {
      "anonymous": false,
      "inputs": [
        {
          "indexed": false,
          "name": "Amount",
          "type": "uint256"
        },
        {
          "indexed": false,
          "name": "From",
          "type": "address"
        },
        {
          "indexed": false,
          "name": "Token",
          "type": "address"
        }
      ],
      "name": "TransferIn",
      "type": "event"
    },
    {
      "anonymous": false,
      "inputs": [
        {
          "indexed": false,
          "name": "Amount",
          "type": "uint256"
        },
        {
          "indexed": false,
          "name": "From",
          "type": "address"
        }
      ],
      "name": "TransferInETH",
      "type": "event"
    },
    {
      "anonymous": false,
      "inputs": [
        {
          "indexed": false,
          "name": "token",
          "type": "address"
        },
        {
          "indexed": false,
          "name": "id",
          "type": "uint256"
        }
      ],
      "name": "NewPool",
      "type": "event"
    },
    {
      "constant": false,
      "inputs": [
        {
          "name": "_to",
          "type": "address"
        }
      ],
      "name": "WithdrawETHFee",
      "outputs": [],
      "payable": false,
      "stateMutability": "nonpayable",
      "type": "function"
    },
    {
      "constant": false,
      "inputs": [
        {
          "name": "_newOwner",
          "type": "address"
        }
      ],
      "name": "transferOwnership",
      "outputs": [],
      "payable": false,
      "stateMutability": "nonpayable",
      "type": "function"
    },
    {
      "constant": false,
      "inputs": [
        {
          "name": "_Token",
          "type": "address"
        },
        {
          "name": "_FinishTime",
          "type": "uint256"
        },
        {
          "name": "_Rate",
          "type": "uint256"
        },
        {
          "name": "_PaymentIsETH",
          "type": "bool"
        },
        {
          "name": "_StartAmount",
          "type": "uint256"
        },
        {
          "name": "_IsLocked",
          "type": "bool"
        }
      ],
      "name": "CreatePool",
      "outputs": [],
      "payable": false,
      "stateMutability": "nonpayable",
      "type": "function"
    },
    {
      "constant": true,
      "inputs": [],
      "name": "GetMyPoolsId",
      "outputs": [
        {
          "name": "",
          "type": "uint256[]"
        }
      ],
      "payable": false,
      "stateMutability": "view",
      "type": "function"
    },
    {
      "constant": false,
      "inputs": [
        {
          "name": "_PoolId",
          "type": "uint256"
        }
      ],
      "name": "WithdrawLeftOvers",
      "outputs": [],
      "payable": false,
      "stateMutability": "nonpayable",
      "type": "function"
    },
    {
      "constant": true,
      "inputs": [
        {
          "name": "_id",
          "type": "uint256"
        }
      ],
      "name": "GetPoolData",
      "outputs": [
        {
          "name": "",
          "type": "address"
        },
        {
          "name": "",
          "type": "uint256"
        },
        {
          "name": "",
          "type": "uint256"
        },
        {
          "name": "",
          "type": "bool"
        },
        {
          "name": "",
          "type": "uint256"
        },
        {
          "name": "",
          "type": "bool"
        }
      ],
      "payable": false,
      "stateMutability": "view",
      "type": "function"
    },
    {
      "constant": true,
      "inputs": [
        {
          "name": "_id",
          "type": "uint256"
        }
      ],
      "name": "GetPoolStatus",
      "outputs": [
        {
          "name": "",
          "type": "uint8"
        }
      ],
      "payable": false,
      "stateMutability": "view",
      "type": "function"
    },
    {
      "constant": true,
      "inputs": [
        {
          "name": "_investor",
          "type": "address"
        }
      ],
      "name": "IsPozInvestor",
      "outputs": [
        {
          "name": "",
          "type": "bool"
        }
      ],
      "payable": false,
      "stateMutability": "view",
      "type": "function"
    },
    {
      "constant": false,
      "inputs": [
        {
          "name": "_PoolId",
          "type": "uint256"
        }
      ],
      "name": "InvestETH",
      "outputs": [],
      "payable": true,
      "stateMutability": "payable",
      "type": "function"
    },
    {
      "constant": false,
      "inputs": [
        {
          "name": "_id",
          "type": "uint256"
        }
      ],
      "name": "WithdrawInvestment",
      "outputs": [],
      "payable": false,
      "stateMutability": "nonpayable",
      "type": "function"
    },
    {
      "constant": true,
      "inputs": [],
      "name": "GetMyInvestmentIds",
      "outputs": [
        {
          "name": "",
          "type": "uint256[]"
        }
      ],
      "payable": false,
      "stateMutability": "view",
      "type": "function"
    }
  ],
  "bytecode": "0x608060405234801561001057600080fd5b50336000806101000a81548173ffffffffffffffffffffffffffffffffffffffff021916908373ffffffffffffffffffffffffffffffffffffffff160217905550601460018190555060116002819055506103e86003819055506104b06004819055506050600581905550600060068190555060006007819055506000600c819055506130ea806100a26000396000f300608060405260043610610133576000357c0100000000000000000000000000000000000000000000000000000000900463ffffffff1680630d08caa0146101385780630fbbab401461018757806327ca36ec146102005780632ef680a71461022b57806353eb31671461028257806356793bc7146102ad57806363552a491461030e578063837cf00e1461037a57806387e3c599146103d55780638c788de01461040257806391314dde1461042d578063991e979a14610499578063a8df42f2146104dc578063abb7add214610507578063ac4afa3814610532578063bef7a2f014610624578063ea9223a61461064f578063f04be48b146106e7578063f2fde38b14610707578063f5636c341461074a578063fc7aeeaa14610775578063fd711a55146107cc578063ff1b636d146107f9575b600080fd5b34801561014457600080fd5b5061016360048036038101908080359060200190929190505050610850565b6040518082600481111561017357fe5b60ff16815260200191505060405180910390f35b34801561019357600080fd5b506101fe600480360381019080803573ffffffffffffffffffffffffffffffffffffffff169060200190929190803590602001909291908035906020019092919080351515906020019092919080359060200190929190803515159060200190929190505050610c4e565b005b34801561020c57600080fd5b50610215611361565b6040518082815260200191505060405180910390f35b34801561023757600080fd5b50610240611367565b604051808273ffffffffffffffffffffffffffffffffffffffff1673ffffffffffffffffffffffffffffffffffffffff16815260200191505060405180910390f35b34801561028e57600080fd5b5061029761138d565b6040518082815260200191505060405180910390f35b3480156102b957600080fd5b506102f8600480360381019080803573ffffffffffffffffffffffffffffffffffffffff16906020019092919080359060200190929190505050611393565b6040518082815260200191505060405180910390f35b34801561031a57600080fd5b506103236113c3565b6040518080602001828103825283818151815260200191508051906020019060200280838360005b8381101561036657808201518184015260208101905061034b565b505050509050019250505060405180910390f35b34801561038657600080fd5b506103bb600480360381019080803573ffffffffffffffffffffffffffffffffffffffff169060200190929190505050611458565b604051808215151515815260200191505060405180910390f35b3480156103e157600080fd5b50610400600480360381019080803590602001909291905050506115e0565b005b34801561040e57600080fd5b50610417611b0a565b6040518082815260200191505060405180910390f35b34801561043957600080fd5b50610442611b10565b6040518080602001828103825283818151815260200191508051906020019060200280838360005b8381101561048557808201518184015260208101905061046a565b505050509050019250505060405180910390f35b3480156104a557600080fd5b506104da600480360381019080803573ffffffffffffffffffffffffffffffffffffffff169060200190929190505050611ba5565b005b3480156104e857600080fd5b506104f1611cca565b6040518082815260200191505060405180910390f35b34801561051357600080fd5b5061051c611cd0565b6040518082815260200191505060405180910390f35b34801561053e57600080fd5b5061055d60048036038101908080359060200190929190505050611cd6565b604051808d73ffffffffffffffffffffffffffffffffffffffff1673ffffffffffffffffffffffffffffffffffffffff1681526020018c73ffffffffffffffffffffffffffffffffffffffff1673ffffffffffffffffffffffffffffffffffffffff1681526020018b81526020018a81526020018915151515815260200188815260200187151515158152602001868152602001858152602001848152602001838152602001821515151581526020019c5050505050505050505050505060405180910390f35b34801561063057600080fd5b50610639611d9d565b6040518082815260200191505060405180910390f35b34801561065b57600080fd5b5061067a60048036038101908080359060200190929190505050611da3565b604051808773ffffffffffffffffffffffffffffffffffffffff1673ffffffffffffffffffffffffffffffffffffffff1681526020018681526020018581526020018415151515815260200183815260200182151515158152602001965050505050505060405180910390f35b61070560048036038101908080359060200190929190505050611e85565b005b34801561071357600080fd5b50610748600480360381019080803573ffffffffffffffffffffffffffffffffffffffff169060200190929190505050612abf565b005b34801561075657600080fd5b5061075f612bc6565b6040518082815260200191505060405180910390f35b34801561078157600080fd5b5061078a612bcc565b604051808273ffffffffffffffffffffffffffffffffffffffff1673ffffffffffffffffffffffffffffffffffffffff16815260200191505060405180910390f35b3480156107d857600080fd5b506107f760048036038101908080359060200190929190505050612bf2565b005b34801561080557600080fd5b5061080e612fde565b604051808273ffffffffffffffffffffffffffffffffffffffff1673ffffffffffffffffffffffffffffffffffffffff16815260200191505060405180910390f35b6000600754821015156108cb576040517f08c379a000000000000000000000000000000000000000000000000000000000815260040180806020018281038252600d8152602001807f57726f6e6720706f6f6c2069640000000000000000000000000000000000000081525060200191505060405180910390fd5b600860008381526020019081526020016000206009015442108015610906575060006008600084815260200190815260200160002060070154115b156109145760009050610c49565b60086000838152602001908152602001600020600901544210158015610950575060006008600084815260200190815260200160002060070154115b80156109715750600860008381526020019081526020016000206002015442105b1561097f5760019050610c49565b600060086000848152602001908152602001600020600701541480156109c557506008600083815260200190815260200160002060060160009054906101000a900460ff165b80156109e65750600860008381526020019081526020016000206002015442105b156109f45760029050610c49565b60006008600084815260200190815260200160002060070154148015610a3b57506008600083815260200190815260200160002060060160009054906101000a900460ff16155b15610a495760049050610c49565b60006008600084815260200190815260200160002060070154118015610a9057506008600083815260200190815260200160002060060160009054906101000a900460ff16155b8015610abd575060086000838152602001908152602001600020600b0160009054906101000a900460ff16155b15610acb5760039050610c49565b60086000838152602001908152602001600020600201544210158015610b1257506008600083815260200190815260200160002060060160009054906101000a900460ff16155b15610b525760086000838152602001908152602001600020600b0160009054906101000a900460ff1615610b495760049050610c49565b60039050610c49565b60086000838152602001908152602001600020600201544210158015610b9857506008600083815260200190815260200160002060060160009054906101000a900460ff165b15610c485760086000838152602001908152602001600020600b0160009054906101000a900460ff1680610be2575060006008600084815260200190815260200160002060070154145b8015610c31575060086000838152602001908152602001600020600a01546008600084815260200190815260200160002060070154600860008581526020019081526020016000206005015403145b15610c3f5760049050610c49565b60039050610c49565b5b919050565b6000610c5987613003565b1515610ccd576040517f08c379a00000000000000000000000000000000000000000000000000000000081526004018080602001828103825260168152602001807f4e6565642056616c696420455243323020546f6b656e0000000000000000000081525060200191505060405180910390fd5b85600654420111151515610d49576040517f08c379a000000000000000000000000000000000000000000000000000000000815260040180806020018281038252601a8152602001807f4e656564206d6f7265207468656e204d696e4475726174696f6e00000000000081525060200191505060405180910390fd5b828773ffffffffffffffffffffffffffffffffffffffff1663dd62ed3e33306040518363ffffffff167c0100000000000000000000000000000000000000000000000000000000028152600401808373ffffffffffffffffffffffffffffffffffffffff1673ffffffffffffffffffffffffffffffffffffffff1681526020018273ffffffffffffffffffffffffffffffffffffffff1673ffffffffffffffffffffffffffffffffffffffff16815260200192505050602060405180830381600087803b158015610e1957600080fd5b505af1158015610e2d573d6000803e3d6000fd5b505050506040513d6020811015610e4357600080fd5b810190808051906020019092919050505010151515610eca576040517f08c379a000000000000000000000000000000000000000000000000000000000815260040180806020018281038252601c8152602001807f4d75737420417070726f766520746865205472616e73616374696f6e0000000081525060200191505060405180910390fd5b4261271060035442890302811515610ede57fe5b04019050610180604051908101604052808873ffffffffffffffffffffffffffffffffffffffff1681526020013373ffffffffffffffffffffffffffffffffffffffff16815260200187815260200186815260200185151581526020018481526020018315158152602001848152602001428152602001828152602001600081526020016000151581525060086000600754815260200190815260200160002060008201518160000160006101000a81548173ffffffffffffffffffffffffffffffffffffffff021916908373ffffffffffffffffffffffffffffffffffffffff16021790555060208201518160010160006101000a81548173ffffffffffffffffffffffffffffffffffffffff021916908373ffffffffffffffffffffffffffffffffffffffff160217905550604082015181600201556060820151816003015560808201518160040160006101000a81548160ff02191690831515021790555060a0820151816005015560c08201518160060160006101000a81548160ff02191690831515021790555060e082015181600701556101008201518160080155610120820151816009015561014082015181600a015561016082015181600b0160006101000a81548160ff021916908315150217905550905050600960003373ffffffffffffffffffffffffffffffffffffffff1673ffffffffffffffffffffffffffffffffffffffff16815260200190815260200160002060075490806001815401808255809150509060018203906000526020600020016000909192909190915055506007600081548092919060010191905055508673ffffffffffffffffffffffffffffffffffffffff166323b872dd3330866040518463ffffffff167c0100000000000000000000000000000000000000000000000000000000028152600401808473ffffffffffffffffffffffffffffffffffffffff1673ffffffffffffffffffffffffffffffffffffffff1681526020018373ffffffffffffffffffffffffffffffffffffffff1673ffffffffffffffffffffffffffffffffffffffff1681526020018281526020019350505050602060405180830381600087803b15801561120d57600080fd5b505af1158015611221573d6000803e3d6000fd5b505050506040513d602081101561123757600080fd5b8101908080519060200190929190505050507f1fecf4702e692891a7c2f0d328779b085efb5edd094fa5558bd5cd147a167922833389604051808481526020018373ffffffffffffffffffffffffffffffffffffffff1673ffffffffffffffffffffffffffffffffffffffff1681526020018273ffffffffffffffffffffffffffffffffffffffff1673ffffffffffffffffffffffffffffffffffffffff168152602001935050505060405180910390a17fbe4222bc407cb12031595fc55b46531e46308d31e4572c9c4360d8ae790e1a3187600160075403604051808373ffffffffffffffffffffffffffffffffffffffff1673ffffffffffffffffffffffffffffffffffffffff1681526020018281526020019250505060405180910390a150505050505050565b60065481565b600a60009054906101000a900473ffffffffffffffffffffffffffffffffffffffff1681565b60025481565b6009602052816000526040600020818154811015156113ae57fe5b90600052602060002001600091509150505481565b6060600960003373ffffffffffffffffffffffffffffffffffffffff1673ffffffffffffffffffffffffffffffffffffffff16815260200190815260200160002080548060200260200160405190810160405280929190818152602001828054801561144e57602002820191906000526020600020905b81548152602001906001019080831161143a575b5050505050905090565b6000600b60009054906101000a900473ffffffffffffffffffffffffffffffffffffffff1673ffffffffffffffffffffffffffffffffffffffff16600a60009054906101000a900473ffffffffffffffffffffffffffffffffffffffff1673ffffffffffffffffffffffffffffffffffffffff1614156114db57600190506115db565b600554600a60009054906101000a900473ffffffffffffffffffffffffffffffffffffffff1673ffffffffffffffffffffffffffffffffffffffff166370a08231846040518263ffffffff167c0100000000000000000000000000000000000000000000000000000000028152600401808273ffffffffffffffffffffffffffffffffffffffff1673ffffffffffffffffffffffffffffffffffffffff168152602001915050602060405180830381600087803b15801561159b57600080fd5b505af11580156115af573d6000803e3d6000fd5b505050506040513d60208110156115c557600080fd5b8101908080519060200190929190505050101590505b919050565b600d600082815260200190815260200160002060010160009054906101000a900473ffffffffffffffffffffffffffffffffffffffff1673ffffffffffffffffffffffffffffffffffffffff163373ffffffffffffffffffffffffffffffffffffffff16148061169c57506000809054906101000a900473ffffffffffffffffffffffffffffffffffffffff1673ffffffffffffffffffffffffffffffffffffffff163373ffffffffffffffffffffffffffffffffffffffff16145b1515611736576040517f08c379a00000000000000000000000000000000000000000000000000000000081526004018080602001828103825260258152602001807f4f6e6c7920496e766573746f722063616e20576974686472617720284f72204181526020017f646d696e2900000000000000000000000000000000000000000000000000000081525060400191505060405180910390fd5b600c54811015156117af576040517f08c379a00000000000000000000000000000000000000000000000000000000081526004018080602001828103825260088152602001807f57726f6e6720696400000000000000000000000000000000000000000000000081525060200191505060405180910390fd5b6000600d60008381526020019081526020016000206004015411151561183d576040517f08c379a00000000000000000000000000000000000000000000000000000000081526004018080602001828103825260158152602001807f4e6f20746f6b656e7320746f205769746864726177000000000000000000000081525060200191505060405180910390fd5b7fe4d818e6f992efbd60db553f3edce819a199baec79a784b95c89bc8ee86f2584600d600083815260200190815260200160002060040154600d600084815260200190815260200160002060010160009054906101000a900473ffffffffffffffffffffffffffffffffffffffff1660086000600d600087815260200190815260200160002060000154815260200190815260200160002060000160009054906101000a900473ffffffffffffffffffffffffffffffffffffffff16604051808481526020018373ffffffffffffffffffffffffffffffffffffffff1673ffffffffffffffffffffffffffffffffffffffff1681526020018273ffffffffffffffffffffffffffffffffffffffff1673ffffffffffffffffffffffffffffffffffffffff168152602001935050505060405180910390a160086000600d600084815260200190815260200160002060000154815260200190815260200160002060000160009054906101000a900473ffffffffffffffffffffffffffffffffffffffff1673ffffffffffffffffffffffffffffffffffffffff1663a9059cbb600d600084815260200190815260200160002060010160009054906101000a900473ffffffffffffffffffffffffffffffffffffffff16600d6000858152602001908152602001600020600401546040518363ffffffff167c0100000000000000000000000000000000000000000000000000000000028152600401808373ffffffffffffffffffffffffffffffffffffffff1673ffffffffffffffffffffffffffffffffffffffff16815260200182815260200192505050602060405180830381600087803b158015611aaf57600080fd5b505af1158015611ac3573d6000803e3d6000fd5b505050506040513d6020811015611ad957600080fd5b8101908080519060200190929190505050506000600d60008381526020019081526020016000206004018190555050565b60075481565b6060600e60003373ffffffffffffffffffffffffffffffffffffffff1673ffffffffffffffffffffffffffffffffffffffff168152602001908152602001600020805480602002602001604051908101604052809291908181526020018280548015611b9b57602002820191906000526020600020905b815481526020019060010190808311611b87575b5050505050905090565b6000809054906101000a900473ffffffffffffffffffffffffffffffffffffffff1673ffffffffffffffffffffffffffffffffffffffff163373ffffffffffffffffffffffffffffffffffffffff16141515611c69576040517f08c379a00000000000000000000000000000000000000000000000000000000081526004018080602001828103825260178152602001807f4f6e6c792061646d696e2063616e2074616b652066656500000000000000000081525060200191505060405180910390fd5b8073ffffffffffffffffffffffffffffffffffffffff166108fc3073ffffffffffffffffffffffffffffffffffffffff16319081150290604051600060405180830381858888f19350505050158015611cc6573d6000803e3d6000fd5b5050565b60055481565b60035481565b60086020528060005260406000206000915090508060000160009054906101000a900473ffffffffffffffffffffffffffffffffffffffff16908060010160009054906101000a900473ffffffffffffffffffffffffffffffffffffffff16908060020154908060030154908060040160009054906101000a900460ff16908060050154908060060160009054906101000a900460ff169080600701549080600801549080600901549080600a01549080600b0160009054906101000a900460ff1690508c565b60015481565b6000806000806000806008600088815260200190815260200160002060010160009054906101000a900473ffffffffffffffffffffffffffffffffffffffff166008600089815260200190815260200160002060020154600860008a815260200190815260200160002060030154600860008b815260200190815260200160002060040160009054906101000a900460ff16600860008c815260200190815260200160002060050154600860008d815260200190815260200160002060060160009054906101000a900460ff1695509550955095509550955091939550919395565b60008060075483101515611f01576040517f08c379a000000000000000000000000000000000000000000000000000000000815260040180806020018281038252600d8152602001807f57726f6e6720706f6f6c2069640000000000000000000000000000000000000081525060200191505060405180910390fd5b6008600084815260200190815260200160002060040160009054906101000a900460ff161515611f99576040517f08c379a00000000000000000000000000000000000000000000000000000000081526004018080602001828103825260138152602001807f506f6f6c206973206e6f7420666f72204554480000000000000000000000000081525060200191505060405180910390fd5b600034111515612011576040517f08c379a00000000000000000000000000000000000000000000000000000000081526004018080602001828103825260128152602001807f73656e642045544820746f20696e76657374000000000000000000000000000081525060200191505060405180910390fd5b7f3a32cdd14cdfd431946dfa0b2aef5ace661340411aaadcaee6aef6738d3023263433604051808381526020018273ffffffffffffffffffffffffffffffffffffffff1673ffffffffffffffffffffffffffffffffffffffff1681526020019250505060405180910390a160c0604051908101604052808481526020013373ffffffffffffffffffffffffffffffffffffffff1681526020013481526020016120b933611458565b151581526020016000815260200142815250600d6000600c5481526020019081526020016000206000820151816000015560208201518160010160006101000a81548173ffffffffffffffffffffffffffffffffffffffff021916908373ffffffffffffffffffffffffffffffffffffffff1602179055506040820151816002015560608201518160030160006101000a81548160ff0219169083151502179055506080820151816004015560a08201518160050155905050600e60003373ffffffffffffffffffffffffffffffffffffffff1673ffffffffffffffffffffffffffffffffffffffff168152602001908152602001600020600c549080600181540180825580915050906001820390600052602060002001600090919290919091505550600c60008154809291906001019190505550612710600454620f42400360086000868152602001908152602001600020600301540281151561221b57fe5b043481151561222657fe5b04915060086000848152602001908152602001600020600301543481151561224a57fe5b0490506000600481111561225a57fe5b61226384610850565b600481111561226e57fe5b148015612280575061227f33611458565b5b80156122a2575060086000848152602001908152602001600020600701548211155b15612655578160086000858152602001908152602001600020600701600082825403925050819055506008600084815260200190815260200160002060060160009054906101000a900460ff16156123195781600d60006001600c5403815260200190815260200160002060040181905550612504565b7fe4d818e6f992efbd60db553f3edce819a199baec79a784b95c89bc8ee86f258482336008600087815260200190815260200160002060000160009054906101000a900473ffffffffffffffffffffffffffffffffffffffff16604051808481526020018373ffffffffffffffffffffffffffffffffffffffff1673ffffffffffffffffffffffffffffffffffffffff1681526020018273ffffffffffffffffffffffffffffffffffffffff1673ffffffffffffffffffffffffffffffffffffffff168152602001935050505060405180910390a16008600084815260200190815260200160002060000160009054906101000a900473ffffffffffffffffffffffffffffffffffffffff1673ffffffffffffffffffffffffffffffffffffffff1663a9059cbb33846040518363ffffffff167c0100000000000000000000000000000000000000000000000000000000028152600401808373ffffffffffffffffffffffffffffffffffffffff1673ffffffffffffffffffffffffffffffffffffffff16815260200182815260200192505050602060405180830381600087803b1580156124c757600080fd5b505af11580156124db573d6000803e3d6000fd5b505050506040513d60208110156124f157600080fd5b8101908080519060200190929190505050505b7feca5ae7bd9109b0f7d228f3f8a8cc834a1f995af62df6dc226dc3ab3f38dc7b3620f4240600254620f424003340281151561253c57fe5b046008600086815260200190815260200160002060010160009054906101000a900473ffffffffffffffffffffffffffffffffffffffff16604051808381526020018273ffffffffffffffffffffffffffffffffffffffff1673ffffffffffffffffffffffffffffffffffffffff1681526020019250505060405180910390a16008600084815260200190815260200160002060010160009054906101000a900473ffffffffffffffffffffffffffffffffffffffff1673ffffffffffffffffffffffffffffffffffffffff166108fc620f4240600254620f424003340281151561262357fe5b049081150290604051600060405180830381858888f1935050505015801561264f573d6000803e3d6000fd5b50612aba565b6001600481111561266257fe5b61266b84610850565b600481111561267657fe5b148015612699575060086000848152602001908152602001600020600701548111155b15612a4c578060086000858152602001908152602001600020600701600082825403925050819055506008600084815260200190815260200160002060060160009054906101000a900460ff16156127105780600d60006001600c54038152602001908152602001600020600401819055506128fb565b7fe4d818e6f992efbd60db553f3edce819a199baec79a784b95c89bc8ee86f258481336008600087815260200190815260200160002060000160009054906101000a900473ffffffffffffffffffffffffffffffffffffffff16604051808481526020018373ffffffffffffffffffffffffffffffffffffffff1673ffffffffffffffffffffffffffffffffffffffff1681526020018273ffffffffffffffffffffffffffffffffffffffff1673ffffffffffffffffffffffffffffffffffffffff168152602001935050505060405180910390a16008600084815260200190815260200160002060000160009054906101000a900473ffffffffffffffffffffffffffffffffffffffff1673ffffffffffffffffffffffffffffffffffffffff1663a9059cbb33836040518363ffffffff167c0100000000000000000000000000000000000000000000000000000000028152600401808373ffffffffffffffffffffffffffffffffffffffff1673ffffffffffffffffffffffffffffffffffffffff16815260200182815260200192505050602060405180830381600087803b1580156128be57600080fd5b505af11580156128d2573d6000803e3d6000fd5b505050506040513d60208110156128e857600080fd5b8101908080519060200190929190505050505b7feca5ae7bd9109b0f7d228f3f8a8cc834a1f995af62df6dc226dc3ab3f38dc7b3620f4240600154620f424003340281151561293357fe5b046008600086815260200190815260200160002060010160009054906101000a900473ffffffffffffffffffffffffffffffffffffffff16604051808381526020018273ffffffffffffffffffffffffffffffffffffffff1673ffffffffffffffffffffffffffffffffffffffff1681526020019250505060405180910390a16008600084815260200190815260200160002060010160009054906101000a900473ffffffffffffffffffffffffffffffffffffffff1673ffffffffffffffffffffffffffffffffffffffff166108fc620f4240600154620f4240033402811515612a1a57fe5b049081150290604051600060405180830381858888f19350505050158015612a46573d6000803e3d6000fd5b50612aba565b6040517f08c379a00000000000000000000000000000000000000000000000000000000081526004018080602001828103825260188152602001807f496e766573746d656e74206e6f7420636f6d706c69746564000000000000000081525060200191505060405180910390fd5b505050565b6000809054906101000a900473ffffffffffffffffffffffffffffffffffffffff1673ffffffffffffffffffffffffffffffffffffffff163373ffffffffffffffffffffffffffffffffffffffff16141515612b83576040517f08c379a00000000000000000000000000000000000000000000000000000000081526004018080602001828103825260168152602001807f4f6e6c792061646d696e2063616e20646f20746861740000000000000000000081525060200191505060405180910390fd5b806000806101000a81548173ffffffffffffffffffffffffffffffffffffffff021916908373ffffffffffffffffffffffffffffffffffffffff16021790555050565b60045481565b600b60009054906101000a900473ffffffffffffffffffffffffffffffffffffffff1681565b3373ffffffffffffffffffffffffffffffffffffffff166008600083815260200190815260200160002060010160009054906101000a900473ffffffffffffffffffffffffffffffffffffffff1673ffffffffffffffffffffffffffffffffffffffff161480612cae57503373ffffffffffffffffffffffffffffffffffffffff166000809054906101000a900473ffffffffffffffffffffffffffffffffffffffff1673ffffffffffffffffffffffffffffffffffffffff16145b1515612d48576040517f08c379a00000000000000000000000000000000000000000000000000000000081526004018080602001828103825260288152602001807f4f6e6c79207468652063726561746f722063616e20576974686472617720286f81526020017f722041646d696e2900000000000000000000000000000000000000000000000081525060400191505060405180910390fd5b42600860008381526020019081526020016000206002015410158015612d84575060006008600083815260200190815260200160002060070154115b8015612db1575060086000828152602001908152602001600020600b0160009054906101000a900460ff16155b1515612e4b576040517f08c379a00000000000000000000000000000000000000000000000000000000081526004018080602001828103825260288152602001807f57726f6e6720706f6f6c20737461747573206e6f7420656e61626c6520746f2081526020017f776974686472617700000000000000000000000000000000000000000000000081525060400191505060405180910390fd5b600160086000838152602001908152602001600020600b0160006101000a81548160ff0219169083151502179055506008600082815260200190815260200160002060000160009054906101000a900473ffffffffffffffffffffffffffffffffffffffff1673ffffffffffffffffffffffffffffffffffffffff1663a9059cbb6008600084815260200190815260200160002060010160009054906101000a900473ffffffffffffffffffffffffffffffffffffffff1660086000858152602001908152602001600020600701546040518363ffffffff167c0100000000000000000000000000000000000000000000000000000000028152600401808373ffffffffffffffffffffffffffffffffffffffff1673ffffffffffffffffffffffffffffffffffffffff16815260200182815260200192505050602060405180830381600087803b158015612f9f57600080fd5b505af1158015612fb3573d6000803e3d6000fd5b505050506040513d6020811015612fc957600080fd5b81019080805190602001909291905050505050565b6000809054906101000a900473ffffffffffffffffffffffffffffffffffffffff1681565b6000808273ffffffffffffffffffffffffffffffffffffffff166318160ddd6040518163ffffffff167c0100000000000000000000000000000000000000000000000000000000028152600401602060405180830381600087803b15801561306a57600080fd5b505af115801561307e573d6000803e3d6000fd5b505050506040513d602081101561309457600080fd5b810190808051906020019092919050505011156130b457600190506130b9565b600090505b9190505600a165627a7a723058203105ba58bddc9394d621918d15ab38d6fe4262d69478a4cc213a15416137e6530029",
  "source": "// SPDX-License-Identifier: MIT\r\npragma solidity >=0.4.22 <0.8.0;\r\n\r\nimport \"openzeppelin-solidity/contracts/token/ERC20/ERC20.sol\";\r\nimport \"openzeppelin-solidity/contracts/lifecycle/Pausable.sol\";\r\n\r\ncontract ThePoolz {\r\n    constructor() public {\r\n        Admin = msg.sender;\r\n        Fee = 20; // *10000\r\n        PozFee = 17; // *10000\r\n        PozTimer = 1000; // *10000\r\n        PozDiscount = 1200; // *10000\r\n        MinPoz = 80; // ^Token.decimals\r\n        MinDuration = 0; //need to set\r\n        poolsCount = 0; //Start with 0\r\n        //investors data\r\n        TotalInvestors = 0; // start with 0\r\n    }\r\n    event TransferOut(uint Amount, address To, address Token);\r\n    event TransferOutETH(uint Amount, address To);\r\n    event TransferIn(uint Amount, address From, address Token);\r\n    event TransferInETH(uint Amount, address From);\r\n    event NewPool(address token, uint id);\r\n\r\n\r\n    function WithdrawETHFee(address _to) public{\r\n        require(msg.sender == Admin,'Only admin can take fee');\r\n        _to.transfer(address(this).balance); // keeps only fee eth on contract\r\n    }\r\n    function transferOwnership(address _newOwner) public\r\n    {\r\n        require(msg.sender == Admin,'Only admin can do that');\r\n        Admin = _newOwner;\r\n    }\r\n    //@dev not allow contract to receive funds\r\n    function() public payable {\r\n        revert();\r\n    }\r\n    address public Admin; //only admin can change the global settings\r\n    //Global settings\r\n    uint256 public Fee; //the fee for the pool\r\n    uint256 public PozFee; // the fee for the first part of the pool\r\n    uint256 public PozTimer; //the timer for the first part fo the pool\r\n    uint256 public PozDiscount; // The discout the first part of the pool got\r\n    //address FeeWallet; //keep in contract //the wallet getting the fee\r\n    uint256 public MinPoz; //minimum ammount ofpoz to be part of the discount\r\n    uint256 public MinDuration; //the minimum duration of a pool, in seconds\r\n    enum PoolStatus {Created, Open, OutOfstock, Finished, Close} //the status of the pools\r\n    //ERC20 public ERC20Interface; // for transfering ERC20 tokens // save the last token\r\n    uint256 public poolsCount; // the is of the pool\r\n    struct Pool {\r\n        address Token; //the address of the erc20 toke for sale\r\n        address Creator; //the project owner\r\n        uint256 FinishTime; //Until what time the pool is active\r\n        uint256 Rate; //in Szabo for eth, in $/10000 cent/100\r\n        bool PaymentIsETH; // true- its ETH false - its dai\r\n        uint256 StartAmount; //The total amount of the tokens for sale\r\n        bool IsLocked; // true - the investors getting the tokens after the FinishTime. false - intant deal\r\n        uint256 Lefttokens; // the ammount of tokens left for sale\r\n        uint256 StartTime; // the time the pool open\r\n        uint256 OpenForAll; // The Time that all investors can invest\r\n        uint UnlockedTokens; //for locked pools\r\n        bool TookLeftOvers; //The Creator took the left overs after the pool finished\r\n    }\r\n\r\n    mapping(uint256 => Pool) public pools; //the id of the pool with the data\r\n    mapping(address => uint256[]) public poolsMap; //the address and all of the pools id's\r\n    //create a new pool\r\n    function CreatePool(\r\n        address _Token,\r\n        uint256 _FinishTime,\r\n        uint256 _Rate,\r\n        bool _PaymentIsETH,\r\n        uint256 _StartAmount,\r\n        bool _IsLocked\r\n    ) external {\r\n        require(IsERC20(_Token), \"Need Valid ERC20 Token\"); //check if _Token is ERC20\r\n        require(now + MinDuration <= _FinishTime, \"Need more then MinDuration\"); // check if the time is OK\r\n        require(\r\n            ERC20(_Token).allowance(msg.sender, address(this)) >= _StartAmount,\r\n            \"Must Approve the Transaction\"\r\n        );\r\n        uint256 Openforall = ((_FinishTime - block.timestamp) * PozTimer) /\r\n            10000 +\r\n            block.timestamp;\r\n        //register the pool\r\n        pools[poolsCount] = Pool(\r\n            _Token,\r\n            msg.sender,\r\n            _FinishTime,\r\n            _Rate,\r\n            _PaymentIsETH,\r\n            _StartAmount,\r\n            _IsLocked,\r\n            _StartAmount,\r\n            block.timestamp,\r\n            Openforall,\r\n            0,\r\n            false\r\n        );\r\n        poolsMap[msg.sender].push(poolsCount);\r\n        poolsCount++;\r\n        //transfer the tokens\r\n        ERC20(_Token).transferFrom(msg.sender, address(this), _StartAmount);\r\n        emit TransferIn(_StartAmount, msg.sender, _Token);\r\n        emit NewPool(_Token,poolsCount-1);\r\n    }\r\n    // Basic check if this is a erc20 token\r\n    function IsERC20(address _contractAddress) internal view returns (bool) {\r\n        if (ERC20(_contractAddress).totalSupply() > 0) return true;\r\n        return false;\r\n    }\r\n    //Give all the id's of the pools open by sender address\r\n    function GetMyPoolsId() public view returns (uint256[]) {\r\n        return poolsMap[msg.sender];\r\n    }\r\n    function WithdrawLeftOvers(uint _PoolId) external {\r\n        require(pools[_PoolId].Creator == msg.sender || Admin == msg.sender, 'Only the creator can Withdraw (or Admin)'); //or admin\r\n        require(pools[_PoolId].FinishTime >= now && pools[_PoolId].Lefttokens > 0 && !pools[_PoolId].TookLeftOvers, 'Wrong pool status not enable to withdraw'); //pool is finished + got left overs + did not took them    \r\n            pools[_PoolId].TookLeftOvers = true;\r\n            ERC20(pools[_PoolId].Token).transfer(pools[_PoolId].Creator,pools[_PoolId].Lefttokens);\r\n        //check if owner, check if finished, check if got leftovers , transfer Tokens\r\n    }\r\n    //give the full data of the pool, by id\r\n    function GetPoolData(uint256 _id)\r\n        public\r\n        view\r\n        returns (\r\n            address,\r\n            uint256,\r\n            uint256,\r\n            bool,\r\n            uint256,\r\n            bool\r\n        )\r\n    {\r\n        return (\r\n            //check if sender POZ Invester\r\n            pools[_id].Creator,\r\n            pools[_id].FinishTime,\r\n            pools[_id].Rate,\r\n            pools[_id].PaymentIsETH,\r\n            pools[_id].StartAmount,\r\n            pools[_id].IsLocked\r\n        );\r\n    }\r\n\r\n    //calculate the status of a pool - TODO\r\n    function GetPoolStatus(uint256 _id) public view returns (PoolStatus) {\r\n        require(_id < poolsCount,'Wrong pool id');\r\n        //Don't like the logic here - ToDo Boolean checks (truth table)\r\n        if (now < pools[_id].OpenForAll && pools[_id].Lefttokens > 0) { //got tokens + only poz investors\r\n            return PoolStatus.Created;\r\n        }\r\n        if (now >= pools[_id].OpenForAll && pools[_id].Lefttokens > 0 && now < pools[_id].FinishTime) { //got tokens + all investors\r\n            return PoolStatus.Open;\r\n        }\r\n        if (pools[_id].Lefttokens == 0 && pools[_id].IsLocked && now < pools[_id].FinishTime)  //no tokens on locked pool, got time \r\n        {\r\n            return PoolStatus.OutOfstock;\r\n        }\r\n        if (pools[_id].Lefttokens == 0 && !pools[_id].IsLocked) //no tokens on direct pool \r\n        {\r\n            return PoolStatus.Close;\r\n        }\r\n        if (pools[_id].Lefttokens > 0 && !pools[_id].IsLocked && !pools[_id].TookLeftOvers) { //Got left overs on direct pool\r\n            return PoolStatus.Finished;\r\n        }\r\n        if (now >= pools[_id].FinishTime && !pools[_id].IsLocked) {// After finish time - not locked\r\n           if (pools[_id].TookLeftOvers)         \r\n               return PoolStatus.Close;\r\n            return PoolStatus.Finished;      \r\n        }\r\n        if (now >= pools[_id].FinishTime && pools[_id].IsLocked) {// After finish time -  locked\r\n           if ((pools[_id].TookLeftOvers || pools[_id].Lefttokens == 0) && pools[_id].StartAmount - pools[_id].Lefttokens == pools[_id].UnlockedTokens)         \r\n               return PoolStatus.Close;\r\n            return PoolStatus.Finished;      \r\n        }\r\n\r\n    }\r\n\r\n    address public POZ_Address;\r\n    address public Dai_Address;\r\n\r\n    function IsPozInvestor(address _investor) public view returns (bool) {\r\n        if (POZ_Address == Dai_Address) return true; // for test\r\n        return (ERC20(POZ_Address).balanceOf(_investor) >= MinPoz);\r\n    }\r\n\r\n    //@dev Send in wei\r\n    function InvestETH(uint256 _PoolId) external payable   \r\n    { \r\n        require(_PoolId < poolsCount, 'Wrong pool id');\r\n        require(pools[_PoolId].PaymentIsETH,'Pool is not for ETH');\r\n        require(msg.value > 0,'send ETH to invest');\r\n        //check if Poz investor;\r\n        emit TransferInETH(msg.value,msg.sender);\r\n        Investors[TotalInvestors] = Investor(\r\n            _PoolId,\r\n            msg.sender,\r\n            msg.value,\r\n            IsPozInvestor(msg.sender),\r\n            0,\r\n            now\r\n        );\r\n        InvestorsMap[msg.sender].push(TotalInvestors);\r\n        TotalInvestors++;\r\n        uint WithDiscount = msg.value/(pools[_PoolId].Rate*(100*10000-PozDiscount)/10000);\r\n        uint TokensAmount = msg.value/pools[_PoolId].Rate;\r\n        if (\r\n            GetPoolStatus(_PoolId) == PoolStatus.Created &&\r\n            IsPozInvestor(msg.sender) &&\r\n            WithDiscount <= pools[_PoolId].Lefttokens //Got The Tokens\r\n        ) {\r\n            //Only for Poz Investor, better price\r\n            pools[_PoolId].Lefttokens-= WithDiscount;\r\n            if (pools[_PoolId].IsLocked){ // not locked, will transfer the toke          \r\n                Investors[TotalInvestors-1].TokensOwn = WithDiscount;\r\n            }\r\n            else{\r\n                emit TransferOut (WithDiscount,msg.sender,pools[_PoolId].Token);\r\n                ERC20(pools[_PoolId].Token).transfer(msg.sender,WithDiscount);\r\n            }\r\n            emit TransferOutETH (msg.value*(100*10000-PozFee)/1000000,pools[_PoolId].Creator);\r\n            pools[_PoolId].Creator.transfer(msg.value*(100*10000-PozFee)/1000000); // send money to project owner - the fee stays on contract\r\n            return;\r\n        }\r\n        if (GetPoolStatus(_PoolId) == PoolStatus.Open &&\r\n            TokensAmount <= pools[_PoolId].Lefttokens //Got The Tokens\r\n            )  {\r\n            //all can invest, no discout price\r\n            pools[_PoolId].Lefttokens-= TokensAmount;\r\n            if (pools[_PoolId].IsLocked){ // not locked, will transfer the tokens\r\n                Investors[TotalInvestors-1].TokensOwn = TokensAmount;\r\n            }\r\n            else{\r\n                emit TransferOut (TokensAmount,msg.sender,pools[_PoolId].Token);\r\n                ERC20(pools[_PoolId].Token).transfer(msg.sender,TokensAmount);\r\n            }\r\n            emit TransferOutETH (msg.value*(100*10000-Fee)/1000000,pools[_PoolId].Creator);\r\n            pools[_PoolId].Creator.transfer(msg.value*(100*10000-Fee)/1000000); // send money to project owner - the fee stays on contract\r\n            return;\r\n        }\r\n        //can't invest OutOfstock,Finished,Close // TODO - make msg\r\n        revert('Investment not complited');\r\n    }\r\n      /*  function InvestDai(uint256 _PoolId, uint _InvestedDai) external   \r\n    { \r\n        require(_PoolId < poolsCount, 'Wrong pool id');\r\n        require(!pools[_PoolId].PaymentIsETH,'Pool is not for Dia');\r\n        require(_InvestedDai > 0,'need invest more then 0');\r\n        require(ERC20(Dai_Address).allowance(msg.sender,address(this))>= _InvestedDai, 'Set allowance to invest');\r\n        //check if Poz investor;\r\n        Investors[TotalInvestors] = Investor(\r\n            _PoolId,\r\n            msg.sender,\r\n            _InvestedDai,\r\n            IsPozInvestor(msg.sender),\r\n            0,\r\n            now\r\n        );\r\n        InvestorsMap[msg.sender].push(TotalInvestors);\r\n        TotalInvestors++;\r\n        uint WithDiscount = _InvestedDai/(pools[_PoolId].Rate*(100*10000-PozDiscount)/10000);\r\n        uint TokensAmount = _InvestedDai/pools[_PoolId].Rate;\r\n        if (\r\n            GetPoolStatus(_PoolId) == PoolStatus.Created &&\r\n            IsPozInvestor(msg.sender) &&\r\n            WithDiscount <= pools[_PoolId].Lefttokens //Got The Tokens\r\n        ) {\r\n            //Only for Poz Investor, better price\r\n            pools[_PoolId].Lefttokens-= WithDiscount;\r\n            if (pools[_PoolId].IsLocked) // not locked, will transfer the tokens\r\n                Investors[TotalInvestors-1].TokensOwn = WithDiscount;\r\n            else\r\n                ERC20(pools[_PoolId].Token).transfer(msg.sender,WithDiscount);\r\n            ERC20(Dai_Address).transfer(pools[_PoolId].Creator,_InvestedDai*(100*10000-PozFee)/1000000); // send money to project owner - the fee stays on contract\r\n            return;\r\n        }\r\n        if (GetPoolStatus(_PoolId) == PoolStatus.Open &&\r\n            TokensAmount <= pools[_PoolId].Lefttokens //Got The Tokens\r\n            )  {\r\n            //all can invest, no discout price\r\n            pools[_PoolId].Lefttokens-= TokensAmount;\r\n            if (pools[_PoolId].IsLocked) // not locked, will transfer the tokens\r\n                Investors[TotalInvestors-1].TokensOwn = TokensAmount;\r\n            else\r\n                ERC20(pools[_PoolId].Token).transfer(msg.sender,TokensAmount);\r\n            ERC20(Dai_Address).transfer(pools[_PoolId].Creator,_InvestedDai*(100*10000-Fee)/1000000); // send money to project owner - the fee stays on contract\r\n            return;\r\n        }\r\n        //can't invest OutOfstock,Finished,Close // TODO - make msg\r\n        revert('Investment not complited');\r\n    }*/\r\n    function WithdrawInvestment(uint _id) public{\r\n    require(msg.sender == Investors[_id].InvestorAddress || msg.sender == Admin, 'Only Investor can Withdraw (Or Admin)');   \r\n    require(_id < TotalInvestors, 'Wrong id'); \r\n    require(Investors[_id].TokensOwn > 0, 'No tokens to Withdraw');\r\n        emit TransferOut(Investors[_id].TokensOwn,Investors[_id].InvestorAddress,pools[Investors[_id].Poolid].Token);\r\n        ERC20(pools[Investors[_id].Poolid].Token).transfer(Investors[_id].InvestorAddress,Investors[_id].TokensOwn);\r\n        Investors[_id].TokensOwn = 0 ;\r\n    }\r\n      //Give all the id's of the investment  by sender address\r\n    function GetMyInvestmentIds() public view returns (uint256[]) {\r\n        return InvestorsMap[msg.sender];\r\n    }\r\n    //Investorsr Data\r\n    uint256 TotalInvestors;\r\n    mapping(uint256 => Investor) Investors;\r\n    mapping(address => uint256[]) InvestorsMap;\r\n    struct Investor {\r\n        uint256 Poolid; //the id of the pool, he got the rate info and the token, check if looked pool\r\n        address InvestorAddress; //      \r\n        uint256 MainCoin; //the amount of the main coin invested (eth/dai), calc with rate\r\n        bool IsPozInvestor; //If the blance of the address got > MinPoz, can get discout if got early\r\n        uint TokensOwn; //the amount of Tokens the investor needto get from the contract\r\n        uint InvestTime; //the time that investment made\r\n    }\r\n} //end of ThePoolz\r\n",
  "sourcePath": "C:/Users/Administrator/Desktop/Code/Poolz/contracts/ThePoolz.sol",
  "compiler": {
    "name": "solc",
    "version": "0.4.26+commit.4563c3fc.Emscripten.clang"
  },
  "schemaVersion": "3.2.5",
  "updatedAt": "2020-09-23T13:34:33.546Z",
  "networkType": "ethereum",
  "devdoc": {
    "methods": {}
  },
  "userdoc": {
    "methods": {}
  }
}