{
  "contractName": "ThePoolzOLD",
  "abi": [
    {
      "constant": true,
      "inputs": [],
      "name": "MinDuration",
      "outputs": [
        {
          "name": "",
          "type": "uint256"
        }
      ],
      "payable": false,
      "stateMutability": "view",
      "type": "function"
    },
    {
      "constant": true,
      "inputs": [],
      "name": "POZ_Address",
      "outputs": [
        {
          "name": "",
          "type": "address"
        }
      ],
      "payable": false,
      "stateMutability": "view",
      "type": "function"
    },
    {
      "constant": true,
      "inputs": [
        {
          "name": "",
          "type": "address"
        }
      ],
      "name": "ERC20MainCoins",
      "outputs": [
        {
          "name": "",
          "type": "bool"
        }
      ],
      "payable": false,
      "stateMutability": "view",
      "type": "function"
    },
    {
      "constant": true,
      "inputs": [],
      "name": "PozFee",
      "outputs": [
        {
          "name": "",
          "type": "uint256"
        }
      ],
      "payable": false,
      "stateMutability": "view",
      "type": "function"
    },
    {
      "constant": true,
      "inputs": [
        {
          "name": "",
          "type": "address"
        },
        {
          "name": "",
          "type": "uint256"
        }
      ],
      "name": "poolsMap",
      "outputs": [
        {
          "name": "",
          "type": "uint256"
        }
      ],
      "payable": false,
      "stateMutability": "view",
      "type": "function"
    },
    {
      "constant": true,
      "inputs": [],
      "name": "poolsCount",
      "outputs": [
        {
          "name": "",
          "type": "uint256"
        }
      ],
      "payable": false,
      "stateMutability": "view",
      "type": "function"
    },
    {
      "constant": true,
      "inputs": [],
      "name": "MinPoz",
      "outputs": [
        {
          "name": "",
          "type": "uint256"
        }
      ],
      "payable": false,
      "stateMutability": "view",
      "type": "function"
    },
    {
      "constant": true,
      "inputs": [],
      "name": "PozTimer",
      "outputs": [
        {
          "name": "",
          "type": "uint256"
        }
      ],
      "payable": false,
      "stateMutability": "view",
      "type": "function"
    },
    {
      "constant": true,
      "inputs": [
        {
          "name": "",
          "type": "uint256"
        }
      ],
      "name": "pools",
      "outputs": [
        {
          "name": "Token",
          "type": "address"
        },
        {
          "name": "Creator",
          "type": "address"
        },
        {
          "name": "FinishTime",
          "type": "uint256"
        },
        {
          "name": "Rate",
          "type": "uint256"
        },
        {
          "name": "POZRate",
          "type": "uint256"
        },
        {
          "name": "Maincoin",
          "type": "address"
        },
        {
          "name": "StartAmount",
          "type": "uint256"
        },
        {
          "name": "IsLocked",
          "type": "bool"
        },
        {
          "name": "Lefttokens",
          "type": "uint256"
        },
        {
          "name": "StartTime",
          "type": "uint256"
        },
        {
          "name": "OpenForAll",
          "type": "uint256"
        },
        {
          "name": "UnlockedTokens",
          "type": "uint256"
        },
        {
          "name": "TookLeftOvers",
          "type": "bool"
        }
      ],
      "payable": false,
      "stateMutability": "view",
      "type": "function"
    },
    {
      "constant": true,
      "inputs": [],
      "name": "Fee",
      "outputs": [
        {
          "name": "",
          "type": "uint256"
        }
      ],
      "payable": false,
      "stateMutability": "view",
      "type": "function"
    },
    {
      "constant": true,
      "inputs": [],
      "name": "Admin",
      "outputs": [
        {
          "name": "",
          "type": "address"
        }
      ],
      "payable": false,
      "stateMutability": "view",
      "type": "function"
    },
    {
      "inputs": [],
      "payable": false,
      "stateMutability": "nonpayable",
      "type": "constructor"
    },
    {
      "payable": true,
      "stateMutability": "payable",
      "type": "fallback"
    },
    {
      "anonymous": false,
      "inputs": [
        {
          "indexed": false,
          "name": "Amount",
          "type": "uint256"
        },
        {
          "indexed": false,
          "name": "To",
          "type": "address"
        },
        {
          "indexed": false,
          "name": "Token",
          "type": "address"
        }
      ],
      "name": "TransferOut",
      "type": "event"
    },
    {
      "anonymous": false,
      "inputs": [
        {
          "indexed": false,
          "name": "Amount",
          "type": "uint256"
        },
        {
          "indexed": false,
          "name": "To",
          "type": "address"
        }
      ],
      "name": "TransferOutETH",
      "type": "event"
    },
    {
      "anonymous": false,
      "inputs": [
        {
          "indexed": false,
          "name": "Amount",
          "type": "uint256"
        },
        {
          "indexed": false,
          "name": "From",
          "type": "address"
        },
        {
          "indexed": false,
          "name": "Token",
          "type": "address"
        }
      ],
      "name": "TransferIn",
      "type": "event"
    },
    {
      "anonymous": false,
      "inputs": [
        {
          "indexed": false,
          "name": "Amount",
          "type": "uint256"
        },
        {
          "indexed": false,
          "name": "From",
          "type": "address"
        }
      ],
      "name": "TransferInETH",
      "type": "event"
    },
    {
      "anonymous": false,
      "inputs": [
        {
          "indexed": false,
          "name": "token",
          "type": "address"
        },
        {
          "indexed": false,
          "name": "id",
          "type": "uint256"
        }
      ],
      "name": "NewPool",
      "type": "event"
    },
    {
      "anonymous": false,
      "inputs": [
        {
          "indexed": false,
          "name": "id",
          "type": "uint256"
        }
      ],
      "name": "FinishPool",
      "type": "event"
    },
    {
      "constant": true,
      "inputs": [],
      "name": "GetLastPoolId",
      "outputs": [
        {
          "name": "",
          "type": "uint256"
        }
      ],
      "payable": false,
      "stateMutability": "view",
      "type": "function"
    },
    {
      "constant": true,
      "inputs": [],
      "name": "GetLastInvestorId",
      "outputs": [
        {
          "name": "",
          "type": "uint256"
        }
      ],
      "payable": false,
      "stateMutability": "view",
      "type": "function"
    },
    {
      "constant": false,
      "inputs": [
        {
          "name": "_to",
          "type": "address"
        }
      ],
      "name": "WithdrawETHFee",
      "outputs": [],
      "payable": false,
      "stateMutability": "nonpayable",
      "type": "function"
    },
    {
      "constant": false,
      "inputs": [
        {
          "name": "_newOwner",
          "type": "address"
        }
      ],
      "name": "transferOwnership",
      "outputs": [],
      "payable": false,
      "stateMutability": "nonpayable",
      "type": "function"
    },
    {
      "constant": false,
      "inputs": [
        {
          "name": "_token",
          "type": "address"
        }
      ],
      "name": "AddERC20Maincoin",
      "outputs": [],
      "payable": false,
      "stateMutability": "nonpayable",
      "type": "function"
    },
    {
      "constant": false,
      "inputs": [
        {
          "name": "_token",
          "type": "address"
        }
      ],
      "name": "RemoveERC20Maincoin",
      "outputs": [],
      "payable": false,
      "stateMutability": "nonpayable",
      "type": "function"
    },
    {
      "constant": true,
      "inputs": [
        {
          "name": "_token",
          "type": "address"
        }
      ],
      "name": "IsERC20Maincoin",
      "outputs": [
        {
          "name": "",
          "type": "bool"
        }
      ],
      "payable": false,
      "stateMutability": "view",
      "type": "function"
    },
    {
      "constant": false,
      "inputs": [
        {
          "name": "_Token",
          "type": "address"
        },
        {
          "name": "_FinishTime",
          "type": "uint256"
        },
        {
          "name": "_Rate",
          "type": "uint256"
        },
        {
          "name": "_POZRate",
          "type": "uint256"
        },
        {
          "name": "_StartAmount",
          "type": "uint256"
        },
        {
          "name": "_IsLocked",
          "type": "bool"
        },
        {
          "name": "_MainCoin",
          "type": "address"
        }
      ],
      "name": "CreatePool",
      "outputs": [],
      "payable": false,
      "stateMutability": "nonpayable",
      "type": "function"
    },
    {
      "constant": true,
      "inputs": [
        {
          "name": "_token",
          "type": "address"
        },
        {
          "name": "_owner",
          "type": "address"
        },
        {
          "name": "_amount",
          "type": "uint256"
        }
      ],
      "name": "TestAllownce",
      "outputs": [
        {
          "name": "",
          "type": "bool"
        }
      ],
      "payable": false,
      "stateMutability": "view",
      "type": "function"
    },
    {
      "constant": true,
      "inputs": [],
      "name": "GetMyPoolsId",
      "outputs": [
        {
          "name": "",
          "type": "uint256[]"
        }
      ],
      "payable": false,
      "stateMutability": "view",
      "type": "function"
    },
    {
      "constant": false,
      "inputs": [
        {
          "name": "_PoolId",
          "type": "uint256"
        }
      ],
      "name": "WithdrawLeftOvers",
      "outputs": [],
      "payable": false,
      "stateMutability": "nonpayable",
      "type": "function"
    },
    {
      "constant": true,
      "inputs": [
        {
          "name": "_id",
          "type": "uint256"
        }
      ],
      "name": "GetPoolData",
      "outputs": [
        {
          "name": "",
          "type": "uint8"
        },
        {
          "name": "",
          "type": "address"
        },
        {
          "name": "",
          "type": "uint256"
        },
        {
          "name": "",
          "type": "uint256"
        },
        {
          "name": "",
          "type": "address"
        },
        {
          "name": "",
          "type": "uint256"
        },
        {
          "name": "",
          "type": "uint256"
        }
      ],
      "payable": false,
      "stateMutability": "view",
      "type": "function"
    },
    {
      "constant": true,
      "inputs": [
        {
          "name": "_id",
          "type": "uint256"
        }
      ],
      "name": "GetMorePoolData",
      "outputs": [
        {
          "name": "",
          "type": "bool"
        },
        {
          "name": "",
          "type": "uint256"
        },
        {
          "name": "",
          "type": "uint256"
        },
        {
          "name": "",
          "type": "address"
        }
      ],
      "payable": false,
      "stateMutability": "view",
      "type": "function"
    },
    {
      "constant": true,
      "inputs": [
        {
          "name": "_id",
          "type": "uint256"
        }
      ],
      "name": "GetPoolStatus",
      "outputs": [
        {
          "name": "",
          "type": "uint8"
        }
      ],
      "payable": false,
      "stateMutability": "view",
      "type": "function"
    },
    {
      "constant": true,
      "inputs": [
        {
          "name": "_investor",
          "type": "address"
        }
      ],
      "name": "IsPozInvestor",
      "outputs": [
        {
          "name": "",
          "type": "bool"
        }
      ],
      "payable": false,
      "stateMutability": "view",
      "type": "function"
    },
    {
      "constant": false,
      "inputs": [
        {
          "name": "_PoolId",
          "type": "uint256"
        }
      ],
      "name": "InvestETH",
      "outputs": [],
      "payable": true,
      "stateMutability": "payable",
      "type": "function"
    },
    {
      "constant": false,
      "inputs": [
        {
          "name": "_PoolId",
          "type": "uint256"
        },
        {
          "name": "_Amount",
          "type": "uint256"
        }
      ],
      "name": "InvestERC20",
      "outputs": [],
      "payable": true,
      "stateMutability": "payable",
      "type": "function"
    },
    {
      "constant": false,
      "inputs": [
        {
          "name": "_id",
          "type": "uint256"
        }
      ],
      "name": "WithdrawInvestment",
      "outputs": [],
      "payable": false,
      "stateMutability": "nonpayable",
      "type": "function"
    },
    {
      "constant": true,
      "inputs": [],
      "name": "GetMyInvestmentIds",
      "outputs": [
        {
          "name": "",
          "type": "uint256[]"
        }
      ],
      "payable": false,
      "stateMutability": "view",
      "type": "function"
    }
  ],
  "bytecode": "0x60806040526000600a60006101000a81548173ffffffffffffffffffffffffffffffffffffffff021916908373ffffffffffffffffffffffffffffffffffffffff16021790555034801561005257600080fd5b50336000806101000a81548173ffffffffffffffffffffffffffffffffffffffff021916908373ffffffffffffffffffffffffffffffffffffffff1602179055506014600181905550600f6002819055506103e86003819055506050600481905550600060058190555060006006819055506000600b81905550614327806100db6000396000f30060806040526004361061017f576000357c0100000000000000000000000000000000000000000000000000000000900463ffffffff168062ea9216146101845780630d08caa0146101c757806321c667ed1461021657806327ca36ec1461029b5780632ef680a7146102c65780633037548a1461031d57806353eb31671461037857806356793bc7146103a357806363552a491461040457806364de14ad1461047057806366b91da91461049b578063837cf00e1461052157806387e3c5991461057c5780638c788de0146105a957806391314dde146105d4578063991e979a14610640578063a38c654914610683578063a8df42f2146106c6578063abb7add2146106f1578063ac4afa381461071c578063be33a3ec1461083d578063bef7a2f014610867578063c5053add14610892578063e8906716146108bd578063ea9223a614610918578063f04be48b146109e9578063f2fde38b14610a09578063fd711a5514610a4c578063ff02c51314610a79578063ff1b636d14610b10575b600080fd5b34801561019057600080fd5b506101c5600480360381019080803573ffffffffffffffffffffffffffffffffffffffff169060200190929190505050610b67565b005b3480156101d357600080fd5b506101f260048036038101908080359060200190929190505050610c1d565b6040518082600481111561020257fe5b60ff16815260200191505060405180910390f35b34801561022257600080fd5b50610281600480360381019080803573ffffffffffffffffffffffffffffffffffffffff169060200190929190803573ffffffffffffffffffffffffffffffffffffffff1690602001909291908035906020019092919050505061101c565b604051808215151515815260200191505060405180910390f35b3480156102a757600080fd5b506102b0611134565b6040518082815260200191505060405180910390f35b3480156102d257600080fd5b506102db61113a565b604051808273ffffffffffffffffffffffffffffffffffffffff1673ffffffffffffffffffffffffffffffffffffffff16815260200191505060405180910390f35b34801561032957600080fd5b5061035e600480360381019080803573ffffffffffffffffffffffffffffffffffffffff169060200190929190505050611160565b604051808215151515815260200191505060405180910390f35b34801561038457600080fd5b5061038d611180565b6040518082815260200191505060405180910390f35b3480156103af57600080fd5b506103ee600480360381019080803573ffffffffffffffffffffffffffffffffffffffff16906020019092919080359060200190929190505050611186565b6040518082815260200191505060405180910390f35b34801561041057600080fd5b506104196111b6565b6040518080602001828103825283818151815260200191508051906020019060200280838360005b8381101561045c578082015181840152602081019050610441565b505050509050019250505060405180910390f35b34801561047c57600080fd5b5061048561124b565b6040518082815260200191505060405180910390f35b3480156104a757600080fd5b506104c660048036038101908080359060200190929190505050611255565b60405180851515151581526020018481526020018381526020018273ffffffffffffffffffffffffffffffffffffffff1673ffffffffffffffffffffffffffffffffffffffff16815260200194505050505060405180910390f35b34801561052d57600080fd5b50610562600480360381019080803573ffffffffffffffffffffffffffffffffffffffff1690602001909291905050506112f3565b604051808215151515815260200191505060405180910390f35b34801561058857600080fd5b506105a760048036038101908080359060200190929190505050611459565b005b3480156105b557600080fd5b506105be611983565b6040518082815260200191505060405180910390f35b3480156105e057600080fd5b506105e9611989565b6040518080602001828103825283818151815260200191508051906020019060200280838360005b8381101561062c578082015181840152602081019050610611565b505050509050019250505060405180910390f35b34801561064c57600080fd5b50610681600480360381019080803573ffffffffffffffffffffffffffffffffffffffff169060200190929190505050611a1e565b005b34801561068f57600080fd5b506106c4600480360381019080803573ffffffffffffffffffffffffffffffffffffffff169060200190929190505050611b43565b005b3480156106d257600080fd5b506106db611bf9565b6040518082815260200191505060405180910390f35b3480156106fd57600080fd5b50610706611bff565b6040518082815260200191505060405180910390f35b34801561072857600080fd5b5061074760048036038101908080359060200190929190505050611c05565b604051808e73ffffffffffffffffffffffffffffffffffffffff1673ffffffffffffffffffffffffffffffffffffffff1681526020018d73ffffffffffffffffffffffffffffffffffffffff1673ffffffffffffffffffffffffffffffffffffffff1681526020018c81526020018b81526020018a81526020018973ffffffffffffffffffffffffffffffffffffffff1673ffffffffffffffffffffffffffffffffffffffff16815260200188815260200187151515158152602001868152602001858152602001848152602001838152602001821515151581526020019d505050505050505050505050505060405180910390f35b6108656004803603810190808035906020019092919080359060200190929190505050611ce5565b005b34801561087357600080fd5b5061087c6128ac565b6040518082815260200191505060405180910390f35b34801561089e57600080fd5b506108a76128b2565b6040518082815260200191505060405180910390f35b3480156108c957600080fd5b506108fe600480360381019080803573ffffffffffffffffffffffffffffffffffffffff1690602001909291905050506128bc565b604051808215151515815260200191505060405180910390f35b34801561092457600080fd5b5061094360048036038101908080359060200190929190505050612912565b6040518088600481111561095357fe5b60ff1681526020018773ffffffffffffffffffffffffffffffffffffffff1673ffffffffffffffffffffffffffffffffffffffff1681526020018681526020018581526020018473ffffffffffffffffffffffffffffffffffffffff1673ffffffffffffffffffffffffffffffffffffffff16815260200183815260200182815260200197505050505050505060405180910390f35b610a0760048036038101908080359060200190929190505050612a83565b005b348015610a1557600080fd5b50610a4a600480360381019080803573ffffffffffffffffffffffffffffffffffffffff1690602001909291905050506132e8565b005b348015610a5857600080fd5b50610a77600480360381019080803590602001909291905050506133ef565b005b348015610a8557600080fd5b50610b0e600480360381019080803573ffffffffffffffffffffffffffffffffffffffff16906020019092919080359060200190929190803590602001909291908035906020019092919080359060200190929190803515159060200190929190803573ffffffffffffffffffffffffffffffffffffffff16906020019092919050505061388d565b005b348015610b1c57600080fd5b50610b25613fe2565b604051808273ffffffffffffffffffffffffffffffffffffffff1673ffffffffffffffffffffffffffffffffffffffff16815260200191505060405180910390f35b6000809054906101000a900473ffffffffffffffffffffffffffffffffffffffff1673ffffffffffffffffffffffffffffffffffffffff163373ffffffffffffffffffffffffffffffffffffffff16141515610bc257600080fd5b6000600960008373ffffffffffffffffffffffffffffffffffffffff1673ffffffffffffffffffffffffffffffffffffffff16815260200190815260200160002060006101000a81548160ff02191690831515021790555050565b60006006548211151515610c99576040517f08c379a000000000000000000000000000000000000000000000000000000000815260040180806020018281038252600d8152602001807f57726f6e6720706f6f6c2069640000000000000000000000000000000000000081525060200191505060405180910390fd5b60076000838152602001908152602001600020600a015442108015610cd4575060006007600084815260200190815260200160002060080154115b15610ce25760009050611017565b60076000838152602001908152602001600020600a01544210158015610d1e575060006007600084815260200190815260200160002060080154115b8015610d3f5750600760008381526020019081526020016000206002015442105b15610d4d5760019050611017565b60006007600084815260200190815260200160002060080154148015610d9357506007600083815260200190815260200160002060070160009054906101000a900460ff165b8015610db45750600760008381526020019081526020016000206002015442105b15610dc25760029050611017565b60006007600084815260200190815260200160002060080154148015610e0957506007600083815260200190815260200160002060070160009054906101000a900460ff16155b15610e175760049050611017565b60006007600084815260200190815260200160002060080154118015610e5e57506007600083815260200190815260200160002060070160009054906101000a900460ff16155b8015610e8b575060076000838152602001908152602001600020600c0160009054906101000a900460ff16155b15610e995760039050611017565b60076000838152602001908152602001600020600201544210158015610ee057506007600083815260200190815260200160002060070160009054906101000a900460ff16155b15610f205760076000838152602001908152602001600020600c0160009054906101000a900460ff1615610f175760049050611017565b60039050611017565b60076000838152602001908152602001600020600201544210158015610f6657506007600083815260200190815260200160002060070160009054906101000a900460ff165b156110165760076000838152602001908152602001600020600c0160009054906101000a900460ff1680610fb0575060006007600084815260200190815260200160002060080154145b8015610fff575060076000838152602001908152602001600020600b01546007600084815260200190815260200160002060080154600760008581526020019081526020016000206006015403145b1561100d5760049050611017565b60039050611017565b5b919050565b6000818473ffffffffffffffffffffffffffffffffffffffff1663dd62ed3e85306040518363ffffffff167c0100000000000000000000000000000000000000000000000000000000028152600401808373ffffffffffffffffffffffffffffffffffffffff1673ffffffffffffffffffffffffffffffffffffffff1681526020018273ffffffffffffffffffffffffffffffffffffffff1673ffffffffffffffffffffffffffffffffffffffff16815260200192505050602060405180830381600087803b1580156110ee57600080fd5b505af1158015611102573d6000803e3d6000fd5b505050506040513d602081101561111857600080fd5b8101908080519060200190929190505050101590509392505050565b60055481565b600a60009054906101000a900473ffffffffffffffffffffffffffffffffffffffff1681565b60096020528060005260406000206000915054906101000a900460ff1681565b60025481565b6008602052816000526040600020818154811015156111a157fe5b90600052602060002001600091509150505481565b6060600860003373ffffffffffffffffffffffffffffffffffffffff1673ffffffffffffffffffffffffffffffffffffffff16815260200190815260200160002080548060200260200160405190810160405280929190818152602001828054801561124157602002820191906000526020600020905b81548152602001906001019080831161122d575b5050505050905090565b6000600b54905090565b6000806000806007600086815260200190815260200160002060070160009054906101000a900460ff16600760008781526020019081526020016000206002015460076000888152602001908152602001600020600a01546007600089815260200190815260200160002060010160009054906101000a900473ffffffffffffffffffffffffffffffffffffffff1693509350935093509193509193565b60008073ffffffffffffffffffffffffffffffffffffffff16600a60009054906101000a900473ffffffffffffffffffffffffffffffffffffffff1673ffffffffffffffffffffffffffffffffffffffff1614156113545760019050611454565b600454600a60009054906101000a900473ffffffffffffffffffffffffffffffffffffffff1673ffffffffffffffffffffffffffffffffffffffff166370a08231846040518263ffffffff167c0100000000000000000000000000000000000000000000000000000000028152600401808273ffffffffffffffffffffffffffffffffffffffff1673ffffffffffffffffffffffffffffffffffffffff168152602001915050602060405180830381600087803b15801561141457600080fd5b505af1158015611428573d6000803e3d6000fd5b505050506040513d602081101561143e57600080fd5b8101908080519060200190929190505050101590505b919050565b600c600082815260200190815260200160002060010160009054906101000a900473ffffffffffffffffffffffffffffffffffffffff1673ffffffffffffffffffffffffffffffffffffffff163373ffffffffffffffffffffffffffffffffffffffff16148061151557506000809054906101000a900473ffffffffffffffffffffffffffffffffffffffff1673ffffffffffffffffffffffffffffffffffffffff163373ffffffffffffffffffffffffffffffffffffffff16145b15156115af576040517f08c379a00000000000000000000000000000000000000000000000000000000081526004018080602001828103825260258152602001807f4f6e6c7920496e766573746f722063616e20576974686472617720284f72204181526020017f646d696e2900000000000000000000000000000000000000000000000000000081525060400191505060405180910390fd5b600b5481101515611628576040517f08c379a00000000000000000000000000000000000000000000000000000000081526004018080602001828103825260088152602001807f57726f6e6720696400000000000000000000000000000000000000000000000081525060200191505060405180910390fd5b6000600c6000838152602001908152602001600020600401541115156116b6576040517f08c379a00000000000000000000000000000000000000000000000000000000081526004018080602001828103825260158152602001807f4e6f20746f6b656e7320746f205769746864726177000000000000000000000081525060200191505060405180910390fd5b7fe4d818e6f992efbd60db553f3edce819a199baec79a784b95c89bc8ee86f2584600c600083815260200190815260200160002060040154600c600084815260200190815260200160002060010160009054906101000a900473ffffffffffffffffffffffffffffffffffffffff1660076000600c600087815260200190815260200160002060000154815260200190815260200160002060000160009054906101000a900473ffffffffffffffffffffffffffffffffffffffff16604051808481526020018373ffffffffffffffffffffffffffffffffffffffff1673ffffffffffffffffffffffffffffffffffffffff1681526020018273ffffffffffffffffffffffffffffffffffffffff1673ffffffffffffffffffffffffffffffffffffffff168152602001935050505060405180910390a160076000600c600084815260200190815260200160002060000154815260200190815260200160002060000160009054906101000a900473ffffffffffffffffffffffffffffffffffffffff1673ffffffffffffffffffffffffffffffffffffffff1663a9059cbb600c600084815260200190815260200160002060010160009054906101000a900473ffffffffffffffffffffffffffffffffffffffff16600c6000858152602001908152602001600020600401546040518363ffffffff167c0100000000000000000000000000000000000000000000000000000000028152600401808373ffffffffffffffffffffffffffffffffffffffff1673ffffffffffffffffffffffffffffffffffffffff16815260200182815260200192505050602060405180830381600087803b15801561192857600080fd5b505af115801561193c573d6000803e3d6000fd5b505050506040513d602081101561195257600080fd5b8101908080519060200190929190505050506000600c60008381526020019081526020016000206004018190555050565b60065481565b6060600d60003373ffffffffffffffffffffffffffffffffffffffff1673ffffffffffffffffffffffffffffffffffffffff168152602001908152602001600020805480602002602001604051908101604052809291908181526020018280548015611a1457602002820191906000526020600020905b815481526020019060010190808311611a00575b5050505050905090565b6000809054906101000a900473ffffffffffffffffffffffffffffffffffffffff1673ffffffffffffffffffffffffffffffffffffffff163373ffffffffffffffffffffffffffffffffffffffff16141515611ae2576040517f08c379a00000000000000000000000000000000000000000000000000000000081526004018080602001828103825260178152602001807f4f6e6c792061646d696e2063616e2074616b652066656500000000000000000081525060200191505060405180910390fd5b8073ffffffffffffffffffffffffffffffffffffffff166108fc3073ffffffffffffffffffffffffffffffffffffffff16319081150290604051600060405180830381858888f19350505050158015611b3f573d6000803e3d6000fd5b5050565b6000809054906101000a900473ffffffffffffffffffffffffffffffffffffffff1673ffffffffffffffffffffffffffffffffffffffff163373ffffffffffffffffffffffffffffffffffffffff16141515611b9e57600080fd5b6001600960008373ffffffffffffffffffffffffffffffffffffffff1673ffffffffffffffffffffffffffffffffffffffff16815260200190815260200160002060006101000a81548160ff02191690831515021790555050565b60045481565b60035481565b60076020528060005260406000206000915090508060000160009054906101000a900473ffffffffffffffffffffffffffffffffffffffff16908060010160009054906101000a900473ffffffffffffffffffffffffffffffffffffffff16908060020154908060030154908060040154908060050160009054906101000a900473ffffffffffffffffffffffffffffffffffffffff16908060060154908060070160009054906101000a900460ff169080600801549080600901549080600a01549080600b01549080600c0160009054906101000a900460ff1690508d565b600080600060065485101515611d63576040517f08c379a000000000000000000000000000000000000000000000000000000000815260040180806020018281038252600d8152602001807f57726f6e6720706f6f6c2069640000000000000000000000000000000000000081525060200191505060405180910390fd5b600073ffffffffffffffffffffffffffffffffffffffff166007600087815260200190815260200160002060050160009054906101000a900473ffffffffffffffffffffffffffffffffffffffff1673ffffffffffffffffffffffffffffffffffffffff1614151515611e3e576040517f08c379a000000000000000000000000000000000000000000000000000000000815260040180806020018281038252601d8152602001807f506f6f6c20697320666f72204554482c2075736520496e76657445544800000081525060200191505060405180910390fd5b836007600087815260200190815260200160002060050160009054906101000a900473ffffffffffffffffffffffffffffffffffffffff1673ffffffffffffffffffffffffffffffffffffffff1663dd62ed3e33306040518363ffffffff167c0100000000000000000000000000000000000000000000000000000000028152600401808373ffffffffffffffffffffffffffffffffffffffff1673ffffffffffffffffffffffffffffffffffffffff1681526020018273ffffffffffffffffffffffffffffffffffffffff1673ffffffffffffffffffffffffffffffffffffffff16815260200192505050602060405180830381600087803b158015611f4457600080fd5b505af1158015611f58573d6000803e3d6000fd5b505050506040513d6020811015611f6e57600080fd5b810190808051906020019092919050505010151515611ff5576040517f08c379a00000000000000000000000000000000000000000000000000000000081526004018080602001828103825260128152602001807f546f6b656e73206e6f74206170726f766564000000000000000000000000000081525060200191505060405180910390fd5b6127108411151561206e576040517f08c379a000000000000000000000000000000000000000000000000000000000815260040180806020018281038252601b8152602001807f4e65656420696e76657374206d6f7265207468656e203130303030000000000081525060200191505060405180910390fd5b6007600086815260200190815260200160002060050160009054906101000a900473ffffffffffffffffffffffffffffffffffffffff1673ffffffffffffffffffffffffffffffffffffffff166323b872dd3330876040518463ffffffff167c0100000000000000000000000000000000000000000000000000000000028152600401808473ffffffffffffffffffffffffffffffffffffffff1673ffffffffffffffffffffffffffffffffffffffff1681526020018373ffffffffffffffffffffffffffffffffffffffff1673ffffffffffffffffffffffffffffffffffffffff1681526020018281526020019350505050602060405180830381600087803b15801561217b57600080fd5b505af115801561218f573d6000803e3d6000fd5b505050506040513d60208110156121a557600080fd5b8101908080519060200190929190505050507f1fecf4702e692891a7c2f0d328779b085efb5edd094fa5558bd5cd147a16792284336007600089815260200190815260200160002060000160009054906101000a900473ffffffffffffffffffffffffffffffffffffffff16604051808481526020018373ffffffffffffffffffffffffffffffffffffffff1673ffffffffffffffffffffffffffffffffffffffff1681526020018273ffffffffffffffffffffffffffffffffffffffff1673ffffffffffffffffffffffffffffffffffffffff168152602001935050505060405180910390a160c0604051908101604052808681526020013373ffffffffffffffffffffffffffffffffffffffff1681526020018581526020016122c9336112f3565b151581526020016000815260200142815250600c6000600b5481526020019081526020016000206000820151816000015560208201518160010160006101000a81548173ffffffffffffffffffffffffffffffffffffffff021916908373ffffffffffffffffffffffffffffffffffffffff1602179055506040820151816002015560608201518160030160006101000a81548160ff0219169083151502179055506080820151816004015560a08201518160050155905050600d60003373ffffffffffffffffffffffffffffffffffffffff1673ffffffffffffffffffffffffffffffffffffffff168152602001908152602001600020600b549080600181540180825580915050906001820390600052602060002001600090919290919091505550600b600081548092919060010191905055506000600481111561240c57fe5b61241586610c1d565b600481111561242057fe5b1480156124325750612431336112f3565b5b8015612454575060076000868152602001908152602001600020600801548311155b156126255760076000868152602001908152602001600020600401548481151561247a57fe5b0492508260076000878152602001908152602001600020600801600082825403925050819055506007600086815260200190815260200160002060070160009054906101000a900460ff16156124f85782600c60006001600b540381526020019081526020016000206004016000828254019250508190555061253a565b6125396007600087815260200190815260200160002060000160009054906101000a900473ffffffffffffffffffffffffffffffffffffffff163385614007565b5b600254612710036127108581151561254e57fe5b040291506125c96007600087815260200190815260200160002060050160009054906101000a900473ffffffffffffffffffffffffffffffffffffffff166007600088815260200190815260200160002060010160009054906101000a900473ffffffffffffffffffffffffffffffffffffffff1684614007565b600060076000878152602001908152602001600020600801541415612620577f5aa793a17b0774b891ce2b0dd5dbe8f04132e547df384ab1053d32470050b5fa856040518082815260200191505060405180910390a15b6128a5565b6001600481111561263257fe5b61263b86610c1d565b600481111561264657fe5b148015612669575060076000868152602001908152602001600020600801548111155b156128375760076000868152602001908152602001600020600301548481151561268f57fe5b0490508060076000878152602001908152602001600020600801600082825403925050819055506007600086815260200190815260200160002060070160009054906101000a900460ff161561270d5780600c60006001600b540381526020019081526020016000206004016000828254019250508190555061274f565b61274e6007600087815260200190815260200160002060000160009054906101000a900473ffffffffffffffffffffffffffffffffffffffff163383614007565b5b6127db6007600087815260200190815260200160002060050160009054906101000a900473ffffffffffffffffffffffffffffffffffffffff166007600088815260200190815260200160002060010160009054906101000a900473ffffffffffffffffffffffffffffffffffffffff1660015461271003612710888115156127d457fe5b0402614007565b600060076000878152602001908152602001600020600801541415612832577f5aa793a17b0774b891ce2b0dd5dbe8f04132e547df384ab1053d32470050b5fa856040518082815260200191505060405180910390a15b6128a5565b6040517f08c379a00000000000000000000000000000000000000000000000000000000081526004018080602001828103825260188152602001807f496e766573746d656e74206e6f7420636f6d706c69746564000000000000000081525060200191505060405180910390fd5b5050505050565b60015481565b6000600654905090565b6000600960008373ffffffffffffffffffffffffffffffffffffffff1673ffffffffffffffffffffffffffffffffffffffff16815260200190815260200160002060009054906101000a900460ff169050919050565b60008060008060008060006006548811151515612997576040517f08c379a00000000000000000000000000000000000000000000000000000000081526004018080602001828103825260088152602001807f57726f6e6720496400000000000000000000000000000000000000000000000081525060200191505060405180910390fd5b6129a088610c1d565b600760008a815260200190815260200160002060000160009054906101000a900473ffffffffffffffffffffffffffffffffffffffff16600760008b815260200190815260200160002060030154600760008c815260200190815260200160002060040154600760008d815260200190815260200160002060050160009054906101000a900473ffffffffffffffffffffffffffffffffffffffff16600760008e815260200190815260200160002060060154600760008f8152602001908152602001600020600801549650965096509650965096509650919395979092949650565b600080600060065484101515612b01576040517f08c379a000000000000000000000000000000000000000000000000000000000815260040180806020018281038252600d8152602001807f57726f6e6720706f6f6c2069640000000000000000000000000000000000000081525060200191505060405180910390fd5b600073ffffffffffffffffffffffffffffffffffffffff166007600086815260200190815260200160002060050160009054906101000a900473ffffffffffffffffffffffffffffffffffffffff1673ffffffffffffffffffffffffffffffffffffffff16141515612bdb576040517f08c379a00000000000000000000000000000000000000000000000000000000081526004018080602001828103825260138152602001807f506f6f6c206973206e6f7420666f72204554480000000000000000000000000081525060200191505060405180910390fd5b600034111515612c53576040517f08c379a00000000000000000000000000000000000000000000000000000000081526004018080602001828103825260128152602001807f73656e642045544820746f20696e76657374000000000000000000000000000081525060200191505060405180910390fd5b61271034111515612ccc576040517f08c379a00000000000000000000000000000000000000000000000000000000081526004018080602001828103825260178152602001807f73656e64206d6f72652045544820746f20696e7665737400000000000000000081525060200191505060405180910390fd5b7f3a32cdd14cdfd431946dfa0b2aef5ace661340411aaadcaee6aef6738d3023263433604051808381526020018273ffffffffffffffffffffffffffffffffffffffff1673ffffffffffffffffffffffffffffffffffffffff1681526020019250505060405180910390a160c0604051908101604052808581526020013373ffffffffffffffffffffffffffffffffffffffff168152602001348152602001612d74336112f3565b151581526020016000815260200142815250600c6000600b5481526020019081526020016000206000820151816000015560208201518160010160006101000a81548173ffffffffffffffffffffffffffffffffffffffff021916908373ffffffffffffffffffffffffffffffffffffffff1602179055506040820151816002015560608201518160030160006101000a81548160ff0219169083151502179055506080820151816004015560a08201518160050155905050600d60003373ffffffffffffffffffffffffffffffffffffffff1673ffffffffffffffffffffffffffffffffffffffff168152602001908152602001600020600b549080600181540180825580915050906001820390600052602060002001600090919290919091505550600b6000815480929190600101919050555060006004811115612eb757fe5b612ec085610c1d565b6004811115612ecb57fe5b148015612edd5750612edc336112f3565b5b8015612eff575060076000858152602001908152602001600020600801548311155b1561309957600760008581526020019081526020016000206004015434811515612f2557fe5b0492508260076000868152602001908152602001600020600801600082825403925050819055506007600085815260200190815260200160002060070160009054906101000a900460ff1615612fa35782600c60006001600b5403815260200190815260200160002060040160008282540192505081905550612fe5565b612fe46007600086815260200190815260200160002060000160009054906101000a900473ffffffffffffffffffffffffffffffffffffffff163385614007565b5b6002546127100361271034811515612ff957fe5b0402915061303d6007600086815260200190815260200160002060010160009054906101000a900473ffffffffffffffffffffffffffffffffffffffff168361418a565b600060076000868152602001908152602001600020600801541415613094577f5aa793a17b0774b891ce2b0dd5dbe8f04132e547df384ab1053d32470050b5fa846040518082815260200191505060405180910390a15b6132e2565b600160048111156130a657fe5b6130af85610c1d565b60048111156130ba57fe5b1480156130dd575060076000858152602001908152602001600020600801548111155b156132745760076000858152602001908152602001600020600301543481151561310357fe5b0490508060076000868152602001908152602001600020600801600082825403925050819055506007600085815260200190815260200160002060070160009054906101000a900460ff16156131815780600c60006001600b54038152602001908152602001600020600401600082825401925050819055506131c3565b6131c26007600086815260200190815260200160002060000160009054906101000a900473ffffffffffffffffffffffffffffffffffffffff163383614007565b5b6132186007600086815260200190815260200160002060010160009054906101000a900473ffffffffffffffffffffffffffffffffffffffff16600154612710036127103481151561321157fe5b040261418a565b60006007600086815260200190815260200160002060080154141561326f577f5aa793a17b0774b891ce2b0dd5dbe8f04132e547df384ab1053d32470050b5fa846040518082815260200191505060405180910390a15b6132e2565b6040517f08c379a00000000000000000000000000000000000000000000000000000000081526004018080602001828103825260188152602001807f496e766573746d656e74206e6f7420636f6d706c69746564000000000000000081525060200191505060405180910390fd5b50505050565b6000809054906101000a900473ffffffffffffffffffffffffffffffffffffffff1673ffffffffffffffffffffffffffffffffffffffff163373ffffffffffffffffffffffffffffffffffffffff161415156133ac576040517f08c379a00000000000000000000000000000000000000000000000000000000081526004018080602001828103825260168152602001807f4f6e6c792061646d696e2063616e20646f20746861740000000000000000000081525060200191505060405180910390fd5b806000806101000a81548173ffffffffffffffffffffffffffffffffffffffff021916908373ffffffffffffffffffffffffffffffffffffffff16021790555050565b3373ffffffffffffffffffffffffffffffffffffffff166007600083815260200190815260200160002060010160009054906101000a900473ffffffffffffffffffffffffffffffffffffffff1673ffffffffffffffffffffffffffffffffffffffff1614806134ab57503373ffffffffffffffffffffffffffffffffffffffff166000809054906101000a900473ffffffffffffffffffffffffffffffffffffffff1673ffffffffffffffffffffffffffffffffffffffff16145b1515613545576040517f08c379a00000000000000000000000000000000000000000000000000000000081526004018080602001828103825260288152602001807f4f6e6c79207468652063726561746f722063616e20576974686472617720286f81526020017f722041646d696e2900000000000000000000000000000000000000000000000081525060400191505060405180910390fd5b426007600083815260200190815260200160002060020154111515156135d3576040517f08c379a00000000000000000000000000000000000000000000000000000000081526004018080602001828103825260128152602001807f43616e277420776974686472616520796574000000000000000000000000000081525060200191505060405180910390fd5b60006007600083815260200190815260200160002060080154111515613661576040517f08c379a00000000000000000000000000000000000000000000000000000000081526004018080602001828103825260118152602001807f4e6f74686e696720746f2077696472617700000000000000000000000000000081525060200191505060405180910390fd5b60076000828152602001908152602001600020600c0160009054906101000a900460ff161515156136fa576040517f08c379a00000000000000000000000000000000000000000000000000000000081526004018080602001828103825260168152602001807f63616e2774207769746472617720326e642074696d650000000000000000000081525060200191505060405180910390fd5b600160076000838152602001908152602001600020600c0160006101000a81548160ff0219169083151502179055506007600082815260200190815260200160002060000160009054906101000a900473ffffffffffffffffffffffffffffffffffffffff1673ffffffffffffffffffffffffffffffffffffffff1663a9059cbb6007600084815260200190815260200160002060010160009054906101000a900473ffffffffffffffffffffffffffffffffffffffff1660076000858152602001908152602001600020600801546040518363ffffffff167c0100000000000000000000000000000000000000000000000000000000028152600401808373ffffffffffffffffffffffffffffffffffffffff1673ffffffffffffffffffffffffffffffffffffffff16815260200182815260200192505050602060405180830381600087803b15801561384e57600080fd5b505af1158015613862573d6000803e3d6000fd5b505050506040513d602081101561387857600080fd5b81019080805190602001909291905050505050565b600061389888614240565b151561390c576040517f08c379a00000000000000000000000000000000000000000000000000000000081526004018080602001828103825260168152602001807f4e6565642056616c696420455243323020546f6b656e0000000000000000000081525060200191505060405180910390fd5b86600554420111151515613988576040517f08c379a000000000000000000000000000000000000000000000000000000000815260040180806020018281038252601a8152602001807f4e656564206d6f7265207468656e204d696e4475726174696f6e00000000000081525060200191505060405180910390fd5b61399388338661101c565b1515613a07576040517f08c379a000000000000000000000000000000000000000000000000000000000815260040180806020018281038252601c8152602001807f4d75737420417070726f766520746865205472616e73616374696f6e0000000081525060200191505060405180910390fd5b600073ffffffffffffffffffffffffffffffffffffffff168273ffffffffffffffffffffffffffffffffffffffff161480613a475750613a46826128bc565b5b1515613a5257600080fd5b848610151515613af0576040517f08c379a00000000000000000000000000000000000000000000000000000000081526004018080602001828103825260398152602001807f504f5a20686f6c64657273206e65656420746f2068617665206265747465722081526020017f286f72207468652073616d65203d206f6666292070726963650000000000000081525060400191505060405180910390fd5b848614613b125742612710600354428a0302811515613b0b57fe5b0401613b14565b425b90506101a0604051908101604052808973ffffffffffffffffffffffffffffffffffffffff1681526020013373ffffffffffffffffffffffffffffffffffffffff1681526020018881526020018781526020018681526020018373ffffffffffffffffffffffffffffffffffffffff1681526020018581526020018415158152602001858152602001428152602001828152602001600081526020016000151581525060076000600654815260200190815260200160002060008201518160000160006101000a81548173ffffffffffffffffffffffffffffffffffffffff021916908373ffffffffffffffffffffffffffffffffffffffff16021790555060208201518160010160006101000a81548173ffffffffffffffffffffffffffffffffffffffff021916908373ffffffffffffffffffffffffffffffffffffffff16021790555060408201518160020155606082015181600301556080820151816004015560a08201518160050160006101000a81548173ffffffffffffffffffffffffffffffffffffffff021916908373ffffffffffffffffffffffffffffffffffffffff16021790555060c0820151816006015560e08201518160070160006101000a81548160ff0219169083151502179055506101008201518160080155610120820151816009015561014082015181600a015561016082015181600b015561018082015181600c0160006101000a81548160ff021916908315150217905550905050600860003373ffffffffffffffffffffffffffffffffffffffff1673ffffffffffffffffffffffffffffffffffffffff16815260200190815260200160002060065490806001815401808255809150509060018203906000526020600020016000909192909190915055506006600081548092919060010191905055508773ffffffffffffffffffffffffffffffffffffffff166323b872dd3330876040518463ffffffff167c0100000000000000000000000000000000000000000000000000000000028152600401808473ffffffffffffffffffffffffffffffffffffffff1673ffffffffffffffffffffffffffffffffffffffff1681526020018373ffffffffffffffffffffffffffffffffffffffff1673ffffffffffffffffffffffffffffffffffffffff1681526020018281526020019350505050602060405180830381600087803b158015613e8d57600080fd5b505af1158015613ea1573d6000803e3d6000fd5b505050506040513d6020811015613eb757600080fd5b8101908080519060200190929190505050507f1fecf4702e692891a7c2f0d328779b085efb5edd094fa5558bd5cd147a16792284338a604051808481526020018373ffffffffffffffffffffffffffffffffffffffff1673ffffffffffffffffffffffffffffffffffffffff1681526020018273ffffffffffffffffffffffffffffffffffffffff1673ffffffffffffffffffffffffffffffffffffffff168152602001935050505060405180910390a17fbe4222bc407cb12031595fc55b46531e46308d31e4572c9c4360d8ae790e1a3188600160065403604051808373ffffffffffffffffffffffffffffffffffffffff1673ffffffffffffffffffffffffffffffffffffffff1681526020018281526020019250505060405180910390a15050505050505050565b6000809054906101000a900473ffffffffffffffffffffffffffffffffffffffff1681565b7fe4d818e6f992efbd60db553f3edce819a199baec79a784b95c89bc8ee86f2584818385604051808481526020018373ffffffffffffffffffffffffffffffffffffffff1673ffffffffffffffffffffffffffffffffffffffff1681526020018273ffffffffffffffffffffffffffffffffffffffff1673ffffffffffffffffffffffffffffffffffffffff168152602001935050505060405180910390a18273ffffffffffffffffffffffffffffffffffffffff1663a9059cbb83836040518363ffffffff167c0100000000000000000000000000000000000000000000000000000000028152600401808373ffffffffffffffffffffffffffffffffffffffff1673ffffffffffffffffffffffffffffffffffffffff16815260200182815260200192505050602060405180830381600087803b15801561414957600080fd5b505af115801561415d573d6000803e3d6000fd5b505050506040513d602081101561417357600080fd5b810190808051906020019092919050505050505050565b7feca5ae7bd9109b0f7d228f3f8a8cc834a1f995af62df6dc226dc3ab3f38dc7b38183604051808381526020018273ffffffffffffffffffffffffffffffffffffffff1673ffffffffffffffffffffffffffffffffffffffff1681526020019250505060405180910390a18173ffffffffffffffffffffffffffffffffffffffff166108fc829081150290604051600060405180830381858888f1935050505015801561423b573d6000803e3d6000fd5b505050565b6000808273ffffffffffffffffffffffffffffffffffffffff166318160ddd6040518163ffffffff167c0100000000000000000000000000000000000000000000000000000000028152600401602060405180830381600087803b1580156142a757600080fd5b505af11580156142bb573d6000803e3d6000fd5b505050506040513d60208110156142d157600080fd5b810190808051906020019092919050505011156142f157600190506142f6565b600090505b9190505600a165627a7a723058200fa42925ea4a8e672981de2ef74789b2bb9fc0608a77135be86e549d0fad8b830029",
  "source": "// SPDX-License-Identifier: MIT\r\npragma solidity ^0.4.24;\r\n\r\nimport \"openzeppelin-solidity/contracts/token/ERC20/ERC20.sol\";\r\n\r\ncontract ThePoolzOLD {\r\n    constructor() public {\r\n        Admin = msg.sender;\r\n        Fee = 20; // *10000\r\n        PozFee = 15; // *10000\r\n        PozTimer = 1000; // *10000\r\n        MinPoz = 80; // ^Token.decimals\r\n        MinDuration = 0; //need to set\r\n        poolsCount = 0; //Start with 0\r\n        //investors data\r\n        TotalInvestors = 0; // start with 0\r\n    }\r\n\r\n    event TransferOut(uint256 Amount, address To, address Token);\r\n    event TransferOutETH(uint256 Amount, address To);\r\n    event TransferIn(uint256 Amount, address From, address Token);\r\n    event TransferInETH(uint256 Amount, address From);\r\n    event NewPool(address token, uint256 id);\r\n    event FinishPool(uint256 id);\r\n\r\n    //event testing(uint256 amount); //will remove later\r\n\r\n    function GetLastPoolId() public view returns (uint256) {\r\n        return poolsCount;\r\n    }\r\n\r\n    function GetLastInvestorId() public view returns (uint256) {\r\n        return TotalInvestors;\r\n    }\r\n\r\n    function WithdrawETHFee(address _to) public {\r\n        require(msg.sender == Admin, \"Only admin can take fee\");\r\n        _to.transfer(address(this).balance); // keeps only fee eth on contract //To Do need to take 16% to burn!!!\r\n    }\r\n\r\n    function transferOwnership(address _newOwner) public {\r\n        require(msg.sender == Admin, \"Only admin can do that\");\r\n        Admin = _newOwner;\r\n    }\r\n\r\n    //@dev not allow contract to receive funds\r\n    function() public payable {\r\n        revert();\r\n    }\r\n\r\n    address public Admin; //only admin can change the global settings\r\n    //Global settings\r\n    uint256 public Fee; //the fee for the pool\r\n    uint256 public PozFee; // the fee for the first part of the pool\r\n    uint256 public PozTimer; //the timer for the first part fo the pool\r\n    //uint256 public PozDiscount; // The discout the first part of the pool got //*Moved inside the Pool, can select on create */\r\n    //address FeeWallet; //keep in contract //the wallet getting the fee\r\n    uint256 public MinPoz; //minimum ammount ofpoz to be part of the discount\r\n    uint256 public MinDuration; //the minimum duration of a pool, in seconds\r\n    enum PoolStatus {Created, Open, OutOfstock, Finished, Close} //the status of the pools\r\n    //ERC20 public ERC20Interface; // for transfering ERC20 tokens // save the last token\r\n    uint256 public poolsCount; // the ids of the pool\r\n    struct Pool {\r\n        address Token; //the address of the erc20 toke for sale\r\n        address Creator; //the project owner\r\n        uint256 FinishTime; //Until what time the pool is active\r\n        uint256 Rate; //for eth Wei, in token, by the decemal. the cost of 1 token\r\n        uint256 POZRate; //the rate for the until OpenForAll, if the same as Rate , OpenForAll = StartTime .\r\n        address Maincoin; // on adress.zero = ETH\r\n        uint256 StartAmount; //The total amount of the tokens for sale\r\n        bool IsLocked; // true - the investors getting the tokens after the FinishTime. false - intant deal\r\n        uint256 Lefttokens; // the ammount of tokens left for sale\r\n        uint256 StartTime; // the time the pool open //TODO Maybe Delete this?\r\n        uint256 OpenForAll; // The Time that all investors can invest\r\n        uint256 UnlockedTokens; //for locked pools\r\n        bool TookLeftOvers; //The Creator took the left overs after the pool finished\r\n    }\r\n\r\n    mapping(uint256 => Pool) public pools; //the id of the pool with the data\r\n    mapping(address => uint256[]) public poolsMap; //the address and all of the pools id's\r\n    mapping(address => bool) public ERC20MainCoins; //when approve new erc20 main coin - it will list here\r\n\r\n    function AddERC20Maincoin(address _token) public {\r\n        require(msg.sender == Admin);\r\n        ERC20MainCoins[_token] = true;\r\n    }\r\n\r\n    function RemoveERC20Maincoin(address _token) public {\r\n        require(msg.sender == Admin);\r\n        ERC20MainCoins[_token] = false;\r\n    }\r\n\r\n    function IsERC20Maincoin(address _token) public view returns (bool) {\r\n        return ERC20MainCoins[_token];\r\n    }\r\n\r\n    //create a new pool\r\n    function CreatePool(\r\n        address _Token, //token to sell address\r\n        uint256 _FinishTime, //Until what time the pool will work\r\n        uint256 _Rate, //the rate of the trade\r\n        uint256 _POZRate, //the rate for POZ Holders\r\n        uint256 _StartAmount, //Total amount of the tokens to sell in the pool\r\n        bool _IsLocked, //False = DSP or True = TLP\r\n        address _MainCoin // address(0x0) = ETH, address of main token\r\n    ) external {\r\n        require(IsERC20(_Token), \"Need Valid ERC20 Token\"); //check if _Token is ERC20\r\n        require(now + MinDuration <= _FinishTime, \"Need more then MinDuration\"); // check if the time is OK\r\n        require(\r\n            TestAllownce(_Token, msg.sender, _StartAmount),\r\n            \"Must Approve the Transaction\"\r\n        );\r\n        require(_MainCoin == address(0x0) || IsERC20Maincoin(_MainCoin));\r\n        require(\r\n            _Rate >= _POZRate,\r\n            \"POZ holders need to have better (or the same = off) price\"\r\n        );\r\n        uint256 Openforall = (_Rate == _POZRate)\r\n            ? block.timestamp\r\n            : ((_FinishTime - block.timestamp) * PozTimer) /\r\n                10000 +\r\n                block.timestamp;\r\n        //register the pool\r\n        pools[poolsCount] = Pool(\r\n            _Token,\r\n            msg.sender,\r\n            _FinishTime,\r\n            _Rate,\r\n            _POZRate,\r\n            _MainCoin,\r\n            _StartAmount,\r\n            _IsLocked,\r\n            _StartAmount,\r\n            block.timestamp,\r\n            Openforall,\r\n            0,\r\n            false\r\n        );\r\n        poolsMap[msg.sender].push(poolsCount);\r\n        poolsCount++;\r\n        //transfer the tokens\r\n        ERC20(_Token).transferFrom(msg.sender, address(this), _StartAmount);\r\n        emit TransferIn(_StartAmount, msg.sender, _Token);\r\n        emit NewPool(_Token, poolsCount - 1);\r\n    }\r\n\r\n    function TestAllownce(\r\n        address _token,\r\n        address _owner,\r\n        uint256 _amount\r\n    ) public view returns (bool) {\r\n        return ERC20(_token).allowance(_owner, address(this)) >= _amount;\r\n    }\r\n\r\n    // Basic check if this is a erc20 token\r\n    function IsERC20(address _contractAddress) internal view returns (bool) {\r\n        if (ERC20(_contractAddress).totalSupply() > 0) return true;\r\n        return false;\r\n    }\r\n\r\n    //Give all the id's of the pools open by sender address\r\n    function GetMyPoolsId() public view returns (uint256[]) {\r\n        return poolsMap[msg.sender];\r\n    }\r\n\r\n    function WithdrawLeftOvers(uint256 _PoolId) external {\r\n        require(\r\n            pools[_PoolId].Creator == msg.sender || Admin == msg.sender,\r\n            \"Only the creator can Withdraw (or Admin)\"\r\n        ); //or admin\r\n        require(pools[_PoolId].FinishTime <= now, \"Can't withdrae yet\");\r\n        require(pools[_PoolId].Lefttokens > 0, \"Nothnig to widraw\");\r\n        require(!pools[_PoolId].TookLeftOvers, \"can't witdraw 2nd time\");\r\n        //pool is finished + got left overs + did not took them\r\n        pools[_PoolId].TookLeftOvers = true;\r\n        ERC20(pools[_PoolId].Token).transfer(\r\n            pools[_PoolId].Creator,\r\n            pools[_PoolId].Lefttokens\r\n        );\r\n        //check if owner, check if finished, check if got leftovers , transfer Tokens\r\n    }\r\n\r\n    //give the data of the pool, by id\r\n    function GetPoolData(uint256 _id)\r\n        public\r\n        view\r\n        returns (\r\n            PoolStatus,\r\n            address,\r\n            uint256,\r\n            uint256,\r\n            address,\r\n            uint256,\r\n            uint256\r\n        )\r\n    {\r\n        require(_id <= poolsCount, \"Wrong Id\");\r\n        return (\r\n            //check if sender POZ Invester?\r\n            GetPoolStatus(_id),\r\n            pools[_id].Token,\r\n            pools[_id].Rate,\r\n            pools[_id].POZRate,\r\n            pools[_id].Maincoin, //incase of ETH will be address.zero\r\n            pools[_id].StartAmount,\r\n            pools[_id].Lefttokens\r\n        );\r\n    }\r\n\r\n    function GetMorePoolData(uint256 _id)\r\n        public\r\n        view\r\n        returns (\r\n            bool,\r\n            uint256,\r\n            uint256,\r\n            address\r\n        )\r\n    {\r\n        return (\r\n            pools[_id].IsLocked,\r\n            pools[_id].FinishTime,\r\n            pools[_id].OpenForAll,\r\n            pools[_id].Creator\r\n        );\r\n    }\r\n\r\n    //calculate the status of a pool - TODO\r\n    function GetPoolStatus(uint256 _id) public view returns (PoolStatus) {\r\n        require(_id <= poolsCount, \"Wrong pool id\");\r\n        //Don't like the logic here - ToDo Boolean checks (truth table)\r\n        if (now < pools[_id].OpenForAll && pools[_id].Lefttokens > 0) {\r\n            //got tokens + only poz investors\r\n            return PoolStatus.Created;\r\n        }\r\n        if (\r\n            now >= pools[_id].OpenForAll &&\r\n            pools[_id].Lefttokens > 0 &&\r\n            now < pools[_id].FinishTime\r\n        ) {\r\n            //got tokens + all investors\r\n            return PoolStatus.Open;\r\n        }\r\n        if (\r\n            pools[_id].Lefttokens == 0 &&\r\n            pools[_id].IsLocked &&\r\n            now < pools[_id].FinishTime\r\n        ) //no tokens on locked pool, got time\r\n        {\r\n            return PoolStatus.OutOfstock;\r\n        }\r\n        if (\r\n            pools[_id].Lefttokens == 0 && !pools[_id].IsLocked\r\n        ) //no tokens on direct pool\r\n        {\r\n            return PoolStatus.Close;\r\n        }\r\n        if (\r\n            pools[_id].Lefttokens > 0 &&\r\n            !pools[_id].IsLocked &&\r\n            !pools[_id].TookLeftOvers\r\n        ) {\r\n            //Got left overs on direct pool\r\n            return PoolStatus.Finished;\r\n        }\r\n        if (now >= pools[_id].FinishTime && !pools[_id].IsLocked) {\r\n            // After finish time - not locked\r\n            if (pools[_id].TookLeftOvers) return PoolStatus.Close;\r\n            return PoolStatus.Finished;\r\n        }\r\n        if (now >= pools[_id].FinishTime && pools[_id].IsLocked) {\r\n            // After finish time -  locked\r\n            if (\r\n                (pools[_id].TookLeftOvers || pools[_id].Lefttokens == 0) &&\r\n                pools[_id].StartAmount - pools[_id].Lefttokens ==\r\n                pools[_id].UnlockedTokens\r\n            ) return PoolStatus.Close;\r\n            return PoolStatus.Finished;\r\n        }\r\n    }\r\n\r\n    address public POZ_Address = address(0x0);\r\n\r\n    function IsPozInvestor(address _investor) public view returns (bool) {\r\n        if (POZ_Address == address(0x0)) return true; // for test\r\n        return (ERC20(POZ_Address).balanceOf(_investor) >= MinPoz);\r\n    }\r\n    //@dev Send in wei\r\n    function InvestETH(uint256 _PoolId) external payable {\r\n        require(_PoolId < poolsCount, \"Wrong pool id\");\r\n        require(pools[_PoolId].Maincoin == address(0x0), \"Pool is not for ETH\");\r\n        require(msg.value > 0, \"send ETH to invest\");\r\n        require(msg.value > 10000, \"send more ETH to invest\");\r\n        //check if Poz investor;\r\n        emit TransferInETH(msg.value, msg.sender);\r\n        Investors[TotalInvestors] = Investor(\r\n            _PoolId,\r\n            msg.sender,\r\n            msg.value,\r\n            IsPozInvestor(msg.sender),\r\n            0,\r\n            block.timestamp\r\n        );\r\n        InvestorsMap[msg.sender].push(TotalInvestors);\r\n        TotalInvestors++;\r\n        if (\r\n            GetPoolStatus(_PoolId) == PoolStatus.Created &&\r\n            IsPozInvestor(msg.sender) &&\r\n            WithDiscount <= pools[_PoolId].Lefttokens //Got The Tokens\r\n        ) {\r\n            uint256 WithDiscount = msg.value / pools[_PoolId].POZRate;\r\n            //Only for Poz Investor, better price\r\n            pools[_PoolId].Lefttokens -= WithDiscount;\r\n            if (pools[_PoolId].IsLocked) {\r\n                Investors[TotalInvestors - 1].TokensOwn += WithDiscount;\r\n            } else {\r\n                // not locked, will transfer the toke\r\n                TransferToken(pools[_PoolId].Token, msg.sender, WithDiscount);\r\n            }\r\n            uint256 EthMinusFee = (msg.value / 10000) * (10000 - PozFee);\r\n            TransferETH(\r\n                pools[_PoolId].Creator,\r\n                EthMinusFee\r\n            ); // send money to project owner - the fee stays on contract\r\n            if (pools[_PoolId].Lefttokens == 0) emit FinishPool(_PoolId);\r\n            return;\r\n        }\r\n        if (\r\n            GetPoolStatus(_PoolId) == PoolStatus.Open &&\r\n            TokensAmount <= pools[_PoolId].Lefttokens //Got The Tokens\r\n        ) {\r\n            uint256 TokensAmount = msg.value / pools[_PoolId].Rate;\r\n            //all can invest, no discout price\r\n            pools[_PoolId].Lefttokens -= TokensAmount;\r\n            if (pools[_PoolId].IsLocked) {\r\n                Investors[TotalInvestors - 1].TokensOwn += TokensAmount;\r\n            } else {\r\n                // not locked, will transfer the tokens\r\n                TransferToken(pools[_PoolId].Token, msg.sender, TokensAmount);\r\n            }\r\n            TransferETH(\r\n                pools[_PoolId].Creator,\r\n                (msg.value / 10000) * (10000 - Fee)\r\n            ); // send money to project owner - the fee stays on contract\r\n            if (pools[_PoolId].Lefttokens == 0) emit FinishPool(_PoolId);\r\n            return;\r\n        }\r\n        //can't invest OutOfstock,Finished,Close // TODO - make msg\r\n        revert(\"Investment not complited\");\r\n    }\r\n    function TransferToken(\r\n        address _Token,\r\n        address _Reciver,\r\n        uint256 _ammount\r\n    ) internal {\r\n        emit TransferOut(_ammount, _Reciver, _Token);\r\n        ERC20(_Token).transfer(_Reciver, _ammount);\r\n    }\r\n\r\n    function TransferETH(address _Reciver, uint256 _ammount) internal {\r\n        emit TransferOutETH(_ammount, _Reciver);\r\n        _Reciver.transfer(_ammount);\r\n    }\r\n\r\n    function InvestERC20(uint256 _PoolId,uint _Amount) external payable {\r\n        require(_PoolId < poolsCount, \"Wrong pool id\");\r\n        require(pools[_PoolId].Maincoin != address(0x0), \"Pool is for ETH, use InvetETH\");\r\n        require(ERC20(pools[_PoolId].Maincoin).allowance(msg.sender,address(this)) >= _Amount, \"Tokens not aproved\");\r\n        require(_Amount > 10000, \"Need invest more then 10000\");\r\n        ERC20(pools[_PoolId].Maincoin).transferFrom(msg.sender,address(this),_Amount);\r\n        emit TransferIn(_Amount, msg.sender, pools[_PoolId].Token);\r\n        Investors[TotalInvestors] = Investor(\r\n            _PoolId,\r\n            msg.sender,\r\n            _Amount,\r\n            IsPozInvestor(msg.sender),\r\n            0,\r\n            block.timestamp\r\n        );\r\n        InvestorsMap[msg.sender].push(TotalInvestors);\r\n        TotalInvestors++;\r\n        if (\r\n            GetPoolStatus(_PoolId) == PoolStatus.Created &&\r\n            IsPozInvestor(msg.sender) &&        //check if Poz investor;\r\n            WithDiscount <= pools[_PoolId].Lefttokens //Got The Tokens\r\n        ) {\r\n            uint256 WithDiscount = _Amount / pools[_PoolId].POZRate;\r\n            //Only for Poz Investor, better price\r\n            pools[_PoolId].Lefttokens -= WithDiscount;\r\n            if (pools[_PoolId].IsLocked) {\r\n                Investors[TotalInvestors - 1].TokensOwn += WithDiscount;\r\n            } else {\r\n                // not locked, will transfer the toke\r\n                TransferToken(pools[_PoolId].Token, msg.sender, WithDiscount);\r\n            }\r\n            uint256 EthMinusFee = (_Amount / 10000) * (10000 - PozFee);\r\n            TransferToken(\r\n                pools[_PoolId].Maincoin,\r\n                pools[_PoolId].Creator,\r\n                EthMinusFee\r\n            ); // send money to project owner - the fee stays on contract\r\n            if (pools[_PoolId].Lefttokens == 0) emit FinishPool(_PoolId);\r\n            return;\r\n        }\r\n        if (\r\n            GetPoolStatus(_PoolId) == PoolStatus.Open &&\r\n            TokensAmount <= pools[_PoolId].Lefttokens //Got The Tokens\r\n        ) {\r\n            uint256 TokensAmount = _Amount / pools[_PoolId].Rate;\r\n            //all can invest, no discout price\r\n            pools[_PoolId].Lefttokens -= TokensAmount;\r\n            if (pools[_PoolId].IsLocked) {\r\n                Investors[TotalInvestors - 1].TokensOwn += TokensAmount;\r\n            } else {\r\n                // not locked, will transfer the tokens\r\n                TransferToken(pools[_PoolId].Token, msg.sender, TokensAmount);             \r\n            }\r\n            TransferToken(pools[_PoolId].Maincoin,pools[_PoolId].Creator,(_Amount / 10000) * (10000 - Fee)); // send money to project owner - the fee stays on contract\r\n            if (pools[_PoolId].Lefttokens == 0) emit FinishPool(_PoolId);\r\n            return;\r\n        }\r\n        //can't invest OutOfstock,Finished,Close // TODO - make msg\r\n        revert(\"Investment not complited\");\r\n    }\r\n\r\n    function WithdrawInvestment(uint256 _id) public {\r\n        require(\r\n            msg.sender == Investors[_id].InvestorAddress || msg.sender == Admin,\r\n            \"Only Investor can Withdraw (Or Admin)\"\r\n        );\r\n        require(_id < TotalInvestors, \"Wrong id\");\r\n        require(Investors[_id].TokensOwn > 0, \"No tokens to Withdraw\");\r\n        emit TransferOut(\r\n            Investors[_id].TokensOwn,\r\n            Investors[_id].InvestorAddress,\r\n            pools[Investors[_id].Poolid].Token\r\n        );\r\n        ERC20(pools[Investors[_id].Poolid].Token).transfer(\r\n            Investors[_id].InvestorAddress,\r\n            Investors[_id].TokensOwn\r\n        );\r\n        Investors[_id].TokensOwn = 0;\r\n    }\r\n\r\n    //Give all the id's of the investment  by sender address\r\n    function GetMyInvestmentIds() public view returns (uint256[]) {\r\n        return InvestorsMap[msg.sender];\r\n    }\r\n\r\n    //Investorsr Data\r\n    uint256 TotalInvestors;\r\n    mapping(uint256 => Investor) Investors;\r\n    mapping(address => uint256[]) InvestorsMap;\r\n    struct Investor {\r\n        uint256 Poolid; //the id of the pool, he got the rate info and the token, check if looked pool\r\n        address InvestorAddress; //\r\n        uint256 MainCoin; //the amount of the main coin invested (eth/dai), calc with rate\r\n        bool IsPozInvestor; //If the blance of the address got > MinPoz, can get discout if got early\r\n        uint256 TokensOwn; //the amount of Tokens the investor needto get from the contract\r\n        uint256 InvestTime; //the time that investment made\r\n    }\r\n} //end of ThePoolz\r\n",
  "sourcePath": "C:/Users/Administrator/Desktop/Code/Poolz/contracts/MVP/ThePoolzOLD.sol",
  "compiler": {
    "name": "solc",
    "version": "0.4.26+commit.4563c3fc.Emscripten.clang"
  },
  "schemaVersion": "3.2.5",
  "updatedAt": "2020-10-04T14:23:31.031Z",
  "devdoc": {
    "methods": {}
  },
  "userdoc": {
    "methods": {}
  }
}