{
  "contractName": "ThePoolz",
  "abi": [
    {
      "constant": true,
      "inputs": [],
      "name": "MinDuration",
      "outputs": [
        {
          "name": "",
          "type": "uint256"
        }
      ],
      "payable": false,
      "stateMutability": "view",
      "type": "function"
    },
    {
      "constant": true,
      "inputs": [],
      "name": "POZ_Address",
      "outputs": [
        {
          "name": "",
          "type": "address"
        }
      ],
      "payable": false,
      "stateMutability": "view",
      "type": "function"
    },
    {
      "constant": true,
      "inputs": [
        {
          "name": "",
          "type": "address"
        }
      ],
      "name": "ERC20MainCoins",
      "outputs": [
        {
          "name": "",
          "type": "bool"
        }
      ],
      "payable": false,
      "stateMutability": "view",
      "type": "function"
    },
    {
      "constant": true,
      "inputs": [],
      "name": "PozFee",
      "outputs": [
        {
          "name": "",
          "type": "uint256"
        }
      ],
      "payable": false,
      "stateMutability": "view",
      "type": "function"
    },
    {
      "constant": true,
      "inputs": [
        {
          "name": "",
          "type": "address"
        },
        {
          "name": "",
          "type": "uint256"
        }
      ],
      "name": "poolsMap",
      "outputs": [
        {
          "name": "",
          "type": "uint256"
        }
      ],
      "payable": false,
      "stateMutability": "view",
      "type": "function"
    },
    {
      "constant": true,
      "inputs": [],
      "name": "poolsCount",
      "outputs": [
        {
          "name": "",
          "type": "uint256"
        }
      ],
      "payable": false,
      "stateMutability": "view",
      "type": "function"
    },
    {
      "constant": true,
      "inputs": [],
      "name": "MinPoz",
      "outputs": [
        {
          "name": "",
          "type": "uint256"
        }
      ],
      "payable": false,
      "stateMutability": "view",
      "type": "function"
    },
    {
      "constant": true,
      "inputs": [],
      "name": "PozTimer",
      "outputs": [
        {
          "name": "",
          "type": "uint256"
        }
      ],
      "payable": false,
      "stateMutability": "view",
      "type": "function"
    },
    {
      "constant": true,
      "inputs": [
        {
          "name": "",
          "type": "uint256"
        }
      ],
      "name": "pools",
      "outputs": [
        {
          "name": "Token",
          "type": "address"
        },
        {
          "name": "Creator",
          "type": "address"
        },
        {
          "name": "FinishTime",
          "type": "uint256"
        },
        {
          "name": "Rate",
          "type": "uint256"
        },
        {
          "name": "Maincoin",
          "type": "address"
        },
        {
          "name": "StartAmount",
          "type": "uint256"
        },
        {
          "name": "IsLocked",
          "type": "bool"
        },
        {
          "name": "Lefttokens",
          "type": "uint256"
        },
        {
          "name": "StartTime",
          "type": "uint256"
        },
        {
          "name": "OpenForAll",
          "type": "uint256"
        },
        {
          "name": "UnlockedTokens",
          "type": "uint256"
        },
        {
          "name": "TookLeftOvers",
          "type": "bool"
        }
      ],
      "payable": false,
      "stateMutability": "view",
      "type": "function"
    },
    {
      "constant": true,
      "inputs": [],
      "name": "Fee",
      "outputs": [
        {
          "name": "",
          "type": "uint256"
        }
      ],
      "payable": false,
      "stateMutability": "view",
      "type": "function"
    },
    {
      "constant": true,
      "inputs": [],
      "name": "PozDiscount",
      "outputs": [
        {
          "name": "",
          "type": "uint256"
        }
      ],
      "payable": false,
      "stateMutability": "view",
      "type": "function"
    },
    {
      "constant": true,
      "inputs": [],
      "name": "Admin",
      "outputs": [
        {
          "name": "",
          "type": "address"
        }
      ],
      "payable": false,
      "stateMutability": "view",
      "type": "function"
    },
    {
      "inputs": [],
      "payable": false,
      "stateMutability": "nonpayable",
      "type": "constructor"
    },
    {
      "payable": true,
      "stateMutability": "payable",
      "type": "fallback"
    },
    {
      "anonymous": false,
      "inputs": [
        {
          "indexed": false,
          "name": "Amount",
          "type": "uint256"
        },
        {
          "indexed": false,
          "name": "To",
          "type": "address"
        },
        {
          "indexed": false,
          "name": "Token",
          "type": "address"
        }
      ],
      "name": "TransferOut",
      "type": "event"
    },
    {
      "anonymous": false,
      "inputs": [
        {
          "indexed": false,
          "name": "Amount",
          "type": "uint256"
        },
        {
          "indexed": false,
          "name": "To",
          "type": "address"
        }
      ],
      "name": "TransferOutETH",
      "type": "event"
    },
    {
      "anonymous": false,
      "inputs": [
        {
          "indexed": false,
          "name": "Amount",
          "type": "uint256"
        },
        {
          "indexed": false,
          "name": "From",
          "type": "address"
        },
        {
          "indexed": false,
          "name": "Token",
          "type": "address"
        }
      ],
      "name": "TransferIn",
      "type": "event"
    },
    {
      "anonymous": false,
      "inputs": [
        {
          "indexed": false,
          "name": "Amount",
          "type": "uint256"
        },
        {
          "indexed": false,
          "name": "From",
          "type": "address"
        }
      ],
      "name": "TransferInETH",
      "type": "event"
    },
    {
      "anonymous": false,
      "inputs": [
        {
          "indexed": false,
          "name": "token",
          "type": "address"
        },
        {
          "indexed": false,
          "name": "id",
          "type": "uint256"
        }
      ],
      "name": "NewPool",
      "type": "event"
    },
    {
      "anonymous": false,
      "inputs": [
        {
          "indexed": false,
          "name": "id",
          "type": "uint256"
        }
      ],
      "name": "FinishPool",
      "type": "event"
    },
    {
      "constant": true,
      "inputs": [],
      "name": "GetLastPoolId",
      "outputs": [
        {
          "name": "",
          "type": "uint256"
        }
      ],
      "payable": false,
      "stateMutability": "view",
      "type": "function"
    },
    {
      "constant": true,
      "inputs": [],
      "name": "GetLastInvestorId",
      "outputs": [
        {
          "name": "",
          "type": "uint256"
        }
      ],
      "payable": false,
      "stateMutability": "view",
      "type": "function"
    },
    {
      "constant": false,
      "inputs": [
        {
          "name": "_to",
          "type": "address"
        }
      ],
      "name": "WithdrawETHFee",
      "outputs": [],
      "payable": false,
      "stateMutability": "nonpayable",
      "type": "function"
    },
    {
      "constant": false,
      "inputs": [
        {
          "name": "_newOwner",
          "type": "address"
        }
      ],
      "name": "transferOwnership",
      "outputs": [],
      "payable": false,
      "stateMutability": "nonpayable",
      "type": "function"
    },
    {
      "constant": false,
      "inputs": [
        {
          "name": "_token",
          "type": "address"
        }
      ],
      "name": "AddERC20Maincoin",
      "outputs": [],
      "payable": false,
      "stateMutability": "nonpayable",
      "type": "function"
    },
    {
      "constant": false,
      "inputs": [
        {
          "name": "_token",
          "type": "address"
        }
      ],
      "name": "RemoveERC20Maincoin",
      "outputs": [],
      "payable": false,
      "stateMutability": "nonpayable",
      "type": "function"
    },
    {
      "constant": true,
      "inputs": [
        {
          "name": "_token",
          "type": "address"
        }
      ],
      "name": "IsERC20Maincoin",
      "outputs": [
        {
          "name": "",
          "type": "bool"
        }
      ],
      "payable": false,
      "stateMutability": "view",
      "type": "function"
    },
    {
      "constant": false,
      "inputs": [
        {
          "name": "_Token",
          "type": "address"
        },
        {
          "name": "_FinishTime",
          "type": "uint256"
        },
        {
          "name": "_Rate",
          "type": "uint256"
        },
        {
          "name": "_StartAmount",
          "type": "uint256"
        },
        {
          "name": "_IsLocked",
          "type": "bool"
        },
        {
          "name": "_MainCoin",
          "type": "address"
        }
      ],
      "name": "CreatePool",
      "outputs": [],
      "payable": false,
      "stateMutability": "nonpayable",
      "type": "function"
    },
    {
      "constant": true,
      "inputs": [
        {
          "name": "_token",
          "type": "address"
        },
        {
          "name": "_owner",
          "type": "address"
        },
        {
          "name": "_amount",
          "type": "uint256"
        }
      ],
      "name": "TestAllownce",
      "outputs": [
        {
          "name": "",
          "type": "bool"
        }
      ],
      "payable": false,
      "stateMutability": "view",
      "type": "function"
    },
    {
      "constant": true,
      "inputs": [],
      "name": "GetMyPoolsId",
      "outputs": [
        {
          "name": "",
          "type": "uint256[]"
        }
      ],
      "payable": false,
      "stateMutability": "view",
      "type": "function"
    },
    {
      "constant": false,
      "inputs": [
        {
          "name": "_PoolId",
          "type": "uint256"
        }
      ],
      "name": "WithdrawLeftOvers",
      "outputs": [],
      "payable": false,
      "stateMutability": "nonpayable",
      "type": "function"
    },
    {
      "constant": true,
      "inputs": [
        {
          "name": "_id",
          "type": "uint256"
        }
      ],
      "name": "GetPoolData",
      "outputs": [
        {
          "name": "",
          "type": "uint8"
        },
        {
          "name": "",
          "type": "address"
        },
        {
          "name": "",
          "type": "uint256"
        },
        {
          "name": "",
          "type": "address"
        },
        {
          "name": "",
          "type": "uint256"
        },
        {
          "name": "",
          "type": "uint256"
        }
      ],
      "payable": false,
      "stateMutability": "view",
      "type": "function"
    },
    {
      "constant": true,
      "inputs": [
        {
          "name": "_id",
          "type": "uint256"
        }
      ],
      "name": "GetMorePoolData",
      "outputs": [
        {
          "name": "",
          "type": "bool"
        },
        {
          "name": "",
          "type": "uint256"
        },
        {
          "name": "",
          "type": "uint256"
        },
        {
          "name": "",
          "type": "address"
        }
      ],
      "payable": false,
      "stateMutability": "view",
      "type": "function"
    },
    {
      "constant": true,
      "inputs": [
        {
          "name": "_id",
          "type": "uint256"
        }
      ],
      "name": "GetPoolStatus",
      "outputs": [
        {
          "name": "",
          "type": "uint8"
        }
      ],
      "payable": false,
      "stateMutability": "view",
      "type": "function"
    },
    {
      "constant": true,
      "inputs": [
        {
          "name": "_investor",
          "type": "address"
        }
      ],
      "name": "IsPozInvestor",
      "outputs": [
        {
          "name": "",
          "type": "bool"
        }
      ],
      "payable": false,
      "stateMutability": "view",
      "type": "function"
    },
    {
      "constant": false,
      "inputs": [
        {
          "name": "_PoolId",
          "type": "uint256"
        }
      ],
      "name": "InvestETH",
      "outputs": [],
      "payable": true,
      "stateMutability": "payable",
      "type": "function"
    },
    {
      "constant": false,
      "inputs": [
        {
          "name": "_id",
          "type": "uint256"
        }
      ],
      "name": "WithdrawInvestment",
      "outputs": [],
      "payable": false,
      "stateMutability": "nonpayable",
      "type": "function"
    },
    {
      "constant": true,
      "inputs": [],
      "name": "GetMyInvestmentIds",
      "outputs": [
        {
          "name": "",
          "type": "uint256[]"
        }
      ],
      "payable": false,
      "stateMutability": "view",
      "type": "function"
    }
  ],
  "bytecode": "0x60806040526000600b60006101000a81548173ffffffffffffffffffffffffffffffffffffffff021916908373ffffffffffffffffffffffffffffffffffffffff16021790555034801561005257600080fd5b50336000806101000a81548173ffffffffffffffffffffffffffffffffffffffff021916908373ffffffffffffffffffffffffffffffffffffffff160217905550601460018190555060116002819055506103e86003819055506104b06004819055506050600581905550600060068190555060006007819055506000600c8190555061382e806100e46000396000f30060806040526004361061017f576000357c0100000000000000000000000000000000000000000000000000000000900463ffffffff168062ea9216146101845780630d08caa0146101c75780630fc941ce1461021657806321c667ed146102a357806327ca36ec146103285780632ef680a7146103535780633037548a146103aa57806353eb31671461040557806356793bc71461043057806363552a491461049157806364de14ad146104fd57806366b91da914610528578063837cf00e146105ae57806387e3c599146106095780638c788de01461063657806391314dde14610661578063991e979a146106cd578063a38c654914610710578063a8df42f214610753578063abb7add21461077e578063ac4afa38146107a9578063bef7a2f0146108c3578063c5053add146108ee578063e890671614610919578063ea9223a614610974578063f04be48b14610a3e578063f2fde38b14610a5e578063f5636c3414610aa1578063fd711a5514610acc578063ff1b636d14610af9575b600080fd5b34801561019057600080fd5b506101c5600480360381019080803573ffffffffffffffffffffffffffffffffffffffff169060200190929190505050610b50565b005b3480156101d357600080fd5b506101f260048036038101908080359060200190929190505050610c06565b6040518082600481111561020257fe5b60ff16815260200191505060405180910390f35b34801561022257600080fd5b506102a1600480360381019080803573ffffffffffffffffffffffffffffffffffffffff169060200190929190803590602001909291908035906020019092919080359060200190929190803515159060200190929190803573ffffffffffffffffffffffffffffffffffffffff169060200190929190505050611004565b005b3480156102af57600080fd5b5061030e600480360381019080803573ffffffffffffffffffffffffffffffffffffffff169060200190929190803573ffffffffffffffffffffffffffffffffffffffff1690602001909291908035906020019092919050505061169b565b604051808215151515815260200191505060405180910390f35b34801561033457600080fd5b5061033d6117b3565b6040518082815260200191505060405180910390f35b34801561035f57600080fd5b506103686117b9565b604051808273ffffffffffffffffffffffffffffffffffffffff1673ffffffffffffffffffffffffffffffffffffffff16815260200191505060405180910390f35b3480156103b657600080fd5b506103eb600480360381019080803573ffffffffffffffffffffffffffffffffffffffff1690602001909291905050506117df565b604051808215151515815260200191505060405180910390f35b34801561041157600080fd5b5061041a6117ff565b6040518082815260200191505060405180910390f35b34801561043c57600080fd5b5061047b600480360381019080803573ffffffffffffffffffffffffffffffffffffffff16906020019092919080359060200190929190505050611805565b6040518082815260200191505060405180910390f35b34801561049d57600080fd5b506104a6611835565b6040518080602001828103825283818151815260200191508051906020019060200280838360005b838110156104e95780820151818401526020810190506104ce565b505050509050019250505060405180910390f35b34801561050957600080fd5b506105126118ca565b6040518082815260200191505060405180910390f35b34801561053457600080fd5b50610553600480360381019080803590602001909291905050506118d4565b60405180851515151581526020018481526020018381526020018273ffffffffffffffffffffffffffffffffffffffff1673ffffffffffffffffffffffffffffffffffffffff16815260200194505050505060405180910390f35b3480156105ba57600080fd5b506105ef600480360381019080803573ffffffffffffffffffffffffffffffffffffffff169060200190929190505050611972565b604051808215151515815260200191505060405180910390f35b34801561061557600080fd5b5061063460048036038101908080359060200190929190505050611ad8565b005b34801561064257600080fd5b5061064b612002565b6040518082815260200191505060405180910390f35b34801561066d57600080fd5b50610676612008565b6040518080602001828103825283818151815260200191508051906020019060200280838360005b838110156106b957808201518184015260208101905061069e565b505050509050019250505060405180910390f35b3480156106d957600080fd5b5061070e600480360381019080803573ffffffffffffffffffffffffffffffffffffffff16906020019092919050505061209d565b005b34801561071c57600080fd5b50610751600480360381019080803573ffffffffffffffffffffffffffffffffffffffff1690602001909291905050506121c2565b005b34801561075f57600080fd5b50610768612278565b6040518082815260200191505060405180910390f35b34801561078a57600080fd5b5061079361227e565b6040518082815260200191505060405180910390f35b3480156107b557600080fd5b506107d460048036038101908080359060200190929190505050612284565b604051808d73ffffffffffffffffffffffffffffffffffffffff1673ffffffffffffffffffffffffffffffffffffffff1681526020018c73ffffffffffffffffffffffffffffffffffffffff1673ffffffffffffffffffffffffffffffffffffffff1681526020018b81526020018a81526020018973ffffffffffffffffffffffffffffffffffffffff1673ffffffffffffffffffffffffffffffffffffffff16815260200188815260200187151515158152602001868152602001858152602001848152602001838152602001821515151581526020019c5050505050505050505050505060405180910390f35b3480156108cf57600080fd5b506108d861235e565b6040518082815260200191505060405180910390f35b3480156108fa57600080fd5b50610903612364565b6040518082815260200191505060405180910390f35b34801561092557600080fd5b5061095a600480360381019080803573ffffffffffffffffffffffffffffffffffffffff16906020019092919050505061236e565b604051808215151515815260200191505060405180910390f35b34801561098057600080fd5b5061099f600480360381019080803590602001909291905050506123c4565b604051808760048111156109af57fe5b60ff1681526020018673ffffffffffffffffffffffffffffffffffffffff1673ffffffffffffffffffffffffffffffffffffffff1681526020018581526020018473ffffffffffffffffffffffffffffffffffffffff1673ffffffffffffffffffffffffffffffffffffffff168152602001838152602001828152602001965050505050505060405180910390f35b610a5c6004803603810190808035906020019092919050505061249e565b005b348015610a6a57600080fd5b50610a9f600480360381019080803573ffffffffffffffffffffffffffffffffffffffff169060200190929190505050613229565b005b348015610aad57600080fd5b50610ab6613330565b6040518082815260200191505060405180910390f35b348015610ad857600080fd5b50610af760048036038101908080359060200190929190505050613336565b005b348015610b0557600080fd5b50610b0e613722565b604051808273ffffffffffffffffffffffffffffffffffffffff1673ffffffffffffffffffffffffffffffffffffffff16815260200191505060405180910390f35b6000809054906101000a900473ffffffffffffffffffffffffffffffffffffffff1673ffffffffffffffffffffffffffffffffffffffff163373ffffffffffffffffffffffffffffffffffffffff16141515610bab57600080fd5b6000600a60008373ffffffffffffffffffffffffffffffffffffffff1673ffffffffffffffffffffffffffffffffffffffff16815260200190815260200160002060006101000a81548160ff02191690831515021790555050565b600060075482101515610c81576040517f08c379a000000000000000000000000000000000000000000000000000000000815260040180806020018281038252600d8152602001807f57726f6e6720706f6f6c2069640000000000000000000000000000000000000081525060200191505060405180910390fd5b600860008381526020019081526020016000206009015442108015610cbc575060006008600084815260200190815260200160002060070154115b15610cca5760009050610fff565b60086000838152602001908152602001600020600901544210158015610d06575060006008600084815260200190815260200160002060070154115b8015610d275750600860008381526020019081526020016000206002015442105b15610d355760019050610fff565b60006008600084815260200190815260200160002060070154148015610d7b57506008600083815260200190815260200160002060060160009054906101000a900460ff165b8015610d9c5750600860008381526020019081526020016000206002015442105b15610daa5760029050610fff565b60006008600084815260200190815260200160002060070154148015610df157506008600083815260200190815260200160002060060160009054906101000a900460ff16155b15610dff5760049050610fff565b60006008600084815260200190815260200160002060070154118015610e4657506008600083815260200190815260200160002060060160009054906101000a900460ff16155b8015610e73575060086000838152602001908152602001600020600b0160009054906101000a900460ff16155b15610e815760039050610fff565b60086000838152602001908152602001600020600201544210158015610ec857506008600083815260200190815260200160002060060160009054906101000a900460ff16155b15610f085760086000838152602001908152602001600020600b0160009054906101000a900460ff1615610eff5760049050610fff565b60039050610fff565b60086000838152602001908152602001600020600201544210158015610f4e57506008600083815260200190815260200160002060060160009054906101000a900460ff165b15610ffe5760086000838152602001908152602001600020600b0160009054906101000a900460ff1680610f98575060006008600084815260200190815260200160002060070154145b8015610fe7575060086000838152602001908152602001600020600a01546008600084815260200190815260200160002060070154600860008581526020019081526020016000206005015403145b15610ff55760049050610fff565b60039050610fff565b5b919050565b600061100f87613747565b1515611083576040517f08c379a00000000000000000000000000000000000000000000000000000000081526004018080602001828103825260168152602001807f4e6565642056616c696420455243323020546f6b656e0000000000000000000081525060200191505060405180910390fd5b856006544201111515156110ff576040517f08c379a000000000000000000000000000000000000000000000000000000000815260040180806020018281038252601a8152602001807f4e656564206d6f7265207468656e204d696e4475726174696f6e00000000000081525060200191505060405180910390fd5b61110a87338661169b565b151561117e576040517f08c379a000000000000000000000000000000000000000000000000000000000815260040180806020018281038252601c8152602001807f4d75737420417070726f766520746865205472616e73616374696f6e0000000081525060200191505060405180910390fd5b600073ffffffffffffffffffffffffffffffffffffffff168273ffffffffffffffffffffffffffffffffffffffff1614806111be57506111bd8261236e565b5b15156111c957600080fd5b42612710600354428903028115156111dd57fe5b04019050610180604051908101604052808873ffffffffffffffffffffffffffffffffffffffff1681526020013373ffffffffffffffffffffffffffffffffffffffff1681526020018781526020018681526020018373ffffffffffffffffffffffffffffffffffffffff1681526020018581526020018415158152602001858152602001428152602001828152602001600081526020016000151581525060086000600754815260200190815260200160002060008201518160000160006101000a81548173ffffffffffffffffffffffffffffffffffffffff021916908373ffffffffffffffffffffffffffffffffffffffff16021790555060208201518160010160006101000a81548173ffffffffffffffffffffffffffffffffffffffff021916908373ffffffffffffffffffffffffffffffffffffffff160217905550604082015181600201556060820151816003015560808201518160040160006101000a81548173ffffffffffffffffffffffffffffffffffffffff021916908373ffffffffffffffffffffffffffffffffffffffff16021790555060a0820151816005015560c08201518160060160006101000a81548160ff02191690831515021790555060e082015181600701556101008201518160080155610120820151816009015561014082015181600a015561016082015181600b0160006101000a81548160ff021916908315150217905550905050600960003373ffffffffffffffffffffffffffffffffffffffff1673ffffffffffffffffffffffffffffffffffffffff16815260200190815260200160002060075490806001815401808255809150509060018203906000526020600020016000909192909190915055506007600081548092919060010191905055508673ffffffffffffffffffffffffffffffffffffffff166323b872dd3330876040518463ffffffff167c0100000000000000000000000000000000000000000000000000000000028152600401808473ffffffffffffffffffffffffffffffffffffffff1673ffffffffffffffffffffffffffffffffffffffff1681526020018373ffffffffffffffffffffffffffffffffffffffff1673ffffffffffffffffffffffffffffffffffffffff1681526020018281526020019350505050602060405180830381600087803b15801561154757600080fd5b505af115801561155b573d6000803e3d6000fd5b505050506040513d602081101561157157600080fd5b8101908080519060200190929190505050507f1fecf4702e692891a7c2f0d328779b085efb5edd094fa5558bd5cd147a167922843389604051808481526020018373ffffffffffffffffffffffffffffffffffffffff1673ffffffffffffffffffffffffffffffffffffffff1681526020018273ffffffffffffffffffffffffffffffffffffffff1673ffffffffffffffffffffffffffffffffffffffff168152602001935050505060405180910390a17fbe4222bc407cb12031595fc55b46531e46308d31e4572c9c4360d8ae790e1a3187600160075403604051808373ffffffffffffffffffffffffffffffffffffffff1673ffffffffffffffffffffffffffffffffffffffff1681526020018281526020019250505060405180910390a150505050505050565b6000818473ffffffffffffffffffffffffffffffffffffffff1663dd62ed3e85306040518363ffffffff167c0100000000000000000000000000000000000000000000000000000000028152600401808373ffffffffffffffffffffffffffffffffffffffff1673ffffffffffffffffffffffffffffffffffffffff1681526020018273ffffffffffffffffffffffffffffffffffffffff1673ffffffffffffffffffffffffffffffffffffffff16815260200192505050602060405180830381600087803b15801561176d57600080fd5b505af1158015611781573d6000803e3d6000fd5b505050506040513d602081101561179757600080fd5b8101908080519060200190929190505050101590509392505050565b60065481565b600b60009054906101000a900473ffffffffffffffffffffffffffffffffffffffff1681565b600a6020528060005260406000206000915054906101000a900460ff1681565b60025481565b60096020528160005260406000208181548110151561182057fe5b90600052602060002001600091509150505481565b6060600960003373ffffffffffffffffffffffffffffffffffffffff1673ffffffffffffffffffffffffffffffffffffffff1681526020019081526020016000208054806020026020016040519081016040528092919081815260200182805480156118c057602002820191906000526020600020905b8154815260200190600101908083116118ac575b5050505050905090565b6000600c54905090565b6000806000806008600086815260200190815260200160002060060160009054906101000a900460ff16600860008781526020019081526020016000206002015460086000888152602001908152602001600020600901546008600089815260200190815260200160002060010160009054906101000a900473ffffffffffffffffffffffffffffffffffffffff1693509350935093509193509193565b60008073ffffffffffffffffffffffffffffffffffffffff16600b60009054906101000a900473ffffffffffffffffffffffffffffffffffffffff1673ffffffffffffffffffffffffffffffffffffffff1614156119d35760019050611ad3565b600554600b60009054906101000a900473ffffffffffffffffffffffffffffffffffffffff1673ffffffffffffffffffffffffffffffffffffffff166370a08231846040518263ffffffff167c0100000000000000000000000000000000000000000000000000000000028152600401808273ffffffffffffffffffffffffffffffffffffffff1673ffffffffffffffffffffffffffffffffffffffff168152602001915050602060405180830381600087803b158015611a9357600080fd5b505af1158015611aa7573d6000803e3d6000fd5b505050506040513d6020811015611abd57600080fd5b8101908080519060200190929190505050101590505b919050565b600d600082815260200190815260200160002060010160009054906101000a900473ffffffffffffffffffffffffffffffffffffffff1673ffffffffffffffffffffffffffffffffffffffff163373ffffffffffffffffffffffffffffffffffffffff161480611b9457506000809054906101000a900473ffffffffffffffffffffffffffffffffffffffff1673ffffffffffffffffffffffffffffffffffffffff163373ffffffffffffffffffffffffffffffffffffffff16145b1515611c2e576040517f08c379a00000000000000000000000000000000000000000000000000000000081526004018080602001828103825260258152602001807f4f6e6c7920496e766573746f722063616e20576974686472617720284f72204181526020017f646d696e2900000000000000000000000000000000000000000000000000000081525060400191505060405180910390fd5b600c5481101515611ca7576040517f08c379a00000000000000000000000000000000000000000000000000000000081526004018080602001828103825260088152602001807f57726f6e6720696400000000000000000000000000000000000000000000000081525060200191505060405180910390fd5b6000600d600083815260200190815260200160002060040154111515611d35576040517f08c379a00000000000000000000000000000000000000000000000000000000081526004018080602001828103825260158152602001807f4e6f20746f6b656e7320746f205769746864726177000000000000000000000081525060200191505060405180910390fd5b7fe4d818e6f992efbd60db553f3edce819a199baec79a784b95c89bc8ee86f2584600d600083815260200190815260200160002060040154600d600084815260200190815260200160002060010160009054906101000a900473ffffffffffffffffffffffffffffffffffffffff1660086000600d600087815260200190815260200160002060000154815260200190815260200160002060000160009054906101000a900473ffffffffffffffffffffffffffffffffffffffff16604051808481526020018373ffffffffffffffffffffffffffffffffffffffff1673ffffffffffffffffffffffffffffffffffffffff1681526020018273ffffffffffffffffffffffffffffffffffffffff1673ffffffffffffffffffffffffffffffffffffffff168152602001935050505060405180910390a160086000600d600084815260200190815260200160002060000154815260200190815260200160002060000160009054906101000a900473ffffffffffffffffffffffffffffffffffffffff1673ffffffffffffffffffffffffffffffffffffffff1663a9059cbb600d600084815260200190815260200160002060010160009054906101000a900473ffffffffffffffffffffffffffffffffffffffff16600d6000858152602001908152602001600020600401546040518363ffffffff167c0100000000000000000000000000000000000000000000000000000000028152600401808373ffffffffffffffffffffffffffffffffffffffff1673ffffffffffffffffffffffffffffffffffffffff16815260200182815260200192505050602060405180830381600087803b158015611fa757600080fd5b505af1158015611fbb573d6000803e3d6000fd5b505050506040513d6020811015611fd157600080fd5b8101908080519060200190929190505050506000600d60008381526020019081526020016000206004018190555050565b60075481565b6060600e60003373ffffffffffffffffffffffffffffffffffffffff1673ffffffffffffffffffffffffffffffffffffffff16815260200190815260200160002080548060200260200160405190810160405280929190818152602001828054801561209357602002820191906000526020600020905b81548152602001906001019080831161207f575b5050505050905090565b6000809054906101000a900473ffffffffffffffffffffffffffffffffffffffff1673ffffffffffffffffffffffffffffffffffffffff163373ffffffffffffffffffffffffffffffffffffffff16141515612161576040517f08c379a00000000000000000000000000000000000000000000000000000000081526004018080602001828103825260178152602001807f4f6e6c792061646d696e2063616e2074616b652066656500000000000000000081525060200191505060405180910390fd5b8073ffffffffffffffffffffffffffffffffffffffff166108fc3073ffffffffffffffffffffffffffffffffffffffff16319081150290604051600060405180830381858888f193505050501580156121be573d6000803e3d6000fd5b5050565b6000809054906101000a900473ffffffffffffffffffffffffffffffffffffffff1673ffffffffffffffffffffffffffffffffffffffff163373ffffffffffffffffffffffffffffffffffffffff1614151561221d57600080fd5b6001600a60008373ffffffffffffffffffffffffffffffffffffffff1673ffffffffffffffffffffffffffffffffffffffff16815260200190815260200160002060006101000a81548160ff02191690831515021790555050565b60055481565b60035481565b60086020528060005260406000206000915090508060000160009054906101000a900473ffffffffffffffffffffffffffffffffffffffff16908060010160009054906101000a900473ffffffffffffffffffffffffffffffffffffffff16908060020154908060030154908060040160009054906101000a900473ffffffffffffffffffffffffffffffffffffffff16908060050154908060060160009054906101000a900460ff169080600701549080600801549080600901549080600a01549080600b0160009054906101000a900460ff1690508c565b60015481565b6000600754905090565b6000600a60008373ffffffffffffffffffffffffffffffffffffffff1673ffffffffffffffffffffffffffffffffffffffff16815260200190815260200160002060009054906101000a900460ff169050919050565b6000806000806000806123d687610c06565b6008600089815260200190815260200160002060000160009054906101000a900473ffffffffffffffffffffffffffffffffffffffff16600860008a815260200190815260200160002060030154600860008b815260200190815260200160002060040160009054906101000a900473ffffffffffffffffffffffffffffffffffffffff16600860008c815260200190815260200160002060050154600860008d81526020019081526020016000206007015495509550955095509550955091939550919395565b60008060006007548410151561251c576040517f08c379a000000000000000000000000000000000000000000000000000000000815260040180806020018281038252600d8152602001807f57726f6e6720706f6f6c2069640000000000000000000000000000000000000081525060200191505060405180910390fd5b600073ffffffffffffffffffffffffffffffffffffffff166008600086815260200190815260200160002060040160009054906101000a900473ffffffffffffffffffffffffffffffffffffffff1673ffffffffffffffffffffffffffffffffffffffff161415156125f6576040517f08c379a00000000000000000000000000000000000000000000000000000000081526004018080602001828103825260138152602001807f506f6f6c206973206e6f7420666f72204554480000000000000000000000000081525060200191505060405180910390fd5b60003411151561266e576040517f08c379a00000000000000000000000000000000000000000000000000000000081526004018080602001828103825260128152602001807f73656e642045544820746f20696e76657374000000000000000000000000000081525060200191505060405180910390fd5b612710341115156126e7576040517f08c379a00000000000000000000000000000000000000000000000000000000081526004018080602001828103825260178152602001807f73656e64206d6f72652045544820746f20696e7665737400000000000000000081525060200191505060405180910390fd5b7f3a32cdd14cdfd431946dfa0b2aef5ace661340411aaadcaee6aef6738d3023263433604051808381526020018273ffffffffffffffffffffffffffffffffffffffff1673ffffffffffffffffffffffffffffffffffffffff1681526020019250505060405180910390a160c0604051908101604052808581526020013373ffffffffffffffffffffffffffffffffffffffff16815260200134815260200161278f33611972565b151581526020016000815260200142815250600d6000600c5481526020019081526020016000206000820151816000015560208201518160010160006101000a81548173ffffffffffffffffffffffffffffffffffffffff021916908373ffffffffffffffffffffffffffffffffffffffff1602179055506040820151816002015560608201518160030160006101000a81548160ff0219169083151502179055506080820151816004015560a08201518160050155905050600e60003373ffffffffffffffffffffffffffffffffffffffff1673ffffffffffffffffffffffffffffffffffffffff168152602001908152602001600020600c549080600181540180825580915050906001820390600052602060002001600090919290919091505550600c60008154809291906001019190505550600060048111156128d257fe5b6128db85610c06565b60048111156128e657fe5b1480156128f857506128f733611972565b5b801561291a575060086000858152602001908152602001600020600701548311155b15612d47576004546127100161271060086000878152602001908152602001600020600301543481151561294a57fe5b0481151561295457fe5b040292508260086000868152602001908152602001600020600701600082825403925050819055506008600085815260200190815260200160002060060160009054906101000a900460ff16156129ca5782600d60006001600c5403815260200190815260200160002060040181905550612bb5565b7fe4d818e6f992efbd60db553f3edce819a199baec79a784b95c89bc8ee86f258483336008600088815260200190815260200160002060000160009054906101000a900473ffffffffffffffffffffffffffffffffffffffff16604051808481526020018373ffffffffffffffffffffffffffffffffffffffff1673ffffffffffffffffffffffffffffffffffffffff1681526020018273ffffffffffffffffffffffffffffffffffffffff1673ffffffffffffffffffffffffffffffffffffffff168152602001935050505060405180910390a16008600085815260200190815260200160002060000160009054906101000a900473ffffffffffffffffffffffffffffffffffffffff1673ffffffffffffffffffffffffffffffffffffffff1663a9059cbb33856040518363ffffffff167c0100000000000000000000000000000000000000000000000000000000028152600401808373ffffffffffffffffffffffffffffffffffffffff1673ffffffffffffffffffffffffffffffffffffffff16815260200182815260200192505050602060405180830381600087803b158015612b7857600080fd5b505af1158015612b8c573d6000803e3d6000fd5b505050506040513d6020811015612ba257600080fd5b8101908080519060200190929190505050505b6002546127100361271034811515612bc957fe5b040291507feca5ae7bd9109b0f7d228f3f8a8cc834a1f995af62df6dc226dc3ab3f38dc7b3826008600087815260200190815260200160002060010160009054906101000a900473ffffffffffffffffffffffffffffffffffffffff16604051808381526020018273ffffffffffffffffffffffffffffffffffffffff1673ffffffffffffffffffffffffffffffffffffffff1681526020019250505060405180910390a16008600085815260200190815260200160002060010160009054906101000a900473ffffffffffffffffffffffffffffffffffffffff1673ffffffffffffffffffffffffffffffffffffffff166108fc839081150290604051600060405180830381858888f19350505050158015612cea573d6000803e3d6000fd5b50600060086000868152602001908152602001600020600701541415612d42577f5aa793a17b0774b891ce2b0dd5dbe8f04132e547df384ab1053d32470050b5fa846040518082815260200191505060405180910390a15b613223565b60016004811115612d5457fe5b612d5d85610c06565b6004811115612d6857fe5b148015612d8b575060086000858152602001908152602001600020600701548111155b156131b557600860008581526020019081526020016000206003015434811515612db157fe5b0490508060086000868152602001908152602001600020600701600082825403925050819055506008600085815260200190815260200160002060060160009054906101000a900460ff1615612e265780600d60006001600c5403815260200190815260200160002060040181905550613011565b7fe4d818e6f992efbd60db553f3edce819a199baec79a784b95c89bc8ee86f258481336008600088815260200190815260200160002060000160009054906101000a900473ffffffffffffffffffffffffffffffffffffffff16604051808481526020018373ffffffffffffffffffffffffffffffffffffffff1673ffffffffffffffffffffffffffffffffffffffff1681526020018273ffffffffffffffffffffffffffffffffffffffff1673ffffffffffffffffffffffffffffffffffffffff168152602001935050505060405180910390a16008600085815260200190815260200160002060000160009054906101000a900473ffffffffffffffffffffffffffffffffffffffff1673ffffffffffffffffffffffffffffffffffffffff1663a9059cbb33836040518363ffffffff167c0100000000000000000000000000000000000000000000000000000000028152600401808373ffffffffffffffffffffffffffffffffffffffff1673ffffffffffffffffffffffffffffffffffffffff16815260200182815260200192505050602060405180830381600087803b158015612fd457600080fd5b505af1158015612fe8573d6000803e3d6000fd5b505050506040513d6020811015612ffe57600080fd5b8101908080519060200190929190505050505b7feca5ae7bd9109b0f7d228f3f8a8cc834a1f995af62df6dc226dc3ab3f38dc7b3600154612710036127103481151561304657fe5b04026008600087815260200190815260200160002060010160009054906101000a900473ffffffffffffffffffffffffffffffffffffffff16604051808381526020018273ffffffffffffffffffffffffffffffffffffffff1673ffffffffffffffffffffffffffffffffffffffff1681526020019250505060405180910390a16008600085815260200190815260200160002060010160009054906101000a900473ffffffffffffffffffffffffffffffffffffffff1673ffffffffffffffffffffffffffffffffffffffff166108fc600154612710036127103481151561312b57fe5b04029081150290604051600060405180830381858888f19350505050158015613158573d6000803e3d6000fd5b506000600860008681526020019081526020016000206007015414156131b0577f5aa793a17b0774b891ce2b0dd5dbe8f04132e547df384ab1053d32470050b5fa846040518082815260200191505060405180910390a15b613223565b6040517f08c379a00000000000000000000000000000000000000000000000000000000081526004018080602001828103825260188152602001807f496e766573746d656e74206e6f7420636f6d706c69746564000000000000000081525060200191505060405180910390fd5b50505050565b6000809054906101000a900473ffffffffffffffffffffffffffffffffffffffff1673ffffffffffffffffffffffffffffffffffffffff163373ffffffffffffffffffffffffffffffffffffffff161415156132ed576040517f08c379a00000000000000000000000000000000000000000000000000000000081526004018080602001828103825260168152602001807f4f6e6c792061646d696e2063616e20646f20746861740000000000000000000081525060200191505060405180910390fd5b806000806101000a81548173ffffffffffffffffffffffffffffffffffffffff021916908373ffffffffffffffffffffffffffffffffffffffff16021790555050565b60045481565b3373ffffffffffffffffffffffffffffffffffffffff166008600083815260200190815260200160002060010160009054906101000a900473ffffffffffffffffffffffffffffffffffffffff1673ffffffffffffffffffffffffffffffffffffffff1614806133f257503373ffffffffffffffffffffffffffffffffffffffff166000809054906101000a900473ffffffffffffffffffffffffffffffffffffffff1673ffffffffffffffffffffffffffffffffffffffff16145b151561348c576040517f08c379a00000000000000000000000000000000000000000000000000000000081526004018080602001828103825260288152602001807f4f6e6c79207468652063726561746f722063616e20576974686472617720286f81526020017f722041646d696e2900000000000000000000000000000000000000000000000081525060400191505060405180910390fd5b426008600083815260200190815260200160002060020154101580156134c8575060006008600083815260200190815260200160002060070154115b80156134f5575060086000828152602001908152602001600020600b0160009054906101000a900460ff16155b151561358f576040517f08c379a00000000000000000000000000000000000000000000000000000000081526004018080602001828103825260288152602001807f57726f6e6720706f6f6c20737461747573206e6f7420656e61626c6520746f2081526020017f776974686472617700000000000000000000000000000000000000000000000081525060400191505060405180910390fd5b600160086000838152602001908152602001600020600b0160006101000a81548160ff0219169083151502179055506008600082815260200190815260200160002060000160009054906101000a900473ffffffffffffffffffffffffffffffffffffffff1673ffffffffffffffffffffffffffffffffffffffff1663a9059cbb6008600084815260200190815260200160002060010160009054906101000a900473ffffffffffffffffffffffffffffffffffffffff1660086000858152602001908152602001600020600701546040518363ffffffff167c0100000000000000000000000000000000000000000000000000000000028152600401808373ffffffffffffffffffffffffffffffffffffffff1673ffffffffffffffffffffffffffffffffffffffff16815260200182815260200192505050602060405180830381600087803b1580156136e357600080fd5b505af11580156136f7573d6000803e3d6000fd5b505050506040513d602081101561370d57600080fd5b81019080805190602001909291905050505050565b6000809054906101000a900473ffffffffffffffffffffffffffffffffffffffff1681565b6000808273ffffffffffffffffffffffffffffffffffffffff166318160ddd6040518163ffffffff167c0100000000000000000000000000000000000000000000000000000000028152600401602060405180830381600087803b1580156137ae57600080fd5b505af11580156137c2573d6000803e3d6000fd5b505050506040513d60208110156137d857600080fd5b810190808051906020019092919050505011156137f857600190506137fd565b600090505b9190505600a165627a7a7230582069ac375e1c589b9c0853717612729c37adfa804b2e4c8520502462f5ebac73fc0029",
  "source": "// SPDX-License-Identifier: MIT\r\npragma solidity ^0.4.24;\r\n\r\nimport \"openzeppelin-solidity/contracts/token/ERC20/ERC20.sol\";\r\n\r\ncontract ThePoolz {\r\n    constructor() public {\r\n        Admin = msg.sender;\r\n        Fee = 20; // *10000\r\n        PozFee = 17; // *10000\r\n        PozTimer = 1000; // *10000\r\n        PozDiscount = 1200; // *10000\r\n        MinPoz = 80; // ^Token.decimals\r\n        MinDuration = 0; //need to set\r\n        poolsCount = 0; //Start with 0\r\n        //investors data\r\n        TotalInvestors = 0; // start with 0\r\n    }\r\n\r\n    event TransferOut(uint256 Amount, address To, address Token);\r\n    event TransferOutETH(uint256 Amount, address To);\r\n    event TransferIn(uint256 Amount, address From, address Token);\r\n    event TransferInETH(uint256 Amount, address From);\r\n    event NewPool(address token, uint256 id);\r\n    event FinishPool(uint256 id);\r\n\r\n    //event testing(uint256 amount); //will remove later\r\n\r\n    function GetLastPoolId() public view returns (uint256) {\r\n        return poolsCount;\r\n    }\r\n\r\n    function GetLastInvestorId() public view returns (uint256) {\r\n        return TotalInvestors;\r\n    }\r\n\r\n    function WithdrawETHFee(address _to) public {\r\n        require(msg.sender == Admin, \"Only admin can take fee\");\r\n        _to.transfer(address(this).balance); // keeps only fee eth on contract //To Do need to take 16% to burn!!!\r\n    }\r\n\r\n    function transferOwnership(address _newOwner) public {\r\n        require(msg.sender == Admin, \"Only admin can do that\");\r\n        Admin = _newOwner;\r\n    }\r\n\r\n    //@dev not allow contract to receive funds\r\n    function() public payable {\r\n        revert();\r\n    }\r\n\r\n    address public Admin; //only admin can change the global settings\r\n    //Global settings\r\n    uint256 public Fee; //the fee for the pool\r\n    uint256 public PozFee; // the fee for the first part of the pool\r\n    uint256 public PozTimer; //the timer for the first part fo the pool\r\n    uint256 public PozDiscount; // The discout the first part of the pool got\r\n    //address FeeWallet; //keep in contract //the wallet getting the fee\r\n    uint256 public MinPoz; //minimum ammount ofpoz to be part of the discount\r\n    uint256 public MinDuration; //the minimum duration of a pool, in seconds\r\n    enum PoolStatus {Created, Open, OutOfstock, Finished, Close} //the status of the pools\r\n    //ERC20 public ERC20Interface; // for transfering ERC20 tokens // save the last token\r\n    uint256 public poolsCount; // the ids of the pool\r\n    struct Pool {\r\n        address Token; //the address of the erc20 toke for sale\r\n        address Creator; //the project owner\r\n        uint256 FinishTime; //Until what time the pool is active\r\n        uint256 Rate; //in Szabo for eth, in $/10000 cent/100\r\n        address Maincoin; // on adress.zero = ETH\r\n        uint256 StartAmount; //The total amount of the tokens for sale\r\n        bool IsLocked; // true - the investors getting the tokens after the FinishTime. false - intant deal\r\n        uint256 Lefttokens; // the ammount of tokens left for sale\r\n        uint256 StartTime; // the time the pool open\r\n        uint256 OpenForAll; // The Time that all investors can invest\r\n        uint256 UnlockedTokens; //for locked pools\r\n        bool TookLeftOvers; //The Creator took the left overs after the pool finished\r\n    }\r\n\r\n    mapping(uint256 => Pool) public pools; //the id of the pool with the data\r\n    mapping(address => uint256[]) public poolsMap; //the address and all of the pools id's\r\n    mapping(address => bool) public ERC20MainCoins; //when approve new erc20 main coin - it will list here\r\n\r\n    function AddERC20Maincoin(address _token) public {\r\n        require(msg.sender == Admin);\r\n        ERC20MainCoins[_token] = true;\r\n    }\r\n\r\n    function RemoveERC20Maincoin(address _token) public {\r\n        require(msg.sender == Admin);\r\n        ERC20MainCoins[_token] = false;\r\n    }\r\n\r\n    function IsERC20Maincoin(address _token) public view returns (bool) {\r\n        return ERC20MainCoins[_token];\r\n    }\r\n\r\n    //create a new pool\r\n    function CreatePool(\r\n        address _Token,\r\n        uint256 _FinishTime,\r\n        uint256 _Rate,\r\n        uint256 _StartAmount,\r\n        bool _IsLocked,\r\n        address _MainCoin\r\n    ) external {\r\n        require(IsERC20(_Token), \"Need Valid ERC20 Token\"); //check if _Token is ERC20\r\n        require(now + MinDuration <= _FinishTime, \"Need more then MinDuration\"); // check if the time is OK\r\n        require(\r\n            TestAllownce(_Token, msg.sender, _StartAmount),\r\n            \"Must Approve the Transaction\"\r\n        );\r\n        require(_MainCoin == address(0x0) || IsERC20Maincoin(_MainCoin));\r\n        uint256 Openforall = ((_FinishTime - block.timestamp) * PozTimer) /\r\n            10000 +\r\n            block.timestamp;\r\n        //register the pool\r\n        pools[poolsCount] = Pool(\r\n            _Token,\r\n            msg.sender,\r\n            _FinishTime,\r\n            _Rate,\r\n            _MainCoin,\r\n            _StartAmount,\r\n            _IsLocked,\r\n            _StartAmount,\r\n            block.timestamp,\r\n            Openforall,\r\n            0,\r\n            false\r\n        );\r\n        poolsMap[msg.sender].push(poolsCount);\r\n        poolsCount++;\r\n        //transfer the tokens\r\n        ERC20(_Token).transferFrom(msg.sender, address(this), _StartAmount);\r\n        emit TransferIn(_StartAmount, msg.sender, _Token);\r\n        emit NewPool(_Token, poolsCount - 1);\r\n    }\r\n\r\n    function TestAllownce(\r\n        address _token,\r\n        address _owner,\r\n        uint256 _amount\r\n    ) public view returns (bool) {\r\n        return ERC20(_token).allowance(_owner, address(this)) >= _amount;\r\n    }\r\n\r\n    // Basic check if this is a erc20 token\r\n    function IsERC20(address _contractAddress) internal view returns (bool) {\r\n        if (ERC20(_contractAddress).totalSupply() > 0) return true;\r\n        return false;\r\n    }\r\n\r\n    //Give all the id's of the pools open by sender address\r\n    function GetMyPoolsId() public view returns (uint256[]) {\r\n        return poolsMap[msg.sender];\r\n    }\r\n\r\n    function WithdrawLeftOvers(uint256 _PoolId) external {\r\n        require(\r\n            pools[_PoolId].Creator == msg.sender || Admin == msg.sender,\r\n            \"Only the creator can Withdraw (or Admin)\"\r\n        ); //or admin\r\n        require(\r\n            pools[_PoolId].FinishTime >= now &&\r\n                pools[_PoolId].Lefttokens > 0 &&\r\n                !pools[_PoolId].TookLeftOvers,\r\n            \"Wrong pool status not enable to withdraw\"\r\n        ); //pool is finished + got left overs + did not took them\r\n        pools[_PoolId].TookLeftOvers = true;\r\n        ERC20(pools[_PoolId].Token).transfer(\r\n            pools[_PoolId].Creator,\r\n            pools[_PoolId].Lefttokens\r\n        );\r\n        //check if owner, check if finished, check if got leftovers , transfer Tokens\r\n    }\r\n\r\n    //give the data of the pool, by id\r\n    function GetPoolData(uint256 _id)\r\n        public\r\n        view\r\n        returns (       \r\n            PoolStatus, \r\n            address,\r\n            uint256,\r\n            address,\r\n            uint256,\r\n            uint256         \r\n        )\r\n    {\r\n        return (\r\n            //check if sender POZ Invester?\r\n            GetPoolStatus(_id),\r\n            pools[_id].Token,\r\n            pools[_id].Rate,\r\n            pools[_id].Maincoin, //incase of ETH will be address.zero\r\n            pools[_id].StartAmount,\r\n            pools[_id].Lefttokens\r\n        );\r\n    }\r\n        function GetMorePoolData(uint256 _id)\r\n        public\r\n        view\r\n        returns (       \r\n            bool,\r\n            uint256,\r\n            uint256,\r\n            address\r\n        )\r\n    {\r\n        return (\r\n            pools[_id].IsLocked,\r\n            pools[_id].FinishTime,\r\n            pools[_id].OpenForAll,\r\n            pools[_id].Creator\r\n        );\r\n    }\r\n\r\n    //calculate the status of a pool - TODO\r\n    function GetPoolStatus(uint256 _id) public view returns (PoolStatus) {\r\n        require(_id < poolsCount, \"Wrong pool id\");\r\n        //Don't like the logic here - ToDo Boolean checks (truth table)\r\n        if (now < pools[_id].OpenForAll && pools[_id].Lefttokens > 0) {\r\n            //got tokens + only poz investors\r\n            return PoolStatus.Created;\r\n        }\r\n        if (\r\n            now >= pools[_id].OpenForAll &&\r\n            pools[_id].Lefttokens > 0 &&\r\n            now < pools[_id].FinishTime\r\n        ) {\r\n            //got tokens + all investors\r\n            return PoolStatus.Open;\r\n        }\r\n        if (\r\n            pools[_id].Lefttokens == 0 &&\r\n            pools[_id].IsLocked &&\r\n            now < pools[_id].FinishTime\r\n        ) //no tokens on locked pool, got time\r\n        {\r\n            return PoolStatus.OutOfstock;\r\n        }\r\n        if (\r\n            pools[_id].Lefttokens == 0 && !pools[_id].IsLocked\r\n        ) //no tokens on direct pool\r\n        {\r\n            return PoolStatus.Close;\r\n        }\r\n        if (\r\n            pools[_id].Lefttokens > 0 &&\r\n            !pools[_id].IsLocked &&\r\n            !pools[_id].TookLeftOvers\r\n        ) {\r\n            //Got left overs on direct pool\r\n            return PoolStatus.Finished;\r\n        }\r\n        if (now >= pools[_id].FinishTime && !pools[_id].IsLocked) {\r\n            // After finish time - not locked\r\n            if (pools[_id].TookLeftOvers) return PoolStatus.Close;\r\n            return PoolStatus.Finished;\r\n        }\r\n        if (now >= pools[_id].FinishTime && pools[_id].IsLocked) {\r\n            // After finish time -  locked\r\n            if (\r\n                (pools[_id].TookLeftOvers || pools[_id].Lefttokens == 0) &&\r\n                pools[_id].StartAmount - pools[_id].Lefttokens ==\r\n                pools[_id].UnlockedTokens\r\n            ) return PoolStatus.Close;\r\n            return PoolStatus.Finished;\r\n        }\r\n    }\r\n\r\n    address public POZ_Address= address(0x0);\r\n\r\n    function IsPozInvestor(address _investor) public view returns (bool) {\r\n        if (POZ_Address == address(0x0)) return true; // for test\r\n        return (ERC20(POZ_Address).balanceOf(_investor) >= MinPoz);\r\n    }\r\n\r\n    //@dev Send in wei\r\n    function InvestETH(uint256 _PoolId) external payable {\r\n        require(_PoolId < poolsCount, \"Wrong pool id\");\r\n        require(pools[_PoolId].Maincoin == address(0x0), \"Pool is not for ETH\");\r\n        require(msg.value > 0, \"send ETH to invest\");\r\n        require(msg.value > 10000, \"send more ETH to invest\");\r\n        //check if Poz investor;\r\n        emit TransferInETH(msg.value, msg.sender);\r\n        Investors[TotalInvestors] = Investor(\r\n            _PoolId,\r\n            msg.sender,\r\n            msg.value,\r\n            IsPozInvestor(msg.sender),\r\n            0,\r\n            block.timestamp\r\n        );\r\n        InvestorsMap[msg.sender].push(TotalInvestors);\r\n        TotalInvestors++;\r\n        if (\r\n            GetPoolStatus(_PoolId) == PoolStatus.Created &&\r\n            IsPozInvestor(msg.sender) &&\r\n            WithDiscount <= pools[_PoolId].Lefttokens //Got The Tokens\r\n        ) {\r\n            uint256 WithDiscount = ((msg.value / pools[_PoolId].Rate) / 10000) *\r\n                (10000 + PozDiscount);\r\n            //Only for Poz Investor, better price\r\n            pools[_PoolId].Lefttokens -= WithDiscount;\r\n            if (pools[_PoolId].IsLocked) {\r\n                // not locked, will transfer the toke\r\n                Investors[TotalInvestors - 1].TokensOwn = WithDiscount;\r\n            } else {\r\n                emit TransferOut(\r\n                    WithDiscount,\r\n                    msg.sender,\r\n                    pools[_PoolId].Token\r\n                );\r\n                ERC20(pools[_PoolId].Token).transfer(msg.sender, WithDiscount);\r\n            }\r\n            uint256 EthMinusFee = (msg.value / 10000) * (10000 - PozFee);\r\n            emit TransferOutETH(EthMinusFee, pools[_PoolId].Creator);\r\n            pools[_PoolId].Creator.transfer(EthMinusFee); // send money to project owner - the fee stays on contract\r\n            if (pools[_PoolId].Lefttokens == 0) emit FinishPool(_PoolId);\r\n            return;\r\n        }\r\n        if (\r\n            GetPoolStatus(_PoolId) == PoolStatus.Open &&\r\n            TokensAmount <= pools[_PoolId].Lefttokens //Got The Tokens\r\n        ) {\r\n            uint256 TokensAmount = msg.value / pools[_PoolId].Rate;\r\n            //all can invest, no discout price\r\n            pools[_PoolId].Lefttokens -= TokensAmount;\r\n            if (pools[_PoolId].IsLocked) {\r\n                // not locked, will transfer the tokens\r\n                Investors[TotalInvestors - 1].TokensOwn = TokensAmount;\r\n            } else {\r\n                emit TransferOut(\r\n                    TokensAmount,\r\n                    msg.sender,\r\n                    pools[_PoolId].Token\r\n                );\r\n                ERC20(pools[_PoolId].Token).transfer(msg.sender, TokensAmount);\r\n            }\r\n            emit TransferOutETH(\r\n                (msg.value / 10000) * (10000 - Fee),\r\n                pools[_PoolId].Creator\r\n            );\r\n            pools[_PoolId].Creator.transfer(\r\n                (msg.value / 10000) * (10000 - Fee)\r\n            ); // send money to project owner - the fee stays on contract\r\n            if (pools[_PoolId].Lefttokens == 0) emit FinishPool(_PoolId);\r\n            return;\r\n        }\r\n        //can't invest OutOfstock,Finished,Close // TODO - make msg\r\n        revert(\"Investment not complited\");\r\n    }\r\n\r\n       /*function InvestERC20(uint256 _PoolId,uint _Amount) external payable {\r\n        require(_PoolId < poolsCount, \"Wrong pool id\");\r\n        require(pools[_PoolId].Maincoin != address(0x0), \"Pool is for ETH, use InvetETH\");\r\n        require(ERC20(pools[_PoolId].Maincoin).allowance(msg.sender,address(this)) >= _Amount, \"Tokens not aproved\");\r\n        //check if Poz investor;\r\n        emit TransferInETH(msg.value, msg.sender);\r\n        Investors[TotalInvestors] = Investor(\r\n            _PoolId,\r\n            msg.sender,\r\n            msg.value,\r\n            IsPozInvestor(msg.sender),\r\n            0,\r\n            block.timestamp\r\n        );\r\n        InvestorsMap[msg.sender].push(TotalInvestors);\r\n        TotalInvestors++;\r\n        if (\r\n            GetPoolStatus(_PoolId) == PoolStatus.Created &&\r\n            IsPozInvestor(msg.sender) &&\r\n            WithDiscount <= pools[_PoolId].Lefttokens //Got The Tokens\r\n        ) {\r\n            uint256 WithDiscount = ((msg.value / pools[_PoolId].Rate) / 10000) *\r\n                (10000 + PozDiscount);\r\n            //Only for Poz Investor, better price\r\n            pools[_PoolId].Lefttokens -= WithDiscount;\r\n            if (pools[_PoolId].IsLocked) {\r\n                // not locked, will transfer the toke\r\n                Investors[TotalInvestors - 1].TokensOwn = WithDiscount;\r\n            } else {\r\n                emit TransferOut(\r\n                    WithDiscount,\r\n                    msg.sender,\r\n                    pools[_PoolId].Token\r\n                );\r\n                ERC20(pools[_PoolId].Token).transfer(msg.sender, WithDiscount);\r\n            }\r\n            uint256 EthMinusFee = (msg.value / 10000) * (10000 - PozFee);\r\n            emit TransferOutETH(EthMinusFee, pools[_PoolId].Creator);\r\n            pools[_PoolId].Creator.transfer(EthMinusFee); // send money to project owner - the fee stays on contract\r\n            if (pools[_PoolId].Lefttokens == 0) emit FinishPool(_PoolId);\r\n            return;\r\n        }\r\n        if (\r\n            GetPoolStatus(_PoolId) == PoolStatus.Open &&\r\n            TokensAmount <= pools[_PoolId].Lefttokens //Got The Tokens\r\n        ) {\r\n            uint256 TokensAmount = msg.value / pools[_PoolId].Rate;\r\n            //all can invest, no discout price\r\n            pools[_PoolId].Lefttokens -= TokensAmount;\r\n            if (pools[_PoolId].IsLocked) {\r\n                // not locked, will transfer the tokens\r\n                Investors[TotalInvestors - 1].TokensOwn = TokensAmount;\r\n            } else {\r\n                emit TransferOut(\r\n                    TokensAmount,\r\n                    msg.sender,\r\n                    pools[_PoolId].Token\r\n                );\r\n                ERC20(pools[_PoolId].Token).transfer(msg.sender, TokensAmount);\r\n            }\r\n            emit TransferOutETH(\r\n                (msg.value / 10000) * (10000 - Fee),\r\n                pools[_PoolId].Creator\r\n            );\r\n            pools[_PoolId].Creator.transfer(\r\n                (msg.value / 10000) * (10000 - Fee)\r\n            ); // send money to project owner - the fee stays on contract\r\n            if (pools[_PoolId].Lefttokens == 0) emit FinishPool(_PoolId);\r\n            return;\r\n        }\r\n        //can't invest OutOfstock,Finished,Close // TODO - make msg\r\n        revert(\"Investment not complited\");\r\n    }*/\r\n    function WithdrawInvestment(uint256 _id) public {\r\n        require(\r\n            msg.sender == Investors[_id].InvestorAddress || msg.sender == Admin,\r\n            \"Only Investor can Withdraw (Or Admin)\"\r\n        );\r\n        require(_id < TotalInvestors, \"Wrong id\");\r\n        require(Investors[_id].TokensOwn > 0, \"No tokens to Withdraw\");\r\n        emit TransferOut(\r\n            Investors[_id].TokensOwn,\r\n            Investors[_id].InvestorAddress,\r\n            pools[Investors[_id].Poolid].Token\r\n        );\r\n        ERC20(pools[Investors[_id].Poolid].Token).transfer(\r\n            Investors[_id].InvestorAddress,\r\n            Investors[_id].TokensOwn\r\n        );\r\n        Investors[_id].TokensOwn = 0;\r\n    }\r\n\r\n    //Give all the id's of the investment  by sender address\r\n    function GetMyInvestmentIds() public view returns (uint256[]) {\r\n        return InvestorsMap[msg.sender];\r\n    }\r\n\r\n    //Investorsr Data\r\n    uint256 TotalInvestors;\r\n    mapping(uint256 => Investor) Investors;\r\n    mapping(address => uint256[]) InvestorsMap;\r\n    struct Investor {\r\n        uint256 Poolid; //the id of the pool, he got the rate info and the token, check if looked pool\r\n        address InvestorAddress; //\r\n        uint256 MainCoin; //the amount of the main coin invested (eth/dai), calc with rate\r\n        bool IsPozInvestor; //If the blance of the address got > MinPoz, can get discout if got early\r\n        uint256 TokensOwn; //the amount of Tokens the investor needto get from the contract\r\n        uint256 InvestTime; //the time that investment made\r\n    }\r\n} //end of ThePoolz\r\n",
  "sourcePath": "C:/Users/Administrator/Desktop/Code/Poolz/contracts/ThePoolz.sol",
  "compiler": {
    "name": "solc",
    "version": "0.4.26+commit.4563c3fc.Emscripten.clang"
  },
  "schemaVersion": "3.2.5",
  "updatedAt": "2020-09-29T09:57:13.885Z",
  "networkType": "ethereum",
  "devdoc": {
    "methods": {}
  },
  "userdoc": {
    "methods": {}
  }
}