{
  "contractName": "ThePoolz",
  "abi": [
    {
      "constant": true,
      "inputs": [],
      "name": "MinDuration",
      "outputs": [
        {
          "name": "",
          "type": "uint256"
        }
      ],
      "payable": false,
      "stateMutability": "view",
      "type": "function"
    },
    {
      "constant": true,
      "inputs": [],
      "name": "POZ_Address",
      "outputs": [
        {
          "name": "",
          "type": "address"
        }
      ],
      "payable": false,
      "stateMutability": "view",
      "type": "function"
    },
    {
      "constant": true,
      "inputs": [
        {
          "name": "",
          "type": "address"
        }
      ],
      "name": "ERC20MainCoins",
      "outputs": [
        {
          "name": "",
          "type": "bool"
        }
      ],
      "payable": false,
      "stateMutability": "view",
      "type": "function"
    },
    {
      "constant": true,
      "inputs": [],
      "name": "PozFee",
      "outputs": [
        {
          "name": "",
          "type": "uint256"
        }
      ],
      "payable": false,
      "stateMutability": "view",
      "type": "function"
    },
    {
      "constant": true,
      "inputs": [
        {
          "name": "",
          "type": "address"
        },
        {
          "name": "",
          "type": "uint256"
        }
      ],
      "name": "poolsMap",
      "outputs": [
        {
          "name": "",
          "type": "uint256"
        }
      ],
      "payable": false,
      "stateMutability": "view",
      "type": "function"
    },
    {
      "constant": true,
      "inputs": [],
      "name": "poolsCount",
      "outputs": [
        {
          "name": "",
          "type": "uint256"
        }
      ],
      "payable": false,
      "stateMutability": "view",
      "type": "function"
    },
    {
      "constant": true,
      "inputs": [],
      "name": "MinPoz",
      "outputs": [
        {
          "name": "",
          "type": "uint256"
        }
      ],
      "payable": false,
      "stateMutability": "view",
      "type": "function"
    },
    {
      "constant": true,
      "inputs": [],
      "name": "PozTimer",
      "outputs": [
        {
          "name": "",
          "type": "uint256"
        }
      ],
      "payable": false,
      "stateMutability": "view",
      "type": "function"
    },
    {
      "constant": true,
      "inputs": [
        {
          "name": "",
          "type": "uint256"
        }
      ],
      "name": "pools",
      "outputs": [
        {
          "name": "Token",
          "type": "address"
        },
        {
          "name": "Creator",
          "type": "address"
        },
        {
          "name": "FinishTime",
          "type": "uint256"
        },
        {
          "name": "Rate",
          "type": "uint256"
        },
        {
          "name": "POZRate",
          "type": "uint256"
        },
        {
          "name": "Maincoin",
          "type": "address"
        },
        {
          "name": "StartAmount",
          "type": "uint256"
        },
        {
          "name": "IsLocked",
          "type": "bool"
        },
        {
          "name": "Lefttokens",
          "type": "uint256"
        },
        {
          "name": "StartTime",
          "type": "uint256"
        },
        {
          "name": "OpenForAll",
          "type": "uint256"
        },
        {
          "name": "UnlockedTokens",
          "type": "uint256"
        },
        {
          "name": "TookLeftOvers",
          "type": "bool"
        }
      ],
      "payable": false,
      "stateMutability": "view",
      "type": "function"
    },
    {
      "constant": true,
      "inputs": [],
      "name": "Fee",
      "outputs": [
        {
          "name": "",
          "type": "uint256"
        }
      ],
      "payable": false,
      "stateMutability": "view",
      "type": "function"
    },
    {
      "constant": true,
      "inputs": [],
      "name": "Admin",
      "outputs": [
        {
          "name": "",
          "type": "address"
        }
      ],
      "payable": false,
      "stateMutability": "view",
      "type": "function"
    },
    {
      "inputs": [],
      "payable": false,
      "stateMutability": "nonpayable",
      "type": "constructor"
    },
    {
      "payable": true,
      "stateMutability": "payable",
      "type": "fallback"
    },
    {
      "anonymous": false,
      "inputs": [
        {
          "indexed": false,
          "name": "Amount",
          "type": "uint256"
        },
        {
          "indexed": false,
          "name": "To",
          "type": "address"
        },
        {
          "indexed": false,
          "name": "Token",
          "type": "address"
        }
      ],
      "name": "TransferOut",
      "type": "event"
    },
    {
      "anonymous": false,
      "inputs": [
        {
          "indexed": false,
          "name": "Amount",
          "type": "uint256"
        },
        {
          "indexed": false,
          "name": "To",
          "type": "address"
        }
      ],
      "name": "TransferOutETH",
      "type": "event"
    },
    {
      "anonymous": false,
      "inputs": [
        {
          "indexed": false,
          "name": "Amount",
          "type": "uint256"
        },
        {
          "indexed": false,
          "name": "From",
          "type": "address"
        },
        {
          "indexed": false,
          "name": "Token",
          "type": "address"
        }
      ],
      "name": "TransferIn",
      "type": "event"
    },
    {
      "anonymous": false,
      "inputs": [
        {
          "indexed": false,
          "name": "Amount",
          "type": "uint256"
        },
        {
          "indexed": false,
          "name": "From",
          "type": "address"
        }
      ],
      "name": "TransferInETH",
      "type": "event"
    },
    {
      "anonymous": false,
      "inputs": [
        {
          "indexed": false,
          "name": "token",
          "type": "address"
        },
        {
          "indexed": false,
          "name": "id",
          "type": "uint256"
        }
      ],
      "name": "NewPool",
      "type": "event"
    },
    {
      "anonymous": false,
      "inputs": [
        {
          "indexed": false,
          "name": "id",
          "type": "uint256"
        }
      ],
      "name": "FinishPool",
      "type": "event"
    },
    {
      "constant": true,
      "inputs": [],
      "name": "GetLastPoolId",
      "outputs": [
        {
          "name": "",
          "type": "uint256"
        }
      ],
      "payable": false,
      "stateMutability": "view",
      "type": "function"
    },
    {
      "constant": true,
      "inputs": [],
      "name": "GetLastInvestorId",
      "outputs": [
        {
          "name": "",
          "type": "uint256"
        }
      ],
      "payable": false,
      "stateMutability": "view",
      "type": "function"
    },
    {
      "constant": false,
      "inputs": [
        {
          "name": "_to",
          "type": "address"
        }
      ],
      "name": "WithdrawETHFee",
      "outputs": [],
      "payable": false,
      "stateMutability": "nonpayable",
      "type": "function"
    },
    {
      "constant": false,
      "inputs": [
        {
          "name": "_newOwner",
          "type": "address"
        }
      ],
      "name": "transferOwnership",
      "outputs": [],
      "payable": false,
      "stateMutability": "nonpayable",
      "type": "function"
    },
    {
      "constant": false,
      "inputs": [
        {
          "name": "_token",
          "type": "address"
        }
      ],
      "name": "AddERC20Maincoin",
      "outputs": [],
      "payable": false,
      "stateMutability": "nonpayable",
      "type": "function"
    },
    {
      "constant": false,
      "inputs": [
        {
          "name": "_token",
          "type": "address"
        }
      ],
      "name": "RemoveERC20Maincoin",
      "outputs": [],
      "payable": false,
      "stateMutability": "nonpayable",
      "type": "function"
    },
    {
      "constant": true,
      "inputs": [
        {
          "name": "_token",
          "type": "address"
        }
      ],
      "name": "IsERC20Maincoin",
      "outputs": [
        {
          "name": "",
          "type": "bool"
        }
      ],
      "payable": false,
      "stateMutability": "view",
      "type": "function"
    },
    {
      "constant": false,
      "inputs": [
        {
          "name": "_Token",
          "type": "address"
        },
        {
          "name": "_FinishTime",
          "type": "uint256"
        },
        {
          "name": "_Rate",
          "type": "uint256"
        },
        {
          "name": "_POZRate",
          "type": "uint256"
        },
        {
          "name": "_StartAmount",
          "type": "uint256"
        },
        {
          "name": "_IsLocked",
          "type": "bool"
        },
        {
          "name": "_MainCoin",
          "type": "address"
        }
      ],
      "name": "CreatePool",
      "outputs": [],
      "payable": false,
      "stateMutability": "nonpayable",
      "type": "function"
    },
    {
      "constant": true,
      "inputs": [
        {
          "name": "_token",
          "type": "address"
        },
        {
          "name": "_owner",
          "type": "address"
        },
        {
          "name": "_amount",
          "type": "uint256"
        }
      ],
      "name": "TestAllownce",
      "outputs": [
        {
          "name": "",
          "type": "bool"
        }
      ],
      "payable": false,
      "stateMutability": "view",
      "type": "function"
    },
    {
      "constant": true,
      "inputs": [],
      "name": "GetMyPoolsId",
      "outputs": [
        {
          "name": "",
          "type": "uint256[]"
        }
      ],
      "payable": false,
      "stateMutability": "view",
      "type": "function"
    },
    {
      "constant": false,
      "inputs": [
        {
          "name": "_PoolId",
          "type": "uint256"
        }
      ],
      "name": "WithdrawLeftOvers",
      "outputs": [],
      "payable": false,
      "stateMutability": "nonpayable",
      "type": "function"
    },
    {
      "constant": true,
      "inputs": [
        {
          "name": "_id",
          "type": "uint256"
        }
      ],
      "name": "GetPoolData",
      "outputs": [
        {
          "name": "",
          "type": "uint8"
        },
        {
          "name": "",
          "type": "address"
        },
        {
          "name": "",
          "type": "uint256"
        },
        {
          "name": "",
          "type": "address"
        },
        {
          "name": "",
          "type": "uint256"
        },
        {
          "name": "",
          "type": "uint256"
        }
      ],
      "payable": false,
      "stateMutability": "view",
      "type": "function"
    },
    {
      "constant": true,
      "inputs": [
        {
          "name": "_id",
          "type": "uint256"
        }
      ],
      "name": "GetMorePoolData",
      "outputs": [
        {
          "name": "",
          "type": "bool"
        },
        {
          "name": "",
          "type": "uint256"
        },
        {
          "name": "",
          "type": "uint256"
        },
        {
          "name": "",
          "type": "address"
        }
      ],
      "payable": false,
      "stateMutability": "view",
      "type": "function"
    },
    {
      "constant": true,
      "inputs": [
        {
          "name": "_id",
          "type": "uint256"
        }
      ],
      "name": "GetPoolStatus",
      "outputs": [
        {
          "name": "",
          "type": "uint8"
        }
      ],
      "payable": false,
      "stateMutability": "view",
      "type": "function"
    },
    {
      "constant": true,
      "inputs": [
        {
          "name": "_investor",
          "type": "address"
        }
      ],
      "name": "IsPozInvestor",
      "outputs": [
        {
          "name": "",
          "type": "bool"
        }
      ],
      "payable": false,
      "stateMutability": "view",
      "type": "function"
    },
    {
      "constant": false,
      "inputs": [
        {
          "name": "_PoolId",
          "type": "uint256"
        }
      ],
      "name": "InvestETH",
      "outputs": [],
      "payable": true,
      "stateMutability": "payable",
      "type": "function"
    },
    {
      "constant": false,
      "inputs": [
        {
          "name": "_id",
          "type": "uint256"
        }
      ],
      "name": "WithdrawInvestment",
      "outputs": [],
      "payable": false,
      "stateMutability": "nonpayable",
      "type": "function"
    },
    {
      "constant": true,
      "inputs": [],
      "name": "GetMyInvestmentIds",
      "outputs": [
        {
          "name": "",
          "type": "uint256[]"
        }
      ],
      "payable": false,
      "stateMutability": "view",
      "type": "function"
    }
  ],
  "bytecode": "0x60806040526000600a60006101000a81548173ffffffffffffffffffffffffffffffffffffffff021916908373ffffffffffffffffffffffffffffffffffffffff16021790555034801561005257600080fd5b50336000806101000a81548173ffffffffffffffffffffffffffffffffffffffff021916908373ffffffffffffffffffffffffffffffffffffffff160217905550601460018190555060116002819055506103e86003819055506050600481905550600060058190555060006006819055506000600b819055506139df806100db6000396000f300608060405260043610610174576000357c0100000000000000000000000000000000000000000000000000000000900463ffffffff168062ea9216146101795780630d08caa0146101bc57806321c667ed1461020b57806327ca36ec146102905780632ef680a7146102bb5780633037548a1461031257806353eb31671461036d57806356793bc71461039857806363552a49146103f957806364de14ad1461046557806366b91da914610490578063837cf00e1461051657806387e3c599146105715780638c788de01461059e57806391314dde146105c9578063991e979a14610635578063a38c654914610678578063a8df42f2146106bb578063abb7add2146106e6578063ac4afa3814610711578063bef7a2f014610832578063c5053add1461085d578063e890671614610888578063ea9223a6146108e3578063f04be48b146109ad578063f2fde38b146109cd578063fd711a5514610a10578063ff02c51314610a3d578063ff1b636d14610ad4575b600080fd5b34801561018557600080fd5b506101ba600480360381019080803573ffffffffffffffffffffffffffffffffffffffff169060200190929190505050610b2b565b005b3480156101c857600080fd5b506101e760048036038101908080359060200190929190505050610be1565b604051808260048111156101f757fe5b60ff16815260200191505060405180910390f35b34801561021757600080fd5b50610276600480360381019080803573ffffffffffffffffffffffffffffffffffffffff169060200190929190803573ffffffffffffffffffffffffffffffffffffffff16906020019092919080359060200190929190505050610fe0565b604051808215151515815260200191505060405180910390f35b34801561029c57600080fd5b506102a56110f8565b6040518082815260200191505060405180910390f35b3480156102c757600080fd5b506102d06110fe565b604051808273ffffffffffffffffffffffffffffffffffffffff1673ffffffffffffffffffffffffffffffffffffffff16815260200191505060405180910390f35b34801561031e57600080fd5b50610353600480360381019080803573ffffffffffffffffffffffffffffffffffffffff169060200190929190505050611124565b604051808215151515815260200191505060405180910390f35b34801561037957600080fd5b50610382611144565b6040518082815260200191505060405180910390f35b3480156103a457600080fd5b506103e3600480360381019080803573ffffffffffffffffffffffffffffffffffffffff1690602001909291908035906020019092919050505061114a565b6040518082815260200191505060405180910390f35b34801561040557600080fd5b5061040e61117a565b6040518080602001828103825283818151815260200191508051906020019060200280838360005b83811015610451578082015181840152602081019050610436565b505050509050019250505060405180910390f35b34801561047157600080fd5b5061047a61120f565b6040518082815260200191505060405180910390f35b34801561049c57600080fd5b506104bb60048036038101908080359060200190929190505050611219565b60405180851515151581526020018481526020018381526020018273ffffffffffffffffffffffffffffffffffffffff1673ffffffffffffffffffffffffffffffffffffffff16815260200194505050505060405180910390f35b34801561052257600080fd5b50610557600480360381019080803573ffffffffffffffffffffffffffffffffffffffff1690602001909291905050506112b7565b604051808215151515815260200191505060405180910390f35b34801561057d57600080fd5b5061059c6004803603810190808035906020019092919050505061141d565b005b3480156105aa57600080fd5b506105b3611947565b6040518082815260200191505060405180910390f35b3480156105d557600080fd5b506105de61194d565b6040518080602001828103825283818151815260200191508051906020019060200280838360005b83811015610621578082015181840152602081019050610606565b505050509050019250505060405180910390f35b34801561064157600080fd5b50610676600480360381019080803573ffffffffffffffffffffffffffffffffffffffff1690602001909291905050506119e2565b005b34801561068457600080fd5b506106b9600480360381019080803573ffffffffffffffffffffffffffffffffffffffff169060200190929190505050611b07565b005b3480156106c757600080fd5b506106d0611bbd565b6040518082815260200191505060405180910390f35b3480156106f257600080fd5b506106fb611bc3565b6040518082815260200191505060405180910390f35b34801561071d57600080fd5b5061073c60048036038101908080359060200190929190505050611bc9565b604051808e73ffffffffffffffffffffffffffffffffffffffff1673ffffffffffffffffffffffffffffffffffffffff1681526020018d73ffffffffffffffffffffffffffffffffffffffff1673ffffffffffffffffffffffffffffffffffffffff1681526020018c81526020018b81526020018a81526020018973ffffffffffffffffffffffffffffffffffffffff1673ffffffffffffffffffffffffffffffffffffffff16815260200188815260200187151515158152602001868152602001858152602001848152602001838152602001821515151581526020019d505050505050505050505050505060405180910390f35b34801561083e57600080fd5b50610847611ca9565b6040518082815260200191505060405180910390f35b34801561086957600080fd5b50610872611caf565b6040518082815260200191505060405180910390f35b34801561089457600080fd5b506108c9600480360381019080803573ffffffffffffffffffffffffffffffffffffffff169060200190929190505050611cb9565b604051808215151515815260200191505060405180910390f35b3480156108ef57600080fd5b5061090e60048036038101908080359060200190929190505050611d0f565b6040518087600481111561091e57fe5b60ff1681526020018673ffffffffffffffffffffffffffffffffffffffff1673ffffffffffffffffffffffffffffffffffffffff1681526020018581526020018473ffffffffffffffffffffffffffffffffffffffff1673ffffffffffffffffffffffffffffffffffffffff168152602001838152602001828152602001965050505050505060405180910390f35b6109cb60048036038101908080359060200190929190505050611e63565b005b3480156109d957600080fd5b50610a0e600480360381019080803573ffffffffffffffffffffffffffffffffffffffff169060200190929190505050612bd9565b005b348015610a1c57600080fd5b50610a3b60048036038101908080359060200190929190505050612ce0565b005b348015610a4957600080fd5b50610ad2600480360381019080803573ffffffffffffffffffffffffffffffffffffffff16906020019092919080359060200190929190803590602001909291908035906020019092919080359060200190929190803515159060200190929190803573ffffffffffffffffffffffffffffffffffffffff16906020019092919050505061317e565b005b348015610ae057600080fd5b50610ae96138d3565b604051808273ffffffffffffffffffffffffffffffffffffffff1673ffffffffffffffffffffffffffffffffffffffff16815260200191505060405180910390f35b6000809054906101000a900473ffffffffffffffffffffffffffffffffffffffff1673ffffffffffffffffffffffffffffffffffffffff163373ffffffffffffffffffffffffffffffffffffffff16141515610b8657600080fd5b6000600960008373ffffffffffffffffffffffffffffffffffffffff1673ffffffffffffffffffffffffffffffffffffffff16815260200190815260200160002060006101000a81548160ff02191690831515021790555050565b60006006548211151515610c5d576040517f08c379a000000000000000000000000000000000000000000000000000000000815260040180806020018281038252600d8152602001807f57726f6e6720706f6f6c2069640000000000000000000000000000000000000081525060200191505060405180910390fd5b60076000838152602001908152602001600020600a015442108015610c98575060006007600084815260200190815260200160002060080154115b15610ca65760009050610fdb565b60076000838152602001908152602001600020600a01544210158015610ce2575060006007600084815260200190815260200160002060080154115b8015610d035750600760008381526020019081526020016000206002015442105b15610d115760019050610fdb565b60006007600084815260200190815260200160002060080154148015610d5757506007600083815260200190815260200160002060070160009054906101000a900460ff165b8015610d785750600760008381526020019081526020016000206002015442105b15610d865760029050610fdb565b60006007600084815260200190815260200160002060080154148015610dcd57506007600083815260200190815260200160002060070160009054906101000a900460ff16155b15610ddb5760049050610fdb565b60006007600084815260200190815260200160002060080154118015610e2257506007600083815260200190815260200160002060070160009054906101000a900460ff16155b8015610e4f575060076000838152602001908152602001600020600c0160009054906101000a900460ff16155b15610e5d5760039050610fdb565b60076000838152602001908152602001600020600201544210158015610ea457506007600083815260200190815260200160002060070160009054906101000a900460ff16155b15610ee45760076000838152602001908152602001600020600c0160009054906101000a900460ff1615610edb5760049050610fdb565b60039050610fdb565b60076000838152602001908152602001600020600201544210158015610f2a57506007600083815260200190815260200160002060070160009054906101000a900460ff165b15610fda5760076000838152602001908152602001600020600c0160009054906101000a900460ff1680610f74575060006007600084815260200190815260200160002060080154145b8015610fc3575060076000838152602001908152602001600020600b01546007600084815260200190815260200160002060080154600760008581526020019081526020016000206006015403145b15610fd15760049050610fdb565b60039050610fdb565b5b919050565b6000818473ffffffffffffffffffffffffffffffffffffffff1663dd62ed3e85306040518363ffffffff167c0100000000000000000000000000000000000000000000000000000000028152600401808373ffffffffffffffffffffffffffffffffffffffff1673ffffffffffffffffffffffffffffffffffffffff1681526020018273ffffffffffffffffffffffffffffffffffffffff1673ffffffffffffffffffffffffffffffffffffffff16815260200192505050602060405180830381600087803b1580156110b257600080fd5b505af11580156110c6573d6000803e3d6000fd5b505050506040513d60208110156110dc57600080fd5b8101908080519060200190929190505050101590509392505050565b60055481565b600a60009054906101000a900473ffffffffffffffffffffffffffffffffffffffff1681565b60096020528060005260406000206000915054906101000a900460ff1681565b60025481565b60086020528160005260406000208181548110151561116557fe5b90600052602060002001600091509150505481565b6060600860003373ffffffffffffffffffffffffffffffffffffffff1673ffffffffffffffffffffffffffffffffffffffff16815260200190815260200160002080548060200260200160405190810160405280929190818152602001828054801561120557602002820191906000526020600020905b8154815260200190600101908083116111f1575b5050505050905090565b6000600b54905090565b6000806000806007600086815260200190815260200160002060070160009054906101000a900460ff16600760008781526020019081526020016000206002015460076000888152602001908152602001600020600a01546007600089815260200190815260200160002060010160009054906101000a900473ffffffffffffffffffffffffffffffffffffffff1693509350935093509193509193565b60008073ffffffffffffffffffffffffffffffffffffffff16600a60009054906101000a900473ffffffffffffffffffffffffffffffffffffffff1673ffffffffffffffffffffffffffffffffffffffff1614156113185760019050611418565b600454600a60009054906101000a900473ffffffffffffffffffffffffffffffffffffffff1673ffffffffffffffffffffffffffffffffffffffff166370a08231846040518263ffffffff167c0100000000000000000000000000000000000000000000000000000000028152600401808273ffffffffffffffffffffffffffffffffffffffff1673ffffffffffffffffffffffffffffffffffffffff168152602001915050602060405180830381600087803b1580156113d857600080fd5b505af11580156113ec573d6000803e3d6000fd5b505050506040513d602081101561140257600080fd5b8101908080519060200190929190505050101590505b919050565b600c600082815260200190815260200160002060010160009054906101000a900473ffffffffffffffffffffffffffffffffffffffff1673ffffffffffffffffffffffffffffffffffffffff163373ffffffffffffffffffffffffffffffffffffffff1614806114d957506000809054906101000a900473ffffffffffffffffffffffffffffffffffffffff1673ffffffffffffffffffffffffffffffffffffffff163373ffffffffffffffffffffffffffffffffffffffff16145b1515611573576040517f08c379a00000000000000000000000000000000000000000000000000000000081526004018080602001828103825260258152602001807f4f6e6c7920496e766573746f722063616e20576974686472617720284f72204181526020017f646d696e2900000000000000000000000000000000000000000000000000000081525060400191505060405180910390fd5b600b54811015156115ec576040517f08c379a00000000000000000000000000000000000000000000000000000000081526004018080602001828103825260088152602001807f57726f6e6720696400000000000000000000000000000000000000000000000081525060200191505060405180910390fd5b6000600c60008381526020019081526020016000206004015411151561167a576040517f08c379a00000000000000000000000000000000000000000000000000000000081526004018080602001828103825260158152602001807f4e6f20746f6b656e7320746f205769746864726177000000000000000000000081525060200191505060405180910390fd5b7fe4d818e6f992efbd60db553f3edce819a199baec79a784b95c89bc8ee86f2584600c600083815260200190815260200160002060040154600c600084815260200190815260200160002060010160009054906101000a900473ffffffffffffffffffffffffffffffffffffffff1660076000600c600087815260200190815260200160002060000154815260200190815260200160002060000160009054906101000a900473ffffffffffffffffffffffffffffffffffffffff16604051808481526020018373ffffffffffffffffffffffffffffffffffffffff1673ffffffffffffffffffffffffffffffffffffffff1681526020018273ffffffffffffffffffffffffffffffffffffffff1673ffffffffffffffffffffffffffffffffffffffff168152602001935050505060405180910390a160076000600c600084815260200190815260200160002060000154815260200190815260200160002060000160009054906101000a900473ffffffffffffffffffffffffffffffffffffffff1673ffffffffffffffffffffffffffffffffffffffff1663a9059cbb600c600084815260200190815260200160002060010160009054906101000a900473ffffffffffffffffffffffffffffffffffffffff16600c6000858152602001908152602001600020600401546040518363ffffffff167c0100000000000000000000000000000000000000000000000000000000028152600401808373ffffffffffffffffffffffffffffffffffffffff1673ffffffffffffffffffffffffffffffffffffffff16815260200182815260200192505050602060405180830381600087803b1580156118ec57600080fd5b505af1158015611900573d6000803e3d6000fd5b505050506040513d602081101561191657600080fd5b8101908080519060200190929190505050506000600c60008381526020019081526020016000206004018190555050565b60065481565b6060600d60003373ffffffffffffffffffffffffffffffffffffffff1673ffffffffffffffffffffffffffffffffffffffff1681526020019081526020016000208054806020026020016040519081016040528092919081815260200182805480156119d857602002820191906000526020600020905b8154815260200190600101908083116119c4575b5050505050905090565b6000809054906101000a900473ffffffffffffffffffffffffffffffffffffffff1673ffffffffffffffffffffffffffffffffffffffff163373ffffffffffffffffffffffffffffffffffffffff16141515611aa6576040517f08c379a00000000000000000000000000000000000000000000000000000000081526004018080602001828103825260178152602001807f4f6e6c792061646d696e2063616e2074616b652066656500000000000000000081525060200191505060405180910390fd5b8073ffffffffffffffffffffffffffffffffffffffff166108fc3073ffffffffffffffffffffffffffffffffffffffff16319081150290604051600060405180830381858888f19350505050158015611b03573d6000803e3d6000fd5b5050565b6000809054906101000a900473ffffffffffffffffffffffffffffffffffffffff1673ffffffffffffffffffffffffffffffffffffffff163373ffffffffffffffffffffffffffffffffffffffff16141515611b6257600080fd5b6001600960008373ffffffffffffffffffffffffffffffffffffffff1673ffffffffffffffffffffffffffffffffffffffff16815260200190815260200160002060006101000a81548160ff02191690831515021790555050565b60045481565b60035481565b60076020528060005260406000206000915090508060000160009054906101000a900473ffffffffffffffffffffffffffffffffffffffff16908060010160009054906101000a900473ffffffffffffffffffffffffffffffffffffffff16908060020154908060030154908060040154908060050160009054906101000a900473ffffffffffffffffffffffffffffffffffffffff16908060060154908060070160009054906101000a900460ff169080600801549080600901549080600a01549080600b01549080600c0160009054906101000a900460ff1690508d565b60015481565b6000600654905090565b6000600960008373ffffffffffffffffffffffffffffffffffffffff1673ffffffffffffffffffffffffffffffffffffffff16815260200190815260200160002060009054906101000a900460ff169050919050565b6000806000806000806006548711151515611d92576040517f08c379a00000000000000000000000000000000000000000000000000000000081526004018080602001828103825260088152602001807f57726f6e6720496400000000000000000000000000000000000000000000000081525060200191505060405180910390fd5b611d9b87610be1565b6007600089815260200190815260200160002060000160009054906101000a900473ffffffffffffffffffffffffffffffffffffffff16600760008a815260200190815260200160002060030154600760008b815260200190815260200160002060050160009054906101000a900473ffffffffffffffffffffffffffffffffffffffff16600760008c815260200190815260200160002060060154600760008d81526020019081526020016000206008015495509550955095509550955091939550919395565b600080600060065484101515611ee1576040517f08c379a000000000000000000000000000000000000000000000000000000000815260040180806020018281038252600d8152602001807f57726f6e6720706f6f6c2069640000000000000000000000000000000000000081525060200191505060405180910390fd5b600073ffffffffffffffffffffffffffffffffffffffff166007600086815260200190815260200160002060050160009054906101000a900473ffffffffffffffffffffffffffffffffffffffff1673ffffffffffffffffffffffffffffffffffffffff16141515611fbb576040517f08c379a00000000000000000000000000000000000000000000000000000000081526004018080602001828103825260138152602001807f506f6f6c206973206e6f7420666f72204554480000000000000000000000000081525060200191505060405180910390fd5b600034111515612033576040517f08c379a00000000000000000000000000000000000000000000000000000000081526004018080602001828103825260128152602001807f73656e642045544820746f20696e76657374000000000000000000000000000081525060200191505060405180910390fd5b612710341115156120ac576040517f08c379a00000000000000000000000000000000000000000000000000000000081526004018080602001828103825260178152602001807f73656e64206d6f72652045544820746f20696e7665737400000000000000000081525060200191505060405180910390fd5b7f3a32cdd14cdfd431946dfa0b2aef5ace661340411aaadcaee6aef6738d3023263433604051808381526020018273ffffffffffffffffffffffffffffffffffffffff1673ffffffffffffffffffffffffffffffffffffffff1681526020019250505060405180910390a160c0604051908101604052808581526020013373ffffffffffffffffffffffffffffffffffffffff168152602001348152602001612154336112b7565b151581526020016000815260200142815250600c6000600b5481526020019081526020016000206000820151816000015560208201518160010160006101000a81548173ffffffffffffffffffffffffffffffffffffffff021916908373ffffffffffffffffffffffffffffffffffffffff1602179055506040820151816002015560608201518160030160006101000a81548160ff0219169083151502179055506080820151816004015560a08201518160050155905050600d60003373ffffffffffffffffffffffffffffffffffffffff1673ffffffffffffffffffffffffffffffffffffffff168152602001908152602001600020600b549080600181540180825580915050906001820390600052602060002001600090919290919091505550600b600081548092919060010191905055506000600481111561229757fe5b6122a085610be1565b60048111156122ab57fe5b1480156122bd57506122bc336112b7565b5b80156122df575060076000858152602001908152602001600020600801548311155b156126f75760076000858152602001908152602001600020600401543481151561230557fe5b0492508260076000868152602001908152602001600020600801600082825403925050819055506007600085815260200190815260200160002060070160009054906101000a900460ff161561237a5782600c60006001600b5403815260200190815260200160002060040181905550612565565b7fe4d818e6f992efbd60db553f3edce819a199baec79a784b95c89bc8ee86f258483336007600088815260200190815260200160002060000160009054906101000a900473ffffffffffffffffffffffffffffffffffffffff16604051808481526020018373ffffffffffffffffffffffffffffffffffffffff1673ffffffffffffffffffffffffffffffffffffffff1681526020018273ffffffffffffffffffffffffffffffffffffffff1673ffffffffffffffffffffffffffffffffffffffff168152602001935050505060405180910390a16007600085815260200190815260200160002060000160009054906101000a900473ffffffffffffffffffffffffffffffffffffffff1673ffffffffffffffffffffffffffffffffffffffff1663a9059cbb33856040518363ffffffff167c0100000000000000000000000000000000000000000000000000000000028152600401808373ffffffffffffffffffffffffffffffffffffffff1673ffffffffffffffffffffffffffffffffffffffff16815260200182815260200192505050602060405180830381600087803b15801561252857600080fd5b505af115801561253c573d6000803e3d6000fd5b505050506040513d602081101561255257600080fd5b8101908080519060200190929190505050505b600254612710036127103481151561257957fe5b040291507feca5ae7bd9109b0f7d228f3f8a8cc834a1f995af62df6dc226dc3ab3f38dc7b3826007600087815260200190815260200160002060010160009054906101000a900473ffffffffffffffffffffffffffffffffffffffff16604051808381526020018273ffffffffffffffffffffffffffffffffffffffff1673ffffffffffffffffffffffffffffffffffffffff1681526020019250505060405180910390a16007600085815260200190815260200160002060010160009054906101000a900473ffffffffffffffffffffffffffffffffffffffff1673ffffffffffffffffffffffffffffffffffffffff166108fc839081150290604051600060405180830381858888f1935050505015801561269a573d6000803e3d6000fd5b506000600760008681526020019081526020016000206008015414156126f2577f5aa793a17b0774b891ce2b0dd5dbe8f04132e547df384ab1053d32470050b5fa846040518082815260200191505060405180910390a15b612bd3565b6001600481111561270457fe5b61270d85610be1565b600481111561271857fe5b14801561273b575060076000858152602001908152602001600020600801548111155b15612b655760076000858152602001908152602001600020600301543481151561276157fe5b0490508060076000868152602001908152602001600020600801600082825403925050819055506007600085815260200190815260200160002060070160009054906101000a900460ff16156127d65780600c60006001600b54038152602001908152602001600020600401819055506129c1565b7fe4d818e6f992efbd60db553f3edce819a199baec79a784b95c89bc8ee86f258481336007600088815260200190815260200160002060000160009054906101000a900473ffffffffffffffffffffffffffffffffffffffff16604051808481526020018373ffffffffffffffffffffffffffffffffffffffff1673ffffffffffffffffffffffffffffffffffffffff1681526020018273ffffffffffffffffffffffffffffffffffffffff1673ffffffffffffffffffffffffffffffffffffffff168152602001935050505060405180910390a16007600085815260200190815260200160002060000160009054906101000a900473ffffffffffffffffffffffffffffffffffffffff1673ffffffffffffffffffffffffffffffffffffffff1663a9059cbb33836040518363ffffffff167c0100000000000000000000000000000000000000000000000000000000028152600401808373ffffffffffffffffffffffffffffffffffffffff1673ffffffffffffffffffffffffffffffffffffffff16815260200182815260200192505050602060405180830381600087803b15801561298457600080fd5b505af1158015612998573d6000803e3d6000fd5b505050506040513d60208110156129ae57600080fd5b8101908080519060200190929190505050505b7feca5ae7bd9109b0f7d228f3f8a8cc834a1f995af62df6dc226dc3ab3f38dc7b360015461271003612710348115156129f657fe5b04026007600087815260200190815260200160002060010160009054906101000a900473ffffffffffffffffffffffffffffffffffffffff16604051808381526020018273ffffffffffffffffffffffffffffffffffffffff1673ffffffffffffffffffffffffffffffffffffffff1681526020019250505060405180910390a16007600085815260200190815260200160002060010160009054906101000a900473ffffffffffffffffffffffffffffffffffffffff1673ffffffffffffffffffffffffffffffffffffffff166108fc6001546127100361271034811515612adb57fe5b04029081150290604051600060405180830381858888f19350505050158015612b08573d6000803e3d6000fd5b50600060076000868152602001908152602001600020600801541415612b60577f5aa793a17b0774b891ce2b0dd5dbe8f04132e547df384ab1053d32470050b5fa846040518082815260200191505060405180910390a15b612bd3565b6040517f08c379a00000000000000000000000000000000000000000000000000000000081526004018080602001828103825260188152602001807f496e766573746d656e74206e6f7420636f6d706c69746564000000000000000081525060200191505060405180910390fd5b50505050565b6000809054906101000a900473ffffffffffffffffffffffffffffffffffffffff1673ffffffffffffffffffffffffffffffffffffffff163373ffffffffffffffffffffffffffffffffffffffff16141515612c9d576040517f08c379a00000000000000000000000000000000000000000000000000000000081526004018080602001828103825260168152602001807f4f6e6c792061646d696e2063616e20646f20746861740000000000000000000081525060200191505060405180910390fd5b806000806101000a81548173ffffffffffffffffffffffffffffffffffffffff021916908373ffffffffffffffffffffffffffffffffffffffff16021790555050565b3373ffffffffffffffffffffffffffffffffffffffff166007600083815260200190815260200160002060010160009054906101000a900473ffffffffffffffffffffffffffffffffffffffff1673ffffffffffffffffffffffffffffffffffffffff161480612d9c57503373ffffffffffffffffffffffffffffffffffffffff166000809054906101000a900473ffffffffffffffffffffffffffffffffffffffff1673ffffffffffffffffffffffffffffffffffffffff16145b1515612e36576040517f08c379a00000000000000000000000000000000000000000000000000000000081526004018080602001828103825260288152602001807f4f6e6c79207468652063726561746f722063616e20576974686472617720286f81526020017f722041646d696e2900000000000000000000000000000000000000000000000081525060400191505060405180910390fd5b42600760008381526020019081526020016000206002015411151515612ec4576040517f08c379a00000000000000000000000000000000000000000000000000000000081526004018080602001828103825260128152602001807f43616e277420776974686472616520796574000000000000000000000000000081525060200191505060405180910390fd5b60006007600083815260200190815260200160002060080154111515612f52576040517f08c379a00000000000000000000000000000000000000000000000000000000081526004018080602001828103825260118152602001807f4e6f74686e696720746f2077696472617700000000000000000000000000000081525060200191505060405180910390fd5b60076000828152602001908152602001600020600c0160009054906101000a900460ff16151515612feb576040517f08c379a00000000000000000000000000000000000000000000000000000000081526004018080602001828103825260168152602001807f63616e2774207769746472617720326e642074696d650000000000000000000081525060200191505060405180910390fd5b600160076000838152602001908152602001600020600c0160006101000a81548160ff0219169083151502179055506007600082815260200190815260200160002060000160009054906101000a900473ffffffffffffffffffffffffffffffffffffffff1673ffffffffffffffffffffffffffffffffffffffff1663a9059cbb6007600084815260200190815260200160002060010160009054906101000a900473ffffffffffffffffffffffffffffffffffffffff1660076000858152602001908152602001600020600801546040518363ffffffff167c0100000000000000000000000000000000000000000000000000000000028152600401808373ffffffffffffffffffffffffffffffffffffffff1673ffffffffffffffffffffffffffffffffffffffff16815260200182815260200192505050602060405180830381600087803b15801561313f57600080fd5b505af1158015613153573d6000803e3d6000fd5b505050506040513d602081101561316957600080fd5b81019080805190602001909291905050505050565b6000613189886138f8565b15156131fd576040517f08c379a00000000000000000000000000000000000000000000000000000000081526004018080602001828103825260168152602001807f4e6565642056616c696420455243323020546f6b656e0000000000000000000081525060200191505060405180910390fd5b86600554420111151515613279576040517f08c379a000000000000000000000000000000000000000000000000000000000815260040180806020018281038252601a8152602001807f4e656564206d6f7265207468656e204d696e4475726174696f6e00000000000081525060200191505060405180910390fd5b613284883386610fe0565b15156132f8576040517f08c379a000000000000000000000000000000000000000000000000000000000815260040180806020018281038252601c8152602001807f4d75737420417070726f766520746865205472616e73616374696f6e0000000081525060200191505060405180910390fd5b600073ffffffffffffffffffffffffffffffffffffffff168273ffffffffffffffffffffffffffffffffffffffff161480613338575061333782611cb9565b5b151561334357600080fd5b8486101515156133e1576040517f08c379a00000000000000000000000000000000000000000000000000000000081526004018080602001828103825260398152602001807f504f5a20686f6c64657273206e65656420746f2068617665206265747465722081526020017f286f72207468652073616d65203d206f6666292070726963650000000000000081525060400191505060405180910390fd5b8486146134035742612710600354428a03028115156133fc57fe5b0401613405565b425b90506101a0604051908101604052808973ffffffffffffffffffffffffffffffffffffffff1681526020013373ffffffffffffffffffffffffffffffffffffffff1681526020018881526020018781526020018681526020018373ffffffffffffffffffffffffffffffffffffffff1681526020018581526020018415158152602001858152602001428152602001828152602001600081526020016000151581525060076000600654815260200190815260200160002060008201518160000160006101000a81548173ffffffffffffffffffffffffffffffffffffffff021916908373ffffffffffffffffffffffffffffffffffffffff16021790555060208201518160010160006101000a81548173ffffffffffffffffffffffffffffffffffffffff021916908373ffffffffffffffffffffffffffffffffffffffff16021790555060408201518160020155606082015181600301556080820151816004015560a08201518160050160006101000a81548173ffffffffffffffffffffffffffffffffffffffff021916908373ffffffffffffffffffffffffffffffffffffffff16021790555060c0820151816006015560e08201518160070160006101000a81548160ff0219169083151502179055506101008201518160080155610120820151816009015561014082015181600a015561016082015181600b015561018082015181600c0160006101000a81548160ff021916908315150217905550905050600860003373ffffffffffffffffffffffffffffffffffffffff1673ffffffffffffffffffffffffffffffffffffffff16815260200190815260200160002060065490806001815401808255809150509060018203906000526020600020016000909192909190915055506006600081548092919060010191905055508773ffffffffffffffffffffffffffffffffffffffff166323b872dd3330876040518463ffffffff167c0100000000000000000000000000000000000000000000000000000000028152600401808473ffffffffffffffffffffffffffffffffffffffff1673ffffffffffffffffffffffffffffffffffffffff1681526020018373ffffffffffffffffffffffffffffffffffffffff1673ffffffffffffffffffffffffffffffffffffffff1681526020018281526020019350505050602060405180830381600087803b15801561377e57600080fd5b505af1158015613792573d6000803e3d6000fd5b505050506040513d60208110156137a857600080fd5b8101908080519060200190929190505050507f1fecf4702e692891a7c2f0d328779b085efb5edd094fa5558bd5cd147a16792284338a604051808481526020018373ffffffffffffffffffffffffffffffffffffffff1673ffffffffffffffffffffffffffffffffffffffff1681526020018273ffffffffffffffffffffffffffffffffffffffff1673ffffffffffffffffffffffffffffffffffffffff168152602001935050505060405180910390a17fbe4222bc407cb12031595fc55b46531e46308d31e4572c9c4360d8ae790e1a3188600160065403604051808373ffffffffffffffffffffffffffffffffffffffff1673ffffffffffffffffffffffffffffffffffffffff1681526020018281526020019250505060405180910390a15050505050505050565b6000809054906101000a900473ffffffffffffffffffffffffffffffffffffffff1681565b6000808273ffffffffffffffffffffffffffffffffffffffff166318160ddd6040518163ffffffff167c0100000000000000000000000000000000000000000000000000000000028152600401602060405180830381600087803b15801561395f57600080fd5b505af1158015613973573d6000803e3d6000fd5b505050506040513d602081101561398957600080fd5b810190808051906020019092919050505011156139a957600190506139ae565b600090505b9190505600a165627a7a72305820d15142bba31acc927ddb01499617a929a379825e4d1fed4480f7ec32c1860f880029",
  "source": "// SPDX-License-Identifier: MIT\r\npragma solidity ^0.4.24;\r\n\r\nimport \"openzeppelin-solidity/contracts/token/ERC20/ERC20.sol\";\r\n\r\ncontract ThePoolz {\r\n    constructor() public {\r\n        Admin = msg.sender;\r\n        Fee = 20; // *10000\r\n        PozFee = 17; // *10000\r\n        PozTimer = 1000; // *10000\r\n        MinPoz = 80; // ^Token.decimals\r\n        MinDuration = 0; //need to set\r\n        poolsCount = 0; //Start with 0\r\n        //investors data\r\n        TotalInvestors = 0; // start with 0\r\n    }\r\n\r\n    event TransferOut(uint256 Amount, address To, address Token);\r\n    event TransferOutETH(uint256 Amount, address To);\r\n    event TransferIn(uint256 Amount, address From, address Token);\r\n    event TransferInETH(uint256 Amount, address From);\r\n    event NewPool(address token, uint256 id);\r\n    event FinishPool(uint256 id);\r\n\r\n    //event testing(uint256 amount); //will remove later\r\n\r\n    function GetLastPoolId() public view returns (uint256) {\r\n        return poolsCount;\r\n    }\r\n\r\n    function GetLastInvestorId() public view returns (uint256) {\r\n        return TotalInvestors;\r\n    }\r\n\r\n    function WithdrawETHFee(address _to) public {\r\n        require(msg.sender == Admin, \"Only admin can take fee\");\r\n        _to.transfer(address(this).balance); // keeps only fee eth on contract //To Do need to take 16% to burn!!!\r\n    }\r\n\r\n    function transferOwnership(address _newOwner) public {\r\n        require(msg.sender == Admin, \"Only admin can do that\");\r\n        Admin = _newOwner;\r\n    }\r\n\r\n    //@dev not allow contract to receive funds\r\n    function() public payable {\r\n        revert();\r\n    }\r\n\r\n    address public Admin; //only admin can change the global settings\r\n    //Global settings\r\n    uint256 public Fee; //the fee for the pool\r\n    uint256 public PozFee; // the fee for the first part of the pool\r\n    uint256 public PozTimer; //the timer for the first part fo the pool\r\n    //uint256 public PozDiscount; // The discout the first part of the pool got //*Moved inside the Pool, can select on create */\r\n    //address FeeWallet; //keep in contract //the wallet getting the fee\r\n    uint256 public MinPoz; //minimum ammount ofpoz to be part of the discount\r\n    uint256 public MinDuration; //the minimum duration of a pool, in seconds\r\n    enum PoolStatus {Created, Open, OutOfstock, Finished, Close} //the status of the pools\r\n    //ERC20 public ERC20Interface; // for transfering ERC20 tokens // save the last token\r\n    uint256 public poolsCount; // the ids of the pool\r\n    struct Pool {\r\n        address Token; //the address of the erc20 toke for sale\r\n        address Creator; //the project owner\r\n        uint256 FinishTime; //Until what time the pool is active\r\n        uint256 Rate; //for eth Wei, in token, by the decemal. the cost of 1 token\r\n        uint256 POZRate; //the rate for the until OpenForAll, if the same as Rate , OpenForAll = StartTime .\r\n        address Maincoin; // on adress.zero = ETH\r\n        uint256 StartAmount; //The total amount of the tokens for sale\r\n        bool IsLocked; // true - the investors getting the tokens after the FinishTime. false - intant deal\r\n        uint256 Lefttokens; // the ammount of tokens left for sale\r\n        uint256 StartTime; // the time the pool open\r\n        uint256 OpenForAll; // The Time that all investors can invest\r\n        uint256 UnlockedTokens; //for locked pools\r\n        bool TookLeftOvers; //The Creator took the left overs after the pool finished\r\n    }\r\n\r\n    mapping(uint256 => Pool) public pools; //the id of the pool with the data\r\n    mapping(address => uint256[]) public poolsMap; //the address and all of the pools id's\r\n    mapping(address => bool) public ERC20MainCoins; //when approve new erc20 main coin - it will list here\r\n\r\n    function AddERC20Maincoin(address _token) public {\r\n        require(msg.sender == Admin);\r\n        ERC20MainCoins[_token] = true;\r\n    }\r\n\r\n    function RemoveERC20Maincoin(address _token) public {\r\n        require(msg.sender == Admin);\r\n        ERC20MainCoins[_token] = false;\r\n    }\r\n\r\n    function IsERC20Maincoin(address _token) public view returns (bool) {\r\n        return ERC20MainCoins[_token];\r\n    }\r\n    //create a new pool\r\n    function CreatePool(\r\n        address _Token, //token to sell address\r\n        uint256 _FinishTime, //Until what time the pool will work\r\n        uint256 _Rate, //the rate of the trade\r\n        uint256 _POZRate, //the rate for POZ Holders\r\n        uint256 _StartAmount, //Total amount of the tokens to sell i nthe pool\r\n        bool _IsLocked, //False = DSP or True = TLP\r\n        address _MainCoin // address(0x0) = ETH, address of main token\r\n    ) external {\r\n        require(IsERC20(_Token), \"Need Valid ERC20 Token\"); //check if _Token is ERC20\r\n        require(now + MinDuration <= _FinishTime, \"Need more then MinDuration\"); // check if the time is OK\r\n        require(\r\n            TestAllownce(_Token, msg.sender, _StartAmount),\r\n            \"Must Approve the Transaction\"\r\n        );\r\n        require(_MainCoin == address(0x0) || IsERC20Maincoin(_MainCoin));\r\n        require(_Rate >= _POZRate, \"POZ holders need to have better (or the same = off) price\");\r\n        uint256 Openforall = (_Rate == _POZRate)?block.timestamp:((_FinishTime - block.timestamp) * PozTimer) /\r\n            10000 +\r\n            block.timestamp;\r\n        //register the pool\r\n        pools[poolsCount] = Pool(\r\n            _Token,\r\n            msg.sender,\r\n            _FinishTime,\r\n            _Rate,\r\n            _POZRate,\r\n            _MainCoin,\r\n            _StartAmount,\r\n            _IsLocked,\r\n            _StartAmount,\r\n            block.timestamp,\r\n            Openforall,\r\n            0,\r\n            false\r\n        );\r\n        poolsMap[msg.sender].push(poolsCount);\r\n        poolsCount++;\r\n        //transfer the tokens\r\n        ERC20(_Token).transferFrom(msg.sender, address(this), _StartAmount);\r\n        emit TransferIn(_StartAmount, msg.sender, _Token);\r\n        emit NewPool(_Token, poolsCount - 1);\r\n    }\r\n\r\n    function TestAllownce(\r\n        address _token,\r\n        address _owner,\r\n        uint256 _amount\r\n    ) public view returns (bool) {\r\n        return ERC20(_token).allowance(_owner, address(this)) >= _amount;\r\n    }\r\n\r\n    // Basic check if this is a erc20 token\r\n    function IsERC20(address _contractAddress) internal view returns (bool) {\r\n        if (ERC20(_contractAddress).totalSupply() > 0) return true;\r\n        return false;\r\n    }\r\n\r\n    //Give all the id's of the pools open by sender address\r\n    function GetMyPoolsId() public view returns (uint256[]) {\r\n        return poolsMap[msg.sender];\r\n    }\r\n\r\n    function WithdrawLeftOvers(uint256 _PoolId) external {\r\n        require(\r\n            pools[_PoolId].Creator == msg.sender || Admin == msg.sender,\r\n            \"Only the creator can Withdraw (or Admin)\"\r\n        ); //or admin\r\n        require(pools[_PoolId].FinishTime <= now, \"Can't withdrae yet\");\r\n        require(pools[_PoolId].Lefttokens > 0, \"Nothnig to widraw\");\r\n        require(!pools[_PoolId].TookLeftOvers, \"can't witdraw 2nd time\");\r\n        //pool is finished + got left overs + did not took them\r\n        pools[_PoolId].TookLeftOvers = true;\r\n        ERC20(pools[_PoolId].Token).transfer(\r\n            pools[_PoolId].Creator,\r\n            pools[_PoolId].Lefttokens\r\n        );\r\n        //check if owner, check if finished, check if got leftovers , transfer Tokens\r\n    }\r\n\r\n    //give the data of the pool, by id\r\n    function GetPoolData(uint256 _id)\r\n        public\r\n        view\r\n        returns (\r\n            PoolStatus,\r\n            address,\r\n            uint256,\r\n            address,\r\n            uint256,\r\n            uint256\r\n        )\r\n    {\r\n        require(_id <= poolsCount, \"Wrong Id\");\r\n        return (\r\n            //check if sender POZ Invester?\r\n            GetPoolStatus(_id),\r\n            pools[_id].Token,\r\n            pools[_id].Rate,\r\n            pools[_id].Maincoin, //incase of ETH will be address.zero\r\n            pools[_id].StartAmount,\r\n            pools[_id].Lefttokens\r\n        );\r\n    }\r\n\r\n    function GetMorePoolData(uint256 _id)\r\n        public\r\n        view\r\n        returns (\r\n            bool,\r\n            uint256,\r\n            uint256,\r\n            address\r\n        )\r\n    {\r\n        return (\r\n            pools[_id].IsLocked,\r\n            pools[_id].FinishTime,\r\n            pools[_id].OpenForAll,\r\n            pools[_id].Creator\r\n        );\r\n    }\r\n\r\n    //calculate the status of a pool - TODO\r\n    function GetPoolStatus(uint256 _id) public view returns (PoolStatus) {\r\n        require(_id <= poolsCount, \"Wrong pool id\");\r\n        //Don't like the logic here - ToDo Boolean checks (truth table)\r\n        if (now < pools[_id].OpenForAll && pools[_id].Lefttokens > 0) {\r\n            //got tokens + only poz investors\r\n            return PoolStatus.Created;\r\n        }\r\n        if (\r\n            now >= pools[_id].OpenForAll &&\r\n            pools[_id].Lefttokens > 0 &&\r\n            now < pools[_id].FinishTime\r\n        ) {\r\n            //got tokens + all investors\r\n            return PoolStatus.Open;\r\n        }\r\n        if (\r\n            pools[_id].Lefttokens == 0 &&\r\n            pools[_id].IsLocked &&\r\n            now < pools[_id].FinishTime\r\n        ) //no tokens on locked pool, got time\r\n        {\r\n            return PoolStatus.OutOfstock;\r\n        }\r\n        if (\r\n            pools[_id].Lefttokens == 0 && !pools[_id].IsLocked\r\n        ) //no tokens on direct pool\r\n        {\r\n            return PoolStatus.Close;\r\n        }\r\n        if (\r\n            pools[_id].Lefttokens > 0 &&\r\n            !pools[_id].IsLocked &&\r\n            !pools[_id].TookLeftOvers\r\n        ) {\r\n            //Got left overs on direct pool\r\n            return PoolStatus.Finished;\r\n        }\r\n        if (now >= pools[_id].FinishTime && !pools[_id].IsLocked) {\r\n            // After finish time - not locked\r\n            if (pools[_id].TookLeftOvers) return PoolStatus.Close;\r\n            return PoolStatus.Finished;\r\n        }\r\n        if (now >= pools[_id].FinishTime && pools[_id].IsLocked) {\r\n            // After finish time -  locked\r\n            if (\r\n                (pools[_id].TookLeftOvers || pools[_id].Lefttokens == 0) &&\r\n                pools[_id].StartAmount - pools[_id].Lefttokens ==\r\n                pools[_id].UnlockedTokens\r\n            ) return PoolStatus.Close;\r\n            return PoolStatus.Finished;\r\n        }\r\n    }\r\n\r\n    address public POZ_Address = address(0x0);\r\n\r\n    function IsPozInvestor(address _investor) public view returns (bool) {\r\n        if (POZ_Address == address(0x0)) return true; // for test\r\n        return (ERC20(POZ_Address).balanceOf(_investor) >= MinPoz);\r\n    }\r\n\r\n    //@dev Send in wei\r\n    function InvestETH(uint256 _PoolId) external payable {\r\n        require(_PoolId < poolsCount, \"Wrong pool id\");\r\n        require(pools[_PoolId].Maincoin == address(0x0), \"Pool is not for ETH\");\r\n        require(msg.value > 0, \"send ETH to invest\");\r\n        require(msg.value > 10000, \"send more ETH to invest\");\r\n        //check if Poz investor;\r\n        emit TransferInETH(msg.value, msg.sender);\r\n        Investors[TotalInvestors] = Investor(\r\n            _PoolId,\r\n            msg.sender,\r\n            msg.value,\r\n            IsPozInvestor(msg.sender),\r\n            0,\r\n            block.timestamp\r\n        );\r\n        InvestorsMap[msg.sender].push(TotalInvestors);\r\n        TotalInvestors++;\r\n        if (\r\n            GetPoolStatus(_PoolId) == PoolStatus.Created &&\r\n            IsPozInvestor(msg.sender) &&\r\n            WithDiscount <= pools[_PoolId].Lefttokens //Got The Tokens\r\n        ) {\r\n            uint256 WithDiscount = msg.value / pools[_PoolId].POZRate;\r\n            //Only for Poz Investor, better price\r\n            pools[_PoolId].Lefttokens -= WithDiscount;\r\n            if (pools[_PoolId].IsLocked) {\r\n                // not locked, will transfer the toke\r\n                Investors[TotalInvestors - 1].TokensOwn = WithDiscount;\r\n            } else {\r\n                emit TransferOut(\r\n                    WithDiscount,\r\n                    msg.sender,\r\n                    pools[_PoolId].Token\r\n                );\r\n                ERC20(pools[_PoolId].Token).transfer(msg.sender, WithDiscount);\r\n            }\r\n            uint256 EthMinusFee = (msg.value / 10000) * (10000 - PozFee);\r\n            emit TransferOutETH(EthMinusFee, pools[_PoolId].Creator);\r\n            pools[_PoolId].Creator.transfer(EthMinusFee); // send money to project owner - the fee stays on contract\r\n            if (pools[_PoolId].Lefttokens == 0) emit FinishPool(_PoolId);\r\n            return;\r\n        }\r\n        if (\r\n            GetPoolStatus(_PoolId) == PoolStatus.Open &&\r\n            TokensAmount <= pools[_PoolId].Lefttokens //Got The Tokens\r\n        ) {\r\n            uint256 TokensAmount = msg.value / pools[_PoolId].Rate;\r\n            //all can invest, no discout price\r\n            pools[_PoolId].Lefttokens -= TokensAmount;\r\n            if (pools[_PoolId].IsLocked) {\r\n                // not locked, will transfer the tokens\r\n                Investors[TotalInvestors - 1].TokensOwn = TokensAmount;\r\n            } else {\r\n                emit TransferOut(\r\n                    TokensAmount,\r\n                    msg.sender,\r\n                    pools[_PoolId].Token\r\n                );\r\n                ERC20(pools[_PoolId].Token).transfer(msg.sender, TokensAmount);\r\n            }\r\n            emit TransferOutETH(\r\n                (msg.value / 10000) * (10000 - Fee),\r\n                pools[_PoolId].Creator\r\n            );\r\n            pools[_PoolId].Creator.transfer(\r\n                (msg.value / 10000) * (10000 - Fee)\r\n            ); // send money to project owner - the fee stays on contract\r\n            if (pools[_PoolId].Lefttokens == 0) emit FinishPool(_PoolId);\r\n            return;\r\n        }\r\n        //can't invest OutOfstock,Finished,Close // TODO - make msg\r\n        revert(\"Investment not complited\");\r\n    }\r\n\r\n    /* function InvestERC20(uint256 _PoolId,uint _Amount) external payable {\r\n        require(_PoolId < poolsCount, \"Wrong pool id\");\r\n        require(pools[_PoolId].Maincoin != address(0x0), \"Pool is for ETH, use InvetETH\");\r\n        require(ERC20(pools[_PoolId].Maincoin).allowance(msg.sender,address(this)) >= _Amount, \"Tokens not aproved\");\r\n        //check if Poz investor;\r\n        emit TransferIn(pools[_PoolId].Maincoin,_Amount, msg.sender);\r\n        Investors[TotalInvestors] = Investor(\r\n            _PoolId,\r\n            msg.sender,\r\n            msg.value,\r\n            IsPozInvestor(msg.sender),\r\n            0,\r\n            block.timestamp\r\n        );\r\n        InvestorsMap[msg.sender].push(TotalInvestors);\r\n        TotalInvestors++;\r\n        if (\r\n            GetPoolStatus(_PoolId) == PoolStatus.Created &&\r\n            IsPozInvestor(msg.sender) &&\r\n            WithDiscount <= pools[_PoolId].Lefttokens //Got The Tokens\r\n        ) {\r\n            uint256 WithDiscount = ((msg.value / pools[_PoolId].Rate) / 10000) *\r\n                (10000 + PozDiscount);\r\n            //Only for Poz Investor, better price\r\n            pools[_PoolId].Lefttokens -= WithDiscount;\r\n            if (pools[_PoolId].IsLocked) {\r\n                // not locked, will transfer the toke\r\n                Investors[TotalInvestors - 1].TokensOwn = WithDiscount;\r\n            } else {\r\n                emit TransferOut(\r\n                    WithDiscount,\r\n                    msg.sender,\r\n                    pools[_PoolId].Token\r\n                );\r\n                ERC20(pools[_PoolId].Token).transfer(msg.sender, WithDiscount);\r\n            }\r\n            uint256 EthMinusFee = (msg.value / 10000) * (10000 - PozFee);\r\n            emit TransferOutETH(EthMinusFee, pools[_PoolId].Creator);\r\n            pools[_PoolId].Creator.transfer(EthMinusFee); // send money to project owner - the fee stays on contract\r\n            if (pools[_PoolId].Lefttokens == 0) emit FinishPool(_PoolId);\r\n            return;\r\n        }\r\n        if (\r\n            GetPoolStatus(_PoolId) == PoolStatus.Open &&\r\n            TokensAmount <= pools[_PoolId].Lefttokens //Got The Tokens\r\n        ) {\r\n            uint256 TokensAmount = msg.value / pools[_PoolId].Rate;\r\n            //all can invest, no discout price\r\n            pools[_PoolId].Lefttokens -= TokensAmount;\r\n            if (pools[_PoolId].IsLocked) {\r\n                // not locked, will transfer the tokens\r\n                Investors[TotalInvestors - 1].TokensOwn = TokensAmount;\r\n            } else {\r\n                emit TransferOut(\r\n                    TokensAmount,\r\n                    msg.sender,\r\n                    pools[_PoolId].Token\r\n                );\r\n                ERC20(pools[_PoolId].Token).transfer(msg.sender, TokensAmount);\r\n            }\r\n            emit TransferOutETH(\r\n                (msg.value / 10000) * (10000 - Fee),\r\n                pools[_PoolId].Creator\r\n            );\r\n            pools[_PoolId].Creator.transfer(\r\n                (msg.value / 10000) * (10000 - Fee)\r\n            ); // send money to project owner - the fee stays on contract\r\n            if (pools[_PoolId].Lefttokens == 0) emit FinishPool(_PoolId);\r\n            return;\r\n        }\r\n        //can't invest OutOfstock,Finished,Close // TODO - make msg\r\n        revert(\"Investment not complited\");\r\n    }*/\r\n\r\n    function WithdrawInvestment(uint256 _id) public {\r\n        require(\r\n            msg.sender == Investors[_id].InvestorAddress || msg.sender == Admin,\r\n            \"Only Investor can Withdraw (Or Admin)\"\r\n        );\r\n        require(_id < TotalInvestors, \"Wrong id\");\r\n        require(Investors[_id].TokensOwn > 0, \"No tokens to Withdraw\");\r\n        emit TransferOut(\r\n            Investors[_id].TokensOwn,\r\n            Investors[_id].InvestorAddress,\r\n            pools[Investors[_id].Poolid].Token\r\n        );\r\n        ERC20(pools[Investors[_id].Poolid].Token).transfer(\r\n            Investors[_id].InvestorAddress,\r\n            Investors[_id].TokensOwn\r\n        );\r\n        Investors[_id].TokensOwn = 0;\r\n    }\r\n\r\n    //Give all the id's of the investment  by sender address\r\n    function GetMyInvestmentIds() public view returns (uint256[]) {\r\n        return InvestorsMap[msg.sender];\r\n    }\r\n\r\n    //Investorsr Data\r\n    uint256 TotalInvestors;\r\n    mapping(uint256 => Investor) Investors;\r\n    mapping(address => uint256[]) InvestorsMap;\r\n    struct Investor {\r\n        uint256 Poolid; //the id of the pool, he got the rate info and the token, check if looked pool\r\n        address InvestorAddress; //\r\n        uint256 MainCoin; //the amount of the main coin invested (eth/dai), calc with rate\r\n        bool IsPozInvestor; //If the blance of the address got > MinPoz, can get discout if got early\r\n        uint256 TokensOwn; //the amount of Tokens the investor needto get from the contract\r\n        uint256 InvestTime; //the time that investment made\r\n    }\r\n} //end of ThePoolz\r\n",
  "sourcePath": "C:/Users/Administrator/Desktop/Code/Poolz/contracts/ThePoolz.sol",
  "compiler": {
    "name": "solc",
    "version": "0.4.26+commit.4563c3fc.Emscripten.clang"
  },
  "schemaVersion": "3.2.5",
  "updatedAt": "2020-09-29T13:41:14.117Z",
  "networkType": "ethereum",
  "devdoc": {
    "methods": {}
  },
  "userdoc": {
    "methods": {}
  }
}