{
  "contractName": "ThePoolz",
  "abi": [
    {
      "constant": true,
      "inputs": [],
      "name": "MinDuration",
      "outputs": [
        {
          "name": "",
          "type": "uint256"
        }
      ],
      "payable": false,
      "stateMutability": "view",
      "type": "function"
    },
    {
      "constant": true,
      "inputs": [],
      "name": "POZ_Address",
      "outputs": [
        {
          "name": "",
          "type": "address"
        }
      ],
      "payable": false,
      "stateMutability": "view",
      "type": "function"
    },
    {
      "constant": true,
      "inputs": [],
      "name": "PozFee",
      "outputs": [
        {
          "name": "",
          "type": "uint256"
        }
      ],
      "payable": false,
      "stateMutability": "view",
      "type": "function"
    },
    {
      "constant": true,
      "inputs": [
        {
          "name": "",
          "type": "address"
        },
        {
          "name": "",
          "type": "uint256"
        }
      ],
      "name": "poolsMap",
      "outputs": [
        {
          "name": "",
          "type": "uint256"
        }
      ],
      "payable": false,
      "stateMutability": "view",
      "type": "function"
    },
    {
      "constant": true,
      "inputs": [],
      "name": "poolsCount",
      "outputs": [
        {
          "name": "",
          "type": "uint256"
        }
      ],
      "payable": false,
      "stateMutability": "view",
      "type": "function"
    },
    {
      "constant": true,
      "inputs": [],
      "name": "MinPoz",
      "outputs": [
        {
          "name": "",
          "type": "uint256"
        }
      ],
      "payable": false,
      "stateMutability": "view",
      "type": "function"
    },
    {
      "constant": true,
      "inputs": [],
      "name": "PozTimer",
      "outputs": [
        {
          "name": "",
          "type": "uint256"
        }
      ],
      "payable": false,
      "stateMutability": "view",
      "type": "function"
    },
    {
      "constant": true,
      "inputs": [
        {
          "name": "",
          "type": "uint256"
        }
      ],
      "name": "pools",
      "outputs": [
        {
          "name": "Token",
          "type": "address"
        },
        {
          "name": "Creator",
          "type": "address"
        },
        {
          "name": "FinishTime",
          "type": "uint256"
        },
        {
          "name": "Rate",
          "type": "uint256"
        },
        {
          "name": "PaymentIsETH",
          "type": "bool"
        },
        {
          "name": "StartAmount",
          "type": "uint256"
        },
        {
          "name": "IsLocked",
          "type": "bool"
        },
        {
          "name": "Lefttokens",
          "type": "uint256"
        },
        {
          "name": "StartTime",
          "type": "uint256"
        },
        {
          "name": "OpenForAll",
          "type": "uint256"
        }
      ],
      "payable": false,
      "stateMutability": "view",
      "type": "function"
    },
    {
      "constant": true,
      "inputs": [],
      "name": "Fee",
      "outputs": [
        {
          "name": "",
          "type": "uint256"
        }
      ],
      "payable": false,
      "stateMutability": "view",
      "type": "function"
    },
    {
      "constant": true,
      "inputs": [],
      "name": "PozDiscount",
      "outputs": [
        {
          "name": "",
          "type": "uint256"
        }
      ],
      "payable": false,
      "stateMutability": "view",
      "type": "function"
    },
    {
      "constant": true,
      "inputs": [],
      "name": "Dai_Address",
      "outputs": [
        {
          "name": "",
          "type": "address"
        }
      ],
      "payable": false,
      "stateMutability": "view",
      "type": "function"
    },
    {
      "constant": true,
      "inputs": [],
      "name": "Admin",
      "outputs": [
        {
          "name": "",
          "type": "address"
        }
      ],
      "payable": false,
      "stateMutability": "view",
      "type": "function"
    },
    {
      "inputs": [],
      "payable": false,
      "stateMutability": "nonpayable",
      "type": "constructor"
    },
    {
      "constant": false,
      "inputs": [
        {
          "name": "_Token",
          "type": "address"
        },
        {
          "name": "_FinishTime",
          "type": "uint256"
        },
        {
          "name": "_Rate",
          "type": "uint256"
        },
        {
          "name": "_PaymentIsETH",
          "type": "bool"
        },
        {
          "name": "_StartAmount",
          "type": "uint256"
        },
        {
          "name": "_IsLocked",
          "type": "bool"
        }
      ],
      "name": "CreatePool",
      "outputs": [],
      "payable": false,
      "stateMutability": "nonpayable",
      "type": "function"
    },
    {
      "constant": true,
      "inputs": [],
      "name": "GetMyPoolsId",
      "outputs": [
        {
          "name": "",
          "type": "uint256[]"
        }
      ],
      "payable": false,
      "stateMutability": "view",
      "type": "function"
    },
    {
      "constant": true,
      "inputs": [
        {
          "name": "_id",
          "type": "uint256"
        }
      ],
      "name": "GetPoolData",
      "outputs": [
        {
          "name": "",
          "type": "address"
        },
        {
          "name": "",
          "type": "uint256"
        },
        {
          "name": "",
          "type": "uint256"
        },
        {
          "name": "",
          "type": "bool"
        },
        {
          "name": "",
          "type": "uint256"
        },
        {
          "name": "",
          "type": "bool"
        }
      ],
      "payable": false,
      "stateMutability": "view",
      "type": "function"
    },
    {
      "constant": true,
      "inputs": [
        {
          "name": "_id",
          "type": "uint256"
        }
      ],
      "name": "GetPoolStatus",
      "outputs": [
        {
          "name": "",
          "type": "uint8"
        }
      ],
      "payable": false,
      "stateMutability": "view",
      "type": "function"
    },
    {
      "constant": true,
      "inputs": [
        {
          "name": "_investor",
          "type": "address"
        }
      ],
      "name": "IsPozInvestor",
      "outputs": [
        {
          "name": "",
          "type": "bool"
        }
      ],
      "payable": false,
      "stateMutability": "view",
      "type": "function"
    },
    {
      "constant": false,
      "inputs": [
        {
          "name": "_PoolId",
          "type": "uint256"
        }
      ],
      "name": "InvestETH",
      "outputs": [],
      "payable": true,
      "stateMutability": "payable",
      "type": "function"
    },
    {
      "constant": true,
      "inputs": [],
      "name": "GetMyInvestmentIds",
      "outputs": [
        {
          "name": "",
          "type": "uint256[]"
        }
      ],
      "payable": false,
      "stateMutability": "view",
      "type": "function"
    }
  ],
  "bytecode": "0x608060405234801561001057600080fd5b50336000806101000a81548173ffffffffffffffffffffffffffffffffffffffff021916908373ffffffffffffffffffffffffffffffffffffffff160217905550601460018190555060116002819055506103e86003819055506104b06004819055506050600581905550600060068190555060006007819055506000600c81905550611c80806100a26000396000f300608060405260043610610107576000357c0100000000000000000000000000000000000000000000000000000000900463ffffffff1680630d08caa01461010c5780630fbbab401461015b57806327ca36ec146101d45780632ef680a7146101ff57806353eb31671461025657806356793bc71461028157806363552a49146102e2578063837cf00e1461034e5780638c788de0146103a957806391314dde146103d4578063a8df42f214610440578063abb7add21461046b578063ac4afa3814610496578063bef7a2f014610576578063ea9223a6146105a1578063f04be48b14610639578063f5636c3414610659578063fc7aeeaa14610684578063ff1b636d146106db575b600080fd5b34801561011857600080fd5b5061013760048036038101908080359060200190929190505050610732565b6040518082600481111561014757fe5b60ff16815260200191505060405180910390f35b34801561016757600080fd5b506101d2600480360381019080803573ffffffffffffffffffffffffffffffffffffffff169060200190929190803590602001909291908035906020019092919080351515906020019092919080359060200190929190803515159060200190929190505050610811565b005b3480156101e057600080fd5b506101e9610dd9565b6040518082815260200191505060405180910390f35b34801561020b57600080fd5b50610214610ddf565b604051808273ffffffffffffffffffffffffffffffffffffffff1673ffffffffffffffffffffffffffffffffffffffff16815260200191505060405180910390f35b34801561026257600080fd5b5061026b610e05565b6040518082815260200191505060405180910390f35b34801561028d57600080fd5b506102cc600480360381019080803573ffffffffffffffffffffffffffffffffffffffff16906020019092919080359060200190929190505050610e0b565b6040518082815260200191505060405180910390f35b3480156102ee57600080fd5b506102f7610e3b565b6040518080602001828103825283818151815260200191508051906020019060200280838360005b8381101561033a57808201518184015260208101905061031f565b505050509050019250505060405180910390f35b34801561035a57600080fd5b5061038f600480360381019080803573ffffffffffffffffffffffffffffffffffffffff169060200190929190505050610ed0565b604051808215151515815260200191505060405180910390f35b3480156103b557600080fd5b506103be611058565b6040518082815260200191505060405180910390f35b3480156103e057600080fd5b506103e961105e565b6040518080602001828103825283818151815260200191508051906020019060200280838360005b8381101561042c578082015181840152602081019050610411565b505050509050019250505060405180910390f35b34801561044c57600080fd5b506104556110f3565b6040518082815260200191505060405180910390f35b34801561047757600080fd5b506104806110f9565b6040518082815260200191505060405180910390f35b3480156104a257600080fd5b506104c1600480360381019080803590602001909291905050506110ff565b604051808b73ffffffffffffffffffffffffffffffffffffffff1673ffffffffffffffffffffffffffffffffffffffff1681526020018a73ffffffffffffffffffffffffffffffffffffffff1673ffffffffffffffffffffffffffffffffffffffff16815260200189815260200188815260200187151515158152602001868152602001851515151581526020018481526020018381526020018281526020019a505050505050505050505060405180910390f35b34801561058257600080fd5b5061058b6111ad565b6040518082815260200191505060405180910390f35b3480156105ad57600080fd5b506105cc600480360381019080803590602001909291905050506111b3565b604051808773ffffffffffffffffffffffffffffffffffffffff1673ffffffffffffffffffffffffffffffffffffffff1681526020018681526020018581526020018415151515815260200183815260200182151515158152602001965050505050505060405180910390f35b61065760048036038101908080359060200190929190505050611295565b005b34801561066557600080fd5b5061066e611b48565b6040518082815260200191505060405180910390f35b34801561069057600080fd5b50610699611b4e565b604051808273ffffffffffffffffffffffffffffffffffffffff1673ffffffffffffffffffffffffffffffffffffffff16815260200191505060405180910390f35b3480156106e757600080fd5b506106f0611b74565b604051808273ffffffffffffffffffffffffffffffffffffffff1673ffffffffffffffffffffffffffffffffffffffff16815260200191505060405180910390f35b600042600860008481526020019081526020016000206002015411156107dc576000600860008481526020019081526020016000206007015411156107a1576008600083815260200190815260200160002060090154421115610798576001905061080c565b6000905061080c565b6008600083815260200190815260200160002060060160009054906101000a900460ff16156107d3576002905061080c565b6004905061080c565b6008600083815260200190815260200160002060060160009054906101000a900460ff161561080a5761080b565b5b5b919050565b600061081c87611b99565b1515610890576040517f08c379a00000000000000000000000000000000000000000000000000000000081526004018080602001828103825260168152602001807f4e6565642056616c696420455243323020546f6b656e0000000000000000000081525060200191505060405180910390fd5b8560065442011115151561090c576040517f08c379a000000000000000000000000000000000000000000000000000000000815260040180806020018281038252601a8152602001807f4e656564206d6f7265207468656e204d696e4475726174696f6e00000000000081525060200191505060405180910390fd5b828773ffffffffffffffffffffffffffffffffffffffff1663dd62ed3e33306040518363ffffffff167c0100000000000000000000000000000000000000000000000000000000028152600401808373ffffffffffffffffffffffffffffffffffffffff1673ffffffffffffffffffffffffffffffffffffffff1681526020018273ffffffffffffffffffffffffffffffffffffffff1673ffffffffffffffffffffffffffffffffffffffff16815260200192505050602060405180830381600087803b1580156109dc57600080fd5b505af11580156109f0573d6000803e3d6000fd5b505050506040513d6020811015610a0657600080fd5b810190808051906020019092919050505010151515610a8d576040517f08c379a000000000000000000000000000000000000000000000000000000000815260040180806020018281038252601c8152602001807f4d75737420417070726f766520746865205472616e73616374696f6e0000000081525060200191505060405180910390fd5b4261271060035442890302811515610aa157fe5b04019050610140604051908101604052808873ffffffffffffffffffffffffffffffffffffffff1681526020013373ffffffffffffffffffffffffffffffffffffffff168152602001878152602001868152602001851515815260200184815260200183151581526020018481526020014281526020018281525060086000600754815260200190815260200160002060008201518160000160006101000a81548173ffffffffffffffffffffffffffffffffffffffff021916908373ffffffffffffffffffffffffffffffffffffffff16021790555060208201518160010160006101000a81548173ffffffffffffffffffffffffffffffffffffffff021916908373ffffffffffffffffffffffffffffffffffffffff160217905550604082015181600201556060820151816003015560808201518160040160006101000a81548160ff02191690831515021790555060a0820151816005015560c08201518160060160006101000a81548160ff02191690831515021790555060e0820151816007015561010082015181600801556101208201518160090155905050600960003373ffffffffffffffffffffffffffffffffffffffff1673ffffffffffffffffffffffffffffffffffffffff16815260200190815260200160002060075490806001815401808255809150509060018203906000526020600020016000909192909190915055506007600081548092919060010191905055508673ffffffffffffffffffffffffffffffffffffffff166323b872dd3330866040518463ffffffff167c0100000000000000000000000000000000000000000000000000000000028152600401808473ffffffffffffffffffffffffffffffffffffffff1673ffffffffffffffffffffffffffffffffffffffff1681526020018373ffffffffffffffffffffffffffffffffffffffff1673ffffffffffffffffffffffffffffffffffffffff1681526020018281526020019350505050602060405180830381600087803b158015610d9457600080fd5b505af1158015610da8573d6000803e3d6000fd5b505050506040513d6020811015610dbe57600080fd5b81019080805190602001909291905050505050505050505050565b60065481565b600a60009054906101000a900473ffffffffffffffffffffffffffffffffffffffff1681565b60025481565b600960205281600052604060002081815481101515610e2657fe5b90600052602060002001600091509150505481565b6060600960003373ffffffffffffffffffffffffffffffffffffffff1673ffffffffffffffffffffffffffffffffffffffff168152602001908152602001600020805480602002602001604051908101604052809291908181526020018280548015610ec657602002820191906000526020600020905b815481526020019060010190808311610eb2575b5050505050905090565b6000600b60009054906101000a900473ffffffffffffffffffffffffffffffffffffffff1673ffffffffffffffffffffffffffffffffffffffff16600a60009054906101000a900473ffffffffffffffffffffffffffffffffffffffff1673ffffffffffffffffffffffffffffffffffffffff161415610f535760019050611053565b600554600a60009054906101000a900473ffffffffffffffffffffffffffffffffffffffff1673ffffffffffffffffffffffffffffffffffffffff166370a08231846040518263ffffffff167c0100000000000000000000000000000000000000000000000000000000028152600401808273ffffffffffffffffffffffffffffffffffffffff1673ffffffffffffffffffffffffffffffffffffffff168152602001915050602060405180830381600087803b15801561101357600080fd5b505af1158015611027573d6000803e3d6000fd5b505050506040513d602081101561103d57600080fd5b8101908080519060200190929190505050101590505b919050565b60075481565b6060600e60003373ffffffffffffffffffffffffffffffffffffffff1673ffffffffffffffffffffffffffffffffffffffff1681526020019081526020016000208054806020026020016040519081016040528092919081815260200182805480156110e957602002820191906000526020600020905b8154815260200190600101908083116110d5575b5050505050905090565b60055481565b60035481565b60086020528060005260406000206000915090508060000160009054906101000a900473ffffffffffffffffffffffffffffffffffffffff16908060010160009054906101000a900473ffffffffffffffffffffffffffffffffffffffff16908060020154908060030154908060040160009054906101000a900460ff16908060050154908060060160009054906101000a900460ff1690806007015490806008015490806009015490508a565b60015481565b6000806000806000806008600088815260200190815260200160002060010160009054906101000a900473ffffffffffffffffffffffffffffffffffffffff166008600089815260200190815260200160002060020154600860008a815260200190815260200160002060030154600860008b815260200190815260200160002060040160009054906101000a900460ff16600860008c815260200190815260200160002060050154600860008d815260200190815260200160002060060160009054906101000a900460ff1695509550955095509550955091939550919395565b60008060075483101515611311576040517f08c379a000000000000000000000000000000000000000000000000000000000815260040180806020018281038252600d8152602001807f57726f6e6720706f6f6c2069640000000000000000000000000000000000000081525060200191505060405180910390fd5b6008600084815260200190815260200160002060040160009054906101000a900460ff1615156113a9576040517f08c379a00000000000000000000000000000000000000000000000000000000081526004018080602001828103825260138152602001807f506f6f6c206973206e6f7420666f72204554480000000000000000000000000081525060200191505060405180910390fd5b600034111515611421576040517f08c379a00000000000000000000000000000000000000000000000000000000081526004018080602001828103825260128152602001807f73656e642045544820746f20696e76657374000000000000000000000000000081525060200191505060405180910390fd5b60c0604051908101604052808481526020013373ffffffffffffffffffffffffffffffffffffffff16815260200134815260200161145e33610ed0565b151581526020016000815260200142815250600d6000600c5481526020019081526020016000206000820151816000015560208201518160010160006101000a81548173ffffffffffffffffffffffffffffffffffffffff021916908373ffffffffffffffffffffffffffffffffffffffff1602179055506040820151816002015560608201518160030160006101000a81548160ff0219169083151502179055506080820151816004015560a08201518160050155905050600e60003373ffffffffffffffffffffffffffffffffffffffff1673ffffffffffffffffffffffffffffffffffffffff168152602001908152602001600020600c549080600181540180825580915050906001820390600052602060002001600090919290919091505550600c60008154809291906001019190505550612710600454620f4240036008600086815260200190815260200160002060030154028115156115c057fe5b04348115156115cb57fe5b0491506008600084815260200190815260200160002060030154348115156115ef57fe5b049050600060048111156115ff57fe5b61160884610732565b600481111561161357fe5b148015611625575061162433610ed0565b5b8015611647575060086000848152602001908152602001600020600701548211155b1561186c578160086000858152602001908152602001600020600701600082825403925050819055506008600084815260200190815260200160002060060160009054906101000a900460ff16156116be5781600d60006001600c54038152602001908152602001600020600401819055506117d4565b6008600084815260200190815260200160002060000160009054906101000a900473ffffffffffffffffffffffffffffffffffffffff1673ffffffffffffffffffffffffffffffffffffffff1663a9059cbb33846040518363ffffffff167c0100000000000000000000000000000000000000000000000000000000028152600401808373ffffffffffffffffffffffffffffffffffffffff1673ffffffffffffffffffffffffffffffffffffffff16815260200182815260200192505050602060405180830381600087803b15801561179757600080fd5b505af11580156117ab573d6000803e3d6000fd5b505050506040513d60208110156117c157600080fd5b8101908080519060200190929190505050505b6008600084815260200190815260200160002060010160009054906101000a900473ffffffffffffffffffffffffffffffffffffffff1673ffffffffffffffffffffffffffffffffffffffff166108fc612710600254620f424003340281151561183a57fe5b049081150290604051600060405180830381858888f19350505050158015611866573d6000803e3d6000fd5b50611b43565b6001600481111561187957fe5b61188284610732565b600481111561188d57fe5b1480156118b0575060086000848152602001908152602001600020600701548111155b15611ad5578060086000858152602001908152602001600020600701600082825403925050819055506008600084815260200190815260200160002060060160009054906101000a900460ff16156119275780600d60006001600c5403815260200190815260200160002060040181905550611a3d565b6008600084815260200190815260200160002060000160009054906101000a900473ffffffffffffffffffffffffffffffffffffffff1673ffffffffffffffffffffffffffffffffffffffff1663a9059cbb33836040518363ffffffff167c0100000000000000000000000000000000000000000000000000000000028152600401808373ffffffffffffffffffffffffffffffffffffffff1673ffffffffffffffffffffffffffffffffffffffff16815260200182815260200192505050602060405180830381600087803b158015611a0057600080fd5b505af1158015611a14573d6000803e3d6000fd5b505050506040513d6020811015611a2a57600080fd5b8101908080519060200190929190505050505b6008600084815260200190815260200160002060010160009054906101000a900473ffffffffffffffffffffffffffffffffffffffff1673ffffffffffffffffffffffffffffffffffffffff166108fc612710600154620f4240033402811515611aa357fe5b049081150290604051600060405180830381858888f19350505050158015611acf573d6000803e3d6000fd5b50611b43565b6040517f08c379a00000000000000000000000000000000000000000000000000000000081526004018080602001828103825260188152602001807f496e766573746d656e74206e6f7420636f6d706c69746564000000000000000081525060200191505060405180910390fd5b505050565b60045481565b600b60009054906101000a900473ffffffffffffffffffffffffffffffffffffffff1681565b6000809054906101000a900473ffffffffffffffffffffffffffffffffffffffff1681565b6000808273ffffffffffffffffffffffffffffffffffffffff166318160ddd6040518163ffffffff167c0100000000000000000000000000000000000000000000000000000000028152600401602060405180830381600087803b158015611c0057600080fd5b505af1158015611c14573d6000803e3d6000fd5b505050506040513d6020811015611c2a57600080fd5b81019080805190602001909291905050501115611c4a5760019050611c4f565b600090505b9190505600a165627a7a7230582043aaa223bd2f4a236ccc633f183f40735382044b6903b442e6c85c6e4088af770029",
  "source": "// SPDX-License-Identifier: MIT\r\npragma solidity >=0.4.22 <0.8.0;\r\n\r\nimport \"openzeppelin-solidity/contracts/token/ERC20/ERC20.sol\";\r\nimport \"openzeppelin-solidity/contracts/lifecycle/Pausable.sol\";\r\n\r\ncontract ThePoolz {\r\n    constructor() public {\r\n        Admin = msg.sender;\r\n        Fee = 20; // *10000\r\n        PozFee = 17; // *10000\r\n        PozTimer = 1000; // *10000\r\n        PozDiscount = 1200; // *10000\r\n        MinPoz = 80; // ^Token.decimals\r\n        MinDuration = 0; //need to set\r\n        poolsCount = 0; //Start with 0\r\n        //investors data\r\n        TotalInvestors = 0; // start with 0\r\n    }\r\n\r\n    //@dev allow contract to receive funds\r\n    //function() public payable {}\r\n\r\n    address public Admin; //only admin can change the global settings\r\n    //Global settings\r\n    uint256 public Fee; //the fee for the pool\r\n    uint256 public PozFee; // the fee for the first part of the pool\r\n    uint256 public PozTimer; //the timer for the first part fo the pool\r\n    uint256 public PozDiscount; // The discout the first part of the pool got\r\n    //address FeeWallet; //keep in contract //the wallet getting the fee\r\n    uint256 public MinPoz; //minimum ammount ofpoz to be part of the discount\r\n    uint256 public MinDuration; //the minimum duration of a pool, in seconds\r\n\r\n    enum PoolStatus {Created, Open, OutOfstock, Finished, Close} //the status of the pools\r\n\r\n    //ERC20 public ERC20Interface; // for transfering ERC20 tokens // save the last token\r\n\r\n    uint256 public poolsCount; // the is of the pool\r\n    struct Pool {\r\n        address Token; //the address of the erc20 toke for sale\r\n        address Creator; //the project owner\r\n        uint256 FinishTime; //Until what time the pool is active\r\n        uint256 Rate; //in Szabo for eth, in $/10000 cent/100\r\n        bool PaymentIsETH; // true- its ETH false - its dai\r\n        uint256 StartAmount; //The total amount of the tokens for sale\r\n        bool IsLocked; // true - the investors getting the tokens after the FinishTime. false - intant deal\r\n        uint256 Lefttokens; // the ammount of tokens left for sale\r\n        uint256 StartTime; // the time the pool open\r\n        uint256 OpenForAll; // The Time that all investors can invest\r\n    }\r\n\r\n    mapping(uint256 => Pool) public pools; //the id of the pool with the data\r\n    mapping(address => uint256[]) public poolsMap; //the address and all of the pools id's\r\n\r\n    //create a new pool\r\n    function CreatePool(\r\n        address _Token,\r\n        uint256 _FinishTime,\r\n        uint256 _Rate,\r\n        bool _PaymentIsETH,\r\n        uint256 _StartAmount,\r\n        bool _IsLocked\r\n    ) external {\r\n        require(IsERC20(_Token), \"Need Valid ERC20 Token\"); //check if _Token is ERC20\r\n        require(now + MinDuration <= _FinishTime, \"Need more then MinDuration\"); // check if the time is OK\r\n        require(\r\n            ERC20(_Token).allowance(msg.sender, address(this)) >= _StartAmount,\r\n            \"Must Approve the Transaction\"\r\n        );\r\n        uint256 Openforall = ((_FinishTime - block.timestamp) * PozTimer) /\r\n            10000 +\r\n            block.timestamp;\r\n        //register the pool\r\n        pools[poolsCount] = Pool(\r\n            _Token,\r\n            msg.sender,\r\n            _FinishTime,\r\n            _Rate,\r\n            _PaymentIsETH,\r\n            _StartAmount,\r\n            _IsLocked,\r\n            _StartAmount,\r\n            block.timestamp,\r\n            Openforall\r\n        );\r\n        poolsMap[msg.sender].push(poolsCount);\r\n        poolsCount++;\r\n        //transfer the tokens\r\n        ERC20(_Token).transferFrom(msg.sender, address(this), _StartAmount);\r\n    }\r\n\r\n    // Basic check if this is a erc20 token\r\n    function IsERC20(address _contractAddress) internal view returns (bool) {\r\n        if (ERC20(_contractAddress).totalSupply() > 0) return true;\r\n        return false;\r\n    }\r\n\r\n    //Give all the id's of the pools open by sender address\r\n    function GetMyPoolsId() public view returns (uint256[] memory) {\r\n        return poolsMap[msg.sender];\r\n    }\r\n\r\n    //give the full data of the pool, by id\r\n    function GetPoolData(uint256 _id)\r\n        public\r\n        view\r\n        returns (\r\n            address,\r\n            uint256,\r\n            uint256,\r\n            bool,\r\n            uint256,\r\n            bool\r\n        )\r\n    {\r\n        return (\r\n            //check if sender POZ Invester\r\n            pools[_id].Creator,\r\n            pools[_id].FinishTime,\r\n            pools[_id].Rate,\r\n            pools[_id].PaymentIsETH,\r\n            pools[_id].StartAmount,\r\n            pools[_id].IsLocked\r\n        );\r\n    }\r\n\r\n    //calculate the status of a pool - TODO\r\n    function GetPoolStatus(uint256 _id) public view returns (PoolStatus) {\r\n        if (pools[_id].FinishTime > now) {\r\n            //not finish\r\n            if (pools[_id].Lefttokens > 0) {\r\n                // There are more tokens to sell\r\n                if (now > pools[_id].OpenForAll) {\r\n                    return PoolStatus.Open;\r\n                }\r\n                return PoolStatus.Created;\r\n            } else {\r\n                //out of tokens\r\n                if (pools[_id].IsLocked) {\r\n                    //its looked pool\r\n                    //check if all investors got the tokens\r\n                    // if (investorssum == 0)\r\n                    //return PoolStatus.Close;\r\n                    return PoolStatus.OutOfstock;\r\n                } else {\r\n                    //not locked pool with no tokens - Close\r\n                    return PoolStatus.Close;\r\n                }\r\n            }\r\n        }\r\n        if (pools[_id].IsLocked) {\r\n            //its looked pool\r\n        } else {}\r\n    }\r\n\r\n    address public POZ_Address;\r\n    address public Dai_Address;\r\n\r\n    function IsPozInvestor(address _investor) public view returns (bool) {\r\n        if (POZ_Address == Dai_Address) return true; // for test\r\n        return (ERC20(POZ_Address).balanceOf(_investor) >= MinPoz);\r\n    }\r\n\r\n    //@dev Send in wei\r\n    function InvestETH(uint256 _PoolId) external payable   \r\n    { \r\n        require(_PoolId < poolsCount, 'Wrong pool id');\r\n        require(pools[_PoolId].PaymentIsETH,'Pool is not for ETH');\r\n        require(msg.value > 0,'send ETH to invest');\r\n        //check if Poz investor;\r\n        Investors[TotalInvestors] = Investor(\r\n            _PoolId,\r\n            msg.sender,\r\n            msg.value,\r\n            IsPozInvestor(msg.sender),\r\n            0,\r\n            now\r\n        );\r\n        InvestorsMap[msg.sender].push(TotalInvestors);\r\n        TotalInvestors++;\r\n        uint WithDiscount = msg.value/(pools[_PoolId].Rate*(100*10000-PozDiscount)/10000);\r\n        uint TokensAmount = msg.value/pools[_PoolId].Rate;\r\n        if (\r\n            GetPoolStatus(_PoolId) == PoolStatus.Created &&\r\n            IsPozInvestor(msg.sender) &&\r\n            WithDiscount <= pools[_PoolId].Lefttokens //Got The Tokens\r\n        ) {\r\n            //Only for Poz Investor, better price\r\n            pools[_PoolId].Lefttokens-= WithDiscount;\r\n            if (pools[_PoolId].IsLocked) // not locked, will transfer the tokens\r\n                Investors[TotalInvestors-1].TokensOwn = WithDiscount;\r\n            else\r\n                ERC20(pools[_PoolId].Token).transfer(msg.sender,WithDiscount);\r\n            pools[_PoolId].Creator.transfer(msg.value*(100*10000-PozFee)/10000); // send money to project owner - the fee stays on contract\r\n            return;\r\n        }\r\n        if (GetPoolStatus(_PoolId) == PoolStatus.Open &&\r\n            TokensAmount <= pools[_PoolId].Lefttokens //Got The Tokens\r\n            )  {\r\n            //all can invest, no discout price\r\n            pools[_PoolId].Lefttokens-= TokensAmount;\r\n            if (pools[_PoolId].IsLocked) // not locked, will transfer the tokens\r\n                Investors[TotalInvestors-1].TokensOwn = TokensAmount;\r\n            else\r\n                ERC20(pools[_PoolId].Token).transfer(msg.sender,TokensAmount);\r\n            pools[_PoolId].Creator.transfer(msg.value*(100*10000-Fee)/10000); // send money to project owner - the fee stays on contract\r\n            return;\r\n        }\r\n        //can't invest OutOfstock,Finished,Close // TODO - make msg\r\n        revert('Investment not complited');\r\n    }\r\n\r\n      //Give all the id's of the investment  by sender address\r\n    function GetMyInvestmentIds() public view returns (uint256[]) {\r\n        return InvestorsMap[msg.sender];\r\n    }\r\n\r\n    //Investorsr Data\r\n    uint256 TotalInvestors;\r\n    mapping(uint256 => Investor) Investors;\r\n    mapping(address => uint256[]) InvestorsMap;\r\n    struct Investor {\r\n        uint256 Poolid; //the id of the pool, he got the rate info and the token, check if looked pool\r\n        address InvestorAddress; //      \r\n        uint256 MainCoin; //the amount of the main coin invested (eth/dai), calc with rate\r\n        bool IsPozInvestor; //If the blance of the address got > MinPoz, can get discout if got early\r\n        uint TokensOwn; //the amount of Tokens the investor needto get from the contract\r\n        uint InvestTime; //the time that investment made\r\n    }\r\n} //end of ThePoolz\r\n",
  "sourcePath": "C:/Users/Administrator/Desktop/Code/Poolz/contracts/ThePoolz.sol",
  "compiler": {
    "name": "solc",
    "version": "0.4.26+commit.4563c3fc.Emscripten.clang"
  },
  "schemaVersion": "3.2.5",
  "updatedAt": "2020-09-23T07:09:29.438Z",
  "devdoc": {
    "methods": {}
  },
  "userdoc": {
    "methods": {}
  }
}